{
  "_format": "hh-sol-artifact-1",
  "contractName": "Soldiers",
  "sourceName": "contracts/Soldiers.sol",
  "abi": [
    {
      "inputs": [
        {
          "internalType": "string",
          "name": "_name",
          "type": "string"
        },
        {
          "internalType": "string",
          "name": "_symbol",
          "type": "string"
        },
        {
          "internalType": "string",
          "name": "_initBaseURI",
          "type": "string"
        },
        {
          "internalType": "address",
          "name": "_knivesLegacyAddress",
          "type": "address"
        }
      ],
      "stateMutability": "nonpayable",
      "type": "constructor"
    },
    {
      "anonymous": false,
      "inputs": [
        {
          "indexed": true,
          "internalType": "address",
          "name": "owner",
          "type": "address"
        },
        {
          "indexed": true,
          "internalType": "address",
          "name": "approved",
          "type": "address"
        },
        {
          "indexed": true,
          "internalType": "uint256",
          "name": "tokenId",
          "type": "uint256"
        }
      ],
      "name": "Approval",
      "type": "event"
    },
    {
      "anonymous": false,
      "inputs": [
        {
          "indexed": true,
          "internalType": "address",
          "name": "owner",
          "type": "address"
        },
        {
          "indexed": true,
          "internalType": "address",
          "name": "operator",
          "type": "address"
        },
        {
          "indexed": false,
          "internalType": "bool",
          "name": "approved",
          "type": "bool"
        }
      ],
      "name": "ApprovalForAll",
      "type": "event"
    },
    {
      "anonymous": false,
      "inputs": [
        {
          "indexed": true,
          "internalType": "address",
          "name": "previousOwner",
          "type": "address"
        },
        {
          "indexed": true,
          "internalType": "address",
          "name": "newOwner",
          "type": "address"
        }
      ],
      "name": "OwnershipTransferred",
      "type": "event"
    },
    {
      "anonymous": false,
      "inputs": [
        {
          "indexed": true,
          "internalType": "address",
          "name": "from",
          "type": "address"
        },
        {
          "indexed": true,
          "internalType": "address",
          "name": "to",
          "type": "address"
        },
        {
          "indexed": true,
          "internalType": "uint256",
          "name": "tokenId",
          "type": "uint256"
        }
      ],
      "name": "Transfer",
      "type": "event"
    },
    {
      "inputs": [
        {
          "internalType": "address",
          "name": "to",
          "type": "address"
        },
        {
          "internalType": "uint256",
          "name": "tokenId",
          "type": "uint256"
        }
      ],
      "name": "approve",
      "outputs": [],
      "stateMutability": "nonpayable",
      "type": "function"
    },
    {
      "inputs": [
        {
          "internalType": "address",
          "name": "owner",
          "type": "address"
        }
      ],
      "name": "balanceOf",
      "outputs": [
        {
          "internalType": "uint256",
          "name": "",
          "type": "uint256"
        }
      ],
      "stateMutability": "view",
      "type": "function"
    },
    {
      "inputs": [],
      "name": "baseExtension",
      "outputs": [
        {
          "internalType": "string",
          "name": "",
          "type": "string"
        }
      ],
      "stateMutability": "view",
      "type": "function"
    },
    {
      "inputs": [],
      "name": "baseURI",
      "outputs": [
        {
          "internalType": "string",
          "name": "",
          "type": "string"
        }
      ],
      "stateMutability": "view",
      "type": "function"
    },
    {
      "inputs": [
        {
          "internalType": "uint256",
          "name": "tokenId",
          "type": "uint256"
        }
      ],
      "name": "getApproved",
      "outputs": [
        {
          "internalType": "address",
          "name": "",
          "type": "address"
        }
      ],
      "stateMutability": "view",
      "type": "function"
    },
    {
      "inputs": [
        {
          "internalType": "address",
          "name": "owner",
          "type": "address"
        },
        {
          "internalType": "address",
          "name": "operator",
          "type": "address"
        }
      ],
      "name": "isApprovedForAll",
      "outputs": [
        {
          "internalType": "bool",
          "name": "",
          "type": "bool"
        }
      ],
      "stateMutability": "view",
      "type": "function"
    },
    {
      "inputs": [],
      "name": "maxSupply",
      "outputs": [
        {
          "internalType": "uint256",
          "name": "",
          "type": "uint256"
        }
      ],
      "stateMutability": "view",
      "type": "function"
    },
    {
      "inputs": [
        {
          "internalType": "uint256",
          "name": "_knifeId",
          "type": "uint256"
        }
      ],
      "name": "mintSoldier",
      "outputs": [],
      "stateMutability": "nonpayable",
      "type": "function"
    },
    {
      "inputs": [
        {
          "internalType": "uint256",
          "name": "",
          "type": "uint256"
        }
      ],
      "name": "minted",
      "outputs": [
        {
          "internalType": "bool",
          "name": "",
          "type": "bool"
        }
      ],
      "stateMutability": "view",
      "type": "function"
    },
    {
      "inputs": [
        {
          "internalType": "uint256",
          "name": "",
          "type": "uint256"
        }
      ],
      "name": "minters",
      "outputs": [
        {
          "internalType": "address",
          "name": "",
          "type": "address"
        }
      ],
      "stateMutability": "view",
      "type": "function"
    },
    {
      "inputs": [],
      "name": "name",
      "outputs": [
        {
          "internalType": "string",
          "name": "",
          "type": "string"
        }
      ],
      "stateMutability": "view",
      "type": "function"
    },
    {
      "inputs": [],
      "name": "owner",
      "outputs": [
        {
          "internalType": "address",
          "name": "",
          "type": "address"
        }
      ],
      "stateMutability": "view",
      "type": "function"
    },
    {
      "inputs": [
        {
          "internalType": "uint256",
          "name": "tokenId",
          "type": "uint256"
        }
      ],
      "name": "ownerOf",
      "outputs": [
        {
          "internalType": "address",
          "name": "",
          "type": "address"
        }
      ],
      "stateMutability": "view",
      "type": "function"
    },
    {
      "inputs": [
        {
          "internalType": "bool",
          "name": "_state",
          "type": "bool"
        }
      ],
      "name": "pause",
      "outputs": [],
      "stateMutability": "nonpayable",
      "type": "function"
    },
    {
      "inputs": [],
      "name": "paused",
      "outputs": [
        {
          "internalType": "bool",
          "name": "",
          "type": "bool"
        }
      ],
      "stateMutability": "view",
      "type": "function"
    },
    {
      "inputs": [],
      "name": "renounceOwnership",
      "outputs": [],
      "stateMutability": "nonpayable",
      "type": "function"
    },
    {
      "inputs": [],
      "name": "royaltyContract",
      "outputs": [
        {
          "internalType": "address payable",
          "name": "",
          "type": "address"
        }
      ],
      "stateMutability": "view",
      "type": "function"
    },
    {
      "inputs": [
        {
          "internalType": "uint256",
          "name": "tokenId",
          "type": "uint256"
        },
        {
          "internalType": "uint256",
          "name": "value",
          "type": "uint256"
        }
      ],
      "name": "royaltyInfo",
      "outputs": [
        {
          "internalType": "address",
          "name": "receiver",
          "type": "address"
        },
        {
          "internalType": "uint256",
          "name": "royaltyAmount",
          "type": "uint256"
        }
      ],
      "stateMutability": "view",
      "type": "function"
    },
    {
      "inputs": [],
      "name": "royaltyValue",
      "outputs": [
        {
          "internalType": "uint256",
          "name": "",
          "type": "uint256"
        }
      ],
      "stateMutability": "view",
      "type": "function"
    },
    {
      "inputs": [
        {
          "internalType": "address",
          "name": "from",
          "type": "address"
        },
        {
          "internalType": "address",
          "name": "to",
          "type": "address"
        },
        {
          "internalType": "uint256",
          "name": "tokenId",
          "type": "uint256"
        }
      ],
      "name": "safeTransferFrom",
      "outputs": [],
      "stateMutability": "nonpayable",
      "type": "function"
    },
    {
      "inputs": [
        {
          "internalType": "address",
          "name": "from",
          "type": "address"
        },
        {
          "internalType": "address",
          "name": "to",
          "type": "address"
        },
        {
          "internalType": "uint256",
          "name": "tokenId",
          "type": "uint256"
        },
        {
          "internalType": "bytes",
          "name": "_data",
          "type": "bytes"
        }
      ],
      "name": "safeTransferFrom",
      "outputs": [],
      "stateMutability": "nonpayable",
      "type": "function"
    },
    {
      "inputs": [
        {
          "internalType": "address",
          "name": "operator",
          "type": "address"
        },
        {
          "internalType": "bool",
          "name": "approved",
          "type": "bool"
        }
      ],
      "name": "setApprovalForAll",
      "outputs": [],
      "stateMutability": "nonpayable",
      "type": "function"
    },
    {
      "inputs": [
        {
          "internalType": "string",
          "name": "_newBaseExtension",
          "type": "string"
        }
      ],
      "name": "setBaseExtension",
      "outputs": [],
      "stateMutability": "nonpayable",
      "type": "function"
    },
    {
      "inputs": [
        {
          "internalType": "string",
          "name": "_newBaseURI",
          "type": "string"
        }
      ],
      "name": "setBaseURI",
      "outputs": [],
      "stateMutability": "nonpayable",
      "type": "function"
    },
    {
      "inputs": [
        {
          "internalType": "address",
          "name": "_knivesLegacyAddress",
          "type": "address"
        }
      ],
      "name": "setKnivesLegacy",
      "outputs": [],
      "stateMutability": "nonpayable",
      "type": "function"
    },
    {
      "inputs": [
        {
          "internalType": "uint256",
          "name": "_maxSupply",
          "type": "uint256"
        }
      ],
      "name": "setMaxSupply",
      "outputs": [],
      "stateMutability": "nonpayable",
      "type": "function"
    },
    {
      "inputs": [
        {
          "internalType": "address",
          "name": "_royaltyContract",
          "type": "address"
        }
      ],
      "name": "setRoyaltyContract",
      "outputs": [],
      "stateMutability": "nonpayable",
      "type": "function"
    },
    {
      "inputs": [
        {
          "internalType": "uint256",
          "name": "_royaltyValue",
          "type": "uint256"
        }
      ],
      "name": "setRoyaltyValue",
      "outputs": [],
      "stateMutability": "nonpayable",
      "type": "function"
    },
    {
      "inputs": [
        {
          "internalType": "bytes4",
          "name": "interfaceId",
          "type": "bytes4"
        }
      ],
      "name": "supportsInterface",
      "outputs": [
        {
          "internalType": "bool",
          "name": "",
          "type": "bool"
        }
      ],
      "stateMutability": "view",
      "type": "function"
    },
    {
      "inputs": [],
      "name": "symbol",
      "outputs": [
        {
          "internalType": "string",
          "name": "",
          "type": "string"
        }
      ],
      "stateMutability": "view",
      "type": "function"
    },
    {
      "inputs": [
        {
          "internalType": "uint256",
          "name": "index",
          "type": "uint256"
        }
      ],
      "name": "tokenByIndex",
      "outputs": [
        {
          "internalType": "uint256",
          "name": "",
          "type": "uint256"
        }
      ],
      "stateMutability": "view",
      "type": "function"
    },
    {
      "inputs": [
        {
          "internalType": "address",
          "name": "owner",
          "type": "address"
        },
        {
          "internalType": "uint256",
          "name": "index",
          "type": "uint256"
        }
      ],
      "name": "tokenOfOwnerByIndex",
      "outputs": [
        {
          "internalType": "uint256",
          "name": "",
          "type": "uint256"
        }
      ],
      "stateMutability": "view",
      "type": "function"
    },
    {
      "inputs": [
        {
          "internalType": "uint256",
          "name": "tokenId",
          "type": "uint256"
        }
      ],
      "name": "tokenURI",
      "outputs": [
        {
          "internalType": "string",
          "name": "",
          "type": "string"
        }
      ],
      "stateMutability": "view",
      "type": "function"
    },
    {
      "inputs": [],
      "name": "totalSupply",
      "outputs": [
        {
          "internalType": "uint256",
          "name": "",
          "type": "uint256"
        }
      ],
      "stateMutability": "view",
      "type": "function"
    },
    {
      "inputs": [
        {
          "internalType": "address",
          "name": "from",
          "type": "address"
        },
        {
          "internalType": "address",
          "name": "to",
          "type": "address"
        },
        {
          "internalType": "uint256",
          "name": "tokenId",
          "type": "uint256"
        }
      ],
      "name": "transferFrom",
      "outputs": [],
      "stateMutability": "nonpayable",
      "type": "function"
    },
    {
      "inputs": [
        {
          "internalType": "address",
          "name": "newOwner",
          "type": "address"
        }
      ],
      "name": "transferOwnership",
      "outputs": [],
      "stateMutability": "nonpayable",
      "type": "function"
    },
    {
      "inputs": [],
      "name": "walletOfOwner",
      "outputs": [
        {
          "internalType": "uint256[]",
          "name": "",
          "type": "uint256[]"
        }
      ],
      "stateMutability": "view",
      "type": "function"
    },
    {
      "inputs": [
        {
          "internalType": "address",
          "name": "_sender",
          "type": "address"
        }
      ],
      "name": "walletOfSender",
      "outputs": [
        {
          "internalType": "uint256[]",
          "name": "",
          "type": "uint256[]"
        }
      ],
      "stateMutability": "view",
      "type": "function"
    }
  ],
  "bytecode": "0x60806040526040518060400160405280600581526020017f2e6a736f6e000000000000000000000000000000000000000000000000000000815250600c9080519060200190620000519291906200039e565b5061115c600d556000600f60006101000a81548160ff0219169083151502179055503480156200008057600080fd5b50604051620050b1380380620050b18339818101604052810190620000a69190620004d7565b83838160009080519060200190620000c09291906200039e565b508060019080519060200190620000d99291906200039e565b505050620000fc620000f06200012860201b60201c565b6200013060201b60201c565b6200010d82620001f660201b60201c565b6200011e81620002a160201b60201c565b50505050620007cf565b600033905090565b6000600a60009054906101000a900473ffffffffffffffffffffffffffffffffffffffff16905081600a60006101000a81548173ffffffffffffffffffffffffffffffffffffffff021916908373ffffffffffffffffffffffffffffffffffffffff1602179055508173ffffffffffffffffffffffffffffffffffffffff168173ffffffffffffffffffffffffffffffffffffffff167f8be0079c531659141344cd1fd0a4f28419497f9722a3daafe3b4186f6b6457e060405160405180910390a35050565b620002066200012860201b60201c565b73ffffffffffffffffffffffffffffffffffffffff166200022c6200037460201b60201c565b73ffffffffffffffffffffffffffffffffffffffff161462000285576040517f08c379a00000000000000000000000000000000000000000000000000000000081526004016200027c90620005b5565b60405180910390fd5b80600b90805190602001906200029d9291906200039e565b5050565b620002b16200012860201b60201c565b73ffffffffffffffffffffffffffffffffffffffff16620002d76200037460201b60201c565b73ffffffffffffffffffffffffffffffffffffffff161462000330576040517f08c379a00000000000000000000000000000000000000000000000000000000081526004016200032790620005b5565b60405180910390fd5b80601060006101000a81548173ffffffffffffffffffffffffffffffffffffffff021916908373ffffffffffffffffffffffffffffffffffffffff16021790555050565b6000600a60009054906101000a900473ffffffffffffffffffffffffffffffffffffffff16905090565b828054620003ac90620006b1565b90600052602060002090601f016020900481019282620003d057600085556200041c565b82601f10620003eb57805160ff19168380011785556200041c565b828001600101855582156200041c579182015b828111156200041b578251825591602001919060010190620003fe565b5b5090506200042b91906200042f565b5090565b5b808211156200044a57600081600090555060010162000430565b5090565b6000620004656200045f8462000600565b620005d7565b9050828152602081018484840111156200047e57600080fd5b6200048b8482856200067b565b509392505050565b600081519050620004a481620007b5565b92915050565b600082601f830112620004bc57600080fd5b8151620004ce8482602086016200044e565b91505092915050565b60008060008060808587031215620004ee57600080fd5b600085015167ffffffffffffffff8111156200050957600080fd5b6200051787828801620004aa565b945050602085015167ffffffffffffffff8111156200053557600080fd5b6200054387828801620004aa565b935050604085015167ffffffffffffffff8111156200056157600080fd5b6200056f87828801620004aa565b9250506060620005828782880162000493565b91505092959194509250565b60006200059d60208362000636565b9150620005aa826200078c565b602082019050919050565b60006020820190508181036000830152620005d0816200058e565b9050919050565b6000620005e3620005f6565b9050620005f18282620006e7565b919050565b6000604051905090565b600067ffffffffffffffff8211156200061e576200061d6200074c565b5b62000629826200077b565b9050602081019050919050565b600082825260208201905092915050565b600062000654826200065b565b9050919050565b600073ffffffffffffffffffffffffffffffffffffffff82169050919050565b60005b838110156200069b5780820151818401526020810190506200067e565b83811115620006ab576000848401525b50505050565b60006002820490506001821680620006ca57607f821691505b60208210811415620006e157620006e06200071d565b5b50919050565b620006f2826200077b565b810181811067ffffffffffffffff821117156200071457620007136200074c565b5b80604052505050565b7f4e487b7100000000000000000000000000000000000000000000000000000000600052602260045260246000fd5b7f4e487b7100000000000000000000000000000000000000000000000000000000600052604160045260246000fd5b6000601f19601f8301169050919050565b7f4f776e61626c653a2063616c6c6572206973206e6f7420746865206f776e6572600082015250565b620007c08162000647565b8114620007cc57600080fd5b50565b6148d280620007df6000396000f3fe608060405234801561001057600080fd5b50600436106102325760003560e01c80636f8b44b011610130578063b88d4fde116100b8578063da3ef23f1161007c578063da3ef23f146106b4578063de181204146106d0578063e985e9c5146106ec578063f2fde38b1461071c578063f867a1b71461073857610232565b8063b88d4fde14610610578063c66828621461062c578063c87b56dd1461064a578063d5abeb011461067a578063d9aa187c1461069857610232565b806380ea268c116100ff57806380ea268c146105585780638623ec7b146105885780638da5cb5b146105b857806395d89b41146105d6578063a22cb465146105f457610232565b80636f8b44b0146104d257806370a08231146104ee578063715018a61461051e5780637dc0bf3f1461052857610232565b80632f745c59116101be5780635c975abb116101825780635c975abb1461042c5780635fc205881461044a5780636352211e146104685780636881a077146104985780636c0360eb146104b457610232565b80632f745c591461037657806336fdefd4146103a657806342842e0e146103c45780634f6ccce7146103e057806355f804b31461041057610232565b8063095ea7b311610205578063095ea7b3146102d15780631663ee03146102ed57806318160ddd1461030b57806323b872dd146103295780632a55205a1461034557610232565b806301ffc9a71461023757806302329a291461026757806306fdde0314610283578063081812fc146102a1575b600080fd5b610251600480360381019061024c91906133ee565b610754565b60405161025e9190613ac9565b60405180910390f35b610281600480360381019061027c91906133c5565b6107ce565b005b61028b610867565b6040516102989190613ae4565b60405180910390f35b6102bb60048036038101906102b69190613481565b6108f9565b6040516102c891906139fc565b60405180910390f35b6102eb60048036038101906102e69190613389565b61097e565b005b6102f5610a96565b6040516103029190613a17565b60405180910390f35b610313610abc565b6040516103209190613dc6565b60405180910390f35b610343600480360381019061033e9190613283565b610ac9565b005b61035f600480360381019061035a91906134aa565b610b29565b60405161036d929190613a7e565b60405180910390f35b610390600480360381019061038b9190613389565b610b75565b60405161039d9190613dc6565b60405180910390f35b6103ae610c1a565b6040516103bb9190613aa7565b60405180910390f35b6103de60048036038101906103d99190613283565b610d12565b005b6103fa60048036038101906103f59190613481565b610d32565b6040516104079190613dc6565b60405180910390f35b61042a60048036038101906104259190613440565b610dc9565b005b610434610e5f565b6040516104419190613ac9565b60405180910390f35b610452610e72565b60405161045f9190613dc6565b60405180910390f35b610482600480360381019061047d9190613481565b610e78565b60405161048f91906139fc565b60405180910390f35b6104b260048036038101906104ad9190613481565b610f2a565b005b6104bc610fb0565b6040516104c99190613ae4565b60405180910390f35b6104ec60048036038101906104e79190613481565b61103e565b005b610508600480360381019061050391906131f5565b6110c4565b6040516105159190613dc6565b60405180910390f35b61052661117c565b005b610542600480360381019061053d9190613481565b611204565b60405161054f9190613ac9565b60405180910390f35b610572600480360381019061056d91906131f5565b611224565b60405161057f9190613aa7565b60405180910390f35b6105a2600480360381019061059d9190613481565b61131e565b6040516105af91906139fc565b60405180910390f35b6105c0611351565b6040516105cd91906139fc565b60405180910390f35b6105de61137b565b6040516105eb9190613ae4565b60405180910390f35b61060e6004803603810190610609919061334d565b61140d565b005b61062a600480360381019061062591906132d2565b61158e565b005b6106346115f0565b6040516106419190613ae4565b60405180910390f35b610664600480360381019061065f9190613481565b61167e565b6040516106719190613ae4565b60405180910390f35b610682611728565b60405161068f9190613dc6565b60405180910390f35b6106b260048036038101906106ad91906131f5565b61172e565b005b6106ce60048036038101906106c99190613440565b6117ee565b005b6106ea60048036038101906106e59190613481565b611884565b005b61070660048036038101906107019190613247565b611a60565b6040516107139190613ac9565b60405180910390f35b610736600480360381019061073191906131f5565b611af4565b005b610752600480360381019061074d91906131f5565b611bec565b005b60007f780e9d63000000000000000000000000000000000000000000000000000000007bffffffffffffffffffffffffffffffffffffffffffffffffffffffff1916827bffffffffffffffffffffffffffffffffffffffffffffffffffffffff191614806107c757506107c682611cac565b5b9050919050565b6107d6611d8e565b73ffffffffffffffffffffffffffffffffffffffff166107f4611351565b73ffffffffffffffffffffffffffffffffffffffff161461084a576040517f08c379a000000000000000000000000000000000000000000000000000000000815260040161084190613cc6565b60405180910390fd5b80600f60006101000a81548160ff02191690831515021790555050565b606060008054610876906140d6565b80601f01602080910402602001604051908101604052809291908181526020018280546108a2906140d6565b80156108ef5780601f106108c4576101008083540402835291602001916108ef565b820191906000526020600020905b8154815290600101906020018083116108d257829003601f168201915b5050505050905090565b600061090482611d96565b610943576040517f08c379a000000000000000000000000000000000000000000000000000000000815260040161093a90613ca6565b60405180910390fd5b6004600083815260200190815260200160002060009054906101000a900473ffffffffffffffffffffffffffffffffffffffff169050919050565b600061098982610e78565b90508073ffffffffffffffffffffffffffffffffffffffff168373ffffffffffffffffffffffffffffffffffffffff1614156109fa576040517f08c379a00000000000000000000000000000000000000000000000000000000081526004016109f190613d26565b60405180910390fd5b8073ffffffffffffffffffffffffffffffffffffffff16610a19611d8e565b73ffffffffffffffffffffffffffffffffffffffff161480610a485750610a4781610a42611d8e565b611a60565b5b610a87576040517f08c379a0000000000000000000000000000000000000000000000000000000008152600401610a7e90613c06565b60405180910390fd5b610a918383611e02565b505050565b600f60019054906101000a900473ffffffffffffffffffffffffffffffffffffffff1681565b6000600880549050905090565b610ada610ad4611d8e565b82611ebb565b610b19576040517f08c379a0000000000000000000000000000000000000000000000000000000008152600401610b1090613d66565b60405180910390fd5b610b24838383611f99565b505050565b600080600f60019054906101000a900473ffffffffffffffffffffffffffffffffffffffff16612710600e5485610b609190613f80565b610b6a9190613f4f565b915091509250929050565b6000610b80836110c4565b8210610bc1576040517f08c379a0000000000000000000000000000000000000000000000000000000008152600401610bb890613b26565b60405180910390fd5b600660008473ffffffffffffffffffffffffffffffffffffffff1673ffffffffffffffffffffffffffffffffffffffff168152602001908152602001600020600083815260200190815260200160002054905092915050565b60606000610c27336110c4565b905060008167ffffffffffffffff811115610c6b577f4e487b7100000000000000000000000000000000000000000000000000000000600052604160045260246000fd5b604051908082528060200260200182016040528015610c995781602001602082028036833780820191505090505b50905060005b82811015610d0957610cb13382610b75565b828281518110610cea577f4e487b7100000000000000000000000000000000000000000000000000000000600052603260045260246000fd5b6020026020010181815250508080610d0190614139565b915050610c9f565b50809250505090565b610d2d8383836040518060200160405280600081525061158e565b505050565b6000610d3c610abc565b8210610d7d576040517f08c379a0000000000000000000000000000000000000000000000000000000008152600401610d7490613d86565b60405180910390fd5b60088281548110610db7577f4e487b7100000000000000000000000000000000000000000000000000000000600052603260045260246000fd5b90600052602060002001549050919050565b610dd1611d8e565b73ffffffffffffffffffffffffffffffffffffffff16610def611351565b73ffffffffffffffffffffffffffffffffffffffff1614610e45576040517f08c379a0000000000000000000000000000000000000000000000000000000008152600401610e3c90613cc6565b60405180910390fd5b80600b9080519060200190610e5b929190613004565b5050565b600f60009054906101000a900460ff1681565b600e5481565b6000806002600084815260200190815260200160002060009054906101000a900473ffffffffffffffffffffffffffffffffffffffff169050600073ffffffffffffffffffffffffffffffffffffffff168173ffffffffffffffffffffffffffffffffffffffff161415610f21576040517f08c379a0000000000000000000000000000000000000000000000000000000008152600401610f1890613c46565b60405180910390fd5b80915050919050565b610f32611d8e565b73ffffffffffffffffffffffffffffffffffffffff16610f50611351565b73ffffffffffffffffffffffffffffffffffffffff1614610fa6576040517f08c379a0000000000000000000000000000000000000000000000000000000008152600401610f9d90613cc6565b60405180910390fd5b80600e8190555050565b600b8054610fbd906140d6565b80601f0160208091040260200160405190810160405280929190818152602001828054610fe9906140d6565b80156110365780601f1061100b57610100808354040283529160200191611036565b820191906000526020600020905b81548152906001019060200180831161101957829003601f168201915b505050505081565b611046611d8e565b73ffffffffffffffffffffffffffffffffffffffff16611064611351565b73ffffffffffffffffffffffffffffffffffffffff16146110ba576040517f08c379a00000000000000000000000000000000000000000000000000000000081526004016110b190613cc6565b60405180910390fd5b80600d8190555050565b60008073ffffffffffffffffffffffffffffffffffffffff168273ffffffffffffffffffffffffffffffffffffffff161415611135576040517f08c379a000000000000000000000000000000000000000000000000000000000815260040161112c90613c26565b60405180910390fd5b600360008373ffffffffffffffffffffffffffffffffffffffff1673ffffffffffffffffffffffffffffffffffffffff168152602001908152602001600020549050919050565b611184611d8e565b73ffffffffffffffffffffffffffffffffffffffff166111a2611351565b73ffffffffffffffffffffffffffffffffffffffff16146111f8576040517f08c379a00000000000000000000000000000000000000000000000000000000081526004016111ef90613cc6565b60405180910390fd5b61120260006121f5565b565b60116020528060005260406000206000915054906101000a900460ff1681565b60606000611231836110c4565b905060008167ffffffffffffffff811115611275577f4e487b7100000000000000000000000000000000000000000000000000000000600052604160045260246000fd5b6040519080825280602002602001820160405280156112a35781602001602082028036833780820191505090505b50905060005b82811015611313576112bb8582610b75565b8282815181106112f4577f4e487b7100000000000000000000000000000000000000000000000000000000600052603260045260246000fd5b602002602001018181525050808061130b90614139565b9150506112a9565b508092505050919050565b60126020528060005260406000206000915054906101000a900473ffffffffffffffffffffffffffffffffffffffff1681565b6000600a60009054906101000a900473ffffffffffffffffffffffffffffffffffffffff16905090565b60606001805461138a906140d6565b80601f01602080910402602001604051908101604052809291908181526020018280546113b6906140d6565b80156114035780601f106113d857610100808354040283529160200191611403565b820191906000526020600020905b8154815290600101906020018083116113e657829003601f168201915b5050505050905090565b611415611d8e565b73ffffffffffffffffffffffffffffffffffffffff168273ffffffffffffffffffffffffffffffffffffffff161415611483576040517f08c379a000000000000000000000000000000000000000000000000000000000815260040161147a90613bc6565b60405180910390fd5b8060056000611490611d8e565b73ffffffffffffffffffffffffffffffffffffffff1673ffffffffffffffffffffffffffffffffffffffff16815260200190815260200160002060008473ffffffffffffffffffffffffffffffffffffffff1673ffffffffffffffffffffffffffffffffffffffff16815260200190815260200160002060006101000a81548160ff0219169083151502179055508173ffffffffffffffffffffffffffffffffffffffff1661153d611d8e565b73ffffffffffffffffffffffffffffffffffffffff167f17307eab39ab6107e8899845ad3d59bd9653f200f220920489ca2b5937696c31836040516115829190613ac9565b60405180910390a35050565b61159f611599611d8e565b83611ebb565b6115de576040517f08c379a00000000000000000000000000000000000000000000000000000000081526004016115d590613d66565b60405180910390fd5b6115ea848484846122bb565b50505050565b600c80546115fd906140d6565b80601f0160208091040260200160405190810160405280929190818152602001828054611629906140d6565b80156116765780601f1061164b57610100808354040283529160200191611676565b820191906000526020600020905b81548152906001019060200180831161165957829003601f168201915b505050505081565b606061168982611d96565b6116c8576040517f08c379a00000000000000000000000000000000000000000000000000000000081526004016116bf90613d06565b60405180910390fd5b60006116d2612317565b905060008151116116f25760405180602001604052806000815250611720565b806116fc846123a9565b600c604051602001611710939291906139cb565b6040516020818303038152906040525b915050919050565b600d5481565b611736611d8e565b73ffffffffffffffffffffffffffffffffffffffff16611754611351565b73ffffffffffffffffffffffffffffffffffffffff16146117aa576040517f08c379a00000000000000000000000000000000000000000000000000000000081526004016117a190613cc6565b60405180910390fd5b80600f60016101000a81548173ffffffffffffffffffffffffffffffffffffffff021916908373ffffffffffffffffffffffffffffffffffffffff16021790555050565b6117f6611d8e565b73ffffffffffffffffffffffffffffffffffffffff16611814611351565b73ffffffffffffffffffffffffffffffffffffffff161461186a576040517f08c379a000000000000000000000000000000000000000000000000000000000815260040161186190613cc6565b60405180910390fd5b80600c9080519060200190611880929190613004565b5050565b600f60009054906101000a900460ff16156118d4576040517f08c379a00000000000000000000000000000000000000000000000000000000081526004016118cb90613b06565b60405180910390fd5b6118dd81612556565b61191c576040517f08c379a000000000000000000000000000000000000000000000000000000000815260040161191390613d46565b60405180910390fd5b6011600082815260200190815260200160002060009054906101000a900460ff161561197d576040517f08c379a000000000000000000000000000000000000000000000000000000000815260040161197490613c66565b60405180910390fd5b600d54600161198a610abc565b6119949190613ef9565b11156119d5576040517f08c379a00000000000000000000000000000000000000000000000000000000081526004016119cc90613da6565b60405180910390fd5b6119df3382612718565b60016011600083815260200190815260200160002060006101000a81548160ff021916908315150217905550336012600083815260200190815260200160002060006101000a81548173ffffffffffffffffffffffffffffffffffffffff021916908373ffffffffffffffffffffffffffffffffffffffff16021790555050565b6000600560008473ffffffffffffffffffffffffffffffffffffffff1673ffffffffffffffffffffffffffffffffffffffff16815260200190815260200160002060008373ffffffffffffffffffffffffffffffffffffffff1673ffffffffffffffffffffffffffffffffffffffff16815260200190815260200160002060009054906101000a900460ff16905092915050565b611afc611d8e565b73ffffffffffffffffffffffffffffffffffffffff16611b1a611351565b73ffffffffffffffffffffffffffffffffffffffff1614611b70576040517f08c379a0000000000000000000000000000000000000000000000000000000008152600401611b6790613cc6565b60405180910390fd5b600073ffffffffffffffffffffffffffffffffffffffff168173ffffffffffffffffffffffffffffffffffffffff161415611be0576040517f08c379a0000000000000000000000000000000000000000000000000000000008152600401611bd790613b66565b60405180910390fd5b611be9816121f5565b50565b611bf4611d8e565b73ffffffffffffffffffffffffffffffffffffffff16611c12611351565b73ffffffffffffffffffffffffffffffffffffffff1614611c68576040517f08c379a0000000000000000000000000000000000000000000000000000000008152600401611c5f90613cc6565b60405180910390fd5b80601060006101000a81548173ffffffffffffffffffffffffffffffffffffffff021916908373ffffffffffffffffffffffffffffffffffffffff16021790555050565b60007f80ac58cd000000000000000000000000000000000000000000000000000000007bffffffffffffffffffffffffffffffffffffffffffffffffffffffff1916827bffffffffffffffffffffffffffffffffffffffffffffffffffffffff19161480611d7757507f5b5e139f000000000000000000000000000000000000000000000000000000007bffffffffffffffffffffffffffffffffffffffffffffffffffffffff1916827bffffffffffffffffffffffffffffffffffffffffffffffffffffffff1916145b80611d875750611d8682612736565b5b9050919050565b600033905090565b60008073ffffffffffffffffffffffffffffffffffffffff166002600084815260200190815260200160002060009054906101000a900473ffffffffffffffffffffffffffffffffffffffff1673ffffffffffffffffffffffffffffffffffffffff1614159050919050565b816004600083815260200190815260200160002060006101000a81548173ffffffffffffffffffffffffffffffffffffffff021916908373ffffffffffffffffffffffffffffffffffffffff160217905550808273ffffffffffffffffffffffffffffffffffffffff16611e7583610e78565b73ffffffffffffffffffffffffffffffffffffffff167f8c5be1e5ebec7d5bd14f71427d1e84f3dd0314c0f7b2291e5b200ac8c7c3b92560405160405180910390a45050565b6000611ec682611d96565b611f05576040517f08c379a0000000000000000000000000000000000000000000000000000000008152600401611efc90613be6565b60405180910390fd5b6000611f1083610e78565b90508073ffffffffffffffffffffffffffffffffffffffff168473ffffffffffffffffffffffffffffffffffffffff161480611f7f57508373ffffffffffffffffffffffffffffffffffffffff16611f67846108f9565b73ffffffffffffffffffffffffffffffffffffffff16145b80611f905750611f8f8185611a60565b5b91505092915050565b8273ffffffffffffffffffffffffffffffffffffffff16611fb982610e78565b73ffffffffffffffffffffffffffffffffffffffff161461200f576040517f08c379a000000000000000000000000000000000000000000000000000000000815260040161200690613ce6565b60405180910390fd5b600073ffffffffffffffffffffffffffffffffffffffff168273ffffffffffffffffffffffffffffffffffffffff16141561207f576040517f08c379a000000000000000000000000000000000000000000000000000000000815260040161207690613ba6565b60405180910390fd5b61208a8383836127a0565b612095600082611e02565b6001600360008573ffffffffffffffffffffffffffffffffffffffff1673ffffffffffffffffffffffffffffffffffffffff16815260200190815260200160002060008282546120e59190613fda565b925050819055506001600360008473ffffffffffffffffffffffffffffffffffffffff1673ffffffffffffffffffffffffffffffffffffffff168152602001908152602001600020600082825461213c9190613ef9565b92505081905550816002600083815260200190815260200160002060006101000a81548173ffffffffffffffffffffffffffffffffffffffff021916908373ffffffffffffffffffffffffffffffffffffffff160217905550808273ffffffffffffffffffffffffffffffffffffffff168473ffffffffffffffffffffffffffffffffffffffff167fddf252ad1be2c89b69c2b068fc378daa952ba7f163c4a11628f55a4df523b3ef60405160405180910390a4505050565b6000600a60009054906101000a900473ffffffffffffffffffffffffffffffffffffffff16905081600a60006101000a81548173ffffffffffffffffffffffffffffffffffffffff021916908373ffffffffffffffffffffffffffffffffffffffff1602179055508173ffffffffffffffffffffffffffffffffffffffff168173ffffffffffffffffffffffffffffffffffffffff167f8be0079c531659141344cd1fd0a4f28419497f9722a3daafe3b4186f6b6457e060405160405180910390a35050565b6122c6848484611f99565b6122d2848484846128b4565b612311576040517f08c379a000000000000000000000000000000000000000000000000000000000815260040161230890613b46565b60405180910390fd5b50505050565b6060600b8054612326906140d6565b80601f0160208091040260200160405190810160405280929190818152602001828054612352906140d6565b801561239f5780601f106123745761010080835404028352916020019161239f565b820191906000526020600020905b81548152906001019060200180831161238257829003601f168201915b5050505050905090565b606060008214156123f1576040518060400160405280600181526020017f30000000000000000000000000000000000000000000000000000000000000008152509050612551565b600082905060005b6000821461242357808061240c90614139565b915050600a8261241c9190613f4f565b91506123f9565b60008167ffffffffffffffff811115612465577f4e487b7100000000000000000000000000000000000000000000000000000000600052604160045260246000fd5b6040519080825280601f01601f1916602001820160405280156124975781602001600182028036833780820191505090505b5090505b6000851461254a576001826124b09190613fda565b9150600a856124bf9190614182565b60306124cb9190613ef9565b60f81b818381518110612507577f4e487b7100000000000000000000000000000000000000000000000000000000600052603260045260246000fd5b60200101907effffffffffffffffffffffffffffffffffffffffffffffffffffffffffffff1916908160001a905350600a856125439190613f4f565b945061249b565b8093505050505b919050565b60003373ffffffffffffffffffffffffffffffffffffffff16601060009054906101000a900473ffffffffffffffffffffffffffffffffffffffff1673ffffffffffffffffffffffffffffffffffffffff1663081812fc846040518263ffffffff1660e01b81526004016125ca9190613dc6565b60206040518083038186803b1580156125e257600080fd5b505afa1580156125f6573d6000803e3d6000fd5b505050506040513d601f19601f8201168201806040525081019061261a919061321e565b73ffffffffffffffffffffffffffffffffffffffff16148061271157503373ffffffffffffffffffffffffffffffffffffffff16601060009054906101000a900473ffffffffffffffffffffffffffffffffffffffff1673ffffffffffffffffffffffffffffffffffffffff16636352211e846040518263ffffffff1660e01b81526004016126a99190613dc6565b60206040518083038186803b1580156126c157600080fd5b505afa1580156126d5573d6000803e3d6000fd5b505050506040513d601f19601f820116820180604052508101906126f9919061321e565b73ffffffffffffffffffffffffffffffffffffffff16145b9050919050565b612732828260405180602001604052806000815250612a4b565b5050565b60007f01ffc9a7000000000000000000000000000000000000000000000000000000007bffffffffffffffffffffffffffffffffffffffffffffffffffffffff1916827bffffffffffffffffffffffffffffffffffffffffffffffffffffffff1916149050919050565b6127ab838383612aa6565b600073ffffffffffffffffffffffffffffffffffffffff168373ffffffffffffffffffffffffffffffffffffffff1614156127ee576127e981612aab565b61282d565b8173ffffffffffffffffffffffffffffffffffffffff168373ffffffffffffffffffffffffffffffffffffffff161461282c5761282b8382612af4565b5b5b600073ffffffffffffffffffffffffffffffffffffffff168273ffffffffffffffffffffffffffffffffffffffff1614156128705761286b81612c61565b6128af565b8273ffffffffffffffffffffffffffffffffffffffff168273ffffffffffffffffffffffffffffffffffffffff16146128ae576128ad8282612da4565b5b5b505050565b60006128d58473ffffffffffffffffffffffffffffffffffffffff16612e23565b15612a3e578373ffffffffffffffffffffffffffffffffffffffff1663150b7a026128fe611d8e565b8786866040518563ffffffff1660e01b81526004016129209493929190613a32565b602060405180830381600087803b15801561293a57600080fd5b505af192505050801561296b57506040513d601f19601f820116820180604052508101906129689190613417565b60015b6129ee573d806000811461299b576040519150601f19603f3d011682016040523d82523d6000602084013e6129a0565b606091505b506000815114156129e6576040517f08c379a00000000000000000000000000000000000000000000000000000000081526004016129dd90613b46565b60405180910390fd5b805181602001fd5b63150b7a0260e01b7bffffffffffffffffffffffffffffffffffffffffffffffffffffffff1916817bffffffffffffffffffffffffffffffffffffffffffffffffffffffff191614915050612a43565b600190505b949350505050565b612a558383612e36565b612a6260008484846128b4565b612aa1576040517f08c379a0000000000000000000000000000000000000000000000000000000008152600401612a9890613b46565b60405180910390fd5b505050565b505050565b6008805490506009600083815260200190815260200160002081905550600881908060018154018082558091505060019003906000526020600020016000909190919091505550565b60006001612b01846110c4565b612b0b9190613fda565b9050600060076000848152602001908152602001600020549050818114612bf0576000600660008673ffffffffffffffffffffffffffffffffffffffff1673ffffffffffffffffffffffffffffffffffffffff168152602001908152602001600020600084815260200190815260200160002054905080600660008773ffffffffffffffffffffffffffffffffffffffff1673ffffffffffffffffffffffffffffffffffffffff168152602001908152602001600020600084815260200190815260200160002081905550816007600083815260200190815260200160002081905550505b6007600084815260200190815260200160002060009055600660008573ffffffffffffffffffffffffffffffffffffffff1673ffffffffffffffffffffffffffffffffffffffff16815260200190815260200160002060008381526020019081526020016000206000905550505050565b60006001600880549050612c759190613fda565b9050600060096000848152602001908152602001600020549050600060088381548110612ccb577f4e487b7100000000000000000000000000000000000000000000000000000000600052603260045260246000fd5b906000526020600020015490508060088381548110612d13577f4e487b7100000000000000000000000000000000000000000000000000000000600052603260045260246000fd5b906000526020600020018190555081600960008381526020019081526020016000208190555060096000858152602001908152602001600020600090556008805480612d88577f4e487b7100000000000000000000000000000000000000000000000000000000600052603160045260246000fd5b6001900381819060005260206000200160009055905550505050565b6000612daf836110c4565b905081600660008573ffffffffffffffffffffffffffffffffffffffff1673ffffffffffffffffffffffffffffffffffffffff168152602001908152602001600020600083815260200190815260200160002081905550806007600084815260200190815260200160002081905550505050565b600080823b905060008111915050919050565b600073ffffffffffffffffffffffffffffffffffffffff168273ffffffffffffffffffffffffffffffffffffffff161415612ea6576040517f08c379a0000000000000000000000000000000000000000000000000000000008152600401612e9d90613c86565b60405180910390fd5b612eaf81611d96565b15612eef576040517f08c379a0000000000000000000000000000000000000000000000000000000008152600401612ee690613b86565b60405180910390fd5b612efb600083836127a0565b6001600360008473ffffffffffffffffffffffffffffffffffffffff1673ffffffffffffffffffffffffffffffffffffffff1681526020019081526020016000206000828254612f4b9190613ef9565b92505081905550816002600083815260200190815260200160002060006101000a81548173ffffffffffffffffffffffffffffffffffffffff021916908373ffffffffffffffffffffffffffffffffffffffff160217905550808273ffffffffffffffffffffffffffffffffffffffff16600073ffffffffffffffffffffffffffffffffffffffff167fddf252ad1be2c89b69c2b068fc378daa952ba7f163c4a11628f55a4df523b3ef60405160405180910390a45050565b828054613010906140d6565b90600052602060002090601f0160209004810192826130325760008555613079565b82601f1061304b57805160ff1916838001178555613079565b82800160010185558215613079579182015b8281111561307857825182559160200191906001019061305d565b5b509050613086919061308a565b5090565b5b808211156130a357600081600090555060010161308b565b5090565b60006130ba6130b584613e06565b613de1565b9050828152602081018484840111156130d257600080fd5b6130dd848285614094565b509392505050565b60006130f86130f384613e37565b613de1565b90508281526020810184848401111561311057600080fd5b61311b848285614094565b509392505050565b60008135905061313281614840565b92915050565b60008151905061314781614840565b92915050565b60008135905061315c81614857565b92915050565b6000813590506131718161486e565b92915050565b6000815190506131868161486e565b92915050565b600082601f83011261319d57600080fd5b81356131ad8482602086016130a7565b91505092915050565b600082601f8301126131c757600080fd5b81356131d78482602086016130e5565b91505092915050565b6000813590506131ef81614885565b92915050565b60006020828403121561320757600080fd5b600061321584828501613123565b91505092915050565b60006020828403121561323057600080fd5b600061323e84828501613138565b91505092915050565b6000806040838503121561325a57600080fd5b600061326885828601613123565b925050602061327985828601613123565b9150509250929050565b60008060006060848603121561329857600080fd5b60006132a686828701613123565b93505060206132b786828701613123565b92505060406132c8868287016131e0565b9150509250925092565b600080600080608085870312156132e857600080fd5b60006132f687828801613123565b945050602061330787828801613123565b9350506040613318878288016131e0565b925050606085013567ffffffffffffffff81111561333557600080fd5b6133418782880161318c565b91505092959194509250565b6000806040838503121561336057600080fd5b600061336e85828601613123565b925050602061337f8582860161314d565b9150509250929050565b6000806040838503121561339c57600080fd5b60006133aa85828601613123565b92505060206133bb858286016131e0565b9150509250929050565b6000602082840312156133d757600080fd5b60006133e58482850161314d565b91505092915050565b60006020828403121561340057600080fd5b600061340e84828501613162565b91505092915050565b60006020828403121561342957600080fd5b600061343784828501613177565b91505092915050565b60006020828403121561345257600080fd5b600082013567ffffffffffffffff81111561346c57600080fd5b613478848285016131b6565b91505092915050565b60006020828403121561349357600080fd5b60006134a1848285016131e0565b91505092915050565b600080604083850312156134bd57600080fd5b60006134cb858286016131e0565b92505060206134dc858286016131e0565b9150509250929050565b60006134f283836139ad565b60208301905092915050565b61350781614020565b82525050565b6135168161400e565b82525050565b600061352782613e8d565b6135318185613ebb565b935061353c83613e68565b8060005b8381101561356d57815161355488826134e6565b975061355f83613eae565b925050600181019050613540565b5085935050505092915050565b61358381614032565b82525050565b600061359482613e98565b61359e8185613ecc565b93506135ae8185602086016140a3565b6135b78161426f565b840191505092915050565b60006135cd82613ea3565b6135d78185613edd565b93506135e78185602086016140a3565b6135f08161426f565b840191505092915050565b600061360682613ea3565b6136108185613eee565b93506136208185602086016140a3565b80840191505092915050565b60008154613639816140d6565b6136438186613eee565b9450600182166000811461365e576001811461366f576136a2565b60ff198316865281860193506136a2565b61367885613e78565b60005b8381101561369a5781548189015260018201915060208101905061367b565b838801955050505b50505092915050565b60006136b8600683613edd565b91506136c382614280565b602082019050919050565b60006136db602b83613edd565b91506136e6826142a9565b604082019050919050565b60006136fe603283613edd565b9150613709826142f8565b604082019050919050565b6000613721602683613edd565b915061372c82614347565b604082019050919050565b6000613744601c83613edd565b915061374f82614396565b602082019050919050565b6000613767602483613edd565b9150613772826143bf565b604082019050919050565b600061378a601983613edd565b91506137958261440e565b602082019050919050565b60006137ad602c83613edd565b91506137b882614437565b604082019050919050565b60006137d0603883613edd565b91506137db82614486565b604082019050919050565b60006137f3602a83613edd565b91506137fe826144d5565b604082019050919050565b6000613816602983613edd565b915061382182614524565b604082019050919050565b6000613839602583613edd565b915061384482614573565b604082019050919050565b600061385c602083613edd565b9150613867826145c2565b602082019050919050565b600061387f602c83613edd565b915061388a826145eb565b604082019050919050565b60006138a2602083613edd565b91506138ad8261463a565b602082019050919050565b60006138c5602983613edd565b91506138d082614663565b604082019050919050565b60006138e8602f83613edd565b91506138f3826146b2565b604082019050919050565b600061390b602183613edd565b915061391682614701565b604082019050919050565b600061392e600a83613edd565b915061393982614750565b602082019050919050565b6000613951603183613edd565b915061395c82614779565b604082019050919050565b6000613974602c83613edd565b915061397f826147c8565b604082019050919050565b6000613997600b83613edd565b91506139a282614817565b602082019050919050565b6139b68161408a565b82525050565b6139c58161408a565b82525050565b60006139d782866135fb565b91506139e382856135fb565b91506139ef828461362c565b9150819050949350505050565b6000602082019050613a11600083018461350d565b92915050565b6000602082019050613a2c60008301846134fe565b92915050565b6000608082019050613a47600083018761350d565b613a54602083018661350d565b613a6160408301856139bc565b8181036060830152613a738184613589565b905095945050505050565b6000604082019050613a93600083018561350d565b613aa060208301846139bc565b9392505050565b60006020820190508181036000830152613ac1818461351c565b905092915050565b6000602082019050613ade600083018461357a565b92915050565b60006020820190508181036000830152613afe81846135c2565b905092915050565b60006020820190508181036000830152613b1f816136ab565b9050919050565b60006020820190508181036000830152613b3f816136ce565b9050919050565b60006020820190508181036000830152613b5f816136f1565b9050919050565b60006020820190508181036000830152613b7f81613714565b9050919050565b60006020820190508181036000830152613b9f81613737565b9050919050565b60006020820190508181036000830152613bbf8161375a565b9050919050565b60006020820190508181036000830152613bdf8161377d565b9050919050565b60006020820190508181036000830152613bff816137a0565b9050919050565b60006020820190508181036000830152613c1f816137c3565b9050919050565b60006020820190508181036000830152613c3f816137e6565b9050919050565b60006020820190508181036000830152613c5f81613809565b9050919050565b60006020820190508181036000830152613c7f8161382c565b9050919050565b60006020820190508181036000830152613c9f8161384f565b9050919050565b60006020820190508181036000830152613cbf81613872565b9050919050565b60006020820190508181036000830152613cdf81613895565b9050919050565b60006020820190508181036000830152613cff816138b8565b9050919050565b60006020820190508181036000830152613d1f816138db565b9050919050565b60006020820190508181036000830152613d3f816138fe565b9050919050565b60006020820190508181036000830152613d5f81613921565b9050919050565b60006020820190508181036000830152613d7f81613944565b9050919050565b60006020820190508181036000830152613d9f81613967565b9050919050565b60006020820190508181036000830152613dbf8161398a565b9050919050565b6000602082019050613ddb60008301846139bc565b92915050565b6000613deb613dfc565b9050613df78282614108565b919050565b6000604051905090565b600067ffffffffffffffff821115613e2157613e20614240565b5b613e2a8261426f565b9050602081019050919050565b600067ffffffffffffffff821115613e5257613e51614240565b5b613e5b8261426f565b9050602081019050919050565b6000819050602082019050919050565b60008190508160005260206000209050919050565b600081519050919050565b600081519050919050565b600081519050919050565b6000602082019050919050565b600082825260208201905092915050565b600082825260208201905092915050565b600082825260208201905092915050565b600081905092915050565b6000613f048261408a565b9150613f0f8361408a565b9250827fffffffffffffffffffffffffffffffffffffffffffffffffffffffffffffffff03821115613f4457613f436141b3565b5b828201905092915050565b6000613f5a8261408a565b9150613f658361408a565b925082613f7557613f746141e2565b5b828204905092915050565b6000613f8b8261408a565b9150613f968361408a565b9250817fffffffffffffffffffffffffffffffffffffffffffffffffffffffffffffffff0483118215151615613fcf57613fce6141b3565b5b828202905092915050565b6000613fe58261408a565b9150613ff08361408a565b925082821015614003576140026141b3565b5b828203905092915050565b60006140198261406a565b9050919050565b600061402b8261406a565b9050919050565b60008115159050919050565b60007fffffffff0000000000000000000000000000000000000000000000000000000082169050919050565b600073ffffffffffffffffffffffffffffffffffffffff82169050919050565b6000819050919050565b82818337600083830152505050565b60005b838110156140c15780820151818401526020810190506140a6565b838111156140d0576000848401525b50505050565b600060028204905060018216806140ee57607f821691505b6020821081141561410257614101614211565b5b50919050565b6141118261426f565b810181811067ffffffffffffffff821117156141305761412f614240565b5b80604052505050565b60006141448261408a565b91507fffffffffffffffffffffffffffffffffffffffffffffffffffffffffffffffff821415614177576141766141b3565b5b600182019050919050565b600061418d8261408a565b91506141988361408a565b9250826141a8576141a76141e2565b5b828206905092915050565b7f4e487b7100000000000000000000000000000000000000000000000000000000600052601160045260246000fd5b7f4e487b7100000000000000000000000000000000000000000000000000000000600052601260045260246000fd5b7f4e487b7100000000000000000000000000000000000000000000000000000000600052602260045260246000fd5b7f4e487b7100000000000000000000000000000000000000000000000000000000600052604160045260246000fd5b6000601f19601f8301169050919050565b7f5061757365640000000000000000000000000000000000000000000000000000600082015250565b7f455243373231456e756d657261626c653a206f776e657220696e646578206f7560008201527f74206f6620626f756e6473000000000000000000000000000000000000000000602082015250565b7f4552433732313a207472616e7366657220746f206e6f6e20455243373231526560008201527f63656976657220696d706c656d656e7465720000000000000000000000000000602082015250565b7f4f776e61626c653a206e6577206f776e657220697320746865207a65726f206160008201527f6464726573730000000000000000000000000000000000000000000000000000602082015250565b7f4552433732313a20746f6b656e20616c7265616479206d696e74656400000000600082015250565b7f4552433732313a207472616e7366657220746f20746865207a65726f2061646460008201527f7265737300000000000000000000000000000000000000000000000000000000602082015250565b7f4552433732313a20617070726f766520746f2063616c6c657200000000000000600082015250565b7f4552433732313a206f70657261746f7220717565727920666f72206e6f6e657860008201527f697374656e7420746f6b656e0000000000000000000000000000000000000000602082015250565b7f4552433732313a20617070726f76652063616c6c6572206973206e6f74206f7760008201527f6e6572206e6f7220617070726f76656420666f7220616c6c0000000000000000602082015250565b7f4552433732313a2062616c616e636520717565727920666f7220746865207a6560008201527f726f206164647265737300000000000000000000000000000000000000000000602082015250565b7f4552433732313a206f776e657220717565727920666f72206e6f6e657869737460008201527f656e7420746f6b656e0000000000000000000000000000000000000000000000602082015250565b7f54686973206b6e69766520616c726561647920636c61696d6564206120736f6c60008201527f646965722e000000000000000000000000000000000000000000000000000000602082015250565b7f4552433732313a206d696e7420746f20746865207a65726f2061646472657373600082015250565b7f4552433732313a20617070726f76656420717565727920666f72206e6f6e657860008201527f697374656e7420746f6b656e0000000000000000000000000000000000000000602082015250565b7f4f776e61626c653a2063616c6c6572206973206e6f7420746865206f776e6572600082015250565b7f4552433732313a207472616e73666572206f6620746f6b656e2074686174206960008201527f73206e6f74206f776e0000000000000000000000000000000000000000000000602082015250565b7f4552433732314d657461646174613a2055524920717565727920666f72206e6f60008201527f6e6578697374656e7420746f6b656e0000000000000000000000000000000000602082015250565b7f4552433732313a20617070726f76616c20746f2063757272656e74206f776e6560008201527f7200000000000000000000000000000000000000000000000000000000000000602082015250565b7f4e6f74206f776e65722e00000000000000000000000000000000000000000000600082015250565b7f4552433732313a207472616e736665722063616c6c6572206973206e6f74206f60008201527f776e6572206e6f7220617070726f766564000000000000000000000000000000602082015250565b7f455243373231456e756d657261626c653a20676c6f62616c20696e646578206f60008201527f7574206f6620626f756e64730000000000000000000000000000000000000000602082015250565b7f416c6c20636c61696d6564000000000000000000000000000000000000000000600082015250565b6148498161400e565b811461485457600080fd5b50565b61486081614032565b811461486b57600080fd5b50565b6148778161403e565b811461488257600080fd5b50565b61488e8161408a565b811461489957600080fd5b5056fea2646970667358221220ceea874ec7b73318e2cbe928b86400b517c68bb4cccb61dcad30619d01e9ca5164736f6c63430008040033",
  "linkReferences": {},
  "deployedLinkReferences": {}
}