{
  "_format": "hh-sol-artifact-1",
  "contractName": "Soldiers",
  "sourceName": "contracts/Soldiers.sol",
  "abi": [
    {
      "inputs": [
        {
          "internalType": "string",
          "name": "_name",
          "type": "string"
        },
        {
          "internalType": "string",
          "name": "_symbol",
          "type": "string"
        },
        {
          "internalType": "string",
          "name": "_initBaseURI",
          "type": "string"
        },
        {
          "internalType": "address",
          "name": "_knivesLegacyAddress",
          "type": "address"
        }
      ],
      "stateMutability": "nonpayable",
      "type": "constructor"
    },
    {
      "anonymous": false,
      "inputs": [
        {
          "indexed": true,
          "internalType": "address",
          "name": "owner",
          "type": "address"
        },
        {
          "indexed": true,
          "internalType": "address",
          "name": "approved",
          "type": "address"
        },
        {
          "indexed": true,
          "internalType": "uint256",
          "name": "tokenId",
          "type": "uint256"
        }
      ],
      "name": "Approval",
      "type": "event"
    },
    {
      "anonymous": false,
      "inputs": [
        {
          "indexed": true,
          "internalType": "address",
          "name": "owner",
          "type": "address"
        },
        {
          "indexed": true,
          "internalType": "address",
          "name": "operator",
          "type": "address"
        },
        {
          "indexed": false,
          "internalType": "bool",
          "name": "approved",
          "type": "bool"
        }
      ],
      "name": "ApprovalForAll",
      "type": "event"
    },
    {
      "anonymous": false,
      "inputs": [
        {
          "indexed": true,
          "internalType": "address",
          "name": "previousOwner",
          "type": "address"
        },
        {
          "indexed": true,
          "internalType": "address",
          "name": "newOwner",
          "type": "address"
        }
      ],
      "name": "OwnershipTransferred",
      "type": "event"
    },
    {
      "anonymous": false,
      "inputs": [
        {
          "indexed": true,
          "internalType": "address",
          "name": "from",
          "type": "address"
        },
        {
          "indexed": true,
          "internalType": "address",
          "name": "to",
          "type": "address"
        },
        {
          "indexed": true,
          "internalType": "uint256",
          "name": "tokenId",
          "type": "uint256"
        }
      ],
      "name": "Transfer",
      "type": "event"
    },
    {
      "inputs": [
        {
          "internalType": "address",
          "name": "to",
          "type": "address"
        },
        {
          "internalType": "uint256",
          "name": "tokenId",
          "type": "uint256"
        }
      ],
      "name": "approve",
      "outputs": [],
      "stateMutability": "nonpayable",
      "type": "function"
    },
    {
      "inputs": [
        {
          "internalType": "address",
          "name": "owner",
          "type": "address"
        }
      ],
      "name": "balanceOf",
      "outputs": [
        {
          "internalType": "uint256",
          "name": "",
          "type": "uint256"
        }
      ],
      "stateMutability": "view",
      "type": "function"
    },
    {
      "inputs": [],
      "name": "baseExtension",
      "outputs": [
        {
          "internalType": "string",
          "name": "",
          "type": "string"
        }
      ],
      "stateMutability": "view",
      "type": "function"
    },
    {
      "inputs": [],
      "name": "baseURI",
      "outputs": [
        {
          "internalType": "string",
          "name": "",
          "type": "string"
        }
      ],
      "stateMutability": "view",
      "type": "function"
    },
    {
      "inputs": [
        {
          "internalType": "uint256",
          "name": "tokenId",
          "type": "uint256"
        }
      ],
      "name": "getApproved",
      "outputs": [
        {
          "internalType": "address",
          "name": "",
          "type": "address"
        }
      ],
      "stateMutability": "view",
      "type": "function"
    },
    {
      "inputs": [
        {
          "internalType": "address",
          "name": "owner",
          "type": "address"
        },
        {
          "internalType": "address",
          "name": "operator",
          "type": "address"
        }
      ],
      "name": "isApprovedForAll",
      "outputs": [
        {
          "internalType": "bool",
          "name": "",
          "type": "bool"
        }
      ],
      "stateMutability": "view",
      "type": "function"
    },
    {
      "inputs": [],
      "name": "maxSupply",
      "outputs": [
        {
          "internalType": "uint256",
          "name": "",
          "type": "uint256"
        }
      ],
      "stateMutability": "view",
      "type": "function"
    },
    {
      "inputs": [
        {
          "internalType": "uint256",
          "name": "_knifeId",
          "type": "uint256"
        }
      ],
      "name": "mintSoldier",
      "outputs": [],
      "stateMutability": "nonpayable",
      "type": "function"
    },
    {
      "inputs": [
        {
          "internalType": "uint256",
          "name": "",
          "type": "uint256"
        }
      ],
      "name": "minted",
      "outputs": [
        {
          "internalType": "bool",
          "name": "",
          "type": "bool"
        }
      ],
      "stateMutability": "view",
      "type": "function"
    },
    {
      "inputs": [
        {
          "internalType": "uint256",
          "name": "",
          "type": "uint256"
        }
      ],
      "name": "minters",
      "outputs": [
        {
          "internalType": "address",
          "name": "",
          "type": "address"
        }
      ],
      "stateMutability": "view",
      "type": "function"
    },
    {
      "inputs": [],
      "name": "name",
      "outputs": [
        {
          "internalType": "string",
          "name": "",
          "type": "string"
        }
      ],
      "stateMutability": "view",
      "type": "function"
    },
    {
      "inputs": [],
      "name": "owner",
      "outputs": [
        {
          "internalType": "address",
          "name": "",
          "type": "address"
        }
      ],
      "stateMutability": "view",
      "type": "function"
    },
    {
      "inputs": [
        {
          "internalType": "uint256",
          "name": "tokenId",
          "type": "uint256"
        }
      ],
      "name": "ownerOf",
      "outputs": [
        {
          "internalType": "address",
          "name": "",
          "type": "address"
        }
      ],
      "stateMutability": "view",
      "type": "function"
    },
    {
      "inputs": [
        {
          "internalType": "bool",
          "name": "_state",
          "type": "bool"
        }
      ],
      "name": "pause",
      "outputs": [],
      "stateMutability": "nonpayable",
      "type": "function"
    },
    {
      "inputs": [],
      "name": "paused",
      "outputs": [
        {
          "internalType": "bool",
          "name": "",
          "type": "bool"
        }
      ],
      "stateMutability": "view",
      "type": "function"
    },
    {
      "inputs": [],
      "name": "renounceOwnership",
      "outputs": [],
      "stateMutability": "nonpayable",
      "type": "function"
    },
    {
      "inputs": [],
      "name": "royaltyContract",
      "outputs": [
        {
          "internalType": "address payable",
          "name": "",
          "type": "address"
        }
      ],
      "stateMutability": "view",
      "type": "function"
    },
    {
      "inputs": [
        {
          "internalType": "uint256",
          "name": "tokenId",
          "type": "uint256"
        },
        {
          "internalType": "uint256",
          "name": "value",
          "type": "uint256"
        }
      ],
      "name": "royaltyInfo",
      "outputs": [
        {
          "internalType": "address",
          "name": "receiver",
          "type": "address"
        },
        {
          "internalType": "uint256",
          "name": "royaltyAmount",
          "type": "uint256"
        }
      ],
      "stateMutability": "view",
      "type": "function"
    },
    {
      "inputs": [],
      "name": "royaltyValue",
      "outputs": [
        {
          "internalType": "uint256",
          "name": "",
          "type": "uint256"
        }
      ],
      "stateMutability": "view",
      "type": "function"
    },
    {
      "inputs": [
        {
          "internalType": "address",
          "name": "from",
          "type": "address"
        },
        {
          "internalType": "address",
          "name": "to",
          "type": "address"
        },
        {
          "internalType": "uint256",
          "name": "tokenId",
          "type": "uint256"
        }
      ],
      "name": "safeTransferFrom",
      "outputs": [],
      "stateMutability": "nonpayable",
      "type": "function"
    },
    {
      "inputs": [
        {
          "internalType": "address",
          "name": "from",
          "type": "address"
        },
        {
          "internalType": "address",
          "name": "to",
          "type": "address"
        },
        {
          "internalType": "uint256",
          "name": "tokenId",
          "type": "uint256"
        },
        {
          "internalType": "bytes",
          "name": "_data",
          "type": "bytes"
        }
      ],
      "name": "safeTransferFrom",
      "outputs": [],
      "stateMutability": "nonpayable",
      "type": "function"
    },
    {
      "inputs": [
        {
          "internalType": "address",
          "name": "operator",
          "type": "address"
        },
        {
          "internalType": "bool",
          "name": "approved",
          "type": "bool"
        }
      ],
      "name": "setApprovalForAll",
      "outputs": [],
      "stateMutability": "nonpayable",
      "type": "function"
    },
    {
      "inputs": [
        {
          "internalType": "string",
          "name": "_newBaseExtension",
          "type": "string"
        }
      ],
      "name": "setBaseExtension",
      "outputs": [],
      "stateMutability": "nonpayable",
      "type": "function"
    },
    {
      "inputs": [
        {
          "internalType": "string",
          "name": "_newBaseURI",
          "type": "string"
        }
      ],
      "name": "setBaseURI",
      "outputs": [],
      "stateMutability": "nonpayable",
      "type": "function"
    },
    {
      "inputs": [
        {
          "internalType": "address",
          "name": "_knivesLegacyAddress",
          "type": "address"
        }
      ],
      "name": "setKnivesLegacy",
      "outputs": [],
      "stateMutability": "nonpayable",
      "type": "function"
    },
    {
      "inputs": [
        {
          "internalType": "uint256",
          "name": "_maxSupply",
          "type": "uint256"
        }
      ],
      "name": "setMaxSupply",
      "outputs": [],
      "stateMutability": "nonpayable",
      "type": "function"
    },
    {
      "inputs": [
        {
          "internalType": "address",
          "name": "_royaltyContract",
          "type": "address"
        }
      ],
      "name": "setRoyaltyContract",
      "outputs": [],
      "stateMutability": "nonpayable",
      "type": "function"
    },
    {
      "inputs": [
        {
          "internalType": "uint256",
          "name": "_royaltyValue",
          "type": "uint256"
        }
      ],
      "name": "setRoyaltyValue",
      "outputs": [],
      "stateMutability": "nonpayable",
      "type": "function"
    },
    {
      "inputs": [
        {
          "internalType": "bytes4",
          "name": "interfaceId",
          "type": "bytes4"
        }
      ],
      "name": "supportsInterface",
      "outputs": [
        {
          "internalType": "bool",
          "name": "",
          "type": "bool"
        }
      ],
      "stateMutability": "view",
      "type": "function"
    },
    {
      "inputs": [],
      "name": "symbol",
      "outputs": [
        {
          "internalType": "string",
          "name": "",
          "type": "string"
        }
      ],
      "stateMutability": "view",
      "type": "function"
    },
    {
      "inputs": [
        {
          "internalType": "uint256",
          "name": "index",
          "type": "uint256"
        }
      ],
      "name": "tokenByIndex",
      "outputs": [
        {
          "internalType": "uint256",
          "name": "",
          "type": "uint256"
        }
      ],
      "stateMutability": "view",
      "type": "function"
    },
    {
      "inputs": [
        {
          "internalType": "address",
          "name": "owner",
          "type": "address"
        },
        {
          "internalType": "uint256",
          "name": "index",
          "type": "uint256"
        }
      ],
      "name": "tokenOfOwnerByIndex",
      "outputs": [
        {
          "internalType": "uint256",
          "name": "",
          "type": "uint256"
        }
      ],
      "stateMutability": "view",
      "type": "function"
    },
    {
      "inputs": [
        {
          "internalType": "uint256",
          "name": "tokenId",
          "type": "uint256"
        }
      ],
      "name": "tokenURI",
      "outputs": [
        {
          "internalType": "string",
          "name": "",
          "type": "string"
        }
      ],
      "stateMutability": "view",
      "type": "function"
    },
    {
      "inputs": [],
      "name": "totalSupply",
      "outputs": [
        {
          "internalType": "uint256",
          "name": "",
          "type": "uint256"
        }
      ],
      "stateMutability": "view",
      "type": "function"
    },
    {
      "inputs": [
        {
          "internalType": "address",
          "name": "from",
          "type": "address"
        },
        {
          "internalType": "address",
          "name": "to",
          "type": "address"
        },
        {
          "internalType": "uint256",
          "name": "tokenId",
          "type": "uint256"
        }
      ],
      "name": "transferFrom",
      "outputs": [],
      "stateMutability": "nonpayable",
      "type": "function"
    },
    {
      "inputs": [
        {
          "internalType": "address",
          "name": "newOwner",
          "type": "address"
        }
      ],
      "name": "transferOwnership",
      "outputs": [],
      "stateMutability": "nonpayable",
      "type": "function"
    },
    {
      "inputs": [],
      "name": "walletOfOwner",
      "outputs": [
        {
          "internalType": "uint256[]",
          "name": "",
          "type": "uint256[]"
        }
      ],
      "stateMutability": "view",
      "type": "function"
    },
    {
      "inputs": [
        {
          "internalType": "address",
          "name": "_sender",
          "type": "address"
        }
      ],
      "name": "walletOfSender",
      "outputs": [
        {
          "internalType": "uint256[]",
          "name": "",
          "type": "uint256[]"
        }
      ],
      "stateMutability": "view",
      "type": "function"
    }
  ],
  "bytecode": "0x60806040526040518060400160405280600581526020017f2e6a736f6e000000000000000000000000000000000000000000000000000000815250600c9080519060200190620000519291906200039e565b5061115c600d556000600f60006101000a81548160ff0219169083151502179055503480156200008057600080fd5b50604051620050df380380620050df8339818101604052810190620000a69190620004d7565b83838160009080519060200190620000c09291906200039e565b508060019080519060200190620000d99291906200039e565b505050620000fc620000f06200012860201b60201c565b6200013060201b60201c565b6200010d82620001f660201b60201c565b6200011e81620002a160201b60201c565b50505050620007cf565b600033905090565b6000600a60009054906101000a900473ffffffffffffffffffffffffffffffffffffffff16905081600a60006101000a81548173ffffffffffffffffffffffffffffffffffffffff021916908373ffffffffffffffffffffffffffffffffffffffff1602179055508173ffffffffffffffffffffffffffffffffffffffff168173ffffffffffffffffffffffffffffffffffffffff167f8be0079c531659141344cd1fd0a4f28419497f9722a3daafe3b4186f6b6457e060405160405180910390a35050565b620002066200012860201b60201c565b73ffffffffffffffffffffffffffffffffffffffff166200022c6200037460201b60201c565b73ffffffffffffffffffffffffffffffffffffffff161462000285576040517f08c379a00000000000000000000000000000000000000000000000000000000081526004016200027c90620005b5565b60405180910390fd5b80600b90805190602001906200029d9291906200039e565b5050565b620002b16200012860201b60201c565b73ffffffffffffffffffffffffffffffffffffffff16620002d76200037460201b60201c565b73ffffffffffffffffffffffffffffffffffffffff161462000330576040517f08c379a00000000000000000000000000000000000000000000000000000000081526004016200032790620005b5565b60405180910390fd5b80601060006101000a81548173ffffffffffffffffffffffffffffffffffffffff021916908373ffffffffffffffffffffffffffffffffffffffff16021790555050565b6000600a60009054906101000a900473ffffffffffffffffffffffffffffffffffffffff16905090565b828054620003ac90620006b1565b90600052602060002090601f016020900481019282620003d057600085556200041c565b82601f10620003eb57805160ff19168380011785556200041c565b828001600101855582156200041c579182015b828111156200041b578251825591602001919060010190620003fe565b5b5090506200042b91906200042f565b5090565b5b808211156200044a57600081600090555060010162000430565b5090565b6000620004656200045f8462000600565b620005d7565b9050828152602081018484840111156200047e57600080fd5b6200048b8482856200067b565b509392505050565b600081519050620004a481620007b5565b92915050565b600082601f830112620004bc57600080fd5b8151620004ce8482602086016200044e565b91505092915050565b60008060008060808587031215620004ee57600080fd5b600085015167ffffffffffffffff8111156200050957600080fd5b6200051787828801620004aa565b945050602085015167ffffffffffffffff8111156200053557600080fd5b6200054387828801620004aa565b935050604085015167ffffffffffffffff8111156200056157600080fd5b6200056f87828801620004aa565b9250506060620005828782880162000493565b91505092959194509250565b60006200059d60208362000636565b9150620005aa826200078c565b602082019050919050565b60006020820190508181036000830152620005d0816200058e565b9050919050565b6000620005e3620005f6565b9050620005f18282620006e7565b919050565b6000604051905090565b600067ffffffffffffffff8211156200061e576200061d6200074c565b5b62000629826200077b565b9050602081019050919050565b600082825260208201905092915050565b600062000654826200065b565b9050919050565b600073ffffffffffffffffffffffffffffffffffffffff82169050919050565b60005b838110156200069b5780820151818401526020810190506200067e565b83811115620006ab576000848401525b50505050565b60006002820490506001821680620006ca57607f821691505b60208210811415620006e157620006e06200071d565b5b50919050565b620006f2826200077b565b810181811067ffffffffffffffff821117156200071457620007136200074c565b5b80604052505050565b7f4e487b7100000000000000000000000000000000000000000000000000000000600052602260045260246000fd5b7f4e487b7100000000000000000000000000000000000000000000000000000000600052604160045260246000fd5b6000601f19601f8301169050919050565b7f4f776e61626c653a2063616c6c6572206973206e6f7420746865206f776e6572600082015250565b620007c08162000647565b8114620007cc57600080fd5b50565b61490080620007df6000396000f3fe608060405234801561001057600080fd5b50600436106102325760003560e01c80636f8b44b011610130578063b88d4fde116100b8578063da3ef23f1161007c578063da3ef23f146106b4578063de181204146106d0578063e985e9c5146106ec578063f2fde38b1461071c578063f867a1b71461073857610232565b8063b88d4fde14610610578063c66828621461062c578063c87b56dd1461064a578063d5abeb011461067a578063d9aa187c1461069857610232565b806380ea268c116100ff57806380ea268c146105585780638623ec7b146105885780638da5cb5b146105b857806395d89b41146105d6578063a22cb465146105f457610232565b80636f8b44b0146104d257806370a08231146104ee578063715018a61461051e5780637dc0bf3f1461052857610232565b80632f745c59116101be5780635c975abb116101825780635c975abb1461042c5780635fc205881461044a5780636352211e146104685780636881a077146104985780636c0360eb146104b457610232565b80632f745c591461037657806336fdefd4146103a657806342842e0e146103c45780634f6ccce7146103e057806355f804b31461041057610232565b8063095ea7b311610205578063095ea7b3146102d15780631663ee03146102ed57806318160ddd1461030b57806323b872dd146103295780632a55205a1461034557610232565b806301ffc9a71461023757806302329a291461026757806306fdde0314610283578063081812fc146102a1575b600080fd5b610251600480360381019061024c919061341c565b610754565b60405161025e9190613af7565b60405180910390f35b610281600480360381019061027c91906133f3565b6107ce565b005b61028b610867565b6040516102989190613b12565b60405180910390f35b6102bb60048036038101906102b691906134af565b6108f9565b6040516102c89190613a2a565b60405180910390f35b6102eb60048036038101906102e691906133b7565b61097e565b005b6102f5610a96565b6040516103029190613a45565b60405180910390f35b610313610abc565b6040516103209190613df4565b60405180910390f35b610343600480360381019061033e91906132b1565b610ac9565b005b61035f600480360381019061035a91906134d8565b610b29565b60405161036d929190613aac565b60405180910390f35b610390600480360381019061038b91906133b7565b610b75565b60405161039d9190613df4565b60405180910390f35b6103ae610c1a565b6040516103bb9190613ad5565b60405180910390f35b6103de60048036038101906103d991906132b1565b610d12565b005b6103fa60048036038101906103f591906134af565b610d32565b6040516104079190613df4565b60405180910390f35b61042a6004803603810190610425919061346e565b610dc9565b005b610434610e5f565b6040516104419190613af7565b60405180910390f35b610452610e72565b60405161045f9190613df4565b60405180910390f35b610482600480360381019061047d91906134af565b610e78565b60405161048f9190613a2a565b60405180910390f35b6104b260048036038101906104ad91906134af565b610f2a565b005b6104bc610fb0565b6040516104c99190613b12565b60405180910390f35b6104ec60048036038101906104e791906134af565b61103e565b005b61050860048036038101906105039190613223565b6110c4565b6040516105159190613df4565b60405180910390f35b61052661117c565b005b610542600480360381019061053d91906134af565b611204565b60405161054f9190613af7565b60405180910390f35b610572600480360381019061056d9190613223565b611224565b60405161057f9190613ad5565b60405180910390f35b6105a2600480360381019061059d91906134af565b61131e565b6040516105af9190613a2a565b60405180910390f35b6105c0611351565b6040516105cd9190613a2a565b60405180910390f35b6105de61137b565b6040516105eb9190613b12565b60405180910390f35b61060e6004803603810190610609919061337b565b61140d565b005b61062a60048036038101906106259190613300565b611423565b005b610634611485565b6040516106419190613b12565b60405180910390f35b610664600480360381019061065f91906134af565b611513565b6040516106719190613b12565b60405180910390f35b6106826115bd565b60405161068f9190613df4565b60405180910390f35b6106b260048036038101906106ad9190613223565b6115c3565b005b6106ce60048036038101906106c9919061346e565b611683565b005b6106ea60048036038101906106e591906134af565b611719565b005b61070660048036038101906107019190613275565b6118f5565b6040516107139190613af7565b60405180910390f35b61073660048036038101906107319190613223565b611989565b005b610752600480360381019061074d9190613223565b611a81565b005b60007f780e9d63000000000000000000000000000000000000000000000000000000007bffffffffffffffffffffffffffffffffffffffffffffffffffffffff1916827bffffffffffffffffffffffffffffffffffffffffffffffffffffffff191614806107c757506107c682611b41565b5b9050919050565b6107d6611c23565b73ffffffffffffffffffffffffffffffffffffffff166107f4611351565b73ffffffffffffffffffffffffffffffffffffffff161461084a576040517f08c379a000000000000000000000000000000000000000000000000000000000815260040161084190613d14565b60405180910390fd5b80600f60006101000a81548160ff02191690831515021790555050565b60606000805461087690614104565b80601f01602080910402602001604051908101604052809291908181526020018280546108a290614104565b80156108ef5780601f106108c4576101008083540402835291602001916108ef565b820191906000526020600020905b8154815290600101906020018083116108d257829003601f168201915b5050505050905090565b600061090482611c2b565b610943576040517f08c379a000000000000000000000000000000000000000000000000000000000815260040161093a90613cf4565b60405180910390fd5b6004600083815260200190815260200160002060009054906101000a900473ffffffffffffffffffffffffffffffffffffffff169050919050565b600061098982610e78565b90508073ffffffffffffffffffffffffffffffffffffffff168373ffffffffffffffffffffffffffffffffffffffff1614156109fa576040517f08c379a00000000000000000000000000000000000000000000000000000000081526004016109f190613d54565b60405180910390fd5b8073ffffffffffffffffffffffffffffffffffffffff16610a19611c23565b73ffffffffffffffffffffffffffffffffffffffff161480610a485750610a4781610a42611c23565b6118f5565b5b610a87576040517f08c379a0000000000000000000000000000000000000000000000000000000008152600401610a7e90613c54565b60405180910390fd5b610a918383611c97565b505050565b600f60019054906101000a900473ffffffffffffffffffffffffffffffffffffffff1681565b6000600880549050905090565b610ada610ad4611c23565b82611d50565b610b19576040517f08c379a0000000000000000000000000000000000000000000000000000000008152600401610b1090613d94565b60405180910390fd5b610b24838383611e2e565b505050565b600080600f60019054906101000a900473ffffffffffffffffffffffffffffffffffffffff16612710600e5485610b609190613fae565b610b6a9190613f7d565b915091509250929050565b6000610b80836110c4565b8210610bc1576040517f08c379a0000000000000000000000000000000000000000000000000000000008152600401610bb890613b54565b60405180910390fd5b600660008473ffffffffffffffffffffffffffffffffffffffff1673ffffffffffffffffffffffffffffffffffffffff168152602001908152602001600020600083815260200190815260200160002054905092915050565b60606000610c27336110c4565b905060008167ffffffffffffffff811115610c6b577f4e487b7100000000000000000000000000000000000000000000000000000000600052604160045260246000fd5b604051908082528060200260200182016040528015610c995781602001602082028036833780820191505090505b50905060005b82811015610d0957610cb13382610b75565b828281518110610cea577f4e487b7100000000000000000000000000000000000000000000000000000000600052603260045260246000fd5b6020026020010181815250508080610d0190614167565b915050610c9f565b50809250505090565b610d2d83838360405180602001604052806000815250611423565b505050565b6000610d3c610abc565b8210610d7d576040517f08c379a0000000000000000000000000000000000000000000000000000000008152600401610d7490613db4565b60405180910390fd5b60088281548110610db7577f4e487b7100000000000000000000000000000000000000000000000000000000600052603260045260246000fd5b90600052602060002001549050919050565b610dd1611c23565b73ffffffffffffffffffffffffffffffffffffffff16610def611351565b73ffffffffffffffffffffffffffffffffffffffff1614610e45576040517f08c379a0000000000000000000000000000000000000000000000000000000008152600401610e3c90613d14565b60405180910390fd5b80600b9080519060200190610e5b929190613032565b5050565b600f60009054906101000a900460ff1681565b600e5481565b6000806002600084815260200190815260200160002060009054906101000a900473ffffffffffffffffffffffffffffffffffffffff169050600073ffffffffffffffffffffffffffffffffffffffff168173ffffffffffffffffffffffffffffffffffffffff161415610f21576040517f08c379a0000000000000000000000000000000000000000000000000000000008152600401610f1890613c94565b60405180910390fd5b80915050919050565b610f32611c23565b73ffffffffffffffffffffffffffffffffffffffff16610f50611351565b73ffffffffffffffffffffffffffffffffffffffff1614610fa6576040517f08c379a0000000000000000000000000000000000000000000000000000000008152600401610f9d90613d14565b60405180910390fd5b80600e8190555050565b600b8054610fbd90614104565b80601f0160208091040260200160405190810160405280929190818152602001828054610fe990614104565b80156110365780601f1061100b57610100808354040283529160200191611036565b820191906000526020600020905b81548152906001019060200180831161101957829003601f168201915b505050505081565b611046611c23565b73ffffffffffffffffffffffffffffffffffffffff16611064611351565b73ffffffffffffffffffffffffffffffffffffffff16146110ba576040517f08c379a00000000000000000000000000000000000000000000000000000000081526004016110b190613d14565b60405180910390fd5b80600d8190555050565b60008073ffffffffffffffffffffffffffffffffffffffff168273ffffffffffffffffffffffffffffffffffffffff161415611135576040517f08c379a000000000000000000000000000000000000000000000000000000000815260040161112c90613c74565b60405180910390fd5b600360008373ffffffffffffffffffffffffffffffffffffffff1673ffffffffffffffffffffffffffffffffffffffff168152602001908152602001600020549050919050565b611184611c23565b73ffffffffffffffffffffffffffffffffffffffff166111a2611351565b73ffffffffffffffffffffffffffffffffffffffff16146111f8576040517f08c379a00000000000000000000000000000000000000000000000000000000081526004016111ef90613d14565b60405180910390fd5b6112026000612095565b565b60116020528060005260406000206000915054906101000a900460ff1681565b60606000611231836110c4565b905060008167ffffffffffffffff811115611275577f4e487b7100000000000000000000000000000000000000000000000000000000600052604160045260246000fd5b6040519080825280602002602001820160405280156112a35781602001602082028036833780820191505090505b50905060005b82811015611313576112bb8582610b75565b8282815181106112f4577f4e487b7100000000000000000000000000000000000000000000000000000000600052603260045260246000fd5b602002602001018181525050808061130b90614167565b9150506112a9565b508092505050919050565b60126020528060005260406000206000915054906101000a900473ffffffffffffffffffffffffffffffffffffffff1681565b6000600a60009054906101000a900473ffffffffffffffffffffffffffffffffffffffff16905090565b60606001805461138a90614104565b80601f01602080910402602001604051908101604052809291908181526020018280546113b690614104565b80156114035780601f106113d857610100808354040283529160200191611403565b820191906000526020600020905b8154815290600101906020018083116113e657829003601f168201915b5050505050905090565b61141f611418611c23565b838361215b565b5050565b61143461142e611c23565b83611d50565b611473576040517f08c379a000000000000000000000000000000000000000000000000000000000815260040161146a90613d94565b60405180910390fd5b61147f848484846122c8565b50505050565b600c805461149290614104565b80601f01602080910402602001604051908101604052809291908181526020018280546114be90614104565b801561150b5780601f106114e05761010080835404028352916020019161150b565b820191906000526020600020905b8154815290600101906020018083116114ee57829003601f168201915b505050505081565b606061151e82611c2b565b61155d576040517f08c379a000000000000000000000000000000000000000000000000000000000815260040161155490613d34565b60405180910390fd5b6000611567612324565b9050600081511161158757604051806020016040528060008152506115b5565b80611591846123b6565b600c6040516020016115a5939291906139f9565b6040516020818303038152906040525b915050919050565b600d5481565b6115cb611c23565b73ffffffffffffffffffffffffffffffffffffffff166115e9611351565b73ffffffffffffffffffffffffffffffffffffffff161461163f576040517f08c379a000000000000000000000000000000000000000000000000000000000815260040161163690613d14565b60405180910390fd5b80600f60016101000a81548173ffffffffffffffffffffffffffffffffffffffff021916908373ffffffffffffffffffffffffffffffffffffffff16021790555050565b61168b611c23565b73ffffffffffffffffffffffffffffffffffffffff166116a9611351565b73ffffffffffffffffffffffffffffffffffffffff16146116ff576040517f08c379a00000000000000000000000000000000000000000000000000000000081526004016116f690613d14565b60405180910390fd5b80600c9080519060200190611715929190613032565b5050565b600f60009054906101000a900460ff1615611769576040517f08c379a000000000000000000000000000000000000000000000000000000000815260040161176090613b34565b60405180910390fd5b61177281612563565b6117b1576040517f08c379a00000000000000000000000000000000000000000000000000000000081526004016117a890613d74565b60405180910390fd5b6011600082815260200190815260200160002060009054906101000a900460ff1615611812576040517f08c379a000000000000000000000000000000000000000000000000000000000815260040161180990613cb4565b60405180910390fd5b600d54600161181f610abc565b6118299190613f27565b111561186a576040517f08c379a000000000000000000000000000000000000000000000000000000000815260040161186190613dd4565b60405180910390fd5b6118743382612725565b60016011600083815260200190815260200160002060006101000a81548160ff021916908315150217905550336012600083815260200190815260200160002060006101000a81548173ffffffffffffffffffffffffffffffffffffffff021916908373ffffffffffffffffffffffffffffffffffffffff16021790555050565b6000600560008473ffffffffffffffffffffffffffffffffffffffff1673ffffffffffffffffffffffffffffffffffffffff16815260200190815260200160002060008373ffffffffffffffffffffffffffffffffffffffff1673ffffffffffffffffffffffffffffffffffffffff16815260200190815260200160002060009054906101000a900460ff16905092915050565b611991611c23565b73ffffffffffffffffffffffffffffffffffffffff166119af611351565b73ffffffffffffffffffffffffffffffffffffffff1614611a05576040517f08c379a00000000000000000000000000000000000000000000000000000000081526004016119fc90613d14565b60405180910390fd5b600073ffffffffffffffffffffffffffffffffffffffff168173ffffffffffffffffffffffffffffffffffffffff161415611a75576040517f08c379a0000000000000000000000000000000000000000000000000000000008152600401611a6c90613b94565b60405180910390fd5b611a7e81612095565b50565b611a89611c23565b73ffffffffffffffffffffffffffffffffffffffff16611aa7611351565b73ffffffffffffffffffffffffffffffffffffffff1614611afd576040517f08c379a0000000000000000000000000000000000000000000000000000000008152600401611af490613d14565b60405180910390fd5b80601060006101000a81548173ffffffffffffffffffffffffffffffffffffffff021916908373ffffffffffffffffffffffffffffffffffffffff16021790555050565b60007f80ac58cd000000000000000000000000000000000000000000000000000000007bffffffffffffffffffffffffffffffffffffffffffffffffffffffff1916827bffffffffffffffffffffffffffffffffffffffffffffffffffffffff19161480611c0c57507f5b5e139f000000000000000000000000000000000000000000000000000000007bffffffffffffffffffffffffffffffffffffffffffffffffffffffff1916827bffffffffffffffffffffffffffffffffffffffffffffffffffffffff1916145b80611c1c5750611c1b82612743565b5b9050919050565b600033905090565b60008073ffffffffffffffffffffffffffffffffffffffff166002600084815260200190815260200160002060009054906101000a900473ffffffffffffffffffffffffffffffffffffffff1673ffffffffffffffffffffffffffffffffffffffff1614159050919050565b816004600083815260200190815260200160002060006101000a81548173ffffffffffffffffffffffffffffffffffffffff021916908373ffffffffffffffffffffffffffffffffffffffff160217905550808273ffffffffffffffffffffffffffffffffffffffff16611d0a83610e78565b73ffffffffffffffffffffffffffffffffffffffff167f8c5be1e5ebec7d5bd14f71427d1e84f3dd0314c0f7b2291e5b200ac8c7c3b92560405160405180910390a45050565b6000611d5b82611c2b565b611d9a576040517f08c379a0000000000000000000000000000000000000000000000000000000008152600401611d9190613c34565b60405180910390fd5b6000611da583610e78565b90508073ffffffffffffffffffffffffffffffffffffffff168473ffffffffffffffffffffffffffffffffffffffff161480611e1457508373ffffffffffffffffffffffffffffffffffffffff16611dfc846108f9565b73ffffffffffffffffffffffffffffffffffffffff16145b80611e255750611e2481856118f5565b5b91505092915050565b8273ffffffffffffffffffffffffffffffffffffffff16611e4e82610e78565b73ffffffffffffffffffffffffffffffffffffffff1614611ea4576040517f08c379a0000000000000000000000000000000000000000000000000000000008152600401611e9b90613bb4565b60405180910390fd5b600073ffffffffffffffffffffffffffffffffffffffff168273ffffffffffffffffffffffffffffffffffffffff161415611f14576040517f08c379a0000000000000000000000000000000000000000000000000000000008152600401611f0b90613bf4565b60405180910390fd5b611f1f8383836127ad565b611f2a600082611c97565b6001600360008573ffffffffffffffffffffffffffffffffffffffff1673ffffffffffffffffffffffffffffffffffffffff1681526020019081526020016000206000828254611f7a9190614008565b925050819055506001600360008473ffffffffffffffffffffffffffffffffffffffff1673ffffffffffffffffffffffffffffffffffffffff1681526020019081526020016000206000828254611fd19190613f27565b92505081905550816002600083815260200190815260200160002060006101000a81548173ffffffffffffffffffffffffffffffffffffffff021916908373ffffffffffffffffffffffffffffffffffffffff160217905550808273ffffffffffffffffffffffffffffffffffffffff168473ffffffffffffffffffffffffffffffffffffffff167fddf252ad1be2c89b69c2b068fc378daa952ba7f163c4a11628f55a4df523b3ef60405160405180910390a46120908383836128c1565b505050565b6000600a60009054906101000a900473ffffffffffffffffffffffffffffffffffffffff16905081600a60006101000a81548173ffffffffffffffffffffffffffffffffffffffff021916908373ffffffffffffffffffffffffffffffffffffffff1602179055508173ffffffffffffffffffffffffffffffffffffffff168173ffffffffffffffffffffffffffffffffffffffff167f8be0079c531659141344cd1fd0a4f28419497f9722a3daafe3b4186f6b6457e060405160405180910390a35050565b8173ffffffffffffffffffffffffffffffffffffffff168373ffffffffffffffffffffffffffffffffffffffff1614156121ca576040517f08c379a00000000000000000000000000000000000000000000000000000000081526004016121c190613c14565b60405180910390fd5b80600560008573ffffffffffffffffffffffffffffffffffffffff1673ffffffffffffffffffffffffffffffffffffffff16815260200190815260200160002060008473ffffffffffffffffffffffffffffffffffffffff1673ffffffffffffffffffffffffffffffffffffffff16815260200190815260200160002060006101000a81548160ff0219169083151502179055508173ffffffffffffffffffffffffffffffffffffffff168373ffffffffffffffffffffffffffffffffffffffff167f17307eab39ab6107e8899845ad3d59bd9653f200f220920489ca2b5937696c31836040516122bb9190613af7565b60405180910390a3505050565b6122d3848484611e2e565b6122df848484846128c6565b61231e576040517f08c379a000000000000000000000000000000000000000000000000000000000815260040161231590613b74565b60405180910390fd5b50505050565b6060600b805461233390614104565b80601f016020809104026020016040519081016040528092919081815260200182805461235f90614104565b80156123ac5780601f10612381576101008083540402835291602001916123ac565b820191906000526020600020905b81548152906001019060200180831161238f57829003601f168201915b5050505050905090565b606060008214156123fe576040518060400160405280600181526020017f3000000000000000000000000000000000000000000000000000000000000000815250905061255e565b600082905060005b6000821461243057808061241990614167565b915050600a826124299190613f7d565b9150612406565b60008167ffffffffffffffff811115612472577f4e487b7100000000000000000000000000000000000000000000000000000000600052604160045260246000fd5b6040519080825280601f01601f1916602001820160405280156124a45781602001600182028036833780820191505090505b5090505b60008514612557576001826124bd9190614008565b9150600a856124cc91906141b0565b60306124d89190613f27565b60f81b818381518110612514577f4e487b7100000000000000000000000000000000000000000000000000000000600052603260045260246000fd5b60200101907effffffffffffffffffffffffffffffffffffffffffffffffffffffffffffff1916908160001a905350600a856125509190613f7d565b94506124a8565b8093505050505b919050565b60003373ffffffffffffffffffffffffffffffffffffffff16601060009054906101000a900473ffffffffffffffffffffffffffffffffffffffff1673ffffffffffffffffffffffffffffffffffffffff1663081812fc846040518263ffffffff1660e01b81526004016125d79190613df4565b60206040518083038186803b1580156125ef57600080fd5b505afa158015612603573d6000803e3d6000fd5b505050506040513d601f19601f82011682018060405250810190612627919061324c565b73ffffffffffffffffffffffffffffffffffffffff16148061271e57503373ffffffffffffffffffffffffffffffffffffffff16601060009054906101000a900473ffffffffffffffffffffffffffffffffffffffff1673ffffffffffffffffffffffffffffffffffffffff16636352211e846040518263ffffffff1660e01b81526004016126b69190613df4565b60206040518083038186803b1580156126ce57600080fd5b505afa1580156126e2573d6000803e3d6000fd5b505050506040513d601f19601f82011682018060405250810190612706919061324c565b73ffffffffffffffffffffffffffffffffffffffff16145b9050919050565b61273f828260405180602001604052806000815250612a5d565b5050565b60007f01ffc9a7000000000000000000000000000000000000000000000000000000007bffffffffffffffffffffffffffffffffffffffffffffffffffffffff1916827bffffffffffffffffffffffffffffffffffffffffffffffffffffffff1916149050919050565b6127b8838383612ab8565b600073ffffffffffffffffffffffffffffffffffffffff168373ffffffffffffffffffffffffffffffffffffffff1614156127fb576127f681612abd565b61283a565b8173ffffffffffffffffffffffffffffffffffffffff168373ffffffffffffffffffffffffffffffffffffffff1614612839576128388382612b06565b5b5b600073ffffffffffffffffffffffffffffffffffffffff168273ffffffffffffffffffffffffffffffffffffffff16141561287d5761287881612c73565b6128bc565b8273ffffffffffffffffffffffffffffffffffffffff168273ffffffffffffffffffffffffffffffffffffffff16146128bb576128ba8282612db6565b5b5b505050565b505050565b60006128e78473ffffffffffffffffffffffffffffffffffffffff16612e35565b15612a50578373ffffffffffffffffffffffffffffffffffffffff1663150b7a02612910611c23565b8786866040518563ffffffff1660e01b81526004016129329493929190613a60565b602060405180830381600087803b15801561294c57600080fd5b505af192505050801561297d57506040513d601f19601f8201168201806040525081019061297a9190613445565b60015b612a00573d80600081146129ad576040519150601f19603f3d011682016040523d82523d6000602084013e6129b2565b606091505b506000815114156129f8576040517f08c379a00000000000000000000000000000000000000000000000000000000081526004016129ef90613b74565b60405180910390fd5b805181602001fd5b63150b7a0260e01b7bffffffffffffffffffffffffffffffffffffffffffffffffffffffff1916817bffffffffffffffffffffffffffffffffffffffffffffffffffffffff191614915050612a55565b600190505b949350505050565b612a678383612e58565b612a7460008484846128c6565b612ab3576040517f08c379a0000000000000000000000000000000000000000000000000000000008152600401612aaa90613b74565b60405180910390fd5b505050565b505050565b6008805490506009600083815260200190815260200160002081905550600881908060018154018082558091505060019003906000526020600020016000909190919091505550565b60006001612b13846110c4565b612b1d9190614008565b9050600060076000848152602001908152602001600020549050818114612c02576000600660008673ffffffffffffffffffffffffffffffffffffffff1673ffffffffffffffffffffffffffffffffffffffff168152602001908152602001600020600084815260200190815260200160002054905080600660008773ffffffffffffffffffffffffffffffffffffffff1673ffffffffffffffffffffffffffffffffffffffff168152602001908152602001600020600084815260200190815260200160002081905550816007600083815260200190815260200160002081905550505b6007600084815260200190815260200160002060009055600660008573ffffffffffffffffffffffffffffffffffffffff1673ffffffffffffffffffffffffffffffffffffffff16815260200190815260200160002060008381526020019081526020016000206000905550505050565b60006001600880549050612c879190614008565b9050600060096000848152602001908152602001600020549050600060088381548110612cdd577f4e487b7100000000000000000000000000000000000000000000000000000000600052603260045260246000fd5b906000526020600020015490508060088381548110612d25577f4e487b7100000000000000000000000000000000000000000000000000000000600052603260045260246000fd5b906000526020600020018190555081600960008381526020019081526020016000208190555060096000858152602001908152602001600020600090556008805480612d9a577f4e487b7100000000000000000000000000000000000000000000000000000000600052603160045260246000fd5b6001900381819060005260206000200160009055905550505050565b6000612dc1836110c4565b905081600660008573ffffffffffffffffffffffffffffffffffffffff1673ffffffffffffffffffffffffffffffffffffffff168152602001908152602001600020600083815260200190815260200160002081905550806007600084815260200190815260200160002081905550505050565b6000808273ffffffffffffffffffffffffffffffffffffffff163b119050919050565b600073ffffffffffffffffffffffffffffffffffffffff168273ffffffffffffffffffffffffffffffffffffffff161415612ec8576040517f08c379a0000000000000000000000000000000000000000000000000000000008152600401612ebf90613cd4565b60405180910390fd5b612ed181611c2b565b15612f11576040517f08c379a0000000000000000000000000000000000000000000000000000000008152600401612f0890613bd4565b60405180910390fd5b612f1d600083836127ad565b6001600360008473ffffffffffffffffffffffffffffffffffffffff1673ffffffffffffffffffffffffffffffffffffffff1681526020019081526020016000206000828254612f6d9190613f27565b92505081905550816002600083815260200190815260200160002060006101000a81548173ffffffffffffffffffffffffffffffffffffffff021916908373ffffffffffffffffffffffffffffffffffffffff160217905550808273ffffffffffffffffffffffffffffffffffffffff16600073ffffffffffffffffffffffffffffffffffffffff167fddf252ad1be2c89b69c2b068fc378daa952ba7f163c4a11628f55a4df523b3ef60405160405180910390a461302e600083836128c1565b5050565b82805461303e90614104565b90600052602060002090601f01602090048101928261306057600085556130a7565b82601f1061307957805160ff19168380011785556130a7565b828001600101855582156130a7579182015b828111156130a657825182559160200191906001019061308b565b5b5090506130b491906130b8565b5090565b5b808211156130d15760008160009055506001016130b9565b5090565b60006130e86130e384613e34565b613e0f565b90508281526020810184848401111561310057600080fd5b61310b8482856140c2565b509392505050565b600061312661312184613e65565b613e0f565b90508281526020810184848401111561313e57600080fd5b6131498482856140c2565b509392505050565b6000813590506131608161486e565b92915050565b6000815190506131758161486e565b92915050565b60008135905061318a81614885565b92915050565b60008135905061319f8161489c565b92915050565b6000815190506131b48161489c565b92915050565b600082601f8301126131cb57600080fd5b81356131db8482602086016130d5565b91505092915050565b600082601f8301126131f557600080fd5b8135613205848260208601613113565b91505092915050565b60008135905061321d816148b3565b92915050565b60006020828403121561323557600080fd5b600061324384828501613151565b91505092915050565b60006020828403121561325e57600080fd5b600061326c84828501613166565b91505092915050565b6000806040838503121561328857600080fd5b600061329685828601613151565b92505060206132a785828601613151565b9150509250929050565b6000806000606084860312156132c657600080fd5b60006132d486828701613151565b93505060206132e586828701613151565b92505060406132f68682870161320e565b9150509250925092565b6000806000806080858703121561331657600080fd5b600061332487828801613151565b945050602061333587828801613151565b93505060406133468782880161320e565b925050606085013567ffffffffffffffff81111561336357600080fd5b61336f878288016131ba565b91505092959194509250565b6000806040838503121561338e57600080fd5b600061339c85828601613151565b92505060206133ad8582860161317b565b9150509250929050565b600080604083850312156133ca57600080fd5b60006133d885828601613151565b92505060206133e98582860161320e565b9150509250929050565b60006020828403121561340557600080fd5b60006134138482850161317b565b91505092915050565b60006020828403121561342e57600080fd5b600061343c84828501613190565b91505092915050565b60006020828403121561345757600080fd5b6000613465848285016131a5565b91505092915050565b60006020828403121561348057600080fd5b600082013567ffffffffffffffff81111561349a57600080fd5b6134a6848285016131e4565b91505092915050565b6000602082840312156134c157600080fd5b60006134cf8482850161320e565b91505092915050565b600080604083850312156134eb57600080fd5b60006134f98582860161320e565b925050602061350a8582860161320e565b9150509250929050565b600061352083836139db565b60208301905092915050565b6135358161404e565b82525050565b6135448161403c565b82525050565b600061355582613ebb565b61355f8185613ee9565b935061356a83613e96565b8060005b8381101561359b5781516135828882613514565b975061358d83613edc565b92505060018101905061356e565b5085935050505092915050565b6135b181614060565b82525050565b60006135c282613ec6565b6135cc8185613efa565b93506135dc8185602086016140d1565b6135e58161429d565b840191505092915050565b60006135fb82613ed1565b6136058185613f0b565b93506136158185602086016140d1565b61361e8161429d565b840191505092915050565b600061363482613ed1565b61363e8185613f1c565b935061364e8185602086016140d1565b80840191505092915050565b6000815461366781614104565b6136718186613f1c565b9450600182166000811461368c576001811461369d576136d0565b60ff198316865281860193506136d0565b6136a685613ea6565b60005b838110156136c8578154818901526001820191506020810190506136a9565b838801955050505b50505092915050565b60006136e6600683613f0b565b91506136f1826142ae565b602082019050919050565b6000613709602b83613f0b565b9150613714826142d7565b604082019050919050565b600061372c603283613f0b565b915061373782614326565b604082019050919050565b600061374f602683613f0b565b915061375a82614375565b604082019050919050565b6000613772602583613f0b565b915061377d826143c4565b604082019050919050565b6000613795601c83613f0b565b91506137a082614413565b602082019050919050565b60006137b8602483613f0b565b91506137c38261443c565b604082019050919050565b60006137db601983613f0b565b91506137e68261448b565b602082019050919050565b60006137fe602c83613f0b565b9150613809826144b4565b604082019050919050565b6000613821603883613f0b565b915061382c82614503565b604082019050919050565b6000613844602a83613f0b565b915061384f82614552565b604082019050919050565b6000613867602983613f0b565b9150613872826145a1565b604082019050919050565b600061388a602583613f0b565b9150613895826145f0565b604082019050919050565b60006138ad602083613f0b565b91506138b88261463f565b602082019050919050565b60006138d0602c83613f0b565b91506138db82614668565b604082019050919050565b60006138f3602083613f0b565b91506138fe826146b7565b602082019050919050565b6000613916602f83613f0b565b9150613921826146e0565b604082019050919050565b6000613939602183613f0b565b91506139448261472f565b604082019050919050565b600061395c600a83613f0b565b91506139678261477e565b602082019050919050565b600061397f603183613f0b565b915061398a826147a7565b604082019050919050565b60006139a2602c83613f0b565b91506139ad826147f6565b604082019050919050565b60006139c5600b83613f0b565b91506139d082614845565b602082019050919050565b6139e4816140b8565b82525050565b6139f3816140b8565b82525050565b6000613a058286613629565b9150613a118285613629565b9150613a1d828461365a565b9150819050949350505050565b6000602082019050613a3f600083018461353b565b92915050565b6000602082019050613a5a600083018461352c565b92915050565b6000608082019050613a75600083018761353b565b613a82602083018661353b565b613a8f60408301856139ea565b8181036060830152613aa181846135b7565b905095945050505050565b6000604082019050613ac1600083018561353b565b613ace60208301846139ea565b9392505050565b60006020820190508181036000830152613aef818461354a565b905092915050565b6000602082019050613b0c60008301846135a8565b92915050565b60006020820190508181036000830152613b2c81846135f0565b905092915050565b60006020820190508181036000830152613b4d816136d9565b9050919050565b60006020820190508181036000830152613b6d816136fc565b9050919050565b60006020820190508181036000830152613b8d8161371f565b9050919050565b60006020820190508181036000830152613bad81613742565b9050919050565b60006020820190508181036000830152613bcd81613765565b9050919050565b60006020820190508181036000830152613bed81613788565b9050919050565b60006020820190508181036000830152613c0d816137ab565b9050919050565b60006020820190508181036000830152613c2d816137ce565b9050919050565b60006020820190508181036000830152613c4d816137f1565b9050919050565b60006020820190508181036000830152613c6d81613814565b9050919050565b60006020820190508181036000830152613c8d81613837565b9050919050565b60006020820190508181036000830152613cad8161385a565b9050919050565b60006020820190508181036000830152613ccd8161387d565b9050919050565b60006020820190508181036000830152613ced816138a0565b9050919050565b60006020820190508181036000830152613d0d816138c3565b9050919050565b60006020820190508181036000830152613d2d816138e6565b9050919050565b60006020820190508181036000830152613d4d81613909565b9050919050565b60006020820190508181036000830152613d6d8161392c565b9050919050565b60006020820190508181036000830152613d8d8161394f565b9050919050565b60006020820190508181036000830152613dad81613972565b9050919050565b60006020820190508181036000830152613dcd81613995565b9050919050565b60006020820190508181036000830152613ded816139b8565b9050919050565b6000602082019050613e0960008301846139ea565b92915050565b6000613e19613e2a565b9050613e258282614136565b919050565b6000604051905090565b600067ffffffffffffffff821115613e4f57613e4e61426e565b5b613e588261429d565b9050602081019050919050565b600067ffffffffffffffff821115613e8057613e7f61426e565b5b613e898261429d565b9050602081019050919050565b6000819050602082019050919050565b60008190508160005260206000209050919050565b600081519050919050565b600081519050919050565b600081519050919050565b6000602082019050919050565b600082825260208201905092915050565b600082825260208201905092915050565b600082825260208201905092915050565b600081905092915050565b6000613f32826140b8565b9150613f3d836140b8565b9250827fffffffffffffffffffffffffffffffffffffffffffffffffffffffffffffffff03821115613f7257613f716141e1565b5b828201905092915050565b6000613f88826140b8565b9150613f93836140b8565b925082613fa357613fa2614210565b5b828204905092915050565b6000613fb9826140b8565b9150613fc4836140b8565b9250817fffffffffffffffffffffffffffffffffffffffffffffffffffffffffffffffff0483118215151615613ffd57613ffc6141e1565b5b828202905092915050565b6000614013826140b8565b915061401e836140b8565b925082821015614031576140306141e1565b5b828203905092915050565b600061404782614098565b9050919050565b600061405982614098565b9050919050565b60008115159050919050565b60007fffffffff0000000000000000000000000000000000000000000000000000000082169050919050565b600073ffffffffffffffffffffffffffffffffffffffff82169050919050565b6000819050919050565b82818337600083830152505050565b60005b838110156140ef5780820151818401526020810190506140d4565b838111156140fe576000848401525b50505050565b6000600282049050600182168061411c57607f821691505b602082108114156141305761412f61423f565b5b50919050565b61413f8261429d565b810181811067ffffffffffffffff8211171561415e5761415d61426e565b5b80604052505050565b6000614172826140b8565b91507fffffffffffffffffffffffffffffffffffffffffffffffffffffffffffffffff8214156141a5576141a46141e1565b5b600182019050919050565b60006141bb826140b8565b91506141c6836140b8565b9250826141d6576141d5614210565b5b828206905092915050565b7f4e487b7100000000000000000000000000000000000000000000000000000000600052601160045260246000fd5b7f4e487b7100000000000000000000000000000000000000000000000000000000600052601260045260246000fd5b7f4e487b7100000000000000000000000000000000000000000000000000000000600052602260045260246000fd5b7f4e487b7100000000000000000000000000000000000000000000000000000000600052604160045260246000fd5b6000601f19601f8301169050919050565b7f5061757365640000000000000000000000000000000000000000000000000000600082015250565b7f455243373231456e756d657261626c653a206f776e657220696e646578206f7560008201527f74206f6620626f756e6473000000000000000000000000000000000000000000602082015250565b7f4552433732313a207472616e7366657220746f206e6f6e20455243373231526560008201527f63656976657220696d706c656d656e7465720000000000000000000000000000602082015250565b7f4f776e61626c653a206e6577206f776e657220697320746865207a65726f206160008201527f6464726573730000000000000000000000000000000000000000000000000000602082015250565b7f4552433732313a207472616e736665722066726f6d20696e636f72726563742060008201527f6f776e6572000000000000000000000000000000000000000000000000000000602082015250565b7f4552433732313a20746f6b656e20616c7265616479206d696e74656400000000600082015250565b7f4552433732313a207472616e7366657220746f20746865207a65726f2061646460008201527f7265737300000000000000000000000000000000000000000000000000000000602082015250565b7f4552433732313a20617070726f766520746f2063616c6c657200000000000000600082015250565b7f4552433732313a206f70657261746f7220717565727920666f72206e6f6e657860008201527f697374656e7420746f6b656e0000000000000000000000000000000000000000602082015250565b7f4552433732313a20617070726f76652063616c6c6572206973206e6f74206f7760008201527f6e6572206e6f7220617070726f76656420666f7220616c6c0000000000000000602082015250565b7f4552433732313a2062616c616e636520717565727920666f7220746865207a6560008201527f726f206164647265737300000000000000000000000000000000000000000000602082015250565b7f4552433732313a206f776e657220717565727920666f72206e6f6e657869737460008201527f656e7420746f6b656e0000000000000000000000000000000000000000000000602082015250565b7f54686973206b6e69766520616c726561647920636c61696d6564206120736f6c60008201527f646965722e000000000000000000000000000000000000000000000000000000602082015250565b7f4552433732313a206d696e7420746f20746865207a65726f2061646472657373600082015250565b7f4552433732313a20617070726f76656420717565727920666f72206e6f6e657860008201527f697374656e7420746f6b656e0000000000000000000000000000000000000000602082015250565b7f4f776e61626c653a2063616c6c6572206973206e6f7420746865206f776e6572600082015250565b7f4552433732314d657461646174613a2055524920717565727920666f72206e6f60008201527f6e6578697374656e7420746f6b656e0000000000000000000000000000000000602082015250565b7f4552433732313a20617070726f76616c20746f2063757272656e74206f776e6560008201527f7200000000000000000000000000000000000000000000000000000000000000602082015250565b7f4e6f74206f776e65722e00000000000000000000000000000000000000000000600082015250565b7f4552433732313a207472616e736665722063616c6c6572206973206e6f74206f60008201527f776e6572206e6f7220617070726f766564000000000000000000000000000000602082015250565b7f455243373231456e756d657261626c653a20676c6f62616c20696e646578206f60008201527f7574206f6620626f756e64730000000000000000000000000000000000000000602082015250565b7f416c6c20636c61696d6564000000000000000000000000000000000000000000600082015250565b6148778161403c565b811461488257600080fd5b50565b61488e81614060565b811461489957600080fd5b50565b6148a58161406c565b81146148b057600080fd5b50565b6148bc816140b8565b81146148c757600080fd5b5056fea26469706673582212202f21bf562625e92d1919b7734bfc1dbe473bb247880aba7353c6ee2256b235a064736f6c63430008040033",
  "linkReferences": {},
  "deployedLinkReferences": {}
}