{
  "_format": "hh-sol-artifact-1",
  "contractName": "LegacyToken",
  "sourceName": "contracts/LegacyToken.sol",
  "abi": [
    {
      "inputs": [],
      "stateMutability": "nonpayable",
      "type": "constructor"
    },
    {
      "anonymous": false,
      "inputs": [
        {
          "indexed": true,
          "internalType": "address",
          "name": "owner",
          "type": "address"
        },
        {
          "indexed": true,
          "internalType": "address",
          "name": "spender",
          "type": "address"
        },
        {
          "indexed": false,
          "internalType": "uint256",
          "name": "value",
          "type": "uint256"
        }
      ],
      "name": "Approval",
      "type": "event"
    },
    {
      "anonymous": false,
      "inputs": [
        {
          "indexed": true,
          "internalType": "address",
          "name": "to",
          "type": "address"
        },
        {
          "indexed": false,
          "internalType": "uint256",
          "name": "value",
          "type": "uint256"
        }
      ],
      "name": "Lock",
      "type": "event"
    },
    {
      "anonymous": false,
      "inputs": [
        {
          "indexed": true,
          "internalType": "address",
          "name": "previousOwner",
          "type": "address"
        },
        {
          "indexed": true,
          "internalType": "address",
          "name": "newOwner",
          "type": "address"
        }
      ],
      "name": "OwnershipTransferred",
      "type": "event"
    },
    {
      "anonymous": false,
      "inputs": [
        {
          "indexed": true,
          "internalType": "address",
          "name": "from",
          "type": "address"
        },
        {
          "indexed": true,
          "internalType": "address",
          "name": "to",
          "type": "address"
        },
        {
          "indexed": false,
          "internalType": "uint256",
          "name": "value",
          "type": "uint256"
        }
      ],
      "name": "Transfer",
      "type": "event"
    },
    {
      "anonymous": false,
      "inputs": [
        {
          "indexed": true,
          "internalType": "address",
          "name": "to",
          "type": "address"
        },
        {
          "indexed": false,
          "internalType": "uint256",
          "name": "value",
          "type": "uint256"
        }
      ],
      "name": "Unlock",
      "type": "event"
    },
    {
      "inputs": [
        {
          "internalType": "address",
          "name": "_toAdd",
          "type": "address"
        }
      ],
      "name": "addAuthorized",
      "outputs": [],
      "stateMutability": "nonpayable",
      "type": "function"
    },
    {
      "inputs": [
        {
          "internalType": "address",
          "name": "owner",
          "type": "address"
        },
        {
          "internalType": "address",
          "name": "spender",
          "type": "address"
        }
      ],
      "name": "allowance",
      "outputs": [
        {
          "internalType": "uint256",
          "name": "",
          "type": "uint256"
        }
      ],
      "stateMutability": "view",
      "type": "function"
    },
    {
      "inputs": [
        {
          "internalType": "address",
          "name": "spender",
          "type": "address"
        },
        {
          "internalType": "uint256",
          "name": "amount",
          "type": "uint256"
        }
      ],
      "name": "approve",
      "outputs": [
        {
          "internalType": "bool",
          "name": "",
          "type": "bool"
        }
      ],
      "stateMutability": "nonpayable",
      "type": "function"
    },
    {
      "inputs": [
        {
          "internalType": "address",
          "name": "",
          "type": "address"
        }
      ],
      "name": "authorized",
      "outputs": [
        {
          "internalType": "bool",
          "name": "",
          "type": "bool"
        }
      ],
      "stateMutability": "view",
      "type": "function"
    },
    {
      "inputs": [
        {
          "internalType": "address",
          "name": "account",
          "type": "address"
        }
      ],
      "name": "balanceOf",
      "outputs": [
        {
          "internalType": "uint256",
          "name": "",
          "type": "uint256"
        }
      ],
      "stateMutability": "view",
      "type": "function"
    },
    {
      "inputs": [
        {
          "internalType": "uint256",
          "name": "amount",
          "type": "uint256"
        }
      ],
      "name": "burn",
      "outputs": [],
      "stateMutability": "nonpayable",
      "type": "function"
    },
    {
      "inputs": [],
      "name": "cap",
      "outputs": [
        {
          "internalType": "uint256",
          "name": "",
          "type": "uint256"
        }
      ],
      "stateMutability": "view",
      "type": "function"
    },
    {
      "inputs": [
        {
          "internalType": "uint256",
          "name": "_newCap",
          "type": "uint256"
        }
      ],
      "name": "capUpdate",
      "outputs": [],
      "stateMutability": "nonpayable",
      "type": "function"
    },
    {
      "inputs": [],
      "name": "circulatingSupply",
      "outputs": [
        {
          "internalType": "uint256",
          "name": "",
          "type": "uint256"
        }
      ],
      "stateMutability": "view",
      "type": "function"
    },
    {
      "inputs": [],
      "name": "decimals",
      "outputs": [
        {
          "internalType": "uint8",
          "name": "",
          "type": "uint8"
        }
      ],
      "stateMutability": "view",
      "type": "function"
    },
    {
      "inputs": [
        {
          "internalType": "address",
          "name": "spender",
          "type": "address"
        },
        {
          "internalType": "uint256",
          "name": "subtractedValue",
          "type": "uint256"
        }
      ],
      "name": "decreaseAllowance",
      "outputs": [
        {
          "internalType": "bool",
          "name": "",
          "type": "bool"
        }
      ],
      "stateMutability": "nonpayable",
      "type": "function"
    },
    {
      "inputs": [
        {
          "internalType": "address",
          "name": "spender",
          "type": "address"
        },
        {
          "internalType": "uint256",
          "name": "addedValue",
          "type": "uint256"
        }
      ],
      "name": "increaseAllowance",
      "outputs": [
        {
          "internalType": "bool",
          "name": "",
          "type": "bool"
        }
      ],
      "stateMutability": "nonpayable",
      "type": "function"
    },
    {
      "inputs": [
        {
          "internalType": "address",
          "name": "_holder",
          "type": "address"
        },
        {
          "internalType": "uint256",
          "name": "_amount",
          "type": "uint256"
        }
      ],
      "name": "lock",
      "outputs": [],
      "stateMutability": "nonpayable",
      "type": "function"
    },
    {
      "inputs": [
        {
          "internalType": "address",
          "name": "_holder",
          "type": "address"
        }
      ],
      "name": "lockOf",
      "outputs": [
        {
          "internalType": "uint256",
          "name": "",
          "type": "uint256"
        }
      ],
      "stateMutability": "view",
      "type": "function"
    },
    {
      "inputs": [],
      "name": "lockedSupply",
      "outputs": [
        {
          "internalType": "uint256",
          "name": "",
          "type": "uint256"
        }
      ],
      "stateMutability": "view",
      "type": "function"
    },
    {
      "inputs": [
        {
          "internalType": "address",
          "name": "to",
          "type": "address"
        },
        {
          "internalType": "uint256",
          "name": "amount",
          "type": "uint256"
        }
      ],
      "name": "mint",
      "outputs": [],
      "stateMutability": "nonpayable",
      "type": "function"
    },
    {
      "inputs": [],
      "name": "name",
      "outputs": [
        {
          "internalType": "string",
          "name": "",
          "type": "string"
        }
      ],
      "stateMutability": "view",
      "type": "function"
    },
    {
      "inputs": [],
      "name": "owner",
      "outputs": [
        {
          "internalType": "address",
          "name": "",
          "type": "address"
        }
      ],
      "stateMutability": "view",
      "type": "function"
    },
    {
      "inputs": [
        {
          "internalType": "address",
          "name": "_toRemove",
          "type": "address"
        }
      ],
      "name": "removeAuthorized",
      "outputs": [],
      "stateMutability": "nonpayable",
      "type": "function"
    },
    {
      "inputs": [],
      "name": "renounceOwnership",
      "outputs": [],
      "stateMutability": "nonpayable",
      "type": "function"
    },
    {
      "inputs": [],
      "name": "symbol",
      "outputs": [
        {
          "internalType": "string",
          "name": "",
          "type": "string"
        }
      ],
      "stateMutability": "view",
      "type": "function"
    },
    {
      "inputs": [
        {
          "internalType": "address",
          "name": "_holder",
          "type": "address"
        }
      ],
      "name": "totalBalanceOf",
      "outputs": [
        {
          "internalType": "uint256",
          "name": "",
          "type": "uint256"
        }
      ],
      "stateMutability": "view",
      "type": "function"
    },
    {
      "inputs": [],
      "name": "totalLock",
      "outputs": [
        {
          "internalType": "uint256",
          "name": "",
          "type": "uint256"
        }
      ],
      "stateMutability": "view",
      "type": "function"
    },
    {
      "inputs": [],
      "name": "totalSupply",
      "outputs": [
        {
          "internalType": "uint256",
          "name": "",
          "type": "uint256"
        }
      ],
      "stateMutability": "view",
      "type": "function"
    },
    {
      "inputs": [
        {
          "internalType": "address",
          "name": "to",
          "type": "address"
        },
        {
          "internalType": "uint256",
          "name": "amount",
          "type": "uint256"
        }
      ],
      "name": "transfer",
      "outputs": [
        {
          "internalType": "bool",
          "name": "",
          "type": "bool"
        }
      ],
      "stateMutability": "nonpayable",
      "type": "function"
    },
    {
      "inputs": [
        {
          "internalType": "address",
          "name": "from",
          "type": "address"
        },
        {
          "internalType": "address",
          "name": "to",
          "type": "address"
        },
        {
          "internalType": "uint256",
          "name": "amount",
          "type": "uint256"
        }
      ],
      "name": "transferFrom",
      "outputs": [
        {
          "internalType": "bool",
          "name": "",
          "type": "bool"
        }
      ],
      "stateMutability": "nonpayable",
      "type": "function"
    },
    {
      "inputs": [
        {
          "internalType": "address",
          "name": "newOwner",
          "type": "address"
        }
      ],
      "name": "transferOwnership",
      "outputs": [],
      "stateMutability": "nonpayable",
      "type": "function"
    },
    {
      "inputs": [
        {
          "internalType": "address",
          "name": "holder",
          "type": "address"
        },
        {
          "internalType": "uint256",
          "name": "amount",
          "type": "uint256"
        }
      ],
      "name": "unlock",
      "outputs": [],
      "stateMutability": "nonpayable",
      "type": "function"
    },
    {
      "inputs": [],
      "name": "unlockedSupply",
      "outputs": [
        {
          "internalType": "uint256",
          "name": "",
          "type": "uint256"
        }
      ],
      "stateMutability": "view",
      "type": "function"
    }
  ],
  "bytecode": "0x60806040526b019d971e4fe8401e740000006007553480156200002157600080fd5b506040518060400160405280600c81526020017f4c656761637920546f6b656e00000000000000000000000000000000000000008152506040518060400160405280600481526020017f4c474359000000000000000000000000000000000000000000000000000000008152508160039080519060200190620000a692919062000356565b508060049080519060200190620000bf92919062000356565b505050620000e2620000d66200010560201b60201c565b6200010d60201b60201c565b620000ff336a084595161401484a000000620001d360201b60201c565b620005b2565b600033905090565b6000600560009054906101000a900473ffffffffffffffffffffffffffffffffffffffff16905081600560006101000a81548173ffffffffffffffffffffffffffffffffffffffff021916908373ffffffffffffffffffffffffffffffffffffffff1602179055508173ffffffffffffffffffffffffffffffffffffffff168173ffffffffffffffffffffffffffffffffffffffff167f8be0079c531659141344cd1fd0a4f28419497f9722a3daafe3b4186f6b6457e060405160405180910390a35050565b600073ffffffffffffffffffffffffffffffffffffffff168273ffffffffffffffffffffffffffffffffffffffff16141562000246576040517f08c379a00000000000000000000000000000000000000000000000000000000081526004016200023d906200043e565b60405180910390fd5b6200025a600083836200034c60201b60201c565b80600260008282546200026e91906200048e565b92505081905550806000808473ffffffffffffffffffffffffffffffffffffffff1673ffffffffffffffffffffffffffffffffffffffff1681526020019081526020016000206000828254620002c591906200048e565b925050819055508173ffffffffffffffffffffffffffffffffffffffff16600073ffffffffffffffffffffffffffffffffffffffff167fddf252ad1be2c89b69c2b068fc378daa952ba7f163c4a11628f55a4df523b3ef836040516200032c919062000460565b60405180910390a362000348600083836200035160201b60201c565b5050565b505050565b505050565b8280546200036490620004f5565b90600052602060002090601f016020900481019282620003885760008555620003d4565b82601f10620003a357805160ff1916838001178555620003d4565b82800160010185558215620003d4579182015b82811115620003d3578251825591602001919060010190620003b6565b5b509050620003e39190620003e7565b5090565b5b8082111562000402576000816000905550600101620003e8565b5090565b600062000415601f836200047d565b9150620004228262000589565b602082019050919050565b6200043881620004eb565b82525050565b60006020820190508181036000830152620004598162000406565b9050919050565b60006020820190506200047760008301846200042d565b92915050565b600082825260208201905092915050565b60006200049b82620004eb565b9150620004a883620004eb565b9250827fffffffffffffffffffffffffffffffffffffffffffffffffffffffffffffffff03821115620004e057620004df6200052b565b5b828201905092915050565b6000819050919050565b600060028204905060018216806200050e57607f821691505b602082108114156200052557620005246200055a565b5b50919050565b7f4e487b7100000000000000000000000000000000000000000000000000000000600052601160045260246000fd5b7f4e487b7100000000000000000000000000000000000000000000000000000000600052602260045260246000fd5b7f45524332303a206d696e7420746f20746865207a65726f206164647265737300600082015250565b612cae80620005c26000396000f3fe608060405234801561001057600080fd5b50600436106101cf5760003560e01c80635a46d3b511610104578063a457c2d7116100a2578063cf1c316a11610071578063cf1c316a14610544578063dd62ed3e14610560578063f2fde38b14610590578063fd3d27b8146105ac576101cf565b8063a457c2d714610496578063a9059cbb146104c6578063b9181611146104f6578063ca5c7b9114610526576101cf565b80637eee288d116100de5780637eee288d146104205780638da5cb5b1461043c5780639358928b1461045a57806395d89b4114610478576101cf565b80635a46d3b5146103b657806370a08231146103e6578063715018a614610416576101cf565b8063395093511161017157806340c10f191161014b57806340c10f191461033257806342966c681461034e578063485d7d941461036a5780634b0ee02a14610386576101cf565b806339509351146102c85780633a1aae35146102f857806340346c4914610316576101cf565b806323b872dd116101ad57806323b872dd14610240578063282d3fdf14610270578063313ce5671461028c578063355274ea146102aa576101cf565b806306fdde03146101d4578063095ea7b3146101f257806318160ddd14610222575b600080fd5b6101dc6105ca565b6040516101e991906123f4565b60405180910390f35b61020c60048036038101906102079190612091565b61065c565b60405161021991906123d9565b60405180910390f35b61022a61067f565b6040516102379190612636565b60405180910390f35b61025a60048036038101906102559190612042565b610689565b60405161026791906123d9565b60405180910390f35b61028a60048036038101906102859190612091565b6106b8565b005b61029461093b565b6040516102a19190612651565b60405180910390f35b6102b2610944565b6040516102bf9190612636565b60405180910390f35b6102e260048036038101906102dd9190612091565b61094e565b6040516102ef91906123d9565b60405180910390f35b6103006109f8565b60405161030d9190612636565b60405180910390f35b610330600480360381019061032b91906120cd565b610a02565b005b61034c60048036038101906103479190612091565b610ad5565b005b610368600480360381019061036391906120cd565b610c08565b005b610384600480360381019061037f9190611fdd565b610cde565b005b6103a0600480360381019061039b9190611fdd565b610dee565b6040516103ad9190612636565b60405180910390f35b6103d060048036038101906103cb9190611fdd565b610e4a565b6040516103dd9190612636565b60405180910390f35b61040060048036038101906103fb9190611fdd565b610e93565b60405161040d9190612636565b60405180910390f35b61041e610edb565b005b61043a60048036038101906104359190612091565b610f63565b005b610444611253565b60405161045191906123be565b60405180910390f35b61046261127d565b60405161046f9190612636565b60405180910390f35b61048061128c565b60405161048d91906123f4565b60405180910390f35b6104b060048036038101906104ab9190612091565b61131e565b6040516104bd91906123d9565b60405180910390f35b6104e060048036038101906104db9190612091565b611408565b6040516104ed91906123d9565b60405180910390f35b610510600480360381019061050b9190611fdd565b61142b565b60405161051d91906123d9565b60405180910390f35b61052e61144b565b60405161053b9190612636565b60405180910390f35b61055e60048036038101906105599190611fdd565b61145a565b005b61057a60048036038101906105759190612006565b611531565b6040516105879190612636565b60405180910390f35b6105aa60048036038101906105a59190611fdd565b6115b8565b005b6105b46116b0565b6040516105c19190612636565b60405180910390f35b6060600380546105d99061279a565b80601f01602080910402602001604051908101604052809291908181526020018280546106059061279a565b80156106525780601f1061062757610100808354040283529160200191610652565b820191906000526020600020905b81548152906001019060200180831161063557829003601f168201915b5050505050905090565b6000806106676116cc565b90506106748185856116d4565b600191505092915050565b6000600254905090565b6000806106946116cc565b90506106a185828561189f565b6106ac85858561192b565b60019150509392505050565b600660003373ffffffffffffffffffffffffffffffffffffffff1673ffffffffffffffffffffffffffffffffffffffff16815260200190815260200160002060009054906101000a900460ff168061074257503373ffffffffffffffffffffffffffffffffffffffff1661072a611253565b73ffffffffffffffffffffffffffffffffffffffff16145b610781576040517f08c379a000000000000000000000000000000000000000000000000000000000815260040161077890612576565b60405180910390fd5b600073ffffffffffffffffffffffffffffffffffffffff168273ffffffffffffffffffffffffffffffffffffffff1614156107f1576040517f08c379a00000000000000000000000000000000000000000000000000000000081526004016107e8906124f6565b60405180910390fd5b6107fa82610e93565b81111561083c576040517f08c379a0000000000000000000000000000000000000000000000000000000008152600401610833906124d6565b60405180910390fd5b61084782308361192b565b80600960008473ffffffffffffffffffffffffffffffffffffffff1673ffffffffffffffffffffffffffffffffffffffff168152602001908152602001600020546108929190612688565b600960008473ffffffffffffffffffffffffffffffffffffffff1673ffffffffffffffffffffffffffffffffffffffff16815260200190815260200160002081905550806008546108e39190612688565b6008819055508173ffffffffffffffffffffffffffffffffffffffff167f625fed9875dada8643f2418b838ae0bc78d9a148a18eee4ee1979ff0f3f5d4278260405161092f9190612636565b60405180910390a25050565b60006012905090565b6000600754905090565b6000806109596116cc565b90506109ed818585600160008673ffffffffffffffffffffffffffffffffffffffff1673ffffffffffffffffffffffffffffffffffffffff16815260200190815260200160002060008973ffffffffffffffffffffffffffffffffffffffff1673ffffffffffffffffffffffffffffffffffffffff168152602001908152602001600020546109e89190612688565b6116d4565b600191505092915050565b6000600854905090565b600660003373ffffffffffffffffffffffffffffffffffffffff1673ffffffffffffffffffffffffffffffffffffffff16815260200190815260200160002060009054906101000a900460ff1680610a8c57503373ffffffffffffffffffffffffffffffffffffffff16610a74611253565b73ffffffffffffffffffffffffffffffffffffffff16145b610acb576040517f08c379a0000000000000000000000000000000000000000000000000000000008152600401610ac290612576565b60405180910390fd5b8060078190555050565b600660003373ffffffffffffffffffffffffffffffffffffffff1673ffffffffffffffffffffffffffffffffffffffff16815260200190815260200160002060009054906101000a900460ff1680610b5f57503373ffffffffffffffffffffffffffffffffffffffff16610b47611253565b73ffffffffffffffffffffffffffffffffffffffff16145b610b9e576040517f08c379a0000000000000000000000000000000000000000000000000000000008152600401610b9590612576565b60405180910390fd5b610ba6610944565b81610baf61067f565b610bb99190612688565b1115610bfa576040517f08c379a0000000000000000000000000000000000000000000000000000000008152600401610bf1906125b6565b60405180910390fd5b610c048282611bac565b5050565b600660003373ffffffffffffffffffffffffffffffffffffffff1673ffffffffffffffffffffffffffffffffffffffff16815260200190815260200160002060009054906101000a900460ff1680610c9257503373ffffffffffffffffffffffffffffffffffffffff16610c7a611253565b73ffffffffffffffffffffffffffffffffffffffff16145b610cd1576040517f08c379a0000000000000000000000000000000000000000000000000000000008152600401610cc890612576565b60405180910390fd5b610cdb3382611d0c565b50565b610ce66116cc565b73ffffffffffffffffffffffffffffffffffffffff16610d04611253565b73ffffffffffffffffffffffffffffffffffffffff1614610d5a576040517f08c379a0000000000000000000000000000000000000000000000000000000008152600401610d5190612536565b60405180910390fd5b3373ffffffffffffffffffffffffffffffffffffffff168173ffffffffffffffffffffffffffffffffffffffff161415610d9357600080fd5b6000600660008373ffffffffffffffffffffffffffffffffffffffff1673ffffffffffffffffffffffffffffffffffffffff16815260200190815260200160002060006101000a81548160ff02191690831515021790555050565b6000610df982610e93565b600960008473ffffffffffffffffffffffffffffffffffffffff1673ffffffffffffffffffffffffffffffffffffffff16815260200190815260200160002054610e439190612688565b9050919050565b6000600960008373ffffffffffffffffffffffffffffffffffffffff1673ffffffffffffffffffffffffffffffffffffffff168152602001908152602001600020549050919050565b60008060008373ffffffffffffffffffffffffffffffffffffffff1673ffffffffffffffffffffffffffffffffffffffff168152602001908152602001600020549050919050565b610ee36116cc565b73ffffffffffffffffffffffffffffffffffffffff16610f01611253565b73ffffffffffffffffffffffffffffffffffffffff1614610f57576040517f08c379a0000000000000000000000000000000000000000000000000000000008152600401610f4e90612536565b60405180910390fd5b610f616000611ee3565b565b600660003373ffffffffffffffffffffffffffffffffffffffff1673ffffffffffffffffffffffffffffffffffffffff16815260200190815260200160002060009054906101000a900460ff1680610fed57503373ffffffffffffffffffffffffffffffffffffffff16610fd5611253565b73ffffffffffffffffffffffffffffffffffffffff16145b61102c576040517f08c379a000000000000000000000000000000000000000000000000000000000815260040161102390612576565b60405180910390fd5b6000600960008473ffffffffffffffffffffffffffffffffffffffff1673ffffffffffffffffffffffffffffffffffffffff16815260200190815260200160002054116110ae576040517f08c379a00000000000000000000000000000000000000000000000000000000081526004016110a590612516565b60405180910390fd5b600960008373ffffffffffffffffffffffffffffffffffffffff1673ffffffffffffffffffffffffffffffffffffffff1681526020019081526020016000205481111561113857600960008373ffffffffffffffffffffffffffffffffffffffff1673ffffffffffffffffffffffffffffffffffffffff1681526020019081526020016000205490505b61114130610e93565b8111156111545761115130610e93565b90505b61115f30838361192b565b80600960008473ffffffffffffffffffffffffffffffffffffffff1673ffffffffffffffffffffffffffffffffffffffff168152602001908152602001600020546111aa91906126de565b600960008473ffffffffffffffffffffffffffffffffffffffff1673ffffffffffffffffffffffffffffffffffffffff16815260200190815260200160002081905550806008546111fb91906126de565b6008819055508173ffffffffffffffffffffffffffffffffffffffff167f6381d9813cabeb57471b5a7e05078e64845ccdb563146a6911d536f24ce960f1826040516112479190612636565b60405180910390a25050565b6000600560009054906101000a900473ffffffffffffffffffffffffffffffffffffffff16905090565b600061128761067f565b905090565b60606004805461129b9061279a565b80601f01602080910402602001604051908101604052809291908181526020018280546112c79061279a565b80156113145780601f106112e957610100808354040283529160200191611314565b820191906000526020600020905b8154815290600101906020018083116112f757829003601f168201915b5050505050905090565b6000806113296116cc565b90506000600160008373ffffffffffffffffffffffffffffffffffffffff1673ffffffffffffffffffffffffffffffffffffffff16815260200190815260200160002060008673ffffffffffffffffffffffffffffffffffffffff1673ffffffffffffffffffffffffffffffffffffffff168152602001908152602001600020549050838110156113ef576040517f08c379a00000000000000000000000000000000000000000000000000000000081526004016113e6906125f6565b60405180910390fd5b6113fc82868684036116d4565b60019250505092915050565b6000806114136116cc565b905061142081858561192b565b600191505092915050565b60066020528060005260406000206000915054906101000a900460ff1681565b60006114556109f8565b905090565b6114626116cc565b73ffffffffffffffffffffffffffffffffffffffff16611480611253565b73ffffffffffffffffffffffffffffffffffffffff16146114d6576040517f08c379a00000000000000000000000000000000000000000000000000000000081526004016114cd90612536565b60405180910390fd5b6001600660008373ffffffffffffffffffffffffffffffffffffffff1673ffffffffffffffffffffffffffffffffffffffff16815260200190815260200160002060006101000a81548160ff02191690831515021790555050565b6000600160008473ffffffffffffffffffffffffffffffffffffffff1673ffffffffffffffffffffffffffffffffffffffff16815260200190815260200160002060008373ffffffffffffffffffffffffffffffffffffffff1673ffffffffffffffffffffffffffffffffffffffff16815260200190815260200160002054905092915050565b6115c06116cc565b73ffffffffffffffffffffffffffffffffffffffff166115de611253565b73ffffffffffffffffffffffffffffffffffffffff1614611634576040517f08c379a000000000000000000000000000000000000000000000000000000000815260040161162b90612536565b60405180910390fd5b600073ffffffffffffffffffffffffffffffffffffffff168173ffffffffffffffffffffffffffffffffffffffff1614156116a4576040517f08c379a000000000000000000000000000000000000000000000000000000000815260040161169b90612456565b60405180910390fd5b6116ad81611ee3565b50565b60006008546116bd61067f565b6116c791906126de565b905090565b600033905090565b600073ffffffffffffffffffffffffffffffffffffffff168373ffffffffffffffffffffffffffffffffffffffff161415611744576040517f08c379a000000000000000000000000000000000000000000000000000000000815260040161173b906125d6565b60405180910390fd5b600073ffffffffffffffffffffffffffffffffffffffff168273ffffffffffffffffffffffffffffffffffffffff1614156117b4576040517f08c379a00000000000000000000000000000000000000000000000000000000081526004016117ab90612476565b60405180910390fd5b80600160008573ffffffffffffffffffffffffffffffffffffffff1673ffffffffffffffffffffffffffffffffffffffff16815260200190815260200160002060008473ffffffffffffffffffffffffffffffffffffffff1673ffffffffffffffffffffffffffffffffffffffff168152602001908152602001600020819055508173ffffffffffffffffffffffffffffffffffffffff168373ffffffffffffffffffffffffffffffffffffffff167f8c5be1e5ebec7d5bd14f71427d1e84f3dd0314c0f7b2291e5b200ac8c7c3b925836040516118929190612636565b60405180910390a3505050565b60006118ab8484611531565b90507fffffffffffffffffffffffffffffffffffffffffffffffffffffffffffffffff81146119255781811015611917576040517f08c379a000000000000000000000000000000000000000000000000000000000815260040161190e90612496565b60405180910390fd5b61192484848484036116d4565b5b50505050565b600073ffffffffffffffffffffffffffffffffffffffff168373ffffffffffffffffffffffffffffffffffffffff16141561199b576040517f08c379a000000000000000000000000000000000000000000000000000000000815260040161199290612596565b60405180910390fd5b600073ffffffffffffffffffffffffffffffffffffffff168273ffffffffffffffffffffffffffffffffffffffff161415611a0b576040517f08c379a0000000000000000000000000000000000000000000000000000000008152600401611a0290612416565b60405180910390fd5b611a16838383611fa9565b60008060008573ffffffffffffffffffffffffffffffffffffffff1673ffffffffffffffffffffffffffffffffffffffff16815260200190815260200160002054905081811015611a9c576040517f08c379a0000000000000000000000000000000000000000000000000000000008152600401611a93906124b6565b60405180910390fd5b8181036000808673ffffffffffffffffffffffffffffffffffffffff1673ffffffffffffffffffffffffffffffffffffffff16815260200190815260200160002081905550816000808573ffffffffffffffffffffffffffffffffffffffff1673ffffffffffffffffffffffffffffffffffffffff1681526020019081526020016000206000828254611b2f9190612688565b925050819055508273ffffffffffffffffffffffffffffffffffffffff168473ffffffffffffffffffffffffffffffffffffffff167fddf252ad1be2c89b69c2b068fc378daa952ba7f163c4a11628f55a4df523b3ef84604051611b939190612636565b60405180910390a3611ba6848484611fae565b50505050565b600073ffffffffffffffffffffffffffffffffffffffff168273ffffffffffffffffffffffffffffffffffffffff161415611c1c576040517f08c379a0000000000000000000000000000000000000000000000000000000008152600401611c1390612616565b60405180910390fd5b611c2860008383611fa9565b8060026000828254611c3a9190612688565b92505081905550806000808473ffffffffffffffffffffffffffffffffffffffff1673ffffffffffffffffffffffffffffffffffffffff1681526020019081526020016000206000828254611c8f9190612688565b925050819055508173ffffffffffffffffffffffffffffffffffffffff16600073ffffffffffffffffffffffffffffffffffffffff167fddf252ad1be2c89b69c2b068fc378daa952ba7f163c4a11628f55a4df523b3ef83604051611cf49190612636565b60405180910390a3611d0860008383611fae565b5050565b600073ffffffffffffffffffffffffffffffffffffffff168273ffffffffffffffffffffffffffffffffffffffff161415611d7c576040517f08c379a0000000000000000000000000000000000000000000000000000000008152600401611d7390612556565b60405180910390fd5b611d8882600083611fa9565b60008060008473ffffffffffffffffffffffffffffffffffffffff1673ffffffffffffffffffffffffffffffffffffffff16815260200190815260200160002054905081811015611e0e576040517f08c379a0000000000000000000000000000000000000000000000000000000008152600401611e0590612436565b60405180910390fd5b8181036000808573ffffffffffffffffffffffffffffffffffffffff1673ffffffffffffffffffffffffffffffffffffffff168152602001908152602001600020819055508160026000828254611e6591906126de565b92505081905550600073ffffffffffffffffffffffffffffffffffffffff168373ffffffffffffffffffffffffffffffffffffffff167fddf252ad1be2c89b69c2b068fc378daa952ba7f163c4a11628f55a4df523b3ef84604051611eca9190612636565b60405180910390a3611ede83600084611fae565b505050565b6000600560009054906101000a900473ffffffffffffffffffffffffffffffffffffffff16905081600560006101000a81548173ffffffffffffffffffffffffffffffffffffffff021916908373ffffffffffffffffffffffffffffffffffffffff1602179055508173ffffffffffffffffffffffffffffffffffffffff168173ffffffffffffffffffffffffffffffffffffffff167f8be0079c531659141344cd1fd0a4f28419497f9722a3daafe3b4186f6b6457e060405160405180910390a35050565b505050565b505050565b600081359050611fc281612c4a565b92915050565b600081359050611fd781612c61565b92915050565b600060208284031215611fef57600080fd5b6000611ffd84828501611fb3565b91505092915050565b6000806040838503121561201957600080fd5b600061202785828601611fb3565b925050602061203885828601611fb3565b9150509250929050565b60008060006060848603121561205757600080fd5b600061206586828701611fb3565b935050602061207686828701611fb3565b925050604061208786828701611fc8565b9150509250925092565b600080604083850312156120a457600080fd5b60006120b285828601611fb3565b92505060206120c385828601611fc8565b9150509250929050565b6000602082840312156120df57600080fd5b60006120ed84828501611fc8565b91505092915050565b6120ff81612712565b82525050565b61210e81612724565b82525050565b600061211f8261266c565b6121298185612677565b9350612139818560208601612767565b6121428161282a565b840191505092915050565b600061215a602383612677565b91506121658261283b565b604082019050919050565b600061217d602283612677565b91506121888261288a565b604082019050919050565b60006121a0602683612677565b91506121ab826128d9565b604082019050919050565b60006121c3602283612677565b91506121ce82612928565b604082019050919050565b60006121e6601d83612677565b91506121f182612977565b602082019050919050565b6000612209602683612677565b9150612214826129a0565b604082019050919050565b600061222c601883612677565b9150612237826129ef565b602082019050919050565b600061224f601f83612677565b915061225a82612a18565b602082019050919050565b6000612272601a83612677565b915061227d82612a41565b602082019050919050565b6000612295602083612677565b91506122a082612a6a565b602082019050919050565b60006122b8602183612677565b91506122c382612a93565b604082019050919050565b60006122db601883612677565b91506122e682612ae2565b602082019050919050565b60006122fe602583612677565b915061230982612b0b565b604082019050919050565b6000612321601983612677565b915061232c82612b5a565b602082019050919050565b6000612344602483612677565b915061234f82612b83565b604082019050919050565b6000612367602583612677565b915061237282612bd2565b604082019050919050565b600061238a601f83612677565b915061239582612c21565b602082019050919050565b6123a981612750565b82525050565b6123b88161275a565b82525050565b60006020820190506123d360008301846120f6565b92915050565b60006020820190506123ee6000830184612105565b92915050565b6000602082019050818103600083015261240e8184612114565b905092915050565b6000602082019050818103600083015261242f8161214d565b9050919050565b6000602082019050818103600083015261244f81612170565b9050919050565b6000602082019050818103600083015261246f81612193565b9050919050565b6000602082019050818103600083015261248f816121b6565b9050919050565b600060208201905081810360008301526124af816121d9565b9050919050565b600060208201905081810360008301526124cf816121fc565b9050919050565b600060208201905081810360008301526124ef8161221f565b9050919050565b6000602082019050818103600083015261250f81612242565b9050919050565b6000602082019050818103600083015261252f81612265565b9050919050565b6000602082019050818103600083015261254f81612288565b9050919050565b6000602082019050818103600083015261256f816122ab565b9050919050565b6000602082019050818103600083015261258f816122ce565b9050919050565b600060208201905081810360008301526125af816122f1565b9050919050565b600060208201905081810360008301526125cf81612314565b9050919050565b600060208201905081810360008301526125ef81612337565b9050919050565b6000602082019050818103600083015261260f8161235a565b9050919050565b6000602082019050818103600083015261262f8161237d565b9050919050565b600060208201905061264b60008301846123a0565b92915050565b600060208201905061266660008301846123af565b92915050565b600081519050919050565b600082825260208201905092915050565b600061269382612750565b915061269e83612750565b9250827fffffffffffffffffffffffffffffffffffffffffffffffffffffffffffffffff038211156126d3576126d26127cc565b5b828201905092915050565b60006126e982612750565b91506126f483612750565b925082821015612707576127066127cc565b5b828203905092915050565b600061271d82612730565b9050919050565b60008115159050919050565b600073ffffffffffffffffffffffffffffffffffffffff82169050919050565b6000819050919050565b600060ff82169050919050565b60005b8381101561278557808201518184015260208101905061276a565b83811115612794576000848401525b50505050565b600060028204905060018216806127b257607f821691505b602082108114156127c6576127c56127fb565b5b50919050565b7f4e487b7100000000000000000000000000000000000000000000000000000000600052601160045260246000fd5b7f4e487b7100000000000000000000000000000000000000000000000000000000600052602260045260246000fd5b6000601f19601f8301169050919050565b7f45524332303a207472616e7366657220746f20746865207a65726f206164647260008201527f6573730000000000000000000000000000000000000000000000000000000000602082015250565b7f45524332303a206275726e20616d6f756e7420657863656564732062616c616e60008201527f6365000000000000000000000000000000000000000000000000000000000000602082015250565b7f4f776e61626c653a206e6577206f776e657220697320746865207a65726f206160008201527f6464726573730000000000000000000000000000000000000000000000000000602082015250565b7f45524332303a20617070726f766520746f20746865207a65726f20616464726560008201527f7373000000000000000000000000000000000000000000000000000000000000602082015250565b7f45524332303a20696e73756666696369656e7420616c6c6f77616e6365000000600082015250565b7f45524332303a207472616e7366657220616d6f756e742065786365656473206260008201527f616c616e63650000000000000000000000000000000000000000000000000000602082015250565b7f4c6f636b20616d6f756e74206f7665722062616c616e63650000000000000000600082015250565b7f43616e6e6f74206c6f636b20746f20746865207a65726f206164647265737300600082015250565b7f496e73756666696369656e74206c6f636b656420746f6b656e73000000000000600082015250565b7f4f776e61626c653a2063616c6c6572206973206e6f7420746865206f776e6572600082015250565b7f45524332303a206275726e2066726f6d20746865207a65726f2061646472657360008201527f7300000000000000000000000000000000000000000000000000000000000000602082015250565b7f63616c6c6572206973206e6f7420617574686f72697a65640000000000000000600082015250565b7f45524332303a207472616e736665722066726f6d20746865207a65726f20616460008201527f6472657373000000000000000000000000000000000000000000000000000000602082015250565b7f45524332304361707065643a2063617020657863656564656400000000000000600082015250565b7f45524332303a20617070726f76652066726f6d20746865207a65726f2061646460008201527f7265737300000000000000000000000000000000000000000000000000000000602082015250565b7f45524332303a2064656372656173656420616c6c6f77616e63652062656c6f7760008201527f207a65726f000000000000000000000000000000000000000000000000000000602082015250565b7f45524332303a206d696e7420746f20746865207a65726f206164647265737300600082015250565b612c5381612712565b8114612c5e57600080fd5b50565b612c6a81612750565b8114612c7557600080fd5b5056fea2646970667358221220e577679fb8e2f68a3a70dea7b21a36a0e14886b0d6f986451095904cfd3d2daa64736f6c63430008040033",
  "linkReferences": {},
  "deployedLinkReferences": {}
}