{
  "_format": "hh-sol-artifact-1",
  "contractName": "KnivesStaking",
  "sourceName": "contracts/KnivesStaking.sol",
  "abi": [
    {
      "inputs": [
        {
          "internalType": "contract KnivesLegacyV2",
          "name": "_knives_legacy",
          "type": "address"
        },
        {
          "internalType": "contract LegacyToken",
          "name": "_gov_token",
          "type": "address"
        }
      ],
      "stateMutability": "nonpayable",
      "type": "constructor"
    },
    {
      "anonymous": false,
      "inputs": [
        {
          "indexed": false,
          "internalType": "address",
          "name": "user",
          "type": "address"
        },
        {
          "indexed": false,
          "internalType": "uint256",
          "name": "tokenId",
          "type": "uint256"
        }
      ],
      "name": "Deposit",
      "type": "event"
    },
    {
      "anonymous": false,
      "inputs": [
        {
          "indexed": false,
          "internalType": "address",
          "name": "user",
          "type": "address"
        },
        {
          "indexed": false,
          "internalType": "uint256",
          "name": "tokenId",
          "type": "uint256"
        }
      ],
      "name": "Withdraw",
      "type": "event"
    },
    {
      "inputs": [
        {
          "internalType": "uint256",
          "name": "tokenId",
          "type": "uint256"
        }
      ],
      "name": "calculateReward",
      "outputs": [
        {
          "internalType": "uint256",
          "name": "",
          "type": "uint256"
        }
      ],
      "stateMutability": "view",
      "type": "function"
    },
    {
      "inputs": [
        {
          "internalType": "uint256",
          "name": "tokenId",
          "type": "uint256"
        }
      ],
      "name": "claimReflectionReward",
      "outputs": [],
      "stateMutability": "nonpayable",
      "type": "function"
    },
    {
      "inputs": [],
      "name": "claimReflectionRewards",
      "outputs": [],
      "stateMutability": "nonpayable",
      "type": "function"
    },
    {
      "inputs": [],
      "name": "claimRewards",
      "outputs": [],
      "stateMutability": "nonpayable",
      "type": "function"
    },
    {
      "inputs": [
        {
          "internalType": "uint256",
          "name": "",
          "type": "uint256"
        }
      ],
      "name": "claimed",
      "outputs": [
        {
          "internalType": "uint256",
          "name": "",
          "type": "uint256"
        }
      ],
      "stateMutability": "view",
      "type": "function"
    },
    {
      "inputs": [
        {
          "internalType": "uint256[]",
          "name": "tokenIds",
          "type": "uint256[]"
        }
      ],
      "name": "depositSelected",
      "outputs": [],
      "stateMutability": "nonpayable",
      "type": "function"
    },
    {
      "inputs": [
        {
          "internalType": "uint256",
          "name": "",
          "type": "uint256"
        }
      ],
      "name": "depositTimestamp",
      "outputs": [
        {
          "internalType": "uint256",
          "name": "",
          "type": "uint256"
        }
      ],
      "stateMutability": "view",
      "type": "function"
    },
    {
      "inputs": [
        {
          "internalType": "address",
          "name": "",
          "type": "address"
        },
        {
          "internalType": "uint256",
          "name": "",
          "type": "uint256"
        }
      ],
      "name": "depositedTokens",
      "outputs": [
        {
          "internalType": "uint256",
          "name": "",
          "type": "uint256"
        }
      ],
      "stateMutability": "view",
      "type": "function"
    },
    {
      "inputs": [
        {
          "internalType": "address",
          "name": "user",
          "type": "address"
        }
      ],
      "name": "getDepositedTokens",
      "outputs": [
        {
          "internalType": "uint256[]",
          "name": "",
          "type": "uint256[]"
        }
      ],
      "stateMutability": "view",
      "type": "function"
    },
    {
      "inputs": [
        {
          "internalType": "address",
          "name": "user",
          "type": "address"
        }
      ],
      "name": "getPendingRewards",
      "outputs": [
        {
          "internalType": "uint256",
          "name": "",
          "type": "uint256"
        }
      ],
      "stateMutability": "view",
      "type": "function"
    },
    {
      "inputs": [],
      "name": "gov_token",
      "outputs": [
        {
          "internalType": "contract LegacyToken",
          "name": "",
          "type": "address"
        }
      ],
      "stateMutability": "view",
      "type": "function"
    },
    {
      "inputs": [],
      "name": "knives_legacy",
      "outputs": [
        {
          "internalType": "contract KnivesLegacyV2",
          "name": "",
          "type": "address"
        }
      ],
      "stateMutability": "view",
      "type": "function"
    },
    {
      "inputs": [
        {
          "internalType": "address",
          "name": "",
          "type": "address"
        }
      ],
      "name": "stakedAmount",
      "outputs": [
        {
          "internalType": "uint256",
          "name": "",
          "type": "uint256"
        }
      ],
      "stateMutability": "view",
      "type": "function"
    },
    {
      "inputs": [
        {
          "internalType": "uint256",
          "name": "",
          "type": "uint256"
        }
      ],
      "name": "stakerOf",
      "outputs": [
        {
          "internalType": "address",
          "name": "",
          "type": "address"
        }
      ],
      "stateMutability": "view",
      "type": "function"
    },
    {
      "inputs": [
        {
          "internalType": "uint256",
          "name": "",
          "type": "uint256"
        }
      ],
      "name": "tokenIdToIndex",
      "outputs": [
        {
          "internalType": "uint256",
          "name": "",
          "type": "uint256"
        }
      ],
      "stateMutability": "view",
      "type": "function"
    },
    {
      "inputs": [
        {
          "internalType": "uint256[]",
          "name": "tokenIds",
          "type": "uint256[]"
        }
      ],
      "name": "withdrawSelected",
      "outputs": [],
      "stateMutability": "nonpayable",
      "type": "function"
    }
  ],
  "bytecode": "0x60806040523480156200001157600080fd5b50604051620028c6380380620028c68339818101604052810190620000379190620000ef565b81600660006101000a81548173ffffffffffffffffffffffffffffffffffffffff021916908373ffffffffffffffffffffffffffffffffffffffff16021790555080600760006101000a81548173ffffffffffffffffffffffffffffffffffffffff021916908373ffffffffffffffffffffffffffffffffffffffff1602179055505050620001d4565b600081519050620000d281620001a0565b92915050565b600081519050620000e981620001ba565b92915050565b600080604083850312156200010357600080fd5b60006200011385828601620000c1565b92505060206200012685828601620000d8565b9150509250929050565b60006200013d8262000180565b9050919050565b6000620001518262000180565b9050919050565b6000620001658262000144565b9050919050565b6000620001798262000130565b9050919050565b600073ffffffffffffffffffffffffffffffffffffffff82169050919050565b620001ab8162000158565b8114620001b757600080fd5b50565b620001c5816200016c565b8114620001d157600080fd5b50565b6126e280620001e46000396000f3fe608060405234801561001057600080fd5b50600436106101005760003560e01c8063ac86e18611610097578063f6ed201711610066578063f6ed201714610299578063f9931855146102c9578063fb1b11a4146102f9578063fc0774971461032957610100565b8063ac86e186146101ed578063d2d7231f1461021d578063d61ed8411461024d578063dbe7e3bd1461026957610100565b806338795111116100d357806338795111146101675780634ede8c851461018357806358b24751146101b357806375c5fa46146101cf57610100565b80630fc6b2b51461010557806326ec0fbe1461010f5780632ceb2b761461013f578063372500ab1461015d575b600080fd5b61010d610359565b005b61012960048036038101906101249190611ee8565b610624565b6040516101369190612286565b60405180910390f35b61014761063c565b6040516101549190612180565b60405180910390f35b610165610662565b005b610181600480360381019061017c9190611ea3565b6108b7565b005b61019d60048036038101906101989190611ee8565b610926565b6040516101aa9190612286565b60405180910390f35b6101cd60048036038101906101c89190611ea3565b61093e565b005b6101d76109ad565b6040516101e4919061219b565b60405180910390f35b61020760048036038101906102029190611ee8565b6109d3565b60405161021491906120e3565b60405180910390f35b61023760048036038101906102329190611ee8565b610a06565b6040516102449190612286565b60405180910390f35b61026760048036038101906102629190611ee8565b610cea565b005b610283600480360381019061027e9190611ee8565b610f54565b6040516102909190612286565b60405180910390f35b6102b360048036038101906102ae9190611e15565b610f6c565b6040516102c09190612286565b60405180910390f35b6102e360048036038101906102de9190611e15565b611084565b6040516102f09190612286565b60405180910390f35b610313600480360381019061030e9190611e67565b61109c565b6040516103209190612286565b60405180910390f35b610343600480360381019061033e9190611e15565b6110cd565b604051610350919061215e565b60405180910390f35b6000600160003373ffffffffffffffffffffffffffffffffffffffff1673ffffffffffffffffffffffffffffffffffffffff1681526020019081526020016000208054806020026020016040519081016040528092919081815260200182805480156103e457602002820191906000526020600020905b8154815260200190600101908083116103d0575b505050505090506000805b8251811015610595576000838281518110610433577f4e487b7100000000000000000000000000000000000000000000000000000000600052603260045260246000fd5b60200260200101519050600660009054906101000a900473ffffffffffffffffffffffffffffffffffffffff1673ffffffffffffffffffffffffffffffffffffffff1662fe50c6826040518263ffffffff1660e01b81526004016104979190612286565b60206040518083038186803b1580156104af57600080fd5b505afa1580156104c3573d6000803e3d6000fd5b505050506040513d601f19601f820116820180604052508101906104e79190611f11565b836104f2919061232d565b9250600660009054906101000a900473ffffffffffffffffffffffffffffffffffffffff1673ffffffffffffffffffffffffffffffffffffffff1663ae169a50826040518263ffffffff1660e01b815260040161054f9190612286565b600060405180830381600087803b15801561056957600080fd5b505af115801561057d573d6000803e3d6000fd5b5050505050808061058d906124f9565b9150506103ef565b50600081116105d9576040517f08c379a00000000000000000000000000000000000000000000000000000000081526004016105d090612206565b60405180910390fd5b3373ffffffffffffffffffffffffffffffffffffffff166108fc829081150290604051600060405180830381858888f1935050505015801561061f573d6000803e3d6000fd5b505050565b60026020528060005260406000206000915090505481565b600660009054906101000a900473ffffffffffffffffffffffffffffffffffffffff1681565b6000600460003373ffffffffffffffffffffffffffffffffffffffff1673ffffffffffffffffffffffffffffffffffffffff16815260200190815260200160002054905060008080600090505b83811015610793576000600160003373ffffffffffffffffffffffffffffffffffffffff1673ffffffffffffffffffffffffffffffffffffffff1681526020019081526020016000208281548110610730577f4e487b7100000000000000000000000000000000000000000000000000000000600052603260045260246000fd5b9060005260206000200154905061074681610a06565b92508284610754919061232d565b9350826000808381526020019081526020016000206000828254610778919061232d565b9250508190555050808061078b906124f9565b9150506106af565b50600760009054906101000a900473ffffffffffffffffffffffffffffffffffffffff1673ffffffffffffffffffffffffffffffffffffffff166340c10f1933846040518363ffffffff1660e01b81526004016107f1929190612135565b600060405180830381600087803b15801561080b57600080fd5b505af115801561081f573d6000803e3d6000fd5b50505050600760009054906101000a900473ffffffffffffffffffffffffffffffffffffffff1673ffffffffffffffffffffffffffffffffffffffff1663282d3fdf33846040518363ffffffff1660e01b8152600401610880929190612135565b600060405180830381600087803b15801561089a57600080fd5b505af11580156108ae573d6000803e3d6000fd5b50505050505050565b60005b828290508110156109215761090e838383818110610901577f4e487b7100000000000000000000000000000000000000000000000000000000600052603260045260246000fd5b905060200201353361116a565b8080610919906124f9565b9150506108ba565b505050565b60056020528060005260406000206000915090505481565b60005b828290508110156109a857610995838383818110610988577f4e487b7100000000000000000000000000000000000000000000000000000000600052603260045260246000fd5b90506020020135336113c8565b80806109a0906124f9565b915050610941565b505050565b600760009054906101000a900473ffffffffffffffffffffffffffffffffffffffff1681565b60036020528060005260406000206000915054906101000a900473ffffffffffffffffffffffffffffffffffffffff1681565b60008073ffffffffffffffffffffffffffffffffffffffff166003600084815260200190815260200160002060009054906101000a900473ffffffffffffffffffffffffffffffffffffffff1673ffffffffffffffffffffffffffffffffffffffff161415610a785760009050610ce5565b6000600560008481526020019081526020016000205442610a99919061240e565b9050610ada6040518060400160405280600981526020017f74696d657374616d700000000000000000000000000000000000000000000000815250426117ef565b610b2c6040518060400160405280600981526020017f6465706f7369742074000000000000000000000000000000000000000000000081525060056000868152602001908152602001600020546117ef565b600062093a808211610b4c5781602a610b4591906123b4565b9050610c11565b8162093a80108015610b615750621275008211155b15610b975762093a8082610b75919061240e565b6046610b8191906123b4565b6301839900610b90919061232d565b9050610c10565b8162127500108015610bac5750621baf808211155b15610be2576212750082610bc0919061240e565b6067610bcc91906123b4565b6304099800610bdb919061232d565b9050610c0f565b621baf8082610bf1919061240e565b6096610bfd91906123b4565b6307c02180610c0c919061232d565b90505b5b5b610c506040518060400160405280601381526020017f7265776172647353696e63654465706f73697400000000000000000000000000815250826117ef565b610ca16040518060400160405280600781526020017f636c61696d656400000000000000000000000000000000000000000000000000815250600080878152602001908152602001600020546117ef565b6000808581526020019081526020016000205462015180670de0b6b3a764000083610ccc91906123b4565b610cd69190612383565b610ce0919061240e565b925050505b919050565b6003600082815260200190815260200160002060009054906101000a900473ffffffffffffffffffffffffffffffffffffffff1673ffffffffffffffffffffffffffffffffffffffff163373ffffffffffffffffffffffffffffffffffffffff1614610d8b576040517f08c379a0000000000000000000000000000000000000000000000000000000008152600401610d8290612246565b60405180910390fd5b6000600660009054906101000a900473ffffffffffffffffffffffffffffffffffffffff1673ffffffffffffffffffffffffffffffffffffffff1662fe50c6836040518263ffffffff1660e01b8152600401610de79190612286565b60206040518083038186803b158015610dff57600080fd5b505afa158015610e13573d6000803e3d6000fd5b505050506040513d601f19601f82011682018060405250810190610e379190611f11565b905060008111610e7c576040517f08c379a0000000000000000000000000000000000000000000000000000000008152600401610e7390612206565b60405180910390fd5b600660009054906101000a900473ffffffffffffffffffffffffffffffffffffffff1673ffffffffffffffffffffffffffffffffffffffff1663ae169a50836040518263ffffffff1660e01b8152600401610ed79190612286565b600060405180830381600087803b158015610ef157600080fd5b505af1158015610f05573d6000803e3d6000fd5b505050503373ffffffffffffffffffffffffffffffffffffffff166108fc829081150290604051600060405180830381858888f19350505050158015610f4f573d6000803e3d6000fd5b505050565b60006020528060005260406000206000915090505481565b600080600160008473ffffffffffffffffffffffffffffffffffffffff1673ffffffffffffffffffffffffffffffffffffffff168152602001908152602001600020805480602002602001604051908101604052809291908181526020018280548015610ff857602002820191906000526020600020905b815481526020019060010190808311610fe4575b50505050509050600080600090505b82518110156110795761105983828151811061104c577f4e487b7100000000000000000000000000000000000000000000000000000000600052603260045260246000fd5b6020026020010151610a06565b82611064919061232d565b91508080611071906124f9565b915050611007565b508092505050919050565b60046020528060005260406000206000915090505481565b600160205281600052604060002081815481106110b857600080fd5b90600052602060002001600091509150505481565b60606000600160008473ffffffffffffffffffffffffffffffffffffffff1673ffffffffffffffffffffffffffffffffffffffff16815260200190815260200160002080548060200260200160405190810160405280929190818152602001828054801561115a57602002820191906000526020600020905b815481526020019060010190808311611146575b5050505050905080915050919050565b8073ffffffffffffffffffffffffffffffffffffffff166003600084815260200190815260200160002060009054906101000a900473ffffffffffffffffffffffffffffffffffffffff1673ffffffffffffffffffffffffffffffffffffffff161461120b576040517f08c379a0000000000000000000000000000000000000000000000000000000008152600401611202906121e6565b60405180910390fd5b6001600460008373ffffffffffffffffffffffffffffffffffffffff1673ffffffffffffffffffffffffffffffffffffffff168152602001908152602001600020600082825461125b919061240e565b92505081905550600060026000848152602001908152602001600020549050611284818361188b565b61128e8284611a16565b60006003600085815260200190815260200160002060006101000a81548173ffffffffffffffffffffffffffffffffffffffff021916908373ffffffffffffffffffffffffffffffffffffffff160217905550600080600085815260200190815260200160002081905550600660009054906101000a900473ffffffffffffffffffffffffffffffffffffffff1673ffffffffffffffffffffffffffffffffffffffff166323b872dd3084866040518463ffffffff1660e01b8152600401611358939291906120fe565b600060405180830381600087803b15801561137257600080fd5b505af1158015611386573d6000803e3d6000fd5b505050507f884edad9ce6fa2440d8a54cc123490eb96d2768479d49ff9c7366125a942436482846040516113bb929190612135565b60405180910390a1505050565b600660009054906101000a900473ffffffffffffffffffffffffffffffffffffffff1673ffffffffffffffffffffffffffffffffffffffff16636352211e836040518263ffffffff1660e01b81526004016114239190612286565b60206040518083038186803b15801561143b57600080fd5b505afa15801561144f573d6000803e3d6000fd5b505050506040513d601f19601f820116820180604052508101906114739190611e3e565b73ffffffffffffffffffffffffffffffffffffffff168173ffffffffffffffffffffffffffffffffffffffff16146114e0576040517f08c379a00000000000000000000000000000000000000000000000000000000081526004016114d790612226565b60405180910390fd5b6005600460008373ffffffffffffffffffffffffffffffffffffffff1673ffffffffffffffffffffffffffffffffffffffff1681526020019081526020016000205410611562576040517f08c379a000000000000000000000000000000000000000000000000000000000815260040161155990612266565b60405180910390fd5b61156c8183611b7a565b6001600460008373ffffffffffffffffffffffffffffffffffffffff1673ffffffffffffffffffffffffffffffffffffffff16815260200190815260200160002060008282546115bc919061232d565b92505081905550806003600084815260200190815260200160002060006101000a81548173ffffffffffffffffffffffffffffffffffffffff021916908373ffffffffffffffffffffffffffffffffffffffff1602179055506000806000848152602001908152602001600020819055504260056000848152602001908152602001600020819055506116616005600084815260200190815260200160002054611c16565b600160008273ffffffffffffffffffffffffffffffffffffffff1673ffffffffffffffffffffffffffffffffffffffff168152602001908152602001600020805490506002600084815260200190815260200160002081905550600160008273ffffffffffffffffffffffffffffffffffffffff1673ffffffffffffffffffffffffffffffffffffffff168152602001908152602001600020829080600181540180825580915050600190039060005260206000200160009091909190915055600660009054906101000a900473ffffffffffffffffffffffffffffffffffffffff1673ffffffffffffffffffffffffffffffffffffffff166323b872dd8230856040518463ffffffff1660e01b8152600401611780939291906120fe565b600060405180830381600087803b15801561179a57600080fd5b505af11580156117ae573d6000803e3d6000fd5b505050507fe1fffcc4923d04b559f4d29a8bfc6cda04eb5b0d3c460751c2402c5c5cc9109c81836040516117e3929190612135565b60405180910390a15050565b61188782826040516024016118059291906121b6565b6040516020818303038152906040527f9710a9d0000000000000000000000000000000000000000000000000000000007bffffffffffffffffffffffffffffffffffffffffffffffffffffffff19166020820180517bffffffffffffffffffffffffffffffffffffffffffffffffffffffff8381831617835250505050611caf565b5050565b6000600160008373ffffffffffffffffffffffffffffffffffffffff1673ffffffffffffffffffffffffffffffffffffffff168152602001908152602001600020905080600182805490506118e0919061240e565b81548110611917577f4e487b7100000000000000000000000000000000000000000000000000000000600052603260045260246000fd5b906000526020600020015481848154811061195b577f4e487b7100000000000000000000000000000000000000000000000000000000600052603260045260246000fd5b906000526020600020018190555082600260008386815481106119a7577f4e487b7100000000000000000000000000000000000000000000000000000000600052603260045260246000fd5b9060005260206000200154815260200190815260200160002081905550808054806119fb577f4e487b7100000000000000000000000000000000000000000000000000000000600052603160045260246000fd5b60019003818190600052602060002001600090559055505050565b6000611a2182610a06565b9050806000808481526020019081526020016000206000828254611a45919061232d565b92505081905550600760009054906101000a900473ffffffffffffffffffffffffffffffffffffffff1673ffffffffffffffffffffffffffffffffffffffff166340c10f1984836040518363ffffffff1660e01b8152600401611aa9929190612135565b600060405180830381600087803b158015611ac357600080fd5b505af1158015611ad7573d6000803e3d6000fd5b50505050600760009054906101000a900473ffffffffffffffffffffffffffffffffffffffff1673ffffffffffffffffffffffffffffffffffffffff1663282d3fdf84836040518363ffffffff1660e01b8152600401611b38929190612135565b600060405180830381600087803b158015611b5257600080fd5b505af1158015611b66573d6000803e3d6000fd5b50505050611b75428483611cd8565b505050565b611c128282604051602401611b90929190612135565b6040516020818303038152906040527f2243cfa3000000000000000000000000000000000000000000000000000000007bffffffffffffffffffffffffffffffffffffffffffffffffffffffff19166020820180517bffffffffffffffffffffffffffffffffffffffffffffffffffffffff8381831617835250505050611caf565b5050565b611cac81604051602401611c2a9190612286565b6040516020818303038152906040527ff5b1bba9000000000000000000000000000000000000000000000000000000007bffffffffffffffffffffffffffffffffffffffffffffffffffffffff19166020820180517bffffffffffffffffffffffffffffffffffffffffffffffffffffffff8381831617835250505050611caf565b50565b60008151905060006a636f6e736f6c652e6c6f679050602083016000808483855afa5050505050565b611d72838383604051602401611cf0939291906122a1565b6040516020818303038152906040527f884343aa000000000000000000000000000000000000000000000000000000007bffffffffffffffffffffffffffffffffffffffffffffffffffffffff19166020820180517bffffffffffffffffffffffffffffffffffffffffffffffffffffffff8381831617835250505050611caf565b505050565b600081359050611d868161267e565b92915050565b600081519050611d9b8161267e565b92915050565b60008083601f840112611db357600080fd5b8235905067ffffffffffffffff811115611dcc57600080fd5b602083019150836020820283011115611de457600080fd5b9250929050565b600081359050611dfa81612695565b92915050565b600081519050611e0f81612695565b92915050565b600060208284031215611e2757600080fd5b6000611e3584828501611d77565b91505092915050565b600060208284031215611e5057600080fd5b6000611e5e84828501611d8c565b91505092915050565b60008060408385031215611e7a57600080fd5b6000611e8885828601611d77565b9250506020611e9985828601611deb565b9150509250929050565b60008060208385031215611eb657600080fd5b600083013567ffffffffffffffff811115611ed057600080fd5b611edc85828601611da1565b92509250509250929050565b600060208284031215611efa57600080fd5b6000611f0884828501611deb565b91505092915050565b600060208284031215611f2357600080fd5b6000611f3184828501611e00565b91505092915050565b6000611f4683836120c5565b60208301905092915050565b611f5b81612442565b82525050565b6000611f6c826122e8565b611f76818561230b565b9350611f81836122d8565b8060005b83811015611fb2578151611f998882611f3a565b9750611fa4836122fe565b925050600181019050611f85565b5085935050505092915050565b611fc88161247e565b82525050565b611fd7816124a2565b82525050565b6000611fe8826122f3565b611ff2818561231c565b93506120028185602086016124c6565b61200b816125a0565b840191505092915050565b6000612023601d8361231c565b915061202e826125b1565b602082019050919050565b6000612046600b8361231c565b9150612051826125da565b602082019050919050565b600061206960158361231c565b915061207482612603565b602082019050919050565b600061208c60158361231c565b91506120978261262c565b602082019050919050565b60006120af60128361231c565b91506120ba82612655565b602082019050919050565b6120ce81612474565b82525050565b6120dd81612474565b82525050565b60006020820190506120f86000830184611f52565b92915050565b60006060820190506121136000830186611f52565b6121206020830185611f52565b61212d60408301846120d4565b949350505050565b600060408201905061214a6000830185611f52565b61215760208301846120d4565b9392505050565b600060208201905081810360008301526121788184611f61565b905092915050565b60006020820190506121956000830184611fbf565b92915050565b60006020820190506121b06000830184611fce565b92915050565b600060408201905081810360008301526121d08185611fdd565b90506121df60208301846120d4565b9392505050565b600060208201905081810360008301526121ff81612016565b9050919050565b6000602082019050818103600083015261221f81612039565b9050919050565b6000602082019050818103600083015261223f8161205c565b9050919050565b6000602082019050818103600083015261225f8161207f565b9050919050565b6000602082019050818103600083015261227f816120a2565b9050919050565b600060208201905061229b60008301846120d4565b92915050565b60006060820190506122b660008301866120d4565b6122c36020830185611f52565b6122d060408301846120d4565b949350505050565b6000819050602082019050919050565b600081519050919050565b600081519050919050565b6000602082019050919050565b600082825260208201905092915050565b600082825260208201905092915050565b600061233882612474565b915061234383612474565b9250827fffffffffffffffffffffffffffffffffffffffffffffffffffffffffffffffff0382111561237857612377612542565b5b828201905092915050565b600061238e82612474565b915061239983612474565b9250826123a9576123a8612571565b5b828204905092915050565b60006123bf82612474565b91506123ca83612474565b9250817fffffffffffffffffffffffffffffffffffffffffffffffffffffffffffffffff048311821515161561240357612402612542565b5b828202905092915050565b600061241982612474565b915061242483612474565b92508282101561243757612436612542565b5b828203905092915050565b600061244d82612454565b9050919050565b600073ffffffffffffffffffffffffffffffffffffffff82169050919050565b6000819050919050565b600061248982612490565b9050919050565b600061249b82612454565b9050919050565b60006124ad826124b4565b9050919050565b60006124bf82612454565b9050919050565b60005b838110156124e45780820151818401526020810190506124c9565b838111156124f3576000848401525b50505050565b600061250482612474565b91507fffffffffffffffffffffffffffffffffffffffffffffffffffffffffffffffff82141561253757612536612542565b5b600182019050919050565b7f4e487b7100000000000000000000000000000000000000000000000000000000600052601160045260246000fd5b7f4e487b7100000000000000000000000000000000000000000000000000000000600052601260045260246000fd5b6000601f19601f8301169050919050565b7f546f6b656e4964206e6f74207374616b65642062792073656e6465722e000000600082015250565b7f4e6f20726577617264732e000000000000000000000000000000000000000000600082015250565b7f53656e646572206d757374206265206f776e65722e0000000000000000000000600082015250565b7f636c61696d6572206973206e6f74207374616b65720000000000000000000000600082015250565b7f43616e6e6f74207374616b65206d6f72652e0000000000000000000000000000600082015250565b61268781612442565b811461269257600080fd5b50565b61269e81612474565b81146126a957600080fd5b5056fea26469706673582212206949c1ba6bb3d084a665151a7d7e6706726661cbf741232e68a1d47d031693bd64736f6c63430008040033",
  "linkReferences": {},
  "deployedLinkReferences": {}
}