{
  "_format": "hh-sol-artifact-1",
  "contractName": "KnivesLegacyV2",
  "sourceName": "contracts/KnivesLegacyV2.sol",
  "abi": [
    {
      "inputs": [
        {
          "internalType": "string",
          "name": "_initBaseURI",
          "type": "string"
        },
        {
          "internalType": "contract IKnivesLegacy",
          "name": "_KL",
          "type": "address"
        }
      ],
      "stateMutability": "nonpayable",
      "type": "constructor"
    },
    {
      "anonymous": false,
      "inputs": [
        {
          "indexed": true,
          "internalType": "address",
          "name": "owner",
          "type": "address"
        },
        {
          "indexed": true,
          "internalType": "address",
          "name": "approved",
          "type": "address"
        },
        {
          "indexed": true,
          "internalType": "uint256",
          "name": "tokenId",
          "type": "uint256"
        }
      ],
      "name": "Approval",
      "type": "event"
    },
    {
      "anonymous": false,
      "inputs": [
        {
          "indexed": true,
          "internalType": "address",
          "name": "owner",
          "type": "address"
        },
        {
          "indexed": true,
          "internalType": "address",
          "name": "operator",
          "type": "address"
        },
        {
          "indexed": false,
          "internalType": "bool",
          "name": "approved",
          "type": "bool"
        }
      ],
      "name": "ApprovalForAll",
      "type": "event"
    },
    {
      "anonymous": false,
      "inputs": [
        {
          "indexed": true,
          "internalType": "address",
          "name": "previousOwner",
          "type": "address"
        },
        {
          "indexed": true,
          "internalType": "address",
          "name": "newOwner",
          "type": "address"
        }
      ],
      "name": "OwnershipTransferred",
      "type": "event"
    },
    {
      "anonymous": false,
      "inputs": [
        {
          "indexed": true,
          "internalType": "address",
          "name": "from",
          "type": "address"
        },
        {
          "indexed": true,
          "internalType": "address",
          "name": "to",
          "type": "address"
        },
        {
          "indexed": true,
          "internalType": "uint256",
          "name": "tokenId",
          "type": "uint256"
        }
      ],
      "name": "Transfer",
      "type": "event"
    },
    {
      "stateMutability": "payable",
      "type": "fallback"
    },
    {
      "inputs": [],
      "name": "V2Supply",
      "outputs": [
        {
          "internalType": "uint256",
          "name": "",
          "type": "uint256"
        }
      ],
      "stateMutability": "view",
      "type": "function"
    },
    {
      "inputs": [
        {
          "internalType": "address",
          "name": "to",
          "type": "address"
        },
        {
          "internalType": "uint256",
          "name": "tokenId",
          "type": "uint256"
        }
      ],
      "name": "approve",
      "outputs": [],
      "stateMutability": "nonpayable",
      "type": "function"
    },
    {
      "inputs": [
        {
          "internalType": "address",
          "name": "owner",
          "type": "address"
        }
      ],
      "name": "balanceOf",
      "outputs": [
        {
          "internalType": "uint256",
          "name": "",
          "type": "uint256"
        }
      ],
      "stateMutability": "view",
      "type": "function"
    },
    {
      "inputs": [],
      "name": "baseExtension",
      "outputs": [
        {
          "internalType": "string",
          "name": "",
          "type": "string"
        }
      ],
      "stateMutability": "view",
      "type": "function"
    },
    {
      "inputs": [],
      "name": "baseURI",
      "outputs": [
        {
          "internalType": "string",
          "name": "",
          "type": "string"
        }
      ],
      "stateMutability": "view",
      "type": "function"
    },
    {
      "inputs": [
        {
          "internalType": "uint256",
          "name": "",
          "type": "uint256"
        }
      ],
      "name": "cache",
      "outputs": [
        {
          "internalType": "uint256",
          "name": "",
          "type": "uint256"
        }
      ],
      "stateMutability": "view",
      "type": "function"
    },
    {
      "inputs": [
        {
          "internalType": "uint256",
          "name": "tokenId",
          "type": "uint256"
        }
      ],
      "name": "claimReward",
      "outputs": [],
      "stateMutability": "nonpayable",
      "type": "function"
    },
    {
      "inputs": [],
      "name": "claimRewards",
      "outputs": [],
      "stateMutability": "nonpayable",
      "type": "function"
    },
    {
      "inputs": [],
      "name": "cost",
      "outputs": [
        {
          "internalType": "uint256",
          "name": "",
          "type": "uint256"
        }
      ],
      "stateMutability": "view",
      "type": "function"
    },
    {
      "inputs": [
        {
          "internalType": "uint256",
          "name": "tokenId",
          "type": "uint256"
        }
      ],
      "name": "getApproved",
      "outputs": [
        {
          "internalType": "address",
          "name": "",
          "type": "address"
        }
      ],
      "stateMutability": "view",
      "type": "function"
    },
    {
      "inputs": [
        {
          "internalType": "uint256",
          "name": "tokenId",
          "type": "uint256"
        }
      ],
      "name": "getReflectionBalance",
      "outputs": [
        {
          "internalType": "uint256",
          "name": "",
          "type": "uint256"
        }
      ],
      "stateMutability": "view",
      "type": "function"
    },
    {
      "inputs": [
        {
          "internalType": "address",
          "name": "_user",
          "type": "address"
        }
      ],
      "name": "getReflectionBalances",
      "outputs": [
        {
          "internalType": "uint256",
          "name": "",
          "type": "uint256"
        }
      ],
      "stateMutability": "view",
      "type": "function"
    },
    {
      "inputs": [
        {
          "internalType": "address",
          "name": "owner",
          "type": "address"
        },
        {
          "internalType": "address",
          "name": "operator",
          "type": "address"
        }
      ],
      "name": "isApprovedForAll",
      "outputs": [
        {
          "internalType": "bool",
          "name": "",
          "type": "bool"
        }
      ],
      "stateMutability": "view",
      "type": "function"
    },
    {
      "inputs": [
        {
          "internalType": "uint256",
          "name": "tokenId",
          "type": "uint256"
        }
      ],
      "name": "isReserved",
      "outputs": [
        {
          "internalType": "bool",
          "name": "",
          "type": "bool"
        }
      ],
      "stateMutability": "view",
      "type": "function"
    },
    {
      "inputs": [
        {
          "internalType": "uint256",
          "name": "",
          "type": "uint256"
        }
      ],
      "name": "lastDividendAt",
      "outputs": [
        {
          "internalType": "uint256",
          "name": "",
          "type": "uint256"
        }
      ],
      "stateMutability": "view",
      "type": "function"
    },
    {
      "inputs": [],
      "name": "maxSupply",
      "outputs": [
        {
          "internalType": "uint256",
          "name": "",
          "type": "uint256"
        }
      ],
      "stateMutability": "view",
      "type": "function"
    },
    {
      "inputs": [
        {
          "internalType": "uint256",
          "name": "tokenId",
          "type": "uint256"
        }
      ],
      "name": "migrate",
      "outputs": [],
      "stateMutability": "nonpayable",
      "type": "function"
    },
    {
      "inputs": [
        {
          "internalType": "uint256",
          "name": "_mintAmount",
          "type": "uint256"
        }
      ],
      "name": "mint",
      "outputs": [],
      "stateMutability": "payable",
      "type": "function"
    },
    {
      "inputs": [],
      "name": "name",
      "outputs": [
        {
          "internalType": "string",
          "name": "",
          "type": "string"
        }
      ],
      "stateMutability": "view",
      "type": "function"
    },
    {
      "inputs": [],
      "name": "owner",
      "outputs": [
        {
          "internalType": "address",
          "name": "",
          "type": "address"
        }
      ],
      "stateMutability": "view",
      "type": "function"
    },
    {
      "inputs": [
        {
          "internalType": "uint256",
          "name": "tokenId",
          "type": "uint256"
        }
      ],
      "name": "ownerOf",
      "outputs": [
        {
          "internalType": "address",
          "name": "",
          "type": "address"
        }
      ],
      "stateMutability": "view",
      "type": "function"
    },
    {
      "inputs": [
        {
          "internalType": "bool",
          "name": "_state",
          "type": "bool"
        }
      ],
      "name": "pause",
      "outputs": [],
      "stateMutability": "nonpayable",
      "type": "function"
    },
    {
      "inputs": [],
      "name": "paused",
      "outputs": [
        {
          "internalType": "bool",
          "name": "",
          "type": "bool"
        }
      ],
      "stateMutability": "view",
      "type": "function"
    },
    {
      "inputs": [],
      "name": "reflectToOwners",
      "outputs": [],
      "stateMutability": "payable",
      "type": "function"
    },
    {
      "inputs": [],
      "name": "reflectionBalance",
      "outputs": [
        {
          "internalType": "uint256",
          "name": "",
          "type": "uint256"
        }
      ],
      "stateMutability": "view",
      "type": "function"
    },
    {
      "inputs": [],
      "name": "renounceOwnership",
      "outputs": [],
      "stateMutability": "nonpayable",
      "type": "function"
    },
    {
      "inputs": [
        {
          "internalType": "uint256",
          "name": "_tokenId",
          "type": "uint256"
        },
        {
          "internalType": "uint256",
          "name": "_salePrice",
          "type": "uint256"
        }
      ],
      "name": "royaltyInfo",
      "outputs": [
        {
          "internalType": "address",
          "name": "",
          "type": "address"
        },
        {
          "internalType": "uint256",
          "name": "",
          "type": "uint256"
        }
      ],
      "stateMutability": "view",
      "type": "function"
    },
    {
      "inputs": [
        {
          "internalType": "address",
          "name": "from",
          "type": "address"
        },
        {
          "internalType": "address",
          "name": "to",
          "type": "address"
        },
        {
          "internalType": "uint256",
          "name": "tokenId",
          "type": "uint256"
        }
      ],
      "name": "safeTransferFrom",
      "outputs": [],
      "stateMutability": "nonpayable",
      "type": "function"
    },
    {
      "inputs": [
        {
          "internalType": "address",
          "name": "from",
          "type": "address"
        },
        {
          "internalType": "address",
          "name": "to",
          "type": "address"
        },
        {
          "internalType": "uint256",
          "name": "tokenId",
          "type": "uint256"
        },
        {
          "internalType": "bytes",
          "name": "_data",
          "type": "bytes"
        }
      ],
      "name": "safeTransferFrom",
      "outputs": [],
      "stateMutability": "nonpayable",
      "type": "function"
    },
    {
      "inputs": [
        {
          "internalType": "address",
          "name": "operator",
          "type": "address"
        },
        {
          "internalType": "bool",
          "name": "approved",
          "type": "bool"
        }
      ],
      "name": "setApprovalForAll",
      "outputs": [],
      "stateMutability": "nonpayable",
      "type": "function"
    },
    {
      "inputs": [
        {
          "internalType": "string",
          "name": "_newBaseExtension",
          "type": "string"
        }
      ],
      "name": "setBaseExtension",
      "outputs": [],
      "stateMutability": "nonpayable",
      "type": "function"
    },
    {
      "inputs": [
        {
          "internalType": "string",
          "name": "_newBaseURI",
          "type": "string"
        }
      ],
      "name": "setBaseURI",
      "outputs": [],
      "stateMutability": "nonpayable",
      "type": "function"
    },
    {
      "inputs": [
        {
          "internalType": "uint256",
          "name": "index",
          "type": "uint256"
        },
        {
          "internalType": "uint256",
          "name": "value",
          "type": "uint256"
        }
      ],
      "name": "setCache",
      "outputs": [],
      "stateMutability": "nonpayable",
      "type": "function"
    },
    {
      "inputs": [
        {
          "internalType": "uint256",
          "name": "_newCost",
          "type": "uint256"
        }
      ],
      "name": "setCost",
      "outputs": [],
      "stateMutability": "nonpayable",
      "type": "function"
    },
    {
      "inputs": [
        {
          "internalType": "address",
          "name": "receiver",
          "type": "address"
        },
        {
          "internalType": "uint96",
          "name": "feeNumerator",
          "type": "uint96"
        }
      ],
      "name": "setDefaultRoyalty",
      "outputs": [],
      "stateMutability": "nonpayable",
      "type": "function"
    },
    {
      "inputs": [
        {
          "internalType": "uint256",
          "name": "_maxSupply",
          "type": "uint256"
        }
      ],
      "name": "setMaxSupply",
      "outputs": [],
      "stateMutability": "nonpayable",
      "type": "function"
    },
    {
      "inputs": [
        {
          "internalType": "uint256",
          "name": "tokenId",
          "type": "uint256"
        },
        {
          "internalType": "address",
          "name": "receiver",
          "type": "address"
        },
        {
          "internalType": "uint96",
          "name": "feeNumerator",
          "type": "uint96"
        }
      ],
      "name": "setTokenRoyalty",
      "outputs": [],
      "stateMutability": "nonpayable",
      "type": "function"
    },
    {
      "inputs": [
        {
          "internalType": "bytes4",
          "name": "interfaceId",
          "type": "bytes4"
        }
      ],
      "name": "supportsInterface",
      "outputs": [
        {
          "internalType": "bool",
          "name": "",
          "type": "bool"
        }
      ],
      "stateMutability": "view",
      "type": "function"
    },
    {
      "inputs": [],
      "name": "symbol",
      "outputs": [
        {
          "internalType": "string",
          "name": "",
          "type": "string"
        }
      ],
      "stateMutability": "view",
      "type": "function"
    },
    {
      "inputs": [
        {
          "internalType": "uint256",
          "name": "index",
          "type": "uint256"
        }
      ],
      "name": "tokenByIndex",
      "outputs": [
        {
          "internalType": "uint256",
          "name": "",
          "type": "uint256"
        }
      ],
      "stateMutability": "view",
      "type": "function"
    },
    {
      "inputs": [
        {
          "internalType": "uint256",
          "name": "",
          "type": "uint256"
        }
      ],
      "name": "tokenIdtoMinter",
      "outputs": [
        {
          "internalType": "address",
          "name": "",
          "type": "address"
        }
      ],
      "stateMutability": "view",
      "type": "function"
    },
    {
      "inputs": [
        {
          "internalType": "address",
          "name": "owner",
          "type": "address"
        },
        {
          "internalType": "uint256",
          "name": "index",
          "type": "uint256"
        }
      ],
      "name": "tokenOfOwnerByIndex",
      "outputs": [
        {
          "internalType": "uint256",
          "name": "",
          "type": "uint256"
        }
      ],
      "stateMutability": "view",
      "type": "function"
    },
    {
      "inputs": [
        {
          "internalType": "uint256",
          "name": "tokenId",
          "type": "uint256"
        }
      ],
      "name": "tokenURI",
      "outputs": [
        {
          "internalType": "string",
          "name": "",
          "type": "string"
        }
      ],
      "stateMutability": "view",
      "type": "function"
    },
    {
      "inputs": [],
      "name": "totalDividend",
      "outputs": [
        {
          "internalType": "uint256",
          "name": "",
          "type": "uint256"
        }
      ],
      "stateMutability": "view",
      "type": "function"
    },
    {
      "inputs": [],
      "name": "totalSupply",
      "outputs": [
        {
          "internalType": "uint256",
          "name": "",
          "type": "uint256"
        }
      ],
      "stateMutability": "view",
      "type": "function"
    },
    {
      "inputs": [
        {
          "internalType": "address",
          "name": "from",
          "type": "address"
        },
        {
          "internalType": "address",
          "name": "to",
          "type": "address"
        },
        {
          "internalType": "uint256",
          "name": "tokenId",
          "type": "uint256"
        }
      ],
      "name": "transferFrom",
      "outputs": [],
      "stateMutability": "nonpayable",
      "type": "function"
    },
    {
      "inputs": [
        {
          "internalType": "address",
          "name": "newOwner",
          "type": "address"
        }
      ],
      "name": "transferOwnership",
      "outputs": [],
      "stateMutability": "nonpayable",
      "type": "function"
    },
    {
      "inputs": [],
      "name": "walletOfOwner",
      "outputs": [
        {
          "internalType": "uint256[]",
          "name": "",
          "type": "uint256[]"
        }
      ],
      "stateMutability": "view",
      "type": "function"
    },
    {
      "inputs": [
        {
          "internalType": "address",
          "name": "_user",
          "type": "address"
        }
      ],
      "name": "walletOfUser",
      "outputs": [
        {
          "internalType": "uint256[]",
          "name": "",
          "type": "uint256[]"
        }
      ],
      "stateMutability": "view",
      "type": "function"
    },
    {
      "inputs": [],
      "name": "withdraw",
      "outputs": [],
      "stateMutability": "payable",
      "type": "function"
    },
    {
      "stateMutability": "payable",
      "type": "receive"
    }
  ],
  "bytecode": "0x60806040526040518060400160405280600581526020017f2e6a736f6e000000000000000000000000000000000000000000000000000000815250600f908051906020019062000051929190620005ba565b50670de0b6b3a764000060115561115c6012553480156200007157600080fd5b5060405162006aa138038062006aa18339818101604052810190620000979190620006f3565b6040518060400160405280600e81526020017f4b6e697665734c656761637956320000000000000000000000000000000000008152506040518060400160405280600681526020017f4b4e49564553000000000000000000000000000000000000000000000000000081525081600290805190602001906200011b929190620005ba565b50806003908051906020019062000134929190620005ba565b505050620001576200014b620001c560201b60201c565b620001cd60201b60201c565b80600d60006101000a81548173ffffffffffffffffffffffffffffffffffffffff021916908373ffffffffffffffffffffffffffffffffffffffff160217905550620001a9826200029360201b60201c565b620001bd306101f46200033e60201b60201c565b505062000aac565b600033905090565b6000600c60009054906101000a900473ffffffffffffffffffffffffffffffffffffffff16905081600c60006101000a81548173ffffffffffffffffffffffffffffffffffffffff021916908373ffffffffffffffffffffffffffffffffffffffff1602179055508173ffffffffffffffffffffffffffffffffffffffff168173ffffffffffffffffffffffffffffffffffffffff167f8be0079c531659141344cd1fd0a4f28419497f9722a3daafe3b4186f6b6457e060405160405180910390a35050565b620002a3620001c560201b60201c565b73ffffffffffffffffffffffffffffffffffffffff16620002c9620003e360201b60201c565b73ffffffffffffffffffffffffffffffffffffffff161462000322576040517f08c379a00000000000000000000000000000000000000000000000000000000081526004016200031990620007c2565b60405180910390fd5b80600e90805190602001906200033a929190620005ba565b5050565b6200034e620001c560201b60201c565b73ffffffffffffffffffffffffffffffffffffffff1662000374620003e360201b60201c565b73ffffffffffffffffffffffffffffffffffffffff1614620003cd576040517f08c379a0000000000000000000000000000000000000000000000000000000008152600401620003c490620007c2565b60405180910390fd5b620003df82826200040d60201b60201c565b5050565b6000600c60009054906101000a900473ffffffffffffffffffffffffffffffffffffffff16905090565b6200041d620005b060201b60201c565b6bffffffffffffffffffffffff16816bffffffffffffffffffffffff1611156200047e576040517f08c379a00000000000000000000000000000000000000000000000000000000081526004016200047590620007e4565b60405180910390fd5b600073ffffffffffffffffffffffffffffffffffffffff168273ffffffffffffffffffffffffffffffffffffffff161415620004f1576040517f08c379a0000000000000000000000000000000000000000000000000000000008152600401620004e89062000806565b60405180910390fd5b60405180604001604052808373ffffffffffffffffffffffffffffffffffffffff168152602001826bffffffffffffffffffffffff168152506000808201518160000160006101000a81548173ffffffffffffffffffffffffffffffffffffffff021916908373ffffffffffffffffffffffffffffffffffffffff16021790555060208201518160000160146101000a8154816bffffffffffffffffffffffff02191690836bffffffffffffffffffffffff1602179055509050505050565b6000612710905090565b828054620005c89062000916565b90600052602060002090601f016020900481019282620005ec576000855562000638565b82601f106200060757805160ff191683800117855562000638565b8280016001018555821562000638579182015b82811115620006375782518255916020019190600101906200061a565b5b5090506200064791906200064b565b5090565b5b80821115620006665760008160009055506001016200064c565b5090565b6000620006816200067b8462000851565b62000828565b9050828152602081018484840111156200069a57600080fd5b620006a7848285620008e0565b509392505050565b600081519050620006c08162000a92565b92915050565b600082601f830112620006d857600080fd5b8151620006ea8482602086016200066a565b91505092915050565b600080604083850312156200070757600080fd5b600083015167ffffffffffffffff8111156200072257600080fd5b6200073085828601620006c6565b92505060206200074385828601620006af565b9150509250929050565b60006200075c60208362000887565b91506200076982620009f1565b602082019050919050565b600062000783602a8362000887565b9150620007908262000a1a565b604082019050919050565b6000620007aa60198362000887565b9150620007b78262000a69565b602082019050919050565b60006020820190508181036000830152620007dd816200074d565b9050919050565b60006020820190508181036000830152620007ff8162000774565b9050919050565b6000602082019050818103600083015262000821816200079b565b9050919050565b60006200083462000847565b90506200084282826200094c565b919050565b6000604051905090565b600067ffffffffffffffff8211156200086f576200086e620009b1565b5b6200087a82620009e0565b9050602081019050919050565b600082825260208201905092915050565b6000620008a582620008c0565b9050919050565b6000620008b98262000898565b9050919050565b600073ffffffffffffffffffffffffffffffffffffffff82169050919050565b60005b8381101562000900578082015181840152602081019050620008e3565b8381111562000910576000848401525b50505050565b600060028204905060018216806200092f57607f821691505b6020821081141562000946576200094562000982565b5b50919050565b6200095782620009e0565b810181811067ffffffffffffffff82111715620009795762000978620009b1565b5b80604052505050565b7f4e487b7100000000000000000000000000000000000000000000000000000000600052602260045260246000fd5b7f4e487b7100000000000000000000000000000000000000000000000000000000600052604160045260246000fd5b6000601f19601f8301169050919050565b7f4f776e61626c653a2063616c6c6572206973206e6f7420746865206f776e6572600082015250565b7f455243323938313a20726f79616c7479206665652077696c6c2065786365656460008201527f2073616c65507269636500000000000000000000000000000000000000000000602082015250565b7f455243323938313a20696e76616c696420726563656976657200000000000000600082015250565b62000a9d81620008ac565b811462000aa957600080fd5b50565b615fe58062000abc6000396000f3fe6080604052600436106102cc5760003560e01c80635944c75311610175578063a0712d68116100dc578063c668286211610095578063d5abeb011161006f578063d5abeb0114610b1b578063da3ef23f14610b46578063e985e9c514610b6f578063f2fde38b14610bac576102dc565b8063c668286214610a76578063c87b56dd14610aa1578063d206885714610ade576102dc565b8063a0712d6814610965578063a22cb46514610981578063a708d404146109aa578063ae169a50146109e7578063b20060d514610a10578063b88d4fde14610a4d576102dc565b806370a082311161012e57806370a0823114610853578063715018a614610890578063721f1ba9146108a7578063833629f3146108d25780638da5cb5b1461090f57806395d89b411461093a576102dc565b80635944c753146107455780635c975abb1461076e5780636352211e146107995780636c0360eb146107d65780636eb58791146108015780636f8b44b01461082a576102dc565b806323b872dd116102345780634131ff99116101ed578063454b0608116101c7578063454b06081461068b5780634b6acafb146106b45780634f6ccce7146106df57806355f804b31461071c576102dc565b80634131ff991461060e57806342842e0e1461063957806344a0d68a14610662576102dc565b806323b872dd1461051e5780632a55205a146105475780632f745c591461058557806336fdefd4146105c2578063372500ab146105ed5780633ccfd60b14610604576102dc565b8063081812fc11610286578063081812fc146103e8578063095ea7b31461042557806313faede61461044e57806317bf72c61461047957806318160ddd146104b65780632228adcc146104e1576102dc565b8062fe50c6146102e757806301ffc9a71461032457806302329a291461036157806304634d8d1461038a578063047d5e80146103b357806306fdde03146103bd576102dc565b366102dc576102da34610bd5565b005b6102e534610bd5565b005b3480156102f357600080fd5b5061030e60048036038101906103099190614830565b610c12565b60405161031b91906153da565b60405180910390f35b34801561033057600080fd5b5061034b6004803603810190610346919061479d565b610c3c565b604051610358919061505d565b60405180910390f35b34801561036d57600080fd5b5061038860048036038101906103839190614774565b610cb6565b005b34801561039657600080fd5b506103b160048036038101906103ac9190614738565b610d4f565b005b6103bb610dd9565b005b3480156103c957600080fd5b506103d2610de4565b6040516103df9190615078565b60405180910390f35b3480156103f457600080fd5b5061040f600480360381019061040a9190614830565b610e76565b60405161041c9190614f74565b60405180910390f35b34801561043157600080fd5b5061044c600480360381019061044791906146fc565b610efb565b005b34801561045a57600080fd5b50610463611013565b60405161047091906153da565b60405180910390f35b34801561048557600080fd5b506104a0600480360381019061049b9190614830565b611019565b6040516104ad91906153da565b60405180910390f35b3480156104c257600080fd5b506104cb611031565b6040516104d891906153da565b60405180910390f35b3480156104ed57600080fd5b5061050860048036038101906105039190614830565b61103e565b604051610515919061505d565b60405180910390f35b34801561052a57600080fd5b50610545600480360381019061054091906145f6565b611162565b005b34801561055357600080fd5b5061056e600480360381019061056991906148d1565b6111c2565b60405161057c929190615012565b60405180910390f35b34801561059157600080fd5b506105ac60048036038101906105a791906146fc565b6113ad565b6040516105b991906153da565b60405180910390f35b3480156105ce57600080fd5b506105d7611452565b6040516105e4919061503b565b60405180910390f35b3480156105f957600080fd5b5061060261154a565b005b61060c611644565b005b34801561061a57600080fd5b50610623611740565b60405161063091906153da565b60405180910390f35b34801561064557600080fd5b50610660600480360381019061065b91906145f6565b611746565b005b34801561066e57600080fd5b5061068960048036038101906106849190614830565b611766565b005b34801561069757600080fd5b506106b260048036038101906106ad9190614830565b6117ec565b005b3480156106c057600080fd5b506106c9611a15565b6040516106d691906153da565b60405180910390f35b3480156106eb57600080fd5b5061070660048036038101906107019190614830565b611a1b565b60405161071391906153da565b60405180910390f35b34801561072857600080fd5b50610743600480360381019061073e91906147ef565b611ab2565b005b34801561075157600080fd5b5061076c60048036038101906107679190614882565b611b48565b005b34801561077a57600080fd5b50610783611bd4565b604051610790919061505d565b60405180910390f35b3480156107a557600080fd5b506107c060048036038101906107bb9190614830565b611be7565b6040516107cd9190614f74565b60405180910390f35b3480156107e257600080fd5b506107eb611c99565b6040516107f89190615078565b60405180910390f35b34801561080d57600080fd5b50610828600480360381019061082391906148d1565b611d27565b005b34801561083657600080fd5b50610851600480360381019061084c9190614830565b611dbf565b005b34801561085f57600080fd5b5061087a60048036038101906108759190614568565b611e45565b60405161088791906153da565b60405180910390f35b34801561089c57600080fd5b506108a5611efd565b005b3480156108b357600080fd5b506108bc611f85565b6040516108c991906153da565b60405180910390f35b3480156108de57600080fd5b506108f960048036038101906108f49190614830565b611f8b565b6040516109069190614f74565b60405180910390f35b34801561091b57600080fd5b50610924611fbe565b6040516109319190614f74565b60405180910390f35b34801561094657600080fd5b5061094f611fe8565b60405161095c9190615078565b60405180910390f35b61097f600480360381019061097a9190614830565b61207a565b005b34801561098d57600080fd5b506109a860048036038101906109a391906146c0565b612272565b005b3480156109b657600080fd5b506109d160048036038101906109cc9190614568565b612288565b6040516109de91906153da565b60405180910390f35b3480156109f357600080fd5b50610a0e6004803603810190610a099190614830565b6122e5565b005b348015610a1c57600080fd5b50610a376004803603810190610a329190614568565b612421565b604051610a44919061503b565b60405180910390f35b348015610a5957600080fd5b50610a746004803603810190610a6f9190614645565b61251b565b005b348015610a8257600080fd5b50610a8b61257d565b604051610a989190615078565b60405180910390f35b348015610aad57600080fd5b50610ac86004803603810190610ac39190614830565b61260b565b604051610ad59190615078565b60405180910390f35b348015610aea57600080fd5b50610b056004803603810190610b009190614830565b6126b5565b604051610b1291906153da565b60405180910390f35b348015610b2757600080fd5b50610b306126cd565b604051610b3d91906153da565b60405180910390f35b348015610b5257600080fd5b50610b6d6004803603810190610b6891906147ef565b6126d3565b005b348015610b7b57600080fd5b50610b966004803603810190610b9191906145ba565b612769565b604051610ba3919061505d565b60405180910390f35b348015610bb857600080fd5b50610bd36004803603810190610bce9190614568565b6127fd565b005b80601354610be39190615518565b601381905550610bf1611031565b81610bfc919061556e565b601454610c099190615518565b60148190555050565b60006016600083815260200190815260200160002054601454610c3591906155f9565b9050919050565b60007f780e9d63000000000000000000000000000000000000000000000000000000007bffffffffffffffffffffffffffffffffffffffffffffffffffffffff1916827bffffffffffffffffffffffffffffffffffffffffffffffffffffffff19161480610caf5750610cae826128f5565b5b9050919050565b610cbe61296f565b73ffffffffffffffffffffffffffffffffffffffff16610cdc611fbe565b73ffffffffffffffffffffffffffffffffffffffff1614610d32576040517f08c379a0000000000000000000000000000000000000000000000000000000008152600401610d299061527a565b60405180910390fd5b80601560006101000a81548160ff02191690831515021790555050565b610d5761296f565b73ffffffffffffffffffffffffffffffffffffffff16610d75611fbe565b73ffffffffffffffffffffffffffffffffffffffff1614610dcb576040517f08c379a0000000000000000000000000000000000000000000000000000000008152600401610dc29061527a565b60405180910390fd5b610dd58282612977565b5050565b610de234610bd5565b565b606060028054610df3906156fb565b80601f0160208091040260200160405190810160405280929190818152602001828054610e1f906156fb565b8015610e6c5780601f10610e4157610100808354040283529160200191610e6c565b820191906000526020600020905b815481529060010190602001808311610e4f57829003601f168201915b5050505050905090565b6000610e8182612b0c565b610ec0576040517f08c379a0000000000000000000000000000000000000000000000000000000008152600401610eb79061525a565b60405180910390fd5b6006600083815260200190815260200160002060009054906101000a900473ffffffffffffffffffffffffffffffffffffffff169050919050565b6000610f0682611be7565b90508073ffffffffffffffffffffffffffffffffffffffff168373ffffffffffffffffffffffffffffffffffffffff161415610f77576040517f08c379a0000000000000000000000000000000000000000000000000000000008152600401610f6e906152da565b60405180910390fd5b8073ffffffffffffffffffffffffffffffffffffffff16610f9661296f565b73ffffffffffffffffffffffffffffffffffffffff161480610fc55750610fc481610fbf61296f565b612769565b5b611004576040517f08c379a0000000000000000000000000000000000000000000000000000000008152600401610ffb906151ba565b60405180910390fd5b61100e8383612b78565b505050565b60115481565b60176020528060005260406000206000915090505481565b6000600a80549050905090565b600080600d60009054906101000a900473ffffffffffffffffffffffffffffffffffffffff1673ffffffffffffffffffffffffffffffffffffffff168360405160240161108b91906153da565b6040516020818303038152906040527f6352211e000000000000000000000000000000000000000000000000000000007bffffffffffffffffffffffffffffffffffffffffffffffffffffffff19166020820180517bffffffffffffffffffffffffffffffffffffffffffffffffffffffff83818316178352505050506040516111159190614eda565b600060405180830381855afa9150503d8060008114611150576040519150601f19603f3d011682016040523d82523d6000602084013e611155565b606091505b5050905080915050919050565b61117361116d61296f565b82612c31565b6111b2576040517f08c379a00000000000000000000000000000000000000000000000000000000081526004016111a9906152fa565b60405180910390fd5b6111bd838383612d0f565b505050565b6000806000600160008681526020019081526020016000206040518060400160405290816000820160009054906101000a900473ffffffffffffffffffffffffffffffffffffffff1673ffffffffffffffffffffffffffffffffffffffff1673ffffffffffffffffffffffffffffffffffffffff1681526020016000820160149054906101000a90046bffffffffffffffffffffffff166bffffffffffffffffffffffff166bffffffffffffffffffffffff16815250509050600073ffffffffffffffffffffffffffffffffffffffff16816000015173ffffffffffffffffffffffffffffffffffffffff1614156113585760006040518060400160405290816000820160009054906101000a900473ffffffffffffffffffffffffffffffffffffffff1673ffffffffffffffffffffffffffffffffffffffff1673ffffffffffffffffffffffffffffffffffffffff1681526020016000820160149054906101000a90046bffffffffffffffffffffffff166bffffffffffffffffffffffff166bffffffffffffffffffffffff168152505090505b6000611362612f76565b6bffffffffffffffffffffffff1682602001516bffffffffffffffffffffffff168661138e919061559f565b611398919061556e565b90508160000151819350935050509250929050565b60006113b883611e45565b82106113f9576040517f08c379a00000000000000000000000000000000000000000000000000000000081526004016113f0906150ba565b60405180910390fd5b600860008473ffffffffffffffffffffffffffffffffffffffff1673ffffffffffffffffffffffffffffffffffffffff168152602001908152602001600020600083815260200190815260200160002054905092915050565b6060600061145f33611e45565b905060008167ffffffffffffffff8111156114a3577f4e487b7100000000000000000000000000000000000000000000000000000000600052604160045260246000fd5b6040519080825280602002602001820160405280156114d15781602001602082028036833780820191505090505b50905060005b82811015611541576114e933826113ad565b828281518110611522577f4e487b7100000000000000000000000000000000000000000000000000000000600052603260045260246000fd5b60200260200101818152505080806115399061575e565b9150506114d7565b50809250505090565b600061155533611e45565b90506000805b828110156115b557600061156f33836113ad565b905061157a81610c12565b836115859190615518565b925060145460166000838152602001908152602001600020819055505080806115ad9061575e565b91505061155b565b50600081116115f9576040517f08c379a00000000000000000000000000000000000000000000000000000000081526004016115f09061521a565b60405180910390fd5b3373ffffffffffffffffffffffffffffffffffffffff166108fc829081150290604051600060405180830381858888f1935050505015801561163f573d6000803e3d6000fd5b505050565b61164c61296f565b73ffffffffffffffffffffffffffffffffffffffff1661166a611fbe565b73ffffffffffffffffffffffffffffffffffffffff16146116c0576040517f08c379a00000000000000000000000000000000000000000000000000000000081526004016116b79061527a565b60405180910390fd5b60006116ca611fbe565b73ffffffffffffffffffffffffffffffffffffffff16476040516116ed90614f22565b60006040518083038185875af1925050503d806000811461172a576040519150601f19603f3d011682016040523d82523d6000602084013e61172f565b606091505b505090508061173d57600080fd5b50565b60135481565b6117618383836040518060200160405280600081525061251b565b505050565b61176e61296f565b73ffffffffffffffffffffffffffffffffffffffff1661178c611fbe565b73ffffffffffffffffffffffffffffffffffffffff16146117e2576040517f08c379a00000000000000000000000000000000000000000000000000000000081526004016117d99061527a565b60405180910390fd5b8060118190555050565b600d60009054906101000a900473ffffffffffffffffffffffffffffffffffffffff1673ffffffffffffffffffffffffffffffffffffffff16636352211e826040518263ffffffff1660e01b815260040161184791906153da565b60206040518083038186803b15801561185f57600080fd5b505afa158015611873573d6000803e3d6000fd5b505050506040513d601f19601f820116820180604052508101906118979190614591565b73ffffffffffffffffffffffffffffffffffffffff163373ffffffffffffffffffffffffffffffffffffffff1614611904576040517f08c379a00000000000000000000000000000000000000000000000000000000081526004016118fb906152ba565b60405180910390fd5b600d60009054906101000a900473ffffffffffffffffffffffffffffffffffffffff1673ffffffffffffffffffffffffffffffffffffffff166323b872dd3361194b611fbe565b846040518463ffffffff1660e01b815260040161196a93929190614f8f565b600060405180830381600087803b15801561198457600080fd5b505af1158015611998573d6000803e3d6000fd5b505050506119a63382612f80565b336018600083815260200190815260200160002060006101000a81548173ffffffffffffffffffffffffffffffffffffffff021916908373ffffffffffffffffffffffffffffffffffffffff160217905550601454601660008381526020019081526020016000208190555050565b60145481565b6000611a25611031565b8210611a66576040517f08c379a0000000000000000000000000000000000000000000000000000000008152600401611a5d9061533a565b60405180910390fd5b600a8281548110611aa0577f4e487b7100000000000000000000000000000000000000000000000000000000600052603260045260246000fd5b90600052602060002001549050919050565b611aba61296f565b73ffffffffffffffffffffffffffffffffffffffff16611ad8611fbe565b73ffffffffffffffffffffffffffffffffffffffff1614611b2e576040517f08c379a0000000000000000000000000000000000000000000000000000000008152600401611b259061527a565b60405180910390fd5b80600e9080519060200190611b4492919061434d565b5050565b611b5061296f565b73ffffffffffffffffffffffffffffffffffffffff16611b6e611fbe565b73ffffffffffffffffffffffffffffffffffffffff1614611bc4576040517f08c379a0000000000000000000000000000000000000000000000000000000008152600401611bbb9061527a565b60405180910390fd5b611bcf838383612f9e565b505050565b601560009054906101000a900460ff1681565b6000806004600084815260200190815260200160002060009054906101000a900473ffffffffffffffffffffffffffffffffffffffff169050600073ffffffffffffffffffffffffffffffffffffffff168173ffffffffffffffffffffffffffffffffffffffff161415611c90576040517f08c379a0000000000000000000000000000000000000000000000000000000008152600401611c87906151fa565b60405180910390fd5b80915050919050565b600e8054611ca6906156fb565b80601f0160208091040260200160405190810160405280929190818152602001828054611cd2906156fb565b8015611d1f5780601f10611cf457610100808354040283529160200191611d1f565b820191906000526020600020905b815481529060010190602001808311611d0257829003601f168201915b505050505081565b611d2f61296f565b73ffffffffffffffffffffffffffffffffffffffff16611d4d611fbe565b73ffffffffffffffffffffffffffffffffffffffff1614611da3576040517f08c379a0000000000000000000000000000000000000000000000000000000008152600401611d9a9061527a565b60405180910390fd5b8060176000848152602001908152602001600020819055505050565b611dc761296f565b73ffffffffffffffffffffffffffffffffffffffff16611de5611fbe565b73ffffffffffffffffffffffffffffffffffffffff1614611e3b576040517f08c379a0000000000000000000000000000000000000000000000000000000008152600401611e329061527a565b60405180910390fd5b8060128190555050565b60008073ffffffffffffffffffffffffffffffffffffffff168273ffffffffffffffffffffffffffffffffffffffff161415611eb6576040517f08c379a0000000000000000000000000000000000000000000000000000000008152600401611ead906151da565b60405180910390fd5b600560008373ffffffffffffffffffffffffffffffffffffffff1673ffffffffffffffffffffffffffffffffffffffff168152602001908152602001600020549050919050565b611f0561296f565b73ffffffffffffffffffffffffffffffffffffffff16611f23611fbe565b73ffffffffffffffffffffffffffffffffffffffff1614611f79576040517f08c379a0000000000000000000000000000000000000000000000000000000008152600401611f709061527a565b60405180910390fd5b611f836000613146565b565b60105481565b60186020528060005260406000206000915054906101000a900473ffffffffffffffffffffffffffffffffffffffff1681565b6000600c60009054906101000a900473ffffffffffffffffffffffffffffffffffffffff16905090565b606060038054611ff7906156fb565b80601f0160208091040260200160405190810160405280929190818152602001828054612023906156fb565b80156120705780601f1061204557610100808354040283529160200191612070565b820191906000526020600020905b81548152906001019060200180831161205357829003601f168201915b5050505050905090565b601560009054906101000a900460ff16156120ca576040517f08c379a00000000000000000000000000000000000000000000000000000000081526004016120c1906153ba565b60405180910390fd5b60006120d4611031565b9050600082116120e357600080fd5b60125482826120f29190615518565b11156120fd57600080fd5b612105611fbe565b73ffffffffffffffffffffffffffffffffffffffff163373ffffffffffffffffffffffffffffffffffffffff16146121525781601154612145919061559f565b34101561215157600080fd5b5b6000600190505b82811161226d57600061216a61320c565b90506121758161103e565b156121b5576040517f08c379a00000000000000000000000000000000000000000000000000000000081526004016121ac9061535a565b60405180910390fd5b6121bf3382612f80565b6001601060008282546121d29190615518565b92505081905550336018600083815260200190815260200160002060006101000a81548173ffffffffffffffffffffffffffffffffffffffff021916908373ffffffffffffffffffffffffffffffffffffffff16021790555060145460166000838152602001908152602001600020819055506122598434612254919061556e565b6133cb565b5080806122659061575e565b915050612159565b505050565b61228461227d61296f565b83836134d8565b5050565b60008061229483611e45565b90506000805b828110156122da5760006122ae86836113ad565b90506122b981610c12565b836122c49190615518565b92505080806122d29061575e565b91505061229a565b508092505050919050565b6122ed61296f565b73ffffffffffffffffffffffffffffffffffffffff1661230c82611be7565b73ffffffffffffffffffffffffffffffffffffffff161480612368575061233161296f565b73ffffffffffffffffffffffffffffffffffffffff1661235082610e76565b73ffffffffffffffffffffffffffffffffffffffff16145b6123a7576040517f08c379a000000000000000000000000000000000000000000000000000000000815260040161239e9061509a565b60405180910390fd5b60006123b282610c12565b905060145460166000848152602001908152602001600020819055506123d782611be7565b73ffffffffffffffffffffffffffffffffffffffff166108fc829081150290604051600060405180830381858888f1935050505015801561241c573d6000803e3d6000fd5b505050565b6060600061242e83611e45565b905060008167ffffffffffffffff811115612472577f4e487b7100000000000000000000000000000000000000000000000000000000600052604160045260246000fd5b6040519080825280602002602001820160405280156124a05781602001602082028036833780820191505090505b50905060005b82811015612510576124b885826113ad565b8282815181106124f1577f4e487b7100000000000000000000000000000000000000000000000000000000600052603260045260246000fd5b60200260200101818152505080806125089061575e565b9150506124a6565b508092505050919050565b61252c61252661296f565b83612c31565b61256b576040517f08c379a0000000000000000000000000000000000000000000000000000000008152600401612562906152fa565b60405180910390fd5b61257784848484613645565b50505050565b600f805461258a906156fb565b80601f01602080910402602001604051908101604052809291908181526020018280546125b6906156fb565b80156126035780601f106125d857610100808354040283529160200191612603565b820191906000526020600020905b8154815290600101906020018083116125e657829003601f168201915b505050505081565b606061261682612b0c565b612655576040517f08c379a000000000000000000000000000000000000000000000000000000000815260040161264c9061529a565b60405180910390fd5b600061265f6136a1565b9050600081511161267f57604051806020016040528060008152506126ad565b8061268984613733565b600f60405160200161269d93929190614ef1565b6040516020818303038152906040525b915050919050565b60166020528060005260406000206000915090505481565b60125481565b6126db61296f565b73ffffffffffffffffffffffffffffffffffffffff166126f9611fbe565b73ffffffffffffffffffffffffffffffffffffffff161461274f576040517f08c379a00000000000000000000000000000000000000000000000000000000081526004016127469061527a565b60405180910390fd5b80600f908051906020019061276592919061434d565b5050565b6000600760008473ffffffffffffffffffffffffffffffffffffffff1673ffffffffffffffffffffffffffffffffffffffff16815260200190815260200160002060008373ffffffffffffffffffffffffffffffffffffffff1673ffffffffffffffffffffffffffffffffffffffff16815260200190815260200160002060009054906101000a900460ff16905092915050565b61280561296f565b73ffffffffffffffffffffffffffffffffffffffff16612823611fbe565b73ffffffffffffffffffffffffffffffffffffffff1614612879576040517f08c379a00000000000000000000000000000000000000000000000000000000081526004016128709061527a565b60405180910390fd5b600073ffffffffffffffffffffffffffffffffffffffff168173ffffffffffffffffffffffffffffffffffffffff1614156128e9576040517f08c379a00000000000000000000000000000000000000000000000000000000081526004016128e0906150fa565b60405180910390fd5b6128f281613146565b50565b60007f780e9d63000000000000000000000000000000000000000000000000000000007bffffffffffffffffffffffffffffffffffffffffffffffffffffffff1916827bffffffffffffffffffffffffffffffffffffffffffffffffffffffff191614806129685750612967826138e0565b5b9050919050565b600033905090565b61297f612f76565b6bffffffffffffffffffffffff16816bffffffffffffffffffffffff1611156129dd576040517f08c379a00000000000000000000000000000000000000000000000000000000081526004016129d49061537a565b60405180910390fd5b600073ffffffffffffffffffffffffffffffffffffffff168273ffffffffffffffffffffffffffffffffffffffff161415612a4d576040517f08c379a0000000000000000000000000000000000000000000000000000000008152600401612a449061539a565b60405180910390fd5b60405180604001604052808373ffffffffffffffffffffffffffffffffffffffff168152602001826bffffffffffffffffffffffff168152506000808201518160000160006101000a81548173ffffffffffffffffffffffffffffffffffffffff021916908373ffffffffffffffffffffffffffffffffffffffff16021790555060208201518160000160146101000a8154816bffffffffffffffffffffffff02191690836bffffffffffffffffffffffff1602179055509050505050565b60008073ffffffffffffffffffffffffffffffffffffffff166004600084815260200190815260200160002060009054906101000a900473ffffffffffffffffffffffffffffffffffffffff1673ffffffffffffffffffffffffffffffffffffffff1614159050919050565b816006600083815260200190815260200160002060006101000a81548173ffffffffffffffffffffffffffffffffffffffff021916908373ffffffffffffffffffffffffffffffffffffffff160217905550808273ffffffffffffffffffffffffffffffffffffffff16612beb83611be7565b73ffffffffffffffffffffffffffffffffffffffff167f8c5be1e5ebec7d5bd14f71427d1e84f3dd0314c0f7b2291e5b200ac8c7c3b92560405160405180910390a45050565b6000612c3c82612b0c565b612c7b576040517f08c379a0000000000000000000000000000000000000000000000000000000008152600401612c729061519a565b60405180910390fd5b6000612c8683611be7565b90508073ffffffffffffffffffffffffffffffffffffffff168473ffffffffffffffffffffffffffffffffffffffff161480612cf557508373ffffffffffffffffffffffffffffffffffffffff16612cdd84610e76565b73ffffffffffffffffffffffffffffffffffffffff16145b80612d065750612d058185612769565b5b91505092915050565b8273ffffffffffffffffffffffffffffffffffffffff16612d2f82611be7565b73ffffffffffffffffffffffffffffffffffffffff1614612d85576040517f08c379a0000000000000000000000000000000000000000000000000000000008152600401612d7c9061511a565b60405180910390fd5b600073ffffffffffffffffffffffffffffffffffffffff168273ffffffffffffffffffffffffffffffffffffffff161415612df5576040517f08c379a0000000000000000000000000000000000000000000000000000000008152600401612dec9061515a565b60405180910390fd5b612e008383836138f2565b612e0b600082612b78565b6001600560008573ffffffffffffffffffffffffffffffffffffffff1673ffffffffffffffffffffffffffffffffffffffff1681526020019081526020016000206000828254612e5b91906155f9565b925050819055506001600560008473ffffffffffffffffffffffffffffffffffffffff1673ffffffffffffffffffffffffffffffffffffffff1681526020019081526020016000206000828254612eb29190615518565b92505081905550816004600083815260200190815260200160002060006101000a81548173ffffffffffffffffffffffffffffffffffffffff021916908373ffffffffffffffffffffffffffffffffffffffff160217905550808273ffffffffffffffffffffffffffffffffffffffff168473ffffffffffffffffffffffffffffffffffffffff167fddf252ad1be2c89b69c2b068fc378daa952ba7f163c4a11628f55a4df523b3ef60405160405180910390a4612f71838383613902565b505050565b6000612710905090565b612f9a828260405180602001604052806000815250613907565b5050565b612fa6612f76565b6bffffffffffffffffffffffff16816bffffffffffffffffffffffff161115613004576040517f08c379a0000000000000000000000000000000000000000000000000000000008152600401612ffb9061537a565b60405180910390fd5b600073ffffffffffffffffffffffffffffffffffffffff168273ffffffffffffffffffffffffffffffffffffffff161415613074576040517f08c379a000000000000000000000000000000000000000000000000000000000815260040161306b9061531a565b60405180910390fd5b60405180604001604052808373ffffffffffffffffffffffffffffffffffffffff168152602001826bffffffffffffffffffffffff168152506001600085815260200190815260200160002060008201518160000160006101000a81548173ffffffffffffffffffffffffffffffffffffffff021916908373ffffffffffffffffffffffffffffffffffffffff16021790555060208201518160000160146101000a8154816bffffffffffffffffffffffff02191690836bffffffffffffffffffffffff160217905550905050505050565b6000600c60009054906101000a900473ffffffffffffffffffffffffffffffffffffffff16905081600c60006101000a81548173ffffffffffffffffffffffffffffffffffffffff021916908373ffffffffffffffffffffffffffffffffffffffff1602179055508173ffffffffffffffffffffffffffffffffffffffff168173ffffffffffffffffffffffffffffffffffffffff167f8be0079c531659141344cd1fd0a4f28419497f9722a3daafe3b4186f6b6457e060405160405180910390a35050565b600080601054600d60009054906101000a900473ffffffffffffffffffffffffffffffffffffffff1673ffffffffffffffffffffffffffffffffffffffff166318160ddd6040518163ffffffff1660e01b815260040160206040518083038186803b15801561327a57600080fd5b505afa15801561328e573d6000803e3d6000fd5b505050506040513d601f19601f820116820180604052508101906132b29190614859565b6012546132bf91906155f9565b6132c991906155f9565b905060004442836040516020016132e293929190614f37565b6040516020818303038152906040528051906020012060001c90506000828261330b91906157b1565b90506000601760008381526020019081526020016000205414613341576017600082815260200190815260200160002054613343565b805b935060006017600060018661335891906155f9565b81526020019081526020016000205414613391576017600060018561337d91906155f9565b81526020019081526020016000205461339f565b60018361339e91906155f9565b5b60176000838152602001908152602001600020819055506001846133c39190615518565b935050505090565b600060648260066133dc919061559f565b6133e6919061556e565b9050600060648360056133f9919061559f565b613403919061556e565b9050600081838561341491906155f9565b61341e91906155f9565b905061342983610bd5565b613431611fbe565b73ffffffffffffffffffffffffffffffffffffffff166108fc839081150290604051600060405180830381858888f19350505050158015613476573d6000803e3d6000fd5b5073d9d2176f94135824ba8d5768ba8edb61d08e21f473ffffffffffffffffffffffffffffffffffffffff166108fc829081150290604051600060405180830381858888f193505050501580156134d1573d6000803e3d6000fd5b5050505050565b8173ffffffffffffffffffffffffffffffffffffffff168373ffffffffffffffffffffffffffffffffffffffff161415613547576040517f08c379a000000000000000000000000000000000000000000000000000000000815260040161353e9061517a565b60405180910390fd5b80600760008573ffffffffffffffffffffffffffffffffffffffff1673ffffffffffffffffffffffffffffffffffffffff16815260200190815260200160002060008473ffffffffffffffffffffffffffffffffffffffff1673ffffffffffffffffffffffffffffffffffffffff16815260200190815260200160002060006101000a81548160ff0219169083151502179055508173ffffffffffffffffffffffffffffffffffffffff168373ffffffffffffffffffffffffffffffffffffffff167f17307eab39ab6107e8899845ad3d59bd9653f200f220920489ca2b5937696c3183604051613638919061505d565b60405180910390a3505050565b613650848484612d0f565b61365c84848484613962565b61369b576040517f08c379a0000000000000000000000000000000000000000000000000000000008152600401613692906150da565b60405180910390fd5b50505050565b6060600e80546136b0906156fb565b80601f01602080910402602001604051908101604052809291908181526020018280546136dc906156fb565b80156137295780601f106136fe57610100808354040283529160200191613729565b820191906000526020600020905b81548152906001019060200180831161370c57829003601f168201915b5050505050905090565b6060600082141561377b576040518060400160405280600181526020017f300000000000000000000000000000000000000000000000000000000000000081525090506138db565b600082905060005b600082146137ad5780806137969061575e565b915050600a826137a6919061556e565b9150613783565b60008167ffffffffffffffff8111156137ef577f4e487b7100000000000000000000000000000000000000000000000000000000600052604160045260246000fd5b6040519080825280601f01601f1916602001820160405280156138215781602001600182028036833780820191505090505b5090505b600085146138d45760018261383a91906155f9565b9150600a8561384991906157b1565b60306138559190615518565b60f81b818381518110613891577f4e487b7100000000000000000000000000000000000000000000000000000000600052603260045260246000fd5b60200101907effffffffffffffffffffffffffffffffffffffffffffffffffffffffffffff1916908160001a905350600a856138cd919061556e565b9450613825565b8093505050505b919050565b60006138eb82613af9565b9050919050565b6138fd838383613bdb565b505050565b505050565b6139118383613cef565b61391e6000848484613962565b61395d576040517f08c379a0000000000000000000000000000000000000000000000000000000008152600401613954906150da565b60405180910390fd5b505050565b60006139838473ffffffffffffffffffffffffffffffffffffffff16613ec9565b15613aec578373ffffffffffffffffffffffffffffffffffffffff1663150b7a026139ac61296f565b8786866040518563ffffffff1660e01b81526004016139ce9493929190614fc6565b602060405180830381600087803b1580156139e857600080fd5b505af1925050508015613a1957506040513d601f19601f82011682018060405250810190613a1691906147c6565b60015b613a9c573d8060008114613a49576040519150601f19603f3d011682016040523d82523d6000602084013e613a4e565b606091505b50600081511415613a94576040517f08c379a0000000000000000000000000000000000000000000000000000000008152600401613a8b906150da565b60405180910390fd5b805181602001fd5b63150b7a0260e01b7bffffffffffffffffffffffffffffffffffffffffffffffffffffffff1916817bffffffffffffffffffffffffffffffffffffffffffffffffffffffff191614915050613af1565b600190505b949350505050565b60007f80ac58cd000000000000000000000000000000000000000000000000000000007bffffffffffffffffffffffffffffffffffffffffffffffffffffffff1916827bffffffffffffffffffffffffffffffffffffffffffffffffffffffff19161480613bc457507f5b5e139f000000000000000000000000000000000000000000000000000000007bffffffffffffffffffffffffffffffffffffffffffffffffffffffff1916827bffffffffffffffffffffffffffffffffffffffffffffffffffffffff1916145b80613bd45750613bd382613eec565b5b9050919050565b613be6838383613f66565b600073ffffffffffffffffffffffffffffffffffffffff168373ffffffffffffffffffffffffffffffffffffffff161415613c2957613c2481613f6b565b613c68565b8173ffffffffffffffffffffffffffffffffffffffff168373ffffffffffffffffffffffffffffffffffffffff1614613c6757613c668382613fb4565b5b5b600073ffffffffffffffffffffffffffffffffffffffff168273ffffffffffffffffffffffffffffffffffffffff161415613cab57613ca681614121565b613cea565b8273ffffffffffffffffffffffffffffffffffffffff168273ffffffffffffffffffffffffffffffffffffffff1614613ce957613ce88282614264565b5b5b505050565b600073ffffffffffffffffffffffffffffffffffffffff168273ffffffffffffffffffffffffffffffffffffffff161415613d5f576040517f08c379a0000000000000000000000000000000000000000000000000000000008152600401613d569061523a565b60405180910390fd5b613d6881612b0c565b15613da8576040517f08c379a0000000000000000000000000000000000000000000000000000000008152600401613d9f9061513a565b60405180910390fd5b613db4600083836138f2565b6001600560008473ffffffffffffffffffffffffffffffffffffffff1673ffffffffffffffffffffffffffffffffffffffff1681526020019081526020016000206000828254613e049190615518565b92505081905550816004600083815260200190815260200160002060006101000a81548173ffffffffffffffffffffffffffffffffffffffff021916908373ffffffffffffffffffffffffffffffffffffffff160217905550808273ffffffffffffffffffffffffffffffffffffffff16600073ffffffffffffffffffffffffffffffffffffffff167fddf252ad1be2c89b69c2b068fc378daa952ba7f163c4a11628f55a4df523b3ef60405160405180910390a4613ec560008383613902565b5050565b6000808273ffffffffffffffffffffffffffffffffffffffff163b119050919050565b60007f2a55205a000000000000000000000000000000000000000000000000000000007bffffffffffffffffffffffffffffffffffffffffffffffffffffffff1916827bffffffffffffffffffffffffffffffffffffffffffffffffffffffff19161480613f5f5750613f5e826142e3565b5b9050919050565b505050565b600a80549050600b600083815260200190815260200160002081905550600a81908060018154018082558091505060019003906000526020600020016000909190919091505550565b60006001613fc184611e45565b613fcb91906155f9565b90506000600960008481526020019081526020016000205490508181146140b0576000600860008673ffffffffffffffffffffffffffffffffffffffff1673ffffffffffffffffffffffffffffffffffffffff168152602001908152602001600020600084815260200190815260200160002054905080600860008773ffffffffffffffffffffffffffffffffffffffff1673ffffffffffffffffffffffffffffffffffffffff168152602001908152602001600020600084815260200190815260200160002081905550816009600083815260200190815260200160002081905550505b6009600084815260200190815260200160002060009055600860008573ffffffffffffffffffffffffffffffffffffffff1673ffffffffffffffffffffffffffffffffffffffff16815260200190815260200160002060008381526020019081526020016000206000905550505050565b60006001600a8054905061413591906155f9565b90506000600b60008481526020019081526020016000205490506000600a838154811061418b577f4e487b7100000000000000000000000000000000000000000000000000000000600052603260045260246000fd5b9060005260206000200154905080600a83815481106141d3577f4e487b7100000000000000000000000000000000000000000000000000000000600052603260045260246000fd5b906000526020600020018190555081600b600083815260200190815260200160002081905550600b600085815260200190815260200160002060009055600a805480614248577f4e487b7100000000000000000000000000000000000000000000000000000000600052603160045260246000fd5b6001900381819060005260206000200160009055905550505050565b600061426f83611e45565b905081600860008573ffffffffffffffffffffffffffffffffffffffff1673ffffffffffffffffffffffffffffffffffffffff168152602001908152602001600020600083815260200190815260200160002081905550806009600084815260200190815260200160002081905550505050565b60007f01ffc9a7000000000000000000000000000000000000000000000000000000007bffffffffffffffffffffffffffffffffffffffffffffffffffffffff1916827bffffffffffffffffffffffffffffffffffffffffffffffffffffffff1916149050919050565b828054614359906156fb565b90600052602060002090601f01602090048101928261437b57600085556143c2565b82601f1061439457805160ff19168380011785556143c2565b828001600101855582156143c2579182015b828111156143c15782518255916020019190600101906143a6565b5b5090506143cf91906143d3565b5090565b5b808211156143ec5760008160009055506001016143d4565b5090565b60006144036143fe8461541a565b6153f5565b90508281526020810184848401111561441b57600080fd5b6144268482856156b9565b509392505050565b600061444161443c8461544b565b6153f5565b90508281526020810184848401111561445957600080fd5b6144648482856156b9565b509392505050565b60008135905061447b81615f3c565b92915050565b60008151905061449081615f3c565b92915050565b6000813590506144a581615f53565b92915050565b6000813590506144ba81615f6a565b92915050565b6000815190506144cf81615f6a565b92915050565b600082601f8301126144e657600080fd5b81356144f68482602086016143f0565b91505092915050565b600082601f83011261451057600080fd5b813561452084826020860161442e565b91505092915050565b60008135905061453881615f81565b92915050565b60008151905061454d81615f81565b92915050565b60008135905061456281615f98565b92915050565b60006020828403121561457a57600080fd5b60006145888482850161446c565b91505092915050565b6000602082840312156145a357600080fd5b60006145b184828501614481565b91505092915050565b600080604083850312156145cd57600080fd5b60006145db8582860161446c565b92505060206145ec8582860161446c565b9150509250929050565b60008060006060848603121561460b57600080fd5b60006146198682870161446c565b935050602061462a8682870161446c565b925050604061463b86828701614529565b9150509250925092565b6000806000806080858703121561465b57600080fd5b60006146698782880161446c565b945050602061467a8782880161446c565b935050604061468b87828801614529565b925050606085013567ffffffffffffffff8111156146a857600080fd5b6146b4878288016144d5565b91505092959194509250565b600080604083850312156146d357600080fd5b60006146e18582860161446c565b92505060206146f285828601614496565b9150509250929050565b6000806040838503121561470f57600080fd5b600061471d8582860161446c565b925050602061472e85828601614529565b9150509250929050565b6000806040838503121561474b57600080fd5b60006147598582860161446c565b925050602061476a85828601614553565b9150509250929050565b60006020828403121561478657600080fd5b600061479484828501614496565b91505092915050565b6000602082840312156147af57600080fd5b60006147bd848285016144ab565b91505092915050565b6000602082840312156147d857600080fd5b60006147e6848285016144c0565b91505092915050565b60006020828403121561480157600080fd5b600082013567ffffffffffffffff81111561481b57600080fd5b614827848285016144ff565b91505092915050565b60006020828403121561484257600080fd5b600061485084828501614529565b91505092915050565b60006020828403121561486b57600080fd5b60006148798482850161453e565b91505092915050565b60008060006060848603121561489757600080fd5b60006148a586828701614529565b93505060206148b68682870161446c565b92505060406148c786828701614553565b9150509250925092565b600080604083850312156148e457600080fd5b60006148f285828601614529565b925050602061490385828601614529565b9150509250929050565b60006149198383614ea5565b60208301905092915050565b61492e8161562d565b82525050565b600061493f826154a1565b61494981856154cf565b93506149548361547c565b8060005b8381101561498557815161496c888261490d565b9750614977836154c2565b925050600181019050614958565b5085935050505092915050565b61499b8161563f565b82525050565b60006149ac826154ac565b6149b681856154e0565b93506149c68185602086016156c8565b6149cf8161589e565b840191505092915050565b60006149e5826154ac565b6149ef81856154f1565b93506149ff8185602086016156c8565b80840191505092915050565b6000614a16826154b7565b614a2081856154fc565b9350614a308185602086016156c8565b614a398161589e565b840191505092915050565b6000614a4f826154b7565b614a59818561550d565b9350614a698185602086016156c8565b80840191505092915050565b60008154614a82816156fb565b614a8c818661550d565b94506001821660008114614aa75760018114614ab857614aeb565b60ff19831686528186019350614aeb565b614ac18561548c565b60005b83811015614ae357815481890152600182019150602081019050614ac4565b838801955050505b50505092915050565b6000614b016016836154fc565b9150614b0c826158af565b602082019050919050565b6000614b24602b836154fc565b9150614b2f826158d8565b604082019050919050565b6000614b476032836154fc565b9150614b5282615927565b604082019050919050565b6000614b6a6026836154fc565b9150614b7582615976565b604082019050919050565b6000614b8d6025836154fc565b9150614b98826159c5565b604082019050919050565b6000614bb0601c836154fc565b9150614bbb82615a14565b602082019050919050565b6000614bd36024836154fc565b9150614bde82615a3d565b604082019050919050565b6000614bf66019836154fc565b9150614c0182615a8c565b602082019050919050565b6000614c19602c836154fc565b9150614c2482615ab5565b604082019050919050565b6000614c3c6038836154fc565b9150614c4782615b04565b604082019050919050565b6000614c5f602a836154fc565b9150614c6a82615b53565b604082019050919050565b6000614c826029836154fc565b9150614c8d82615ba2565b604082019050919050565b6000614ca5600b836154fc565b9150614cb082615bf1565b602082019050919050565b6000614cc86020836154fc565b9150614cd382615c1a565b602082019050919050565b6000614ceb602c836154fc565b9150614cf682615c43565b604082019050919050565b6000614d0e6020836154fc565b9150614d1982615c92565b602082019050919050565b6000614d31602f836154fc565b9150614d3c82615cbb565b604082019050919050565b6000614d546014836154fc565b9150614d5f82615d0a565b602082019050919050565b6000614d776021836154fc565b9150614d8282615d33565b604082019050919050565b6000614d9a6000836154f1565b9150614da582615d82565b600082019050919050565b6000614dbd6031836154fc565b9150614dc882615d85565b604082019050919050565b6000614de0601b836154fc565b9150614deb82615dd4565b602082019050919050565b6000614e03602c836154fc565b9150614e0e82615dfd565b604082019050919050565b6000614e26602a836154fc565b9150614e3182615e4c565b604082019050919050565b6000614e49602a836154fc565b9150614e5482615e9b565b604082019050919050565b6000614e6c6019836154fc565b9150614e7782615eea565b602082019050919050565b6000614e8f6010836154fc565b9150614e9a82615f13565b602082019050919050565b614eae81615697565b82525050565b614ebd81615697565b82525050565b614ed4614ecf82615697565b6157a7565b82525050565b6000614ee682846149da565b915081905092915050565b6000614efd8286614a44565b9150614f098285614a44565b9150614f158284614a75565b9150819050949350505050565b6000614f2d82614d8d565b9150819050919050565b6000614f438286614ec3565b602082019150614f538285614ec3565b602082019150614f638284614ec3565b602082019150819050949350505050565b6000602082019050614f896000830184614925565b92915050565b6000606082019050614fa46000830186614925565b614fb16020830185614925565b614fbe6040830184614eb4565b949350505050565b6000608082019050614fdb6000830187614925565b614fe86020830186614925565b614ff56040830185614eb4565b818103606083015261500781846149a1565b905095945050505050565b60006040820190506150276000830185614925565b6150346020830184614eb4565b9392505050565b600060208201905081810360008301526150558184614934565b905092915050565b60006020820190506150726000830184614992565b92915050565b600060208201905081810360008301526150928184614a0b565b905092915050565b600060208201905081810360008301526150b381614af4565b9050919050565b600060208201905081810360008301526150d381614b17565b9050919050565b600060208201905081810360008301526150f381614b3a565b9050919050565b6000602082019050818103600083015261511381614b5d565b9050919050565b6000602082019050818103600083015261513381614b80565b9050919050565b6000602082019050818103600083015261515381614ba3565b9050919050565b6000602082019050818103600083015261517381614bc6565b9050919050565b6000602082019050818103600083015261519381614be9565b9050919050565b600060208201905081810360008301526151b381614c0c565b9050919050565b600060208201905081810360008301526151d381614c2f565b9050919050565b600060208201905081810360008301526151f381614c52565b9050919050565b6000602082019050818103600083015261521381614c75565b9050919050565b6000602082019050818103600083015261523381614c98565b9050919050565b6000602082019050818103600083015261525381614cbb565b9050919050565b6000602082019050818103600083015261527381614cde565b9050919050565b6000602082019050818103600083015261529381614d01565b9050919050565b600060208201905081810360008301526152b381614d24565b9050919050565b600060208201905081810360008301526152d381614d47565b9050919050565b600060208201905081810360008301526152f381614d6a565b9050919050565b6000602082019050818103600083015261531381614db0565b9050919050565b6000602082019050818103600083015261533381614dd3565b9050919050565b6000602082019050818103600083015261535381614df6565b9050919050565b6000602082019050818103600083015261537381614e19565b9050919050565b6000602082019050818103600083015261539381614e3c565b9050919050565b600060208201905081810360008301526153b381614e5f565b9050919050565b600060208201905081810360008301526153d381614e82565b9050919050565b60006020820190506153ef6000830184614eb4565b92915050565b60006153ff615410565b905061540b828261572d565b919050565b6000604051905090565b600067ffffffffffffffff8211156154355761543461586f565b5b61543e8261589e565b9050602081019050919050565b600067ffffffffffffffff8211156154665761546561586f565b5b61546f8261589e565b9050602081019050919050565b6000819050602082019050919050565b60008190508160005260206000209050919050565b600081519050919050565b600081519050919050565b600081519050919050565b6000602082019050919050565b600082825260208201905092915050565b600082825260208201905092915050565b600081905092915050565b600082825260208201905092915050565b600081905092915050565b600061552382615697565b915061552e83615697565b9250827fffffffffffffffffffffffffffffffffffffffffffffffffffffffffffffffff03821115615563576155626157e2565b5b828201905092915050565b600061557982615697565b915061558483615697565b92508261559457615593615811565b5b828204905092915050565b60006155aa82615697565b91506155b583615697565b9250817fffffffffffffffffffffffffffffffffffffffffffffffffffffffffffffffff04831182151516156155ee576155ed6157e2565b5b828202905092915050565b600061560482615697565b915061560f83615697565b925082821015615622576156216157e2565b5b828203905092915050565b600061563882615677565b9050919050565b60008115159050919050565b60007fffffffff0000000000000000000000000000000000000000000000000000000082169050919050565b600073ffffffffffffffffffffffffffffffffffffffff82169050919050565b6000819050919050565b60006bffffffffffffffffffffffff82169050919050565b82818337600083830152505050565b60005b838110156156e65780820151818401526020810190506156cb565b838111156156f5576000848401525b50505050565b6000600282049050600182168061571357607f821691505b6020821081141561572757615726615840565b5b50919050565b6157368261589e565b810181811067ffffffffffffffff821117156157555761575461586f565b5b80604052505050565b600061576982615697565b91507fffffffffffffffffffffffffffffffffffffffffffffffffffffffffffffffff82141561579c5761579b6157e2565b5b600182019050919050565b6000819050919050565b60006157bc82615697565b91506157c783615697565b9250826157d7576157d6615811565b5b828206905092915050565b7f4e487b7100000000000000000000000000000000000000000000000000000000600052601160045260246000fd5b7f4e487b7100000000000000000000000000000000000000000000000000000000600052601260045260246000fd5b7f4e487b7100000000000000000000000000000000000000000000000000000000600052602260045260246000fd5b7f4e487b7100000000000000000000000000000000000000000000000000000000600052604160045260246000fd5b6000601f19601f8301169050919050565b7f4e6f74206f776e6572206f7220617070726f7665642e00000000000000000000600082015250565b7f455243373231456e756d657261626c653a206f776e657220696e646578206f7560008201527f74206f6620626f756e6473000000000000000000000000000000000000000000602082015250565b7f4552433732313a207472616e7366657220746f206e6f6e20455243373231526560008201527f63656976657220696d706c656d656e7465720000000000000000000000000000602082015250565b7f4f776e61626c653a206e6577206f776e657220697320746865207a65726f206160008201527f6464726573730000000000000000000000000000000000000000000000000000602082015250565b7f4552433732313a207472616e736665722066726f6d20696e636f72726563742060008201527f6f776e6572000000000000000000000000000000000000000000000000000000602082015250565b7f4552433732313a20746f6b656e20616c7265616479206d696e74656400000000600082015250565b7f4552433732313a207472616e7366657220746f20746865207a65726f2061646460008201527f7265737300000000000000000000000000000000000000000000000000000000602082015250565b7f4552433732313a20617070726f766520746f2063616c6c657200000000000000600082015250565b7f4552433732313a206f70657261746f7220717565727920666f72206e6f6e657860008201527f697374656e7420746f6b656e0000000000000000000000000000000000000000602082015250565b7f4552433732313a20617070726f76652063616c6c6572206973206e6f74206f7760008201527f6e6572206e6f7220617070726f76656420666f7220616c6c0000000000000000602082015250565b7f4552433732313a2062616c616e636520717565727920666f7220746865207a6560008201527f726f206164647265737300000000000000000000000000000000000000000000602082015250565b7f4552433732313a206f776e657220717565727920666f72206e6f6e657869737460008201527f656e7420746f6b656e0000000000000000000000000000000000000000000000602082015250565b7f4e6f20726577617264732e000000000000000000000000000000000000000000600082015250565b7f4552433732313a206d696e7420746f20746865207a65726f2061646472657373600082015250565b7f4552433732313a20617070726f76656420717565727920666f72206e6f6e657860008201527f697374656e7420746f6b656e0000000000000000000000000000000000000000602082015250565b7f4f776e61626c653a2063616c6c6572206973206e6f7420746865206f776e6572600082015250565b7f4552433732314d657461646174613a2055524920717565727920666f72206e6f60008201527f6e6578697374656e7420746f6b656e0000000000000000000000000000000000602082015250565b7f4e6f74206f776e6572206f66204170652056312e000000000000000000000000600082015250565b7f4552433732313a20617070726f76616c20746f2063757272656e74206f776e6560008201527f7200000000000000000000000000000000000000000000000000000000000000602082015250565b50565b7f4552433732313a207472616e736665722063616c6c6572206973206e6f74206f60008201527f776e6572206e6f7220617070726f766564000000000000000000000000000000602082015250565b7f455243323938313a20496e76616c696420706172616d65746572730000000000600082015250565b7f455243373231456e756d657261626c653a20676c6f62616c20696e646578206f60008201527f7574206f6620626f756e64730000000000000000000000000000000000000000602082015250565b7f746f6b656e496420697320616c726561647920726573657276656420666f722060008201527f563120686f6c6465722e00000000000000000000000000000000000000000000602082015250565b7f455243323938313a20726f79616c7479206665652077696c6c2065786365656460008201527f2073616c65507269636500000000000000000000000000000000000000000000602082015250565b7f455243323938313a20696e76616c696420726563656976657200000000000000600082015250565b7f4d696e74206973206f6e20506175736500000000000000000000000000000000600082015250565b615f458161562d565b8114615f5057600080fd5b50565b615f5c8161563f565b8114615f6757600080fd5b50565b615f738161564b565b8114615f7e57600080fd5b50565b615f8a81615697565b8114615f9557600080fd5b50565b615fa1816156a1565b8114615fac57600080fd5b5056fea26469706673582212201f24c05a31af4564c685f86a5585815243a5bf6350b6731ff1006b272bbc66b664736f6c63430008040033",
  "linkReferences": {},
  "deployedLinkReferences": {}
}