{
  "_format": "hh-sol-artifact-1",
  "contractName": "ItemFactory",
  "sourceName": "contracts/ItemFactory.sol",
  "abi": [
    {
      "inputs": [
        {
          "internalType": "contract IKnivesItems",
          "name": "_KI",
          "type": "address"
        },
        {
          "internalType": "contract IKnivesLegacy",
          "name": "_KL",
          "type": "address"
        },
        {
          "internalType": "contract IKnivesStaking",
          "name": "_KS",
          "type": "address"
        },
        {
          "internalType": "contract LegacyToken",
          "name": "_LT",
          "type": "address"
        }
      ],
      "stateMutability": "nonpayable",
      "type": "constructor"
    },
    {
      "inputs": [
        {
          "internalType": "uint256",
          "name": "knifeId",
          "type": "uint256"
        }
      ],
      "name": "LegacyMission",
      "outputs": [],
      "stateMutability": "nonpayable",
      "type": "function"
    },
    {
      "inputs": [
        {
          "internalType": "uint256",
          "name": "itemId",
          "type": "uint256"
        }
      ],
      "name": "equipItem",
      "outputs": [],
      "stateMutability": "nonpayable",
      "type": "function"
    },
    {
      "inputs": [
        {
          "internalType": "address",
          "name": "",
          "type": "address"
        },
        {
          "internalType": "uint256",
          "name": "",
          "type": "uint256"
        }
      ],
      "name": "equipments",
      "outputs": [
        {
          "internalType": "uint256",
          "name": "",
          "type": "uint256"
        }
      ],
      "stateMutability": "view",
      "type": "function"
    },
    {
      "inputs": [
        {
          "internalType": "uint256",
          "name": "knifeId",
          "type": "uint256"
        }
      ],
      "name": "getItemMissionCooldown",
      "outputs": [
        {
          "internalType": "uint256",
          "name": "",
          "type": "uint256"
        }
      ],
      "stateMutability": "view",
      "type": "function"
    },
    {
      "inputs": [
        {
          "internalType": "uint256",
          "name": "item_tier",
          "type": "uint256"
        }
      ],
      "name": "getItemNameFromTier",
      "outputs": [
        {
          "internalType": "string",
          "name": "name",
          "type": "string"
        }
      ],
      "stateMutability": "view",
      "type": "function"
    },
    {
      "inputs": [
        {
          "internalType": "uint256",
          "name": "item_type",
          "type": "uint256"
        }
      ],
      "name": "getItemNameFromType",
      "outputs": [
        {
          "internalType": "string",
          "name": "name",
          "type": "string"
        }
      ],
      "stateMutability": "pure",
      "type": "function"
    },
    {
      "inputs": [
        {
          "internalType": "uint256",
          "name": "_tokenId",
          "type": "uint256"
        }
      ],
      "name": "getItemTokenURI",
      "outputs": [
        {
          "internalType": "string",
          "name": "",
          "type": "string"
        }
      ],
      "stateMutability": "view",
      "type": "function"
    },
    {
      "inputs": [
        {
          "internalType": "uint256",
          "name": "power",
          "type": "uint256"
        }
      ],
      "name": "getLGCYAmountFromPower",
      "outputs": [
        {
          "internalType": "uint256",
          "name": "",
          "type": "uint256"
        }
      ],
      "stateMutability": "pure",
      "type": "function"
    },
    {
      "inputs": [
        {
          "internalType": "uint256",
          "name": "knifeId",
          "type": "uint256"
        }
      ],
      "name": "getLegacyMissionCooldown",
      "outputs": [
        {
          "internalType": "uint256",
          "name": "",
          "type": "uint256"
        }
      ],
      "stateMutability": "view",
      "type": "function"
    },
    {
      "inputs": [
        {
          "internalType": "address",
          "name": "user",
          "type": "address"
        }
      ],
      "name": "getUserEquipment",
      "outputs": [
        {
          "internalType": "uint256[4]",
          "name": "",
          "type": "uint256[4]"
        }
      ],
      "stateMutability": "view",
      "type": "function"
    },
    {
      "inputs": [
        {
          "internalType": "address",
          "name": "user",
          "type": "address"
        }
      ],
      "name": "getUserEquipmentScore",
      "outputs": [
        {
          "internalType": "uint256",
          "name": "",
          "type": "uint256"
        }
      ],
      "stateMutability": "view",
      "type": "function"
    },
    {
      "inputs": [],
      "name": "itemMissionCooldown",
      "outputs": [
        {
          "internalType": "uint256",
          "name": "",
          "type": "uint256"
        }
      ],
      "stateMutability": "view",
      "type": "function"
    },
    {
      "inputs": [
        {
          "internalType": "uint256",
          "name": "",
          "type": "uint256"
        }
      ],
      "name": "itemTypeToScore",
      "outputs": [
        {
          "internalType": "uint256",
          "name": "",
          "type": "uint256"
        }
      ],
      "stateMutability": "view",
      "type": "function"
    },
    {
      "inputs": [],
      "name": "legacyMissionCooldown",
      "outputs": [
        {
          "internalType": "uint256",
          "name": "",
          "type": "uint256"
        }
      ],
      "stateMutability": "view",
      "type": "function"
    },
    {
      "inputs": [],
      "name": "maxTier",
      "outputs": [
        {
          "internalType": "uint256",
          "name": "",
          "type": "uint256"
        }
      ],
      "stateMutability": "view",
      "type": "function"
    },
    {
      "inputs": [
        {
          "internalType": "uint256",
          "name": "missionId",
          "type": "uint256"
        },
        {
          "internalType": "uint256",
          "name": "knifeId",
          "type": "uint256"
        }
      ],
      "name": "mission",
      "outputs": [],
      "stateMutability": "nonpayable",
      "type": "function"
    },
    {
      "inputs": [
        {
          "internalType": "uint256",
          "name": "",
          "type": "uint256"
        }
      ],
      "name": "missionRequirement",
      "outputs": [
        {
          "internalType": "uint256",
          "name": "",
          "type": "uint256"
        }
      ],
      "stateMutability": "view",
      "type": "function"
    },
    {
      "inputs": [
        {
          "internalType": "uint256",
          "name": "tokenId1",
          "type": "uint256"
        },
        {
          "internalType": "uint256",
          "name": "tokenId2",
          "type": "uint256"
        },
        {
          "internalType": "uint256",
          "name": "tokenId3",
          "type": "uint256"
        }
      ],
      "name": "sameTier",
      "outputs": [
        {
          "internalType": "bool",
          "name": "",
          "type": "bool"
        }
      ],
      "stateMutability": "view",
      "type": "function"
    },
    {
      "inputs": [
        {
          "internalType": "uint256",
          "name": "tokenId1",
          "type": "uint256"
        },
        {
          "internalType": "uint256",
          "name": "tokenId2",
          "type": "uint256"
        },
        {
          "internalType": "uint256",
          "name": "tokenId3",
          "type": "uint256"
        }
      ],
      "name": "sameType",
      "outputs": [
        {
          "internalType": "bool",
          "name": "",
          "type": "bool"
        }
      ],
      "stateMutability": "view",
      "type": "function"
    },
    {
      "inputs": [
        {
          "internalType": "uint256",
          "name": "_cd",
          "type": "uint256"
        }
      ],
      "name": "setLegacyMissionCooldown",
      "outputs": [],
      "stateMutability": "nonpayable",
      "type": "function"
    },
    {
      "inputs": [
        {
          "internalType": "uint256",
          "name": "_maxTier",
          "type": "uint256"
        }
      ],
      "name": "setMaxTier",
      "outputs": [],
      "stateMutability": "nonpayable",
      "type": "function"
    },
    {
      "inputs": [
        {
          "internalType": "uint256",
          "name": "_cd",
          "type": "uint256"
        }
      ],
      "name": "setMissionCooldown",
      "outputs": [],
      "stateMutability": "nonpayable",
      "type": "function"
    },
    {
      "inputs": [
        {
          "internalType": "uint256",
          "name": "_missionId",
          "type": "uint256"
        },
        {
          "internalType": "uint256",
          "name": "_requirements",
          "type": "uint256"
        }
      ],
      "name": "setMissionRequirements",
      "outputs": [],
      "stateMutability": "nonpayable",
      "type": "function"
    },
    {
      "inputs": [
        {
          "internalType": "uint256",
          "name": "",
          "type": "uint256"
        }
      ],
      "name": "tokenIdToItemData",
      "outputs": [
        {
          "internalType": "uint256",
          "name": "id",
          "type": "uint256"
        },
        {
          "internalType": "uint256",
          "name": "item_tier",
          "type": "uint256"
        },
        {
          "internalType": "uint256",
          "name": "item_type",
          "type": "uint256"
        },
        {
          "internalType": "uint256",
          "name": "item_power",
          "type": "uint256"
        }
      ],
      "stateMutability": "view",
      "type": "function"
    },
    {
      "inputs": [
        {
          "internalType": "uint256",
          "name": "itemId",
          "type": "uint256"
        },
        {
          "internalType": "address",
          "name": "user",
          "type": "address"
        }
      ],
      "name": "unequipItem",
      "outputs": [],
      "stateMutability": "nonpayable",
      "type": "function"
    },
    {
      "inputs": [
        {
          "internalType": "uint256",
          "name": "tokenId1",
          "type": "uint256"
        },
        {
          "internalType": "uint256",
          "name": "tokenId2",
          "type": "uint256"
        },
        {
          "internalType": "uint256",
          "name": "tokenId3",
          "type": "uint256"
        }
      ],
      "name": "upgradeItem",
      "outputs": [],
      "stateMutability": "nonpayable",
      "type": "function"
    },
    {
      "inputs": [
        {
          "internalType": "uint256",
          "name": "",
          "type": "uint256"
        }
      ],
      "name": "wentItemMissionAt",
      "outputs": [
        {
          "internalType": "uint256",
          "name": "",
          "type": "uint256"
        }
      ],
      "stateMutability": "view",
      "type": "function"
    },
    {
      "inputs": [
        {
          "internalType": "uint256",
          "name": "",
          "type": "uint256"
        }
      ],
      "name": "wentLegacyMissionAt",
      "outputs": [
        {
          "internalType": "uint256",
          "name": "",
          "type": "uint256"
        }
      ],
      "stateMutability": "view",
      "type": "function"
    }
  ],
  "bytecode": "0x6080604052336000806101000a81548173ffffffffffffffffffffffffffffffffffffffff021916908373ffffffffffffffffffffffffffffffffffffffff16021790555060046001556001600255603c60035560405180608001604052806044815260200162003f9c604491396004908051906020019062000084929190620002bc565b503480156200009257600080fd5b5060405162003fe038038062003fe08339818101604052810190620000b89190620003c8565b80600860006101000a81548173ffffffffffffffffffffffffffffffffffffffff021916908373ffffffffffffffffffffffffffffffffffffffff16021790555083600560006101000a81548173ffffffffffffffffffffffffffffffffffffffff021916908373ffffffffffffffffffffffffffffffffffffffff16021790555082600660006101000a81548173ffffffffffffffffffffffffffffffffffffffff021916908373ffffffffffffffffffffffffffffffffffffffff16021790555081600760006101000a81548173ffffffffffffffffffffffffffffffffffffffff021916908373ffffffffffffffffffffffffffffffffffffffff160217905550336000806101000a81548173ffffffffffffffffffffffffffffffffffffffff021916908373ffffffffffffffffffffffffffffffffffffffff1602179055506018600a600060028152602001908152602001600020819055506036600a600060038152602001908152602001600020819055506060600a600060048152602001908152602001600020819055506008600b60006001815260200190815260200160002081905550600a600b60006002815260200190815260200160002081905550600e600b600060038152602001908152602001600020819055506014600b600060048152602001908152602001600020819055505050505062000585565b828054620002ca90620004b8565b90600052602060002090601f016020900481019282620002ee57600085556200033a565b82601f106200030957805160ff19168380011785556200033a565b828001600101855582156200033a579182015b82811115620003395782518255916020019190600101906200031c565b5b5090506200034991906200034d565b5090565b5b80821115620003685760008160009055506001016200034e565b5090565b6000815190506200037d816200051d565b92915050565b600081519050620003948162000537565b92915050565b600081519050620003ab8162000551565b92915050565b600081519050620003c2816200056b565b92915050565b60008060008060808587031215620003df57600080fd5b6000620003ef878288016200036c565b9450506020620004028782880162000383565b935050604062000415878288016200039a565b92505060606200042887828801620003b1565b91505092959194509250565b6000620004418262000498565b9050919050565b6000620004558262000434565b9050919050565b6000620004698262000434565b9050919050565b60006200047d8262000434565b9050919050565b6000620004918262000434565b9050919050565b600073ffffffffffffffffffffffffffffffffffffffff82169050919050565b60006002820490506001821680620004d157607f821691505b60208210811415620004e857620004e7620004ee565b5b50919050565b7f4e487b7100000000000000000000000000000000000000000000000000000000600052602260045260246000fd5b620005288162000448565b81146200053457600080fd5b50565b62000542816200045c565b81146200054e57600080fd5b50565b6200055c8162000470565b81146200056857600080fd5b50565b620005768162000484565b81146200058257600080fd5b50565b613a0780620005956000396000f3fe608060405234801561001057600080fd5b50600436106101c45760003560e01c80637bfbbacb116100f9578063bdb6db9511610097578063e223d07511610071578063e223d07514610576578063eead490b146105a6578063f5d468d1146105c2578063f6461f1c146105f2576101c4565b8063bdb6db951461050c578063d73151031461053c578063dc573f8214610558576101c4565b806394064b17116100d357806394064b171461045d5780639c8b41ae1461048d578063a1a2fc3b146104a9578063b78ce382146104d9576101c4565b80637bfbbacb14610407578063844b16921461042557806391dbddfc14610441576101c4565b8063241ec499116101665780634b728d6f116101405780634b728d6f146103475780634dde58bf1461037757806353c8026c146103a75780636eb71d3e146103d7576101c4565b8063241ec499146102cb5780632cba362a146102fb578063387b6e0414610317576101c4565b80630d1cbee0116101a25780630d1cbee0146102455780631876c7b514610275578063202a07d51461029157806321cef150146102af576101c4565b80630354c742146101c957806309a7a11c146101e55780630a5d9c4414610215575b600080fd5b6101e360048036038101906101de91906129ff565b610622565b005b6101ff60048036038101906101fa9190612971565b610740565b60405161020c9190613038565b60405180910390f35b61022f600480360381019061022a91906128ba565b61085d565b60405161023c9190613002565b60405180910390f35b61025f600480360381019061025a9190612971565b610938565b60405161026c9190613038565b60405180910390f35b61028f600480360381019061028a9190612a3b565b610aa8565b005b61029961137b565b6040516102a691906131ba565b60405180910390f35b6102c960048036038101906102c491906129ff565b611381565b005b6102e560048036038101906102e09190612971565b6113f5565b6040516102f291906131ba565b60405180910390f35b61031560048036038101906103109190612971565b61140d565b005b610331600480360381019061032c9190612a3b565b611563565b60405161033e919061301d565b60405180910390f35b610361600480360381019061035c9190612971565b6115d5565b60405161036e91906131ba565b60405180910390f35b610391600480360381019061038c9190612a3b565b6115ed565b60405161039e919061301d565b60405180910390f35b6103c160048036038101906103bc91906128ba565b61165f565b6040516103ce91906131ba565b60405180910390f35b6103f160048036038101906103ec9190612971565b611712565b6040516103fe91906131ba565b60405180910390f35b61040f61172a565b60405161041c91906131ba565b60405180910390f35b61043f600480360381019061043a9190612971565b611730565b005b61045b600480360381019061045691906129c3565b611792565b005b61047760048036038101906104729190612971565b611ae9565b60405161048491906131ba565b60405180910390f35b6104a760048036038101906104a29190612971565b611b63565b005b6104c360048036038101906104be9190612971565b611d00565b6040516104d091906131ba565b60405180910390f35b6104f360048036038101906104ee9190612971565b611d7a565b60405161050394939291906131d5565b60405180910390f35b61052660048036038101906105219190612971565b611daa565b60405161053391906131ba565b60405180910390f35b61055660048036038101906105519190612971565b611f02565b005b610560611f64565b60405161056d91906131ba565b60405180910390f35b610590600480360381019061058b9190612971565b611f6a565b60405161059d91906131ba565b60405180910390f35b6105c060048036038101906105bb9190612971565b611f82565b005b6105dc60048036038101906105d79190612971565b611fe4565b6040516105e99190613038565b60405180910390f35b61060c6004803603810190610607919061290c565b612153565b60405161061991906131ba565b60405180910390f35b600061062d82611d00565b1461066d576040517f08c379a0000000000000000000000000000000000000000000000000000000008152600401610664906130da565b60405180910390fd5b6106773382612178565b6106b6576040517f08c379a00000000000000000000000000000000000000000000000000000000081526004016106ad906130ba565b60405180910390fd5b60006106c13361165f565b9050600a600084815260200190815260200160002054811015610719576040517f08c379a00000000000000000000000000000000000000000000000000000000081526004016107109061305a565b60405180910390fd5b42600c60008481526020019081526020016000208190555061073b833361233b565b505050565b606060006009600084815260200190815260200160002060405180608001604052908160008201548152602001600182015481526020016002820154815260200160038201548152505090506000600461079d8360200151610938565b6107aa8460400151611fe4565b6040516020016107bc93929190612eb7565b6040516020818303038152906040529050600061082b6107db866124f8565b836107e98660400151611fe4565b6107f687606001516124f8565b61080388602001516124f8565b604051602001610817959493929190612ef3565b6040516020818303038152906040526126a5565b90506000816040516020016108409190612f80565b604051602081830303815290604052905080945050505050919050565b61086561282f565b61086d61282f565b6000600190505b6004811161092e57600e60008573ffffffffffffffffffffffffffffffffffffffff1673ffffffffffffffffffffffffffffffffffffffff168152602001908152602001600020600082815260200190815260200160002054826001836108db9190613364565b60048110610912577f4e487b7100000000000000000000000000000000000000000000000000000000600052603260045260246000fd5b602002018181525050808061092690613445565b915050610874565b5080915050919050565b60606001821015801561094d57506001548211155b61098c576040517f08c379a0000000000000000000000000000000000000000000000000000000008152600401610983906130fa565b60405180910390fd5b60018214156109d2576040518060400160405280600681526020017f436f6d6d6f6e00000000000000000000000000000000000000000000000000008152509050610aa3565b6002821415610a18576040518060400160405280600481526020017f52617265000000000000000000000000000000000000000000000000000000008152509050610aa2565b6003821415610a5e576040518060400160405280600481526020017f45706963000000000000000000000000000000000000000000000000000000008152509050610aa1565b6004821415610aa0576040518060400160405280600981526020017f4c6567656e64617279000000000000000000000000000000000000000000000081525090505b5b5b5b919050565b6000600960008581526020019081526020016000206002015490506000600960008681526020019081526020016000206001015490506000600960008781526020019081526020016000206003015490506001548210610b3d576040517f08c379a0000000000000000000000000000000000000000000000000000000008152600401610b349061317a565b60405180910390fd5b610b48868686611563565b610b87576040517f08c379a0000000000000000000000000000000000000000000000000000000008152600401610b7e9061315a565b60405180910390fd5b610b928686866115ed565b610bd1576040517f08c379a0000000000000000000000000000000000000000000000000000000008152600401610bc89061311a565b60405180910390fd5b600560009054906101000a900473ffffffffffffffffffffffffffffffffffffffff1673ffffffffffffffffffffffffffffffffffffffff16636352211e876040518263ffffffff1660e01b8152600401610c2c91906131ba565b60206040518083038186803b158015610c4457600080fd5b505afa158015610c58573d6000803e3d6000fd5b505050506040513d601f19601f82011682018060405250810190610c7c91906128e3565b73ffffffffffffffffffffffffffffffffffffffff163373ffffffffffffffffffffffffffffffffffffffff16148015610d8b5750600560009054906101000a900473ffffffffffffffffffffffffffffffffffffffff1673ffffffffffffffffffffffffffffffffffffffff16636352211e866040518263ffffffff1660e01b8152600401610d0c91906131ba565b60206040518083038186803b158015610d2457600080fd5b505afa158015610d38573d6000803e3d6000fd5b505050506040513d601f19601f82011682018060405250810190610d5c91906128e3565b73ffffffffffffffffffffffffffffffffffffffff163373ffffffffffffffffffffffffffffffffffffffff16145b8015610e6c5750600560009054906101000a900473ffffffffffffffffffffffffffffffffffffffff1673ffffffffffffffffffffffffffffffffffffffff16636352211e856040518263ffffffff1660e01b8152600401610ded91906131ba565b60206040518083038186803b158015610e0557600080fd5b505afa158015610e19573d6000803e3d6000fd5b505050506040513d601f19601f82011682018060405250810190610e3d91906128e3565b73ffffffffffffffffffffffffffffffffffffffff163373ffffffffffffffffffffffffffffffffffffffff16145b610eab576040517f08c379a0000000000000000000000000000000000000000000000000000000008152600401610ea29061313a565b60405180910390fd5b60006001600560009054906101000a900473ffffffffffffffffffffffffffffffffffffffff1673ffffffffffffffffffffffffffffffffffffffff1663d082e3816040518163ffffffff1660e01b815260040160206040518083038186803b158015610f1757600080fd5b505afa158015610f2b573d6000803e3d6000fd5b505050506040513d601f19601f82011682018060405250810190610f4f919061299a565b610f599190613283565b905060006040518060800160405280838152602001600186610f7b9190613283565b8152602001868152602001846003610f93919061330a565b81525090506000670de0b6b3a7640000846003610fb0919061330a565b610fba919061330a565b9050600860009054906101000a900473ffffffffffffffffffffffffffffffffffffffff1673ffffffffffffffffffffffffffffffffffffffff166323b872dd3330846040518463ffffffff1660e01b815260040161101b93929190612fa2565b602060405180830381600087803b15801561103557600080fd5b505af1158015611049573d6000803e3d6000fd5b505050506040513d601f19601f8201168201806040525081019061106d9190612948565b50600860009054906101000a900473ffffffffffffffffffffffffffffffffffffffff1673ffffffffffffffffffffffffffffffffffffffff166342966c68826040518263ffffffff1660e01b81526004016110c991906131ba565b600060405180830381600087803b1580156110e357600080fd5b505af11580156110f7573d6000803e3d6000fd5b50505050816009600085815260200190815260200160002060008201518160000155602082015181600101556040820151816002015560608201518160030155905050600560009054906101000a900473ffffffffffffffffffffffffffffffffffffffff1673ffffffffffffffffffffffffffffffffffffffff166340c10f1933856040518363ffffffff1660e01b8152600401611197929190612fd9565b600060405180830381600087803b1580156111b157600080fd5b505af11580156111c5573d6000803e3d6000fd5b50505050600560009054906101000a900473ffffffffffffffffffffffffffffffffffffffff1673ffffffffffffffffffffffffffffffffffffffff166342966c688a6040518263ffffffff1660e01b815260040161122491906131ba565b600060405180830381600087803b15801561123e57600080fd5b505af1158015611252573d6000803e3d6000fd5b50505050600560009054906101000a900473ffffffffffffffffffffffffffffffffffffffff1673ffffffffffffffffffffffffffffffffffffffff166342966c68896040518263ffffffff1660e01b81526004016112b191906131ba565b600060405180830381600087803b1580156112cb57600080fd5b505af11580156112df573d6000803e3d6000fd5b50505050600560009054906101000a900473ffffffffffffffffffffffffffffffffffffffff1673ffffffffffffffffffffffffffffffffffffffff166342966c68886040518263ffffffff1660e01b815260040161133e91906131ba565b600060405180830381600087803b15801561135857600080fd5b505af115801561136c573d6000803e3d6000fd5b50505050505050505050505050565b60035481565b60008054906101000a900473ffffffffffffffffffffffffffffffffffffffff1673ffffffffffffffffffffffffffffffffffffffff163373ffffffffffffffffffffffffffffffffffffffff16146113d957600080fd5b80600a6000848152602001908152602001600020819055505050565b600c6020528060005260406000206000915090505481565b600560009054906101000a900473ffffffffffffffffffffffffffffffffffffffff1673ffffffffffffffffffffffffffffffffffffffff16636352211e826040518263ffffffff1660e01b815260040161146891906131ba565b60206040518083038186803b15801561148057600080fd5b505afa158015611494573d6000803e3d6000fd5b505050506040513d601f19601f820116820180604052508101906114b891906128e3565b73ffffffffffffffffffffffffffffffffffffffff163373ffffffffffffffffffffffffffffffffffffffff16146114ef57600080fd5b60006009600083815260200190815260200160002060020154905081600e60003373ffffffffffffffffffffffffffffffffffffffff1673ffffffffffffffffffffffffffffffffffffffff1681526020019081526020016000206000838152602001908152602001600020819055505050565b600080600960008681526020019081526020016000206002015490506009600085815260200190815260200160002060020154811480156115b95750600960008481526020019081526020016000206002015481145b156115c85760019150506115ce565b60009150505b9392505050565b600a6020528060005260406000206000915090505481565b600080600960008681526020019081526020016000206001015490506009600085815260200190815260200160002060010154811480156116435750600960008481526020019081526020016000206001015481145b15611652576001915050611658565b60009150505b9392505050565b6000806000600190505b60048111611708576000600e60008673ffffffffffffffffffffffffffffffffffffffff1673ffffffffffffffffffffffffffffffffffffffff168152602001908152602001600020600083815260200190815260200160002054905060008111156116f4576009600082815260200190815260200160002060030154836116f19190613283565b92505b50808061170090613445565b915050611669565b5080915050919050565b600b6020528060005260406000206000915090505481565b60015481565b60008054906101000a900473ffffffffffffffffffffffffffffffffffffffff1673ffffffffffffffffffffffffffffffffffffffff163373ffffffffffffffffffffffffffffffffffffffff161461178857600080fd5b8060028190555050565b600560009054906101000a900473ffffffffffffffffffffffffffffffffffffffff1673ffffffffffffffffffffffffffffffffffffffff16636352211e836040518263ffffffff1660e01b81526004016117ed91906131ba565b60206040518083038186803b15801561180557600080fd5b505afa158015611819573d6000803e3d6000fd5b505050506040513d601f19601f8201168201806040525081019061183d91906128e3565b73ffffffffffffffffffffffffffffffffffffffff168173ffffffffffffffffffffffffffffffffffffffff16146118aa576040517f08c379a00000000000000000000000000000000000000000000000000000000081526004016118a19061309a565b60405180910390fd5b600560009054906101000a900473ffffffffffffffffffffffffffffffffffffffff1673ffffffffffffffffffffffffffffffffffffffff16636352211e836040518263ffffffff1660e01b815260040161190591906131ba565b60206040518083038186803b15801561191d57600080fd5b505afa158015611931573d6000803e3d6000fd5b505050506040513d601f19601f8201168201806040525081019061195591906128e3565b73ffffffffffffffffffffffffffffffffffffffff163373ffffffffffffffffffffffffffffffffffffffff1614806119db5750600560009054906101000a900473ffffffffffffffffffffffffffffffffffffffff1673ffffffffffffffffffffffffffffffffffffffff163373ffffffffffffffffffffffffffffffffffffffff16145b611a1a576040517f08c379a0000000000000000000000000000000000000000000000000000000008152600401611a119061319a565b60405180910390fd5b6000600960008481526020019081526020016000206002015490506000600e60008473ffffffffffffffffffffffffffffffffffffffff1673ffffffffffffffffffffffffffffffffffffffff16815260200190815260200160002060008381526020019081526020016000205414611ae4576000600e60008473ffffffffffffffffffffffffffffffffffffffff1673ffffffffffffffffffffffffffffffffffffffff1681526020019081526020016000206000838152602001908152602001600020819055505b505050565b600080429050600060035482611aff919061348e565b600354611b0c9190613364565b905080600d600086815260200190815260200160002054611b2d9190613283565b8210611b3e57600092505050611b5e565b60035482611b4c919061348e565b600354611b599190613364565b925050505b919050565b6000611b6e82611ae9565b14611bae576040517f08c379a0000000000000000000000000000000000000000000000000000000008152600401611ba5906130da565b60405180910390fd5b611bb83382612178565b611bf7576040517f08c379a0000000000000000000000000000000000000000000000000000000008152600401611bee906130ba565b60405180910390fd5b6000611c023361165f565b905060008111611c47576040517f08c379a0000000000000000000000000000000000000000000000000000000008152600401611c3e9061305a565b60405180910390fd5b42600d6000848152602001908152602001600020819055506000611c6a82611daa565b9050600860009054906101000a900473ffffffffffffffffffffffffffffffffffffffff1673ffffffffffffffffffffffffffffffffffffffff16637eee288d33836040518363ffffffff1660e01b8152600401611cc9929190612fd9565b600060405180830381600087803b158015611ce357600080fd5b505af1158015611cf7573d6000803e3d6000fd5b50505050505050565b600080429050600060025482611d16919061348e565b600254611d239190613364565b905080600c600086815260200190815260200160002054611d449190613283565b8210611d5557600092505050611d75565b60025482611d63919061348e565b600254611d709190613364565b925050505b919050565b60096020528060005260406000206000915090508060000154908060010154908060020154908060030154905084565b600060078211611dbd5760009050611efd565b60468211611dff57600a662386f26fc1000083611dda919061330a565b611de4919061330a565b68018493fba64ef00000611df89190613283565b9050611efd565b60fa8211611e41576015662386f26fc1000083611e1c919061330a565b611e26919061330a565b68018493fba64ef00000611e3a9190613283565b9050611efd565b61030c8211611e8457601a662386f26fc1000083611e5f919061330a565b611e69919061330a565b68018493fba64ef00000611e7d9190613283565b9050611efd565b6104148211611ec7576020662386f26fc1000083611ea2919061330a565b611eac919061330a565b68018493fba64ef00000611ec09190613283565b9050611efd565b6028662386f26fc1000083611edc919061330a565b611ee6919061330a565b68018493fba64ef00000611efa9190613283565b90505b919050565b60008054906101000a900473ffffffffffffffffffffffffffffffffffffffff1673ffffffffffffffffffffffffffffffffffffffff163373ffffffffffffffffffffffffffffffffffffffff1614611f5a57600080fd5b8060018190555050565b60025481565b600d6020528060005260406000206000915090505481565b60008054906101000a900473ffffffffffffffffffffffffffffffffffffffff1673ffffffffffffffffffffffffffffffffffffffff163373ffffffffffffffffffffffffffffffffffffffff1614611fda57600080fd5b8060038190555050565b606060018210158015611ff8575060048211155b612037576040517f08c379a000000000000000000000000000000000000000000000000000000000815260040161202e9061307a565b60405180910390fd5b600182141561207d576040518060400160405280600581526020017f426f6f7473000000000000000000000000000000000000000000000000000000815250905061214e565b60028214156120c3576040518060400160405280600b81526020017f427265617374706c617465000000000000000000000000000000000000000000815250905061214d565b6003821415612109576040518060400160405280600881526020017f4261636b7061636b000000000000000000000000000000000000000000000000815250905061214c565b600482141561214b576040518060400160405280600681526020017f48656c6d6574000000000000000000000000000000000000000000000000000081525090505b5b5b5b919050565b600e602052816000526040600020602052806000526040600020600091509150505481565b60008273ffffffffffffffffffffffffffffffffffffffff16600760009054906101000a900473ffffffffffffffffffffffffffffffffffffffff1673ffffffffffffffffffffffffffffffffffffffff1663ac86e186846040518263ffffffff1660e01b81526004016121ec91906131ba565b60206040518083038186803b15801561220457600080fd5b505afa158015612218573d6000803e3d6000fd5b505050506040513d601f19601f8201168201806040525081019061223c91906128e3565b73ffffffffffffffffffffffffffffffffffffffff16148061233357508273ffffffffffffffffffffffffffffffffffffffff16600660009054906101000a900473ffffffffffffffffffffffffffffffffffffffff1673ffffffffffffffffffffffffffffffffffffffff16636352211e846040518263ffffffff1660e01b81526004016122cb91906131ba565b60206040518083038186803b1580156122e357600080fd5b505afa1580156122f7573d6000803e3d6000fd5b505050506040513d601f19601f8201168201806040525081019061231b91906128e3565b73ffffffffffffffffffffffffffffffffffffffff16145b905092915050565b60006001600560009054906101000a900473ffffffffffffffffffffffffffffffffffffffff1673ffffffffffffffffffffffffffffffffffffffff1663d082e3816040518163ffffffff1660e01b815260040160206040518083038186803b1580156123a757600080fd5b505afa1580156123bb573d6000803e3d6000fd5b505050506040513d601f19601f820116820180604052508101906123df919061299a565b6123e99190613283565b90506000604051806080016040528083815260200160018152602001858152602001600b6000878152602001908152602001600020548152509050806009600084815260200190815260200160002060008201518160000155602082015181600101556040820151816002015560608201518160030155905050600560009054906101000a900473ffffffffffffffffffffffffffffffffffffffff1673ffffffffffffffffffffffffffffffffffffffff166340c10f1984846040518363ffffffff1660e01b81526004016124c0929190612fd9565b600060405180830381600087803b1580156124da57600080fd5b505af11580156124ee573d6000803e3d6000fd5b5050505050505050565b60606000821415612540576040518060400160405280600181526020017f300000000000000000000000000000000000000000000000000000000000000081525090506126a0565b600082905060005b6000821461257257808061255b90613445565b915050600a8261256b91906132d9565b9150612548565b60008167ffffffffffffffff8111156125b4577f4e487b7100000000000000000000000000000000000000000000000000000000600052604160045260246000fd5b6040519080825280601f01601f1916602001820160405280156125e65781602001600182028036833780820191505090505b5090505b60008514612699576001826125ff9190613364565b9150600a8561260e919061348e565b603061261a9190613283565b60f81b818381518110612656577f4e487b7100000000000000000000000000000000000000000000000000000000600052603260045260246000fd5b60200101907effffffffffffffffffffffffffffffffffffffffffffffffffffffffffffff1916908160001a905350600a8561269291906132d9565b94506125ea565b8093505050505b919050565b60606000825114156126c85760405180602001604052806000815250905061282a565b600060405180606001604052806040815260200161399260409139905060006003600285516126f79190613283565b61270191906132d9565b600461270d919061330a565b67ffffffffffffffff81111561274c577f4e487b7100000000000000000000000000000000000000000000000000000000600052604160045260246000fd5b6040519080825280601f01601f19166020018201604052801561277e5781602001600182028036833780820191505090505b509050600182016020820185865187015b808210156127ea576003820191508151603f8160121c168501518453600184019350603f81600c1c168501518453600184019350603f8160061c168501518453600184019350603f811685015184536001840193505061278f565b5050600386510660018114612806576002811461281957612821565b603d6001830353603d6002830353612821565b603d60018303535b50505080925050505b919050565b6040518060800160405280600490602082028036833780820191505090505090565b6000813590506128608161394c565b92915050565b6000815190506128758161394c565b92915050565b60008151905061288a81613963565b92915050565b60008135905061289f8161397a565b92915050565b6000815190506128b48161397a565b92915050565b6000602082840312156128cc57600080fd5b60006128da84828501612851565b91505092915050565b6000602082840312156128f557600080fd5b600061290384828501612866565b91505092915050565b6000806040838503121561291f57600080fd5b600061292d85828601612851565b925050602061293e85828601612890565b9150509250929050565b60006020828403121561295a57600080fd5b60006129688482850161287b565b91505092915050565b60006020828403121561298357600080fd5b600061299184828501612890565b91505092915050565b6000602082840312156129ac57600080fd5b60006129ba848285016128a5565b91505092915050565b600080604083850312156129d657600080fd5b60006129e485828601612890565b92505060206129f585828601612851565b9150509250929050565b60008060408385031215612a1257600080fd5b6000612a2085828601612890565b9250506020612a3185828601612890565b9150509250929050565b600080600060608486031215612a5057600080fd5b6000612a5e86828701612890565b9350506020612a6f86828701612890565b9250506040612a8086828701612890565b9150509250925092565b6000612a968383612e99565b60208301905092915050565b612aab81613398565b82525050565b612aba81613239565b612ac4818461325c565b9250612acf8261321a565b8060005b83811015612b00578151612ae78782612a8a565b9650612af28361324f565b925050600181019050612ad3565b505050505050565b612b11816133aa565b82525050565b6000612b2282613244565b612b2c8185613267565b9350612b3c8185602086016133e0565b612b458161354c565b840191505092915050565b6000612b5b82613244565b612b658185613278565b9350612b758185602086016133e0565b80840191505092915050565b60008154612b8e81613413565b612b988186613278565b94506001821660008114612bb35760018114612bc457612bf7565b60ff19831686528186019350612bf7565b612bcd85613224565b60005b83811015612bef57815481890152600182019150602081019050612bd0565b838801955050505b50505092915050565b6000612c0d603283613278565b9150612c188261355d565b603282019050919050565b6000612c30602683613278565b9150612c3b826135ac565b602682019050919050565b6000612c53601083613267565b9150612c5e826135fb565b602082019050919050565b6000612c76601483613267565b9150612c8182613624565b602082019050919050565b6000612c99601783613267565b9150612ca48261364d565b602082019050919050565b6000612cbc600483613278565b9150612cc782613676565b600482019050919050565b6000612cdf601683613267565b9150612cea8261369f565b602082019050919050565b6000612d02601983613267565b9150612d0d826136c8565b602082019050919050565b6000612d25601483613267565b9150612d30826136f1565b602082019050919050565b6000612d48602583613278565b9150612d538261371a565b602582019050919050565b6000612d6b601083613278565b9150612d7682613769565b601082019050919050565b6000612d8e601283613267565b9150612d9982613792565b602082019050919050565b6000612db1601d83613278565b9150612dbc826137bb565b601d82019050919050565b6000612dd4600983613267565b9150612ddf826137e4565b602082019050919050565b6000612df7601283613267565b9150612e028261380d565b602082019050919050565b6000612e1a601b83613267565b9150612e2582613836565b602082019050919050565b6000612e3d602a83613267565b9150612e488261385f565b604082019050919050565b6000612e60605b83613278565b9150612e6b826138ae565b605b82019050919050565b6000612e83600483613278565b9150612e8e82613923565b600482019050919050565b612ea2816133d6565b82525050565b612eb1816133d6565b82525050565b6000612ec38286612b81565b9150612ecf8285612b50565b9150612edb8284612b50565b9150612ee682612caf565b9150819050949350505050565b6000612efe82612d5e565b9150612f0a8288612b50565b9150612f1582612e53565b9150612f218287612b50565b9150612f2c82612c00565b9150612f388286612b50565b9150612f4382612c23565b9150612f4f8285612b50565b9150612f5a82612d3b565b9150612f668284612b50565b9150612f7182612e76565b91508190509695505050505050565b6000612f8b82612da4565b9150612f978284612b50565b915081905092915050565b6000606082019050612fb76000830186612aa2565b612fc46020830185612aa2565b612fd16040830184612ea8565b949350505050565b6000604082019050612fee6000830185612aa2565b612ffb6020830184612ea8565b9392505050565b60006080820190506130176000830184612ab1565b92915050565b60006020820190506130326000830184612b08565b92915050565b600060208201905081810360008301526130528184612b17565b905092915050565b6000602082019050818103600083015261307381612c46565b9050919050565b6000602082019050818103600083015261309381612c69565b9050919050565b600060208201905081810360008301526130b381612c8c565b9050919050565b600060208201905081810360008301526130d381612cd2565b9050919050565b600060208201905081810360008301526130f381612cf5565b9050919050565b6000602082019050818103600083015261311381612d18565b9050919050565b6000602082019050818103600083015261313381612d81565b9050919050565b6000602082019050818103600083015261315381612dc7565b9050919050565b6000602082019050818103600083015261317381612dea565b9050919050565b6000602082019050818103600083015261319381612e0d565b9050919050565b600060208201905081810360008301526131b381612e30565b9050919050565b60006020820190506131cf6000830184612ea8565b92915050565b60006080820190506131ea6000830187612ea8565b6131f76020830186612ea8565b6132046040830185612ea8565b6132116060830184612ea8565b95945050505050565b6000819050919050565b60008190508160005260206000209050919050565b600060049050919050565b600081519050919050565b6000602082019050919050565b600081905092915050565b600082825260208201905092915050565b600081905092915050565b600061328e826133d6565b9150613299836133d6565b9250827fffffffffffffffffffffffffffffffffffffffffffffffffffffffffffffffff038211156132ce576132cd6134bf565b5b828201905092915050565b60006132e4826133d6565b91506132ef836133d6565b9250826132ff576132fe6134ee565b5b828204905092915050565b6000613315826133d6565b9150613320836133d6565b9250817fffffffffffffffffffffffffffffffffffffffffffffffffffffffffffffffff0483118215151615613359576133586134bf565b5b828202905092915050565b600061336f826133d6565b915061337a836133d6565b92508282101561338d5761338c6134bf565b5b828203905092915050565b60006133a3826133b6565b9050919050565b60008115159050919050565b600073ffffffffffffffffffffffffffffffffffffffff82169050919050565b6000819050919050565b60005b838110156133fe5780820151818401526020810190506133e3565b8381111561340d576000848401525b50505050565b6000600282049050600182168061342b57607f821691505b6020821081141561343f5761343e61351d565b5b50919050565b6000613450826133d6565b91507fffffffffffffffffffffffffffffffffffffffffffffffffffffffffffffffff821415613483576134826134bf565b5b600182019050919050565b6000613499826133d6565b91506134a4836133d6565b9250826134b4576134b36134ee565b5b828206905092915050565b7f4e487b7100000000000000000000000000000000000000000000000000000000600052601160045260246000fd5b7f4e487b7100000000000000000000000000000000000000000000000000000000600052601260045260246000fd5b7f4e487b7100000000000000000000000000000000000000000000000000000000600052602260045260246000fd5b6000601f19601f8301169050919050565b7f222c202261747472696275746573223a5b7b2274726169745f74797065223a2060008201527f2254797065222c202276616c7565223a20220000000000000000000000000000602082015250565b7f227d2c207b2274726169745f74797065223a2022506f776572222c202276616c60008201527f7565223a20220000000000000000000000000000000000000000000000000000602082015250565b7f4e6f7420656e6f75676820706f77657200000000000000000000000000000000600082015250565b7f5479706520646f6573206e6f742065786973742e000000000000000000000000600082015250565b7f4974656d206e6f74206f776e656420627920757365722e000000000000000000600082015250565b7f2e706e6700000000000000000000000000000000000000000000000000000000600082015250565b7f4e6f74206b6e696665206f776e65722f7374616b657200000000000000000000600082015250565b7f4e65656420746f207761697420666f72206d697373696f6e2e00000000000000600082015250565b7f5469657220646f6573206e6f742065786973742e000000000000000000000000600082015250565b7f227d2c207b2274726169745f74797065223a202254696572222c202276616c7560008201527f65223a2022000000000000000000000000000000000000000000000000000000602082015250565b7f7b226e616d65223a20224974656d202300000000000000000000000000000000600082015250565b7f4e6f742073616d652074696572204e4654730000000000000000000000000000600082015250565b7f646174613a6170706c69636174696f6e2f6a736f6e3b6261736536342c000000600082015250565b7f4e6f74206f776e65720000000000000000000000000000000000000000000000600082015250565b7f4e6f742073616d652074797065204e4654730000000000000000000000000000600082015250565b7f43616e6e6f7420636f6d62696e6520746965722034206974656d730000000000600082015250565b7f4f6e6c7920666163746f7279206f72206f776e65722063616e20756e6571756960008201527f7020616e206974656d2e00000000000000000000000000000000000000000000602082015250565b7f222c20226465736372697074696f6e223a20224974656d7320616c6c6f77732060008201527f796f7520746f20696e63726561736520796f757220706f77657220746f20636f60208201527f6d706c657465206d697373696f6e732e222c22696d616765223a220000000000604082015250565b7f227d5d7d00000000000000000000000000000000000000000000000000000000600082015250565b61395581613398565b811461396057600080fd5b50565b61396c816133aa565b811461397757600080fd5b50565b613983816133d6565b811461398e57600080fd5b5056fe4142434445464748494a4b4c4d4e4f505152535455565758595a6162636465666768696a6b6c6d6e6f707172737475767778797a303132333435363738392b2fa2646970667358221220008f081ebf9ee57b0c5da4aaabb90d5d0599fb819d82c31683321a39df2fdea164736f6c6343000804003368747470733a2f2f697066732e696f2f697066732f516d62587458726f5479594a7557746b72754e396459757a644b6b5a52703244344a61587a6855724675656277732f",
  "linkReferences": {},
  "deployedLinkReferences": {}
}