{
  "_format": "hh-sol-artifact-1",
  "contractName": "AvaxApes",
  "sourceName": "contracts/AvaxApes.sol",
  "abi": [
    {
      "inputs": [
        {
          "internalType": "string",
          "name": "name",
          "type": "string"
        },
        {
          "internalType": "string",
          "name": "symbol",
          "type": "string"
        },
        {
          "internalType": "string",
          "name": "baseTokenURI",
          "type": "string"
        },
        {
          "internalType": "uint256",
          "name": "mintPrice",
          "type": "uint256"
        },
        {
          "internalType": "uint256",
          "name": "max",
          "type": "uint256"
        },
        {
          "internalType": "address",
          "name": "admin",
          "type": "address"
        },
        {
          "internalType": "address",
          "name": "admin2",
          "type": "address"
        }
      ],
      "stateMutability": "nonpayable",
      "type": "constructor"
    },
    {
      "anonymous": false,
      "inputs": [
        {
          "indexed": true,
          "internalType": "address",
          "name": "owner",
          "type": "address"
        },
        {
          "indexed": true,
          "internalType": "address",
          "name": "approved",
          "type": "address"
        },
        {
          "indexed": true,
          "internalType": "uint256",
          "name": "tokenId",
          "type": "uint256"
        }
      ],
      "name": "Approval",
      "type": "event"
    },
    {
      "anonymous": false,
      "inputs": [
        {
          "indexed": true,
          "internalType": "address",
          "name": "owner",
          "type": "address"
        },
        {
          "indexed": true,
          "internalType": "address",
          "name": "operator",
          "type": "address"
        },
        {
          "indexed": false,
          "internalType": "bool",
          "name": "approved",
          "type": "bool"
        }
      ],
      "name": "ApprovalForAll",
      "type": "event"
    },
    {
      "anonymous": false,
      "inputs": [
        {
          "indexed": true,
          "internalType": "bytes32",
          "name": "role",
          "type": "bytes32"
        },
        {
          "indexed": true,
          "internalType": "bytes32",
          "name": "previousAdminRole",
          "type": "bytes32"
        },
        {
          "indexed": true,
          "internalType": "bytes32",
          "name": "newAdminRole",
          "type": "bytes32"
        }
      ],
      "name": "RoleAdminChanged",
      "type": "event"
    },
    {
      "anonymous": false,
      "inputs": [
        {
          "indexed": true,
          "internalType": "bytes32",
          "name": "role",
          "type": "bytes32"
        },
        {
          "indexed": true,
          "internalType": "address",
          "name": "account",
          "type": "address"
        },
        {
          "indexed": true,
          "internalType": "address",
          "name": "sender",
          "type": "address"
        }
      ],
      "name": "RoleGranted",
      "type": "event"
    },
    {
      "anonymous": false,
      "inputs": [
        {
          "indexed": true,
          "internalType": "bytes32",
          "name": "role",
          "type": "bytes32"
        },
        {
          "indexed": true,
          "internalType": "address",
          "name": "account",
          "type": "address"
        },
        {
          "indexed": true,
          "internalType": "address",
          "name": "sender",
          "type": "address"
        }
      ],
      "name": "RoleRevoked",
      "type": "event"
    },
    {
      "anonymous": false,
      "inputs": [
        {
          "indexed": true,
          "internalType": "address",
          "name": "from",
          "type": "address"
        },
        {
          "indexed": true,
          "internalType": "address",
          "name": "to",
          "type": "address"
        },
        {
          "indexed": true,
          "internalType": "uint256",
          "name": "tokenId",
          "type": "uint256"
        }
      ],
      "name": "Transfer",
      "type": "event"
    },
    {
      "inputs": [],
      "name": "DEFAULT_ADMIN_ROLE",
      "outputs": [
        {
          "internalType": "bytes32",
          "name": "",
          "type": "bytes32"
        }
      ],
      "stateMutability": "view",
      "type": "function"
    },
    {
      "inputs": [],
      "name": "_tokenIdTracker",
      "outputs": [
        {
          "internalType": "uint256",
          "name": "_value",
          "type": "uint256"
        }
      ],
      "stateMutability": "view",
      "type": "function"
    },
    {
      "inputs": [
        {
          "internalType": "address",
          "name": "to",
          "type": "address"
        },
        {
          "internalType": "uint256",
          "name": "tokenId",
          "type": "uint256"
        }
      ],
      "name": "approve",
      "outputs": [],
      "stateMutability": "nonpayable",
      "type": "function"
    },
    {
      "inputs": [
        {
          "internalType": "address",
          "name": "owner",
          "type": "address"
        }
      ],
      "name": "balanceOf",
      "outputs": [
        {
          "internalType": "uint256",
          "name": "",
          "type": "uint256"
        }
      ],
      "stateMutability": "view",
      "type": "function"
    },
    {
      "inputs": [
        {
          "internalType": "uint256",
          "name": "tokenId",
          "type": "uint256"
        }
      ],
      "name": "claimReward",
      "outputs": [],
      "stateMutability": "nonpayable",
      "type": "function"
    },
    {
      "inputs": [],
      "name": "claimRewards",
      "outputs": [],
      "stateMutability": "nonpayable",
      "type": "function"
    },
    {
      "inputs": [],
      "name": "currentRate",
      "outputs": [
        {
          "internalType": "uint256",
          "name": "",
          "type": "uint256"
        }
      ],
      "stateMutability": "view",
      "type": "function"
    },
    {
      "inputs": [
        {
          "internalType": "uint256",
          "name": "tokenId",
          "type": "uint256"
        }
      ],
      "name": "getApproved",
      "outputs": [
        {
          "internalType": "address",
          "name": "",
          "type": "address"
        }
      ],
      "stateMutability": "view",
      "type": "function"
    },
    {
      "inputs": [
        {
          "internalType": "uint256",
          "name": "tokenId",
          "type": "uint256"
        }
      ],
      "name": "getReflectionBalance",
      "outputs": [
        {
          "internalType": "uint256",
          "name": "",
          "type": "uint256"
        }
      ],
      "stateMutability": "view",
      "type": "function"
    },
    {
      "inputs": [],
      "name": "getReflectionBalances",
      "outputs": [
        {
          "internalType": "uint256",
          "name": "",
          "type": "uint256"
        }
      ],
      "stateMutability": "view",
      "type": "function"
    },
    {
      "inputs": [
        {
          "internalType": "bytes32",
          "name": "role",
          "type": "bytes32"
        }
      ],
      "name": "getRoleAdmin",
      "outputs": [
        {
          "internalType": "bytes32",
          "name": "",
          "type": "bytes32"
        }
      ],
      "stateMutability": "view",
      "type": "function"
    },
    {
      "inputs": [
        {
          "internalType": "bytes32",
          "name": "role",
          "type": "bytes32"
        },
        {
          "internalType": "uint256",
          "name": "index",
          "type": "uint256"
        }
      ],
      "name": "getRoleMember",
      "outputs": [
        {
          "internalType": "address",
          "name": "",
          "type": "address"
        }
      ],
      "stateMutability": "view",
      "type": "function"
    },
    {
      "inputs": [
        {
          "internalType": "bytes32",
          "name": "role",
          "type": "bytes32"
        }
      ],
      "name": "getRoleMemberCount",
      "outputs": [
        {
          "internalType": "uint256",
          "name": "",
          "type": "uint256"
        }
      ],
      "stateMutability": "view",
      "type": "function"
    },
    {
      "inputs": [
        {
          "internalType": "bytes32",
          "name": "role",
          "type": "bytes32"
        },
        {
          "internalType": "address",
          "name": "account",
          "type": "address"
        }
      ],
      "name": "grantRole",
      "outputs": [],
      "stateMutability": "nonpayable",
      "type": "function"
    },
    {
      "inputs": [
        {
          "internalType": "bytes32",
          "name": "role",
          "type": "bytes32"
        },
        {
          "internalType": "address",
          "name": "account",
          "type": "address"
        }
      ],
      "name": "hasRole",
      "outputs": [
        {
          "internalType": "bool",
          "name": "",
          "type": "bool"
        }
      ],
      "stateMutability": "view",
      "type": "function"
    },
    {
      "inputs": [
        {
          "internalType": "address",
          "name": "owner",
          "type": "address"
        },
        {
          "internalType": "address",
          "name": "operator",
          "type": "address"
        }
      ],
      "name": "isApprovedForAll",
      "outputs": [
        {
          "internalType": "bool",
          "name": "",
          "type": "bool"
        }
      ],
      "stateMutability": "view",
      "type": "function"
    },
    {
      "inputs": [
        {
          "internalType": "uint256",
          "name": "",
          "type": "uint256"
        }
      ],
      "name": "lastDividendAt",
      "outputs": [
        {
          "internalType": "uint256",
          "name": "",
          "type": "uint256"
        }
      ],
      "stateMutability": "view",
      "type": "function"
    },
    {
      "inputs": [
        {
          "internalType": "uint256",
          "name": "amount",
          "type": "uint256"
        }
      ],
      "name": "mint",
      "outputs": [],
      "stateMutability": "payable",
      "type": "function"
    },
    {
      "inputs": [
        {
          "internalType": "uint256",
          "name": "",
          "type": "uint256"
        }
      ],
      "name": "minter",
      "outputs": [
        {
          "internalType": "address",
          "name": "",
          "type": "address"
        }
      ],
      "stateMutability": "view",
      "type": "function"
    },
    {
      "inputs": [],
      "name": "name",
      "outputs": [
        {
          "internalType": "string",
          "name": "",
          "type": "string"
        }
      ],
      "stateMutability": "view",
      "type": "function"
    },
    {
      "inputs": [
        {
          "internalType": "uint256",
          "name": "tokenId",
          "type": "uint256"
        }
      ],
      "name": "ownerOf",
      "outputs": [
        {
          "internalType": "address",
          "name": "",
          "type": "address"
        }
      ],
      "stateMutability": "view",
      "type": "function"
    },
    {
      "inputs": [],
      "name": "price",
      "outputs": [
        {
          "internalType": "uint256",
          "name": "",
          "type": "uint256"
        }
      ],
      "stateMutability": "view",
      "type": "function"
    },
    {
      "inputs": [],
      "name": "reflectToOwners",
      "outputs": [],
      "stateMutability": "payable",
      "type": "function"
    },
    {
      "inputs": [],
      "name": "reflectionBalance",
      "outputs": [
        {
          "internalType": "uint256",
          "name": "",
          "type": "uint256"
        }
      ],
      "stateMutability": "view",
      "type": "function"
    },
    {
      "inputs": [
        {
          "internalType": "bytes32",
          "name": "role",
          "type": "bytes32"
        },
        {
          "internalType": "address",
          "name": "account",
          "type": "address"
        }
      ],
      "name": "renounceRole",
      "outputs": [],
      "stateMutability": "nonpayable",
      "type": "function"
    },
    {
      "inputs": [
        {
          "internalType": "bytes32",
          "name": "role",
          "type": "bytes32"
        },
        {
          "internalType": "address",
          "name": "account",
          "type": "address"
        }
      ],
      "name": "revokeRole",
      "outputs": [],
      "stateMutability": "nonpayable",
      "type": "function"
    },
    {
      "inputs": [
        {
          "internalType": "address",
          "name": "from",
          "type": "address"
        },
        {
          "internalType": "address",
          "name": "to",
          "type": "address"
        },
        {
          "internalType": "uint256",
          "name": "tokenId",
          "type": "uint256"
        }
      ],
      "name": "safeTransferFrom",
      "outputs": [],
      "stateMutability": "nonpayable",
      "type": "function"
    },
    {
      "inputs": [
        {
          "internalType": "address",
          "name": "from",
          "type": "address"
        },
        {
          "internalType": "address",
          "name": "to",
          "type": "address"
        },
        {
          "internalType": "uint256",
          "name": "tokenId",
          "type": "uint256"
        },
        {
          "internalType": "bytes",
          "name": "_data",
          "type": "bytes"
        }
      ],
      "name": "safeTransferFrom",
      "outputs": [],
      "stateMutability": "nonpayable",
      "type": "function"
    },
    {
      "inputs": [
        {
          "internalType": "address",
          "name": "operator",
          "type": "address"
        },
        {
          "internalType": "bool",
          "name": "approved",
          "type": "bool"
        }
      ],
      "name": "setApprovalForAll",
      "outputs": [],
      "stateMutability": "nonpayable",
      "type": "function"
    },
    {
      "inputs": [
        {
          "internalType": "string",
          "name": "baseURI",
          "type": "string"
        }
      ],
      "name": "setBaseURI",
      "outputs": [],
      "stateMutability": "nonpayable",
      "type": "function"
    },
    {
      "inputs": [
        {
          "internalType": "uint256",
          "name": "mintPrice",
          "type": "uint256"
        }
      ],
      "name": "setPrice",
      "outputs": [],
      "stateMutability": "nonpayable",
      "type": "function"
    },
    {
      "inputs": [
        {
          "internalType": "uint256",
          "name": "tokenId",
          "type": "uint256"
        },
        {
          "internalType": "string",
          "name": "_tokenURI",
          "type": "string"
        }
      ],
      "name": "setTokenURI",
      "outputs": [],
      "stateMutability": "nonpayable",
      "type": "function"
    },
    {
      "inputs": [
        {
          "internalType": "bytes4",
          "name": "interfaceId",
          "type": "bytes4"
        }
      ],
      "name": "supportsInterface",
      "outputs": [
        {
          "internalType": "bool",
          "name": "",
          "type": "bool"
        }
      ],
      "stateMutability": "view",
      "type": "function"
    },
    {
      "inputs": [],
      "name": "symbol",
      "outputs": [
        {
          "internalType": "string",
          "name": "",
          "type": "string"
        }
      ],
      "stateMutability": "view",
      "type": "function"
    },
    {
      "inputs": [
        {
          "internalType": "uint256",
          "name": "index",
          "type": "uint256"
        }
      ],
      "name": "tokenByIndex",
      "outputs": [
        {
          "internalType": "uint256",
          "name": "",
          "type": "uint256"
        }
      ],
      "stateMutability": "view",
      "type": "function"
    },
    {
      "inputs": [
        {
          "internalType": "uint256",
          "name": "tokenId",
          "type": "uint256"
        }
      ],
      "name": "tokenMinter",
      "outputs": [
        {
          "internalType": "address",
          "name": "",
          "type": "address"
        }
      ],
      "stateMutability": "view",
      "type": "function"
    },
    {
      "inputs": [
        {
          "internalType": "address",
          "name": "owner",
          "type": "address"
        },
        {
          "internalType": "uint256",
          "name": "index",
          "type": "uint256"
        }
      ],
      "name": "tokenOfOwnerByIndex",
      "outputs": [
        {
          "internalType": "uint256",
          "name": "",
          "type": "uint256"
        }
      ],
      "stateMutability": "view",
      "type": "function"
    },
    {
      "inputs": [
        {
          "internalType": "uint256",
          "name": "tokenId",
          "type": "uint256"
        }
      ],
      "name": "tokenURI",
      "outputs": [
        {
          "internalType": "string",
          "name": "",
          "type": "string"
        }
      ],
      "stateMutability": "view",
      "type": "function"
    },
    {
      "inputs": [],
      "name": "totalDividend",
      "outputs": [
        {
          "internalType": "uint256",
          "name": "",
          "type": "uint256"
        }
      ],
      "stateMutability": "view",
      "type": "function"
    },
    {
      "inputs": [],
      "name": "totalSupply",
      "outputs": [
        {
          "internalType": "uint256",
          "name": "",
          "type": "uint256"
        }
      ],
      "stateMutability": "view",
      "type": "function"
    },
    {
      "inputs": [
        {
          "internalType": "address",
          "name": "from",
          "type": "address"
        },
        {
          "internalType": "address",
          "name": "to",
          "type": "address"
        },
        {
          "internalType": "uint256",
          "name": "tokenId",
          "type": "uint256"
        }
      ],
      "name": "transferFrom",
      "outputs": [],
      "stateMutability": "nonpayable",
      "type": "function"
    }
  ],
  "bytecode": "0x60806040523480156200001157600080fd5b5060405162005a1238038062005a1283398181016040528101906200003791906200051e565b8686816002908051906020019062000051929190620003ce565b5080600390805190602001906200006a929190620003ce565b50505084600e908051906020019062000085929190620003ce565b5083600f819055508260108190555081601160006101000a81548173ffffffffffffffffffffffffffffffffffffffff021916908373ffffffffffffffffffffffffffffffffffffffff16021790555080601260006101000a81548173ffffffffffffffffffffffffffffffffffffffff021916908373ffffffffffffffffffffffffffffffffffffffff1602179055506200012b6000801b836200013860201b60201c565b50505050505050620007f8565b6200014f82826200018060201b62001a051760201c565b6200017b81600160008581526020019081526020016000206200019660201b62001a131790919060201c565b505050565b620001928282620001ce60201b60201c565b5050565b6000620001c6836000018373ffffffffffffffffffffffffffffffffffffffff1660001b620002bf60201b60201c565b905092915050565b620001e082826200033960201b60201c565b620002bb57600160008084815260200190815260200160002060000160008373ffffffffffffffffffffffffffffffffffffffff1673ffffffffffffffffffffffffffffffffffffffff16815260200190815260200160002060006101000a81548160ff02191690831515021790555062000260620003a360201b60201c565b73ffffffffffffffffffffffffffffffffffffffff168173ffffffffffffffffffffffffffffffffffffffff16837f2f8788117e7eff1d82e926ec794901d17c78024a50270940304540a733656f0d60405160405180910390a45b5050565b6000620002d38383620003ab60201b60201c565b6200032e57826000018290806001815401808255809150506001900390600052602060002001600090919091909150558260000180549050836001016000848152602001908152602001600020819055506001905062000333565b600090505b92915050565b600080600084815260200190815260200160002060000160008373ffffffffffffffffffffffffffffffffffffffff1673ffffffffffffffffffffffffffffffffffffffff16815260200190815260200160002060009054906101000a900460ff16905092915050565b600033905090565b600080836001016000848152602001908152602001600020541415905092915050565b828054620003dc90620006e9565b90600052602060002090601f0160209004810192826200040057600085556200044c565b82601f106200041b57805160ff19168380011785556200044c565b828001600101855582156200044c579182015b828111156200044b5782518255916020019190600101906200042e565b5b5090506200045b91906200045f565b5090565b5b808211156200047a57600081600090555060010162000460565b5090565b6000620004956200048f846200063f565b62000616565b905082815260208101848484011115620004ae57600080fd5b620004bb848285620006b3565b509392505050565b600081519050620004d481620007c4565b92915050565b600082601f830112620004ec57600080fd5b8151620004fe8482602086016200047e565b91505092915050565b6000815190506200051881620007de565b92915050565b600080600080600080600060e0888a0312156200053a57600080fd5b600088015167ffffffffffffffff8111156200055557600080fd5b620005638a828b01620004da565b975050602088015167ffffffffffffffff8111156200058157600080fd5b6200058f8a828b01620004da565b965050604088015167ffffffffffffffff811115620005ad57600080fd5b620005bb8a828b01620004da565b9550506060620005ce8a828b0162000507565b9450506080620005e18a828b0162000507565b93505060a0620005f48a828b01620004c3565b92505060c0620006078a828b01620004c3565b91505092959891949750929550565b60006200062262000635565b90506200063082826200071f565b919050565b6000604051905090565b600067ffffffffffffffff8211156200065d576200065c62000784565b5b6200066882620007b3565b9050602081019050919050565b6000620006828262000689565b9050919050565b600073ffffffffffffffffffffffffffffffffffffffff82169050919050565b6000819050919050565b60005b83811015620006d3578082015181840152602081019050620006b6565b83811115620006e3576000848401525b50505050565b600060028204905060018216806200070257607f821691505b6020821081141562000719576200071862000755565b5b50919050565b6200072a82620007b3565b810181811067ffffffffffffffff821117156200074c576200074b62000784565b5b80604052505050565b7f4e487b7100000000000000000000000000000000000000000000000000000000600052602260045260246000fd5b7f4e487b7100000000000000000000000000000000000000000000000000000000600052604160045260246000fd5b6000601f19601f8301169050919050565b620007cf8162000675565b8114620007db57600080fd5b50565b620007e981620006a9565b8114620007f557600080fd5b50565b61520a80620008086000396000f3fe6080604052600436106102455760003560e01c80636352211e11610139578063a217fddf116100b6578063c87b56dd1161007a578063c87b56dd146108a9578063ca15c873146108e6578063d206885714610923578063d547741f14610960578063e985e9c514610989578063f9f8bdb7146109c657610245565b8063a217fddf146107c6578063a22cb465146107f1578063ac8d856c1461081a578063ae169a5014610857578063b88d4fde1461088057610245565b806391d14854116100fd57806391d14854146106ec57806395d89b411461072957806398bcede914610754578063a035b1fe1461077f578063a0712d68146107aa57610245565b80636352211e146105cf57806370a082311461060c5780637c57d947146106495780639010d07c1461068657806391b7f5ed146106c357610245565b8063248a9ca3116101c75780634131ff991161018b5780634131ff99146104ea57806342842e0e146105155780634b6acafb1461053e5780634f6ccce71461056957806355f804b3146105a657610245565b8063248a9ca3146104075780632f2ff15d146104445780632f745c591461046d57806336568abe146104aa578063372500ab146104d357610245565b8063081812fc1161020e578063081812fc14610324578063095ea7b314610361578063162094c41461038a57806318160ddd146103b357806323b872dd146103de57610245565b8062fe50c61461024a57806301eb99ec1461028757806301ffc9a7146102b2578063047d5e80146102ef57806306fdde03146102f9575b600080fd5b34801561025657600080fd5b50610271600480360381019061026c9190613b38565b6109f1565b60405161027e91906144cb565b60405180910390f35b34801561029357600080fd5b5061029c610a1b565b6040516102a991906144cb565b60405180910390f35b3480156102be57600080fd5b506102d960048036038101906102d49190613aa5565b610a76565b6040516102e691906140f3565b60405180910390f35b6102f7610a88565b005b34801561030557600080fd5b5061030e610a93565b60405161031b9190614129565b60405180910390f35b34801561033057600080fd5b5061034b60048036038101906103469190613b38565b610b25565b604051610358919061408c565b60405180910390f35b34801561036d57600080fd5b50610388600480360381019061038391906139c8565b610baa565b005b34801561039657600080fd5b506103b160048036038101906103ac9190613b61565b610cc2565b005b3480156103bf57600080fd5b506103c8610d23565b6040516103d591906144cb565b60405180910390f35b3480156103ea57600080fd5b50610405600480360381019061040091906138c2565b610d30565b005b34801561041357600080fd5b5061042e60048036038101906104299190613a04565b610d90565b60405161043b919061410e565b60405180910390f35b34801561045057600080fd5b5061046b60048036038101906104669190613a2d565b610daf565b005b34801561047957600080fd5b50610494600480360381019061048f91906139c8565b610de3565b6040516104a191906144cb565b60405180910390f35b3480156104b657600080fd5b506104d160048036038101906104cc9190613a2d565b610e88565b005b3480156104df57600080fd5b506104e8610ebc565b005b3480156104f657600080fd5b506104ff610f73565b60405161050c91906144cb565b60405180910390f35b34801561052157600080fd5b5061053c600480360381019061053791906138c2565b610f79565b005b34801561054a57600080fd5b50610553610f99565b60405161056091906144cb565b60405180910390f35b34801561057557600080fd5b50610590600480360381019061058b9190613b38565b610f9f565b60405161059d91906144cb565b60405180910390f35b3480156105b257600080fd5b506105cd60048036038101906105c89190613af7565b611036565b005b3480156105db57600080fd5b506105f660048036038101906105f19190613b38565b6110a3565b604051610603919061408c565b60405180910390f35b34801561061857600080fd5b50610633600480360381019061062e919061385d565b611155565b60405161064091906144cb565b60405180910390f35b34801561065557600080fd5b50610670600480360381019061066b9190613b38565b61120d565b60405161067d919061408c565b60405180910390f35b34801561069257600080fd5b506106ad60048036038101906106a89190613a69565b61124a565b6040516106ba919061408c565b60405180910390f35b3480156106cf57600080fd5b506106ea60048036038101906106e59190613b38565b611279565b005b3480156106f857600080fd5b50610713600480360381019061070e9190613a2d565b6112d6565b60405161072091906140f3565b60405180910390f35b34801561073557600080fd5b5061073e611340565b60405161074b9190614129565b60405180910390f35b34801561076057600080fd5b506107696113d2565b60405161077691906144cb565b60405180910390f35b34801561078b57600080fd5b506107946113de565b6040516107a191906144cb565b60405180910390f35b6107c460048036038101906107bf9190613b38565b6113e8565b005b3480156107d257600080fd5b506107db611561565b6040516107e8919061410e565b60405180910390f35b3480156107fd57600080fd5b506108186004803603810190610813919061398c565b611568565b005b34801561082657600080fd5b50610841600480360381019061083c9190613b38565b6116e9565b60405161084e919061408c565b60405180910390f35b34801561086357600080fd5b5061087e60048036038101906108799190613b38565b61171c565b005b34801561088c57600080fd5b506108a760048036038101906108a29190613911565b611858565b005b3480156108b557600080fd5b506108d060048036038101906108cb9190613b38565b6118ba565b6040516108dd9190614129565b60405180910390f35b3480156108f257600080fd5b5061090d60048036038101906109089190613a04565b6118cc565b60405161091a91906144cb565b60405180910390f35b34801561092f57600080fd5b5061094a60048036038101906109459190613b38565b6118f0565b60405161095791906144cb565b60405180910390f35b34801561096c57600080fd5b5061098760048036038101906109829190613a2d565b611908565b005b34801561099557600080fd5b506109b060048036038101906109ab9190613886565b61193c565b6040516109bd91906140f3565b60405180910390f35b3480156109d257600080fd5b506109db6119d0565b6040516109e891906144cb565b60405180910390f35b60006015600083815260200190815260200160002054601454610a149190614691565b9050919050565b600080610a2733611155565b90506000805b82811015610a6d576000610a413383610de3565b9050610a4c816109f1565b83610a5791906145b0565b9250508080610a65906147e8565b915050610a2d565b50809250505090565b6000610a8182611a43565b9050919050565b610a9134611abd565b565b606060028054610aa290614785565b80601f0160208091040260200160405190810160405280929190818152602001828054610ace90614785565b8015610b1b5780601f10610af057610100808354040283529160200191610b1b565b820191906000526020600020905b815481529060010190602001808311610afe57829003601f168201915b5050505050905090565b6000610b3082611afa565b610b6f576040517f08c379a0000000000000000000000000000000000000000000000000000000008152600401610b669061438b565b60405180910390fd5b6006600083815260200190815260200160002060009054906101000a900473ffffffffffffffffffffffffffffffffffffffff169050919050565b6000610bb5826110a3565b90508073ffffffffffffffffffffffffffffffffffffffff168373ffffffffffffffffffffffffffffffffffffffff161415610c26576040517f08c379a0000000000000000000000000000000000000000000000000000000008152600401610c1d906143eb565b60405180910390fd5b8073ffffffffffffffffffffffffffffffffffffffff16610c45611b66565b73ffffffffffffffffffffffffffffffffffffffff161480610c745750610c7381610c6e611b66565b61193c565b5b610cb3576040517f08c379a0000000000000000000000000000000000000000000000000000000008152600401610caa906142cb565b60405180910390fd5b610cbd8383611b6e565b505050565b610cd66000801b610cd1611b66565b6112d6565b610d15576040517f08c379a0000000000000000000000000000000000000000000000000000000008152600401610d0c9061444b565b60405180910390fd5b610d1f8282611c27565b5050565b6000600a80549050905090565b610d41610d3b611b66565b82611c9b565b610d80576040517f08c379a0000000000000000000000000000000000000000000000000000000008152600401610d779061442b565b60405180910390fd5b610d8b838383611d79565b505050565b6000806000838152602001908152602001600020600101549050919050565b610db98282611fd5565b610dde8160016000858152602001908152602001600020611a1390919063ffffffff16565b505050565b6000610dee83611155565b8210610e2f576040517f08c379a0000000000000000000000000000000000000000000000000000000008152600401610e26906141ab565b60405180910390fd5b600860008473ffffffffffffffffffffffffffffffffffffffff1673ffffffffffffffffffffffffffffffffffffffff168152602001908152602001600020600083815260200190815260200160002054905092915050565b610e92828261203b565b610eb781600160008581526020019081526020016000206120be90919063ffffffff16565b505050565b6000610ec733611155565b90506000805b82811015610f27576000610ee13383610de3565b9050610eec816109f1565b83610ef791906145b0565b92506014546015600083815260200190815260200160002081905550508080610f1f906147e8565b915050610ecd565b503373ffffffffffffffffffffffffffffffffffffffff166108fc829081150290604051600060405180830381858888f19350505050158015610f6e573d6000803e3d6000fd5b505050565b60135481565b610f9483838360405180602001604052806000815250611858565b505050565b60145481565b6000610fa9610d23565b8210610fea576040517f08c379a0000000000000000000000000000000000000000000000000000000008152600401610fe19061446b565b60405180910390fd5b600a8281548110611024577f4e487b7100000000000000000000000000000000000000000000000000000000600052603260045260246000fd5b90600052602060002001549050919050565b61104a6000801b611045611b66565b6112d6565b611089576040517f08c379a00000000000000000000000000000000000000000000000000000000081526004016110809061448b565b60405180910390fd5b80600e908051906020019061109f92919061366c565b5050565b6000806004600084815260200190815260200160002060009054906101000a900473ffffffffffffffffffffffffffffffffffffffff169050600073ffffffffffffffffffffffffffffffffffffffff168173ffffffffffffffffffffffffffffffffffffffff16141561114c576040517f08c379a00000000000000000000000000000000000000000000000000000000081526004016111439061430b565b60405180910390fd5b80915050919050565b60008073ffffffffffffffffffffffffffffffffffffffff168273ffffffffffffffffffffffffffffffffffffffff1614156111c6576040517f08c379a00000000000000000000000000000000000000000000000000000000081526004016111bd906142eb565b60405180910390fd5b600560008373ffffffffffffffffffffffffffffffffffffffff1673ffffffffffffffffffffffffffffffffffffffff168152602001908152602001600020549050919050565b60006016600083815260200190815260200160002060009054906101000a900473ffffffffffffffffffffffffffffffffffffffff169050919050565b600061127182600160008681526020019081526020016000206120ee90919063ffffffff16565b905092915050565b61128d6000801b611288611b66565b6112d6565b6112cc576040517f08c379a00000000000000000000000000000000000000000000000000000000081526004016112c39061424b565b60405180910390fd5b80600f8190555050565b600080600084815260200190815260200160002060000160008373ffffffffffffffffffffffffffffffffffffffff1673ffffffffffffffffffffffffffffffffffffffff16815260200190815260200160002060009054906101000a900460ff16905092915050565b60606003805461134f90614785565b80601f016020809104026020016040519081016040528092919081815260200182805461137b90614785565b80156113c85780601f1061139d576101008083540402835291602001916113c8565b820191906000526020600020905b8154815290600101906020018083116113ab57829003601f168201915b5050505050905090565b600d8060000154905081565b6000600f54905090565b80600f546113f69190614637565b3414611437576040517f08c379a000000000000000000000000000000000000000000000000000000000815260040161142e9061428b565b60405180910390fd5b60105481611445600d612108565b61144f91906145b0565b1115611490576040517f08c379a00000000000000000000000000000000000000000000000000000000081526004016114879061440b565b60405180910390fd5b60005b8181101561155d576114ae336114a9600d612108565b612116565b33601660006114bd600d612108565b815260200190815260200160002060006101000a81548173ffffffffffffffffffffffffffffffffffffffff021916908373ffffffffffffffffffffffffffffffffffffffff1602179055506014546015600061151a600d612108565b815260200190815260200160002081905550611536600d6122e4565b61154a82346115459190614606565b6122fa565b8080611555906147e8565b915050611493565b5050565b6000801b81565b611570611b66565b73ffffffffffffffffffffffffffffffffffffffff168273ffffffffffffffffffffffffffffffffffffffff1614156115de576040517f08c379a00000000000000000000000000000000000000000000000000000000081526004016115d59061422b565b60405180910390fd5b80600760006115eb611b66565b73ffffffffffffffffffffffffffffffffffffffff1673ffffffffffffffffffffffffffffffffffffffff16815260200190815260200160002060008473ffffffffffffffffffffffffffffffffffffffff1673ffffffffffffffffffffffffffffffffffffffff16815260200190815260200160002060006101000a81548160ff0219169083151502179055508173ffffffffffffffffffffffffffffffffffffffff16611698611b66565b73ffffffffffffffffffffffffffffffffffffffff167f17307eab39ab6107e8899845ad3d59bd9653f200f220920489ca2b5937696c31836040516116dd91906140f3565b60405180910390a35050565b60166020528060005260406000206000915054906101000a900473ffffffffffffffffffffffffffffffffffffffff1681565b611724611b66565b73ffffffffffffffffffffffffffffffffffffffff16611743826110a3565b73ffffffffffffffffffffffffffffffffffffffff16148061179f5750611768611b66565b73ffffffffffffffffffffffffffffffffffffffff1661178782610b25565b73ffffffffffffffffffffffffffffffffffffffff16145b6117de576040517f08c379a00000000000000000000000000000000000000000000000000000000081526004016117d59061416b565b60405180910390fd5b60006117e9826109f1565b90506117f4826110a3565b73ffffffffffffffffffffffffffffffffffffffff166108fc829081150290604051600060405180830381858888f19350505050158015611839573d6000803e3d6000fd5b5060145460156000848152602001908152602001600020819055505050565b611869611863611b66565b83611c9b565b6118a8576040517f08c379a000000000000000000000000000000000000000000000000000000000815260040161189f9061442b565b60405180910390fd5b6118b484848484612430565b50505050565b60606118c58261248c565b9050919050565b60006118e9600160008481526020019081526020016000206125de565b9050919050565b60156020528060005260406000206000915090505481565b61191282826125f3565b61193781600160008581526020019081526020016000206120be90919063ffffffff16565b505050565b6000600760008473ffffffffffffffffffffffffffffffffffffffff1673ffffffffffffffffffffffffffffffffffffffff16815260200190815260200160002060008373ffffffffffffffffffffffffffffffffffffffff1673ffffffffffffffffffffffffffffffffffffffff16815260200190815260200160002060009054906101000a900460ff16905092915050565b6000806119db610d23565b14156119ea5760009050611a02565b6119f2610d23565b6013546119ff9190614606565b90505b90565b611a0f8282612659565b5050565b6000611a3b836000018373ffffffffffffffffffffffffffffffffffffffff1660001b612739565b905092915050565b60007f780e9d63000000000000000000000000000000000000000000000000000000007bffffffffffffffffffffffffffffffffffffffffffffffffffffffff1916827bffffffffffffffffffffffffffffffffffffffffffffffffffffffff19161480611ab65750611ab5826127a9565b5b9050919050565b80601354611acb91906145b0565b601381905550611ad9610d23565b81611ae49190614606565b601454611af191906145b0565b60148190555050565b60008073ffffffffffffffffffffffffffffffffffffffff166004600084815260200190815260200160002060009054906101000a900473ffffffffffffffffffffffffffffffffffffffff1673ffffffffffffffffffffffffffffffffffffffff1614159050919050565b600033905090565b816006600083815260200190815260200160002060006101000a81548173ffffffffffffffffffffffffffffffffffffffff021916908373ffffffffffffffffffffffffffffffffffffffff160217905550808273ffffffffffffffffffffffffffffffffffffffff16611be1836110a3565b73ffffffffffffffffffffffffffffffffffffffff167f8c5be1e5ebec7d5bd14f71427d1e84f3dd0314c0f7b2291e5b200ac8c7c3b92560405160405180910390a45050565b611c3082611afa565b611c6f576040517f08c379a0000000000000000000000000000000000000000000000000000000008152600401611c669061432b565b60405180910390fd5b80600c60008481526020019081526020016000209080519060200190611c9692919061366c565b505050565b6000611ca682611afa565b611ce5576040517f08c379a0000000000000000000000000000000000000000000000000000000008152600401611cdc9061426b565b60405180910390fd5b6000611cf0836110a3565b90508073ffffffffffffffffffffffffffffffffffffffff168473ffffffffffffffffffffffffffffffffffffffff161480611d5f57508373ffffffffffffffffffffffffffffffffffffffff16611d4784610b25565b73ffffffffffffffffffffffffffffffffffffffff16145b80611d705750611d6f818561193c565b5b91505092915050565b8273ffffffffffffffffffffffffffffffffffffffff16611d99826110a3565b73ffffffffffffffffffffffffffffffffffffffff1614611def576040517f08c379a0000000000000000000000000000000000000000000000000000000008152600401611de6906143ab565b60405180910390fd5b600073ffffffffffffffffffffffffffffffffffffffff168273ffffffffffffffffffffffffffffffffffffffff161415611e5f576040517f08c379a0000000000000000000000000000000000000000000000000000000008152600401611e569061420b565b60405180910390fd5b611e6a83838361288b565b611e75600082611b6e565b6001600560008573ffffffffffffffffffffffffffffffffffffffff1673ffffffffffffffffffffffffffffffffffffffff1681526020019081526020016000206000828254611ec59190614691565b925050819055506001600560008473ffffffffffffffffffffffffffffffffffffffff1673ffffffffffffffffffffffffffffffffffffffff1681526020019081526020016000206000828254611f1c91906145b0565b92505081905550816004600083815260200190815260200160002060006101000a81548173ffffffffffffffffffffffffffffffffffffffff021916908373ffffffffffffffffffffffffffffffffffffffff160217905550808273ffffffffffffffffffffffffffffffffffffffff168473ffffffffffffffffffffffffffffffffffffffff167fddf252ad1be2c89b69c2b068fc378daa952ba7f163c4a11628f55a4df523b3ef60405160405180910390a4505050565b611fee611fe183610d90565b611fe9611b66565b6112d6565b61202d576040517f08c379a00000000000000000000000000000000000000000000000000000000081526004016120249061418b565b60405180910390fd5b6120378282612659565b5050565b612043611b66565b73ffffffffffffffffffffffffffffffffffffffff168173ffffffffffffffffffffffffffffffffffffffff16146120b0576040517f08c379a00000000000000000000000000000000000000000000000000000000081526004016120a7906144ab565b60405180910390fd5b6120ba82826128b4565b5050565b60006120e6836000018373ffffffffffffffffffffffffffffffffffffffff1660001b612995565b905092915050565b60006120fd8360000183612b1f565b60001c905092915050565b600081600001549050919050565b600073ffffffffffffffffffffffffffffffffffffffff168273ffffffffffffffffffffffffffffffffffffffff161415612186576040517f08c379a000000000000000000000000000000000000000000000000000000000815260040161217d9061434b565b60405180910390fd5b61218f81611afa565b156121cf576040517f08c379a00000000000000000000000000000000000000000000000000000000081526004016121c6906141eb565b60405180910390fd5b6121db6000838361288b565b6001600560008473ffffffffffffffffffffffffffffffffffffffff1673ffffffffffffffffffffffffffffffffffffffff168152602001908152602001600020600082825461222b91906145b0565b92505081905550816004600083815260200190815260200160002060006101000a81548173ffffffffffffffffffffffffffffffffffffffff021916908373ffffffffffffffffffffffffffffffffffffffff160217905550808273ffffffffffffffffffffffffffffffffffffffff16600073ffffffffffffffffffffffffffffffffffffffff167fddf252ad1be2c89b69c2b068fc378daa952ba7f163c4a11628f55a4df523b3ef60405160405180910390a45050565b6001816000016000828254019250508190555050565b6000600a826123099190614606565b9050600060046003838561231d9190614691565b6123279190614637565b6123319190614606565b90506000600483856123439190614691565b61234d9190614606565b905061235883611abd565b601160009054906101000a900473ffffffffffffffffffffffffffffffffffffffff1673ffffffffffffffffffffffffffffffffffffffff166108fc839081150290604051600060405180830381858888f193505050501580156123c0573d6000803e3d6000fd5b50601260009054906101000a900473ffffffffffffffffffffffffffffffffffffffff1673ffffffffffffffffffffffffffffffffffffffff166108fc829081150290604051600060405180830381858888f19350505050158015612429573d6000803e3d6000fd5b5050505050565b61243b848484611d79565b61244784848484612bb9565b612486576040517f08c379a000000000000000000000000000000000000000000000000000000000815260040161247d906141cb565b60405180910390fd5b50505050565b606061249782611afa565b6124d6576040517f08c379a00000000000000000000000000000000000000000000000000000000081526004016124cd9061436b565b60405180910390fd5b6000600c600084815260200190815260200160002080546124f690614785565b80601f016020809104026020016040519081016040528092919081815260200182805461252290614785565b801561256f5780601f106125445761010080835404028352916020019161256f565b820191906000526020600020905b81548152906001019060200180831161255257829003601f168201915b505050505090506000612580612d50565b90506000815114156125965781925050506125d9565b6000825111156125cb5780826040516020016125b3929190614068565b604051602081830303815290604052925050506125d9565b6125d484612de2565b925050505b919050565b60006125ec82600001612e89565b9050919050565b61260c6125ff83610d90565b612607611b66565b6112d6565b61264b576040517f08c379a0000000000000000000000000000000000000000000000000000000008152600401612642906142ab565b60405180910390fd5b61265582826128b4565b5050565b61266382826112d6565b61273557600160008084815260200190815260200160002060000160008373ffffffffffffffffffffffffffffffffffffffff1673ffffffffffffffffffffffffffffffffffffffff16815260200190815260200160002060006101000a81548160ff0219169083151502179055506126da611b66565b73ffffffffffffffffffffffffffffffffffffffff168173ffffffffffffffffffffffffffffffffffffffff16837f2f8788117e7eff1d82e926ec794901d17c78024a50270940304540a733656f0d60405160405180910390a45b5050565b60006127458383612e9a565b61279e5782600001829080600181540180825580915050600190039060005260206000200160009091909190915055826000018054905083600101600084815260200190815260200160002081905550600190506127a3565b600090505b92915050565b60007f80ac58cd000000000000000000000000000000000000000000000000000000007bffffffffffffffffffffffffffffffffffffffffffffffffffffffff1916827bffffffffffffffffffffffffffffffffffffffffffffffffffffffff1916148061287457507f5b5e139f000000000000000000000000000000000000000000000000000000007bffffffffffffffffffffffffffffffffffffffffffffffffffffffff1916827bffffffffffffffffffffffffffffffffffffffffffffffffffffffff1916145b80612884575061288382612ebd565b5b9050919050565b80612894610d23565b11156128a4576128a38161171c565b5b6128af838383612f37565b505050565b6128be82826112d6565b1561299157600080600084815260200190815260200160002060000160008373ffffffffffffffffffffffffffffffffffffffff1673ffffffffffffffffffffffffffffffffffffffff16815260200190815260200160002060006101000a81548160ff021916908315150217905550612936611b66565b73ffffffffffffffffffffffffffffffffffffffff168173ffffffffffffffffffffffffffffffffffffffff16837ff6391f5c32d9c69d2a47ea670b442974b53935d1edc7fd64eb21e047a839171b60405160405180910390a45b5050565b60008083600101600084815260200190815260200160002054905060008114612b135760006001826129c79190614691565b90506000600186600001805490506129df9190614691565b90506000866000018281548110612a1f577f4e487b7100000000000000000000000000000000000000000000000000000000600052603260045260246000fd5b9060005260206000200154905080876000018481548110612a69577f4e487b7100000000000000000000000000000000000000000000000000000000600052603260045260246000fd5b9060005260206000200181905550600183612a8491906145b0565b8760010160008381526020019081526020016000208190555086600001805480612ad7577f4e487b7100000000000000000000000000000000000000000000000000000000600052603160045260246000fd5b60019003818190600052602060002001600090559055866001016000878152602001908152602001600020600090556001945050505050612b19565b60009150505b92915050565b600081836000018054905011612b6a576040517f08c379a0000000000000000000000000000000000000000000000000000000008152600401612b619061414b565b60405180910390fd5b826000018281548110612ba6577f4e487b7100000000000000000000000000000000000000000000000000000000600052603260045260246000fd5b9060005260206000200154905092915050565b6000612bda8473ffffffffffffffffffffffffffffffffffffffff1661304b565b15612d43578373ffffffffffffffffffffffffffffffffffffffff1663150b7a02612c03611b66565b8786866040518563ffffffff1660e01b8152600401612c2594939291906140a7565b602060405180830381600087803b158015612c3f57600080fd5b505af1925050508015612c7057506040513d601f19601f82011682018060405250810190612c6d9190613ace565b60015b612cf3573d8060008114612ca0576040519150601f19603f3d011682016040523d82523d6000602084013e612ca5565b606091505b50600081511415612ceb576040517f08c379a0000000000000000000000000000000000000000000000000000000008152600401612ce2906141cb565b60405180910390fd5b805181602001fd5b63150b7a0260e01b7bffffffffffffffffffffffffffffffffffffffffffffffffffffffff1916817bffffffffffffffffffffffffffffffffffffffffffffffffffffffff191614915050612d48565b600190505b949350505050565b6060600e8054612d5f90614785565b80601f0160208091040260200160405190810160405280929190818152602001828054612d8b90614785565b8015612dd85780601f10612dad57610100808354040283529160200191612dd8565b820191906000526020600020905b815481529060010190602001808311612dbb57829003601f168201915b5050505050905090565b6060612ded82611afa565b612e2c576040517f08c379a0000000000000000000000000000000000000000000000000000000008152600401612e23906143cb565b60405180910390fd5b6000612e36612d50565b90506000815111612e565760405180602001604052806000815250612e81565b80612e608461305e565b604051602001612e71929190614068565b6040516020818303038152906040525b915050919050565b600081600001805490509050919050565b600080836001016000848152602001908152602001600020541415905092915050565b60007f5a05180f000000000000000000000000000000000000000000000000000000007bffffffffffffffffffffffffffffffffffffffffffffffffffffffff1916827bffffffffffffffffffffffffffffffffffffffffffffffffffffffff19161480612f305750612f2f8261320b565b5b9050919050565b612f42838383613285565b600073ffffffffffffffffffffffffffffffffffffffff168373ffffffffffffffffffffffffffffffffffffffff161415612f8557612f808161328a565b612fc4565b8173ffffffffffffffffffffffffffffffffffffffff168373ffffffffffffffffffffffffffffffffffffffff1614612fc357612fc283826132d3565b5b5b600073ffffffffffffffffffffffffffffffffffffffff168273ffffffffffffffffffffffffffffffffffffffff1614156130075761300281613440565b613046565b8273ffffffffffffffffffffffffffffffffffffffff168273ffffffffffffffffffffffffffffffffffffffff1614613045576130448282613583565b5b5b505050565b600080823b905060008111915050919050565b606060008214156130a6576040518060400160405280600181526020017f30000000000000000000000000000000000000000000000000000000000000008152509050613206565b600082905060005b600082146130d85780806130c1906147e8565b915050600a826130d19190614606565b91506130ae565b60008167ffffffffffffffff81111561311a577f4e487b7100000000000000000000000000000000000000000000000000000000600052604160045260246000fd5b6040519080825280601f01601f19166020018201604052801561314c5781602001600182028036833780820191505090505b5090505b600085146131ff576001826131659190614691565b9150600a856131749190614831565b603061318091906145b0565b60f81b8183815181106131bc577f4e487b7100000000000000000000000000000000000000000000000000000000600052603260045260246000fd5b60200101907effffffffffffffffffffffffffffffffffffffffffffffffffffffffffffff1916908160001a905350600a856131f89190614606565b9450613150565b8093505050505b919050565b60007f7965db0b000000000000000000000000000000000000000000000000000000007bffffffffffffffffffffffffffffffffffffffffffffffffffffffff1916827bffffffffffffffffffffffffffffffffffffffffffffffffffffffff1916148061327e575061327d82613602565b5b9050919050565b505050565b600a80549050600b600083815260200190815260200160002081905550600a81908060018154018082558091505060019003906000526020600020016000909190919091505550565b600060016132e084611155565b6132ea9190614691565b90506000600960008481526020019081526020016000205490508181146133cf576000600860008673ffffffffffffffffffffffffffffffffffffffff1673ffffffffffffffffffffffffffffffffffffffff168152602001908152602001600020600084815260200190815260200160002054905080600860008773ffffffffffffffffffffffffffffffffffffffff1673ffffffffffffffffffffffffffffffffffffffff168152602001908152602001600020600084815260200190815260200160002081905550816009600083815260200190815260200160002081905550505b6009600084815260200190815260200160002060009055600860008573ffffffffffffffffffffffffffffffffffffffff1673ffffffffffffffffffffffffffffffffffffffff16815260200190815260200160002060008381526020019081526020016000206000905550505050565b60006001600a805490506134549190614691565b90506000600b60008481526020019081526020016000205490506000600a83815481106134aa577f4e487b7100000000000000000000000000000000000000000000000000000000600052603260045260246000fd5b9060005260206000200154905080600a83815481106134f2577f4e487b7100000000000000000000000000000000000000000000000000000000600052603260045260246000fd5b906000526020600020018190555081600b600083815260200190815260200160002081905550600b600085815260200190815260200160002060009055600a805480613567577f4e487b7100000000000000000000000000000000000000000000000000000000600052603160045260246000fd5b6001900381819060005260206000200160009055905550505050565b600061358e83611155565b905081600860008573ffffffffffffffffffffffffffffffffffffffff1673ffffffffffffffffffffffffffffffffffffffff168152602001908152602001600020600083815260200190815260200160002081905550806009600084815260200190815260200160002081905550505050565b60007f01ffc9a7000000000000000000000000000000000000000000000000000000007bffffffffffffffffffffffffffffffffffffffffffffffffffffffff1916827bffffffffffffffffffffffffffffffffffffffffffffffffffffffff1916149050919050565b82805461367890614785565b90600052602060002090601f01602090048101928261369a57600085556136e1565b82601f106136b357805160ff19168380011785556136e1565b828001600101855582156136e1579182015b828111156136e05782518255916020019190600101906136c5565b5b5090506136ee91906136f2565b5090565b5b8082111561370b5760008160009055506001016136f3565b5090565b600061372261371d8461450b565b6144e6565b90508281526020810184848401111561373a57600080fd5b613745848285614743565b509392505050565b600061376061375b8461453c565b6144e6565b90508281526020810184848401111561377857600080fd5b613783848285614743565b509392505050565b60008135905061379a81615161565b92915050565b6000813590506137af81615178565b92915050565b6000813590506137c48161518f565b92915050565b6000813590506137d9816151a6565b92915050565b6000815190506137ee816151a6565b92915050565b600082601f83011261380557600080fd5b813561381584826020860161370f565b91505092915050565b600082601f83011261382f57600080fd5b813561383f84826020860161374d565b91505092915050565b600081359050613857816151bd565b92915050565b60006020828403121561386f57600080fd5b600061387d8482850161378b565b91505092915050565b6000806040838503121561389957600080fd5b60006138a78582860161378b565b92505060206138b88582860161378b565b9150509250929050565b6000806000606084860312156138d757600080fd5b60006138e58682870161378b565b93505060206138f68682870161378b565b925050604061390786828701613848565b9150509250925092565b6000806000806080858703121561392757600080fd5b60006139358782880161378b565b94505060206139468782880161378b565b935050604061395787828801613848565b925050606085013567ffffffffffffffff81111561397457600080fd5b613980878288016137f4565b91505092959194509250565b6000806040838503121561399f57600080fd5b60006139ad8582860161378b565b92505060206139be858286016137a0565b9150509250929050565b600080604083850312156139db57600080fd5b60006139e98582860161378b565b92505060206139fa85828601613848565b9150509250929050565b600060208284031215613a1657600080fd5b6000613a24848285016137b5565b91505092915050565b60008060408385031215613a4057600080fd5b6000613a4e858286016137b5565b9250506020613a5f8582860161378b565b9150509250929050565b60008060408385031215613a7c57600080fd5b6000613a8a858286016137b5565b9250506020613a9b85828601613848565b9150509250929050565b600060208284031215613ab757600080fd5b6000613ac5848285016137ca565b91505092915050565b600060208284031215613ae057600080fd5b6000613aee848285016137df565b91505092915050565b600060208284031215613b0957600080fd5b600082013567ffffffffffffffff811115613b2357600080fd5b613b2f8482850161381e565b91505092915050565b600060208284031215613b4a57600080fd5b6000613b5884828501613848565b91505092915050565b60008060408385031215613b7457600080fd5b6000613b8285828601613848565b925050602083013567ffffffffffffffff811115613b9f57600080fd5b613bab8582860161381e565b9150509250929050565b613bbe816146c5565b82525050565b613bcd816146d7565b82525050565b613bdc816146e3565b82525050565b6000613bed8261456d565b613bf78185614583565b9350613c07818560208601614752565b613c108161491e565b840191505092915050565b6000613c2682614578565b613c308185614594565b9350613c40818560208601614752565b613c498161491e565b840191505092915050565b6000613c5f82614578565b613c6981856145a5565b9350613c79818560208601614752565b80840191505092915050565b6000613c92602283614594565b9150613c9d8261492f565b604082019050919050565b6000613cb5603283614594565b9150613cc08261497e565b604082019050919050565b6000613cd8602f83614594565b9150613ce3826149cd565b604082019050919050565b6000613cfb602b83614594565b9150613d0682614a1c565b604082019050919050565b6000613d1e603283614594565b9150613d2982614a6b565b604082019050919050565b6000613d41601c83614594565b9150613d4c82614aba565b602082019050919050565b6000613d64602483614594565b9150613d6f82614ae3565b604082019050919050565b6000613d87601983614594565b9150613d9282614b32565b602082019050919050565b6000613daa602e83614594565b9150613db582614b5b565b604082019050919050565b6000613dcd602c83614594565b9150613dd882614baa565b604082019050919050565b6000613df0602183614594565b9150613dfb82614bf9565b604082019050919050565b6000613e13603083614594565b9150613e1e82614c48565b604082019050919050565b6000613e36603883614594565b9150613e4182614c97565b604082019050919050565b6000613e59602a83614594565b9150613e6482614ce6565b604082019050919050565b6000613e7c602983614594565b9150613e8782614d35565b604082019050919050565b6000613e9f602e83614594565b9150613eaa82614d84565b604082019050919050565b6000613ec2602083614594565b9150613ecd82614dd3565b602082019050919050565b6000613ee5603183614594565b9150613ef082614dfc565b604082019050919050565b6000613f08602c83614594565b9150613f1382614e4b565b604082019050919050565b6000613f2b602983614594565b9150613f3682614e9a565b604082019050919050565b6000613f4e602f83614594565b9150613f5982614ee9565b604082019050919050565b6000613f71602183614594565b9150613f7c82614f38565b604082019050919050565b6000613f94603283614594565b9150613f9f82614f87565b604082019050919050565b6000613fb7603183614594565b9150613fc282614fd6565b604082019050919050565b6000613fda603283614594565b9150613fe582615025565b604082019050919050565b6000613ffd602c83614594565b915061400882615074565b604082019050919050565b6000614020603183614594565b915061402b826150c3565b604082019050919050565b6000614043602f83614594565b915061404e82615112565b604082019050919050565b61406281614739565b82525050565b60006140748285613c54565b91506140808284613c54565b91508190509392505050565b60006020820190506140a16000830184613bb5565b92915050565b60006080820190506140bc6000830187613bb5565b6140c96020830186613bb5565b6140d66040830185614059565b81810360608301526140e88184613be2565b905095945050505050565b60006020820190506141086000830184613bc4565b92915050565b60006020820190506141236000830184613bd3565b92915050565b600060208201905081810360008301526141438184613c1b565b905092915050565b6000602082019050818103600083015261416481613c85565b9050919050565b6000602082019050818103600083015261418481613ca8565b9050919050565b600060208201905081810360008301526141a481613ccb565b9050919050565b600060208201905081810360008301526141c481613cee565b9050919050565b600060208201905081810360008301526141e481613d11565b9050919050565b6000602082019050818103600083015261420481613d34565b9050919050565b6000602082019050818103600083015261422481613d57565b9050919050565b6000602082019050818103600083015261424481613d7a565b9050919050565b6000602082019050818103600083015261426481613d9d565b9050919050565b6000602082019050818103600083015261428481613dc0565b9050919050565b600060208201905081810360008301526142a481613de3565b9050919050565b600060208201905081810360008301526142c481613e06565b9050919050565b600060208201905081810360008301526142e481613e29565b9050919050565b6000602082019050818103600083015261430481613e4c565b9050919050565b6000602082019050818103600083015261432481613e6f565b9050919050565b6000602082019050818103600083015261434481613e92565b9050919050565b6000602082019050818103600083015261436481613eb5565b9050919050565b6000602082019050818103600083015261438481613ed8565b9050919050565b600060208201905081810360008301526143a481613efb565b9050919050565b600060208201905081810360008301526143c481613f1e565b9050919050565b600060208201905081810360008301526143e481613f41565b9050919050565b6000602082019050818103600083015261440481613f64565b9050919050565b6000602082019050818103600083015261442481613f87565b9050919050565b6000602082019050818103600083015261444481613faa565b9050919050565b6000602082019050818103600083015261446481613fcd565b9050919050565b6000602082019050818103600083015261448481613ff0565b9050919050565b600060208201905081810360008301526144a481614013565b9050919050565b600060208201905081810360008301526144c481614036565b9050919050565b60006020820190506144e06000830184614059565b92915050565b60006144f0614501565b90506144fc82826147b7565b919050565b6000604051905090565b600067ffffffffffffffff821115614526576145256148ef565b5b61452f8261491e565b9050602081019050919050565b600067ffffffffffffffff821115614557576145566148ef565b5b6145608261491e565b9050602081019050919050565b600081519050919050565b600081519050919050565b600082825260208201905092915050565b600082825260208201905092915050565b600081905092915050565b60006145bb82614739565b91506145c683614739565b9250827fffffffffffffffffffffffffffffffffffffffffffffffffffffffffffffffff038211156145fb576145fa614862565b5b828201905092915050565b600061461182614739565b915061461c83614739565b92508261462c5761462b614891565b5b828204905092915050565b600061464282614739565b915061464d83614739565b9250817fffffffffffffffffffffffffffffffffffffffffffffffffffffffffffffffff048311821515161561468657614685614862565b5b828202905092915050565b600061469c82614739565b91506146a783614739565b9250828210156146ba576146b9614862565b5b828203905092915050565b60006146d082614719565b9050919050565b60008115159050919050565b6000819050919050565b60007fffffffff0000000000000000000000000000000000000000000000000000000082169050919050565b600073ffffffffffffffffffffffffffffffffffffffff82169050919050565b6000819050919050565b82818337600083830152505050565b60005b83811015614770578082015181840152602081019050614755565b8381111561477f576000848401525b50505050565b6000600282049050600182168061479d57607f821691505b602082108114156147b1576147b06148c0565b5b50919050565b6147c08261491e565b810181811067ffffffffffffffff821117156147df576147de6148ef565b5b80604052505050565b60006147f382614739565b91507fffffffffffffffffffffffffffffffffffffffffffffffffffffffffffffffff82141561482657614825614862565b5b600182019050919050565b600061483c82614739565b915061484783614739565b92508261485757614856614891565b5b828206905092915050565b7f4e487b7100000000000000000000000000000000000000000000000000000000600052601160045260246000fd5b7f4e487b7100000000000000000000000000000000000000000000000000000000600052601260045260246000fd5b7f4e487b7100000000000000000000000000000000000000000000000000000000600052602260045260246000fd5b7f4e487b7100000000000000000000000000000000000000000000000000000000600052604160045260246000fd5b6000601f19601f8301169050919050565b7f456e756d657261626c655365743a20696e646578206f7574206f6620626f756e60008201527f6473000000000000000000000000000000000000000000000000000000000000602082015250565b7f41766178417065733a204f6e6c79206f776e6572206f7220617070726f76656460008201527f2063616e20636c61696d20726577617264730000000000000000000000000000602082015250565b7f416363657373436f6e74726f6c3a2073656e646572206d75737420626520616e60008201527f2061646d696e20746f206772616e740000000000000000000000000000000000602082015250565b7f455243373231456e756d657261626c653a206f776e657220696e646578206f7560008201527f74206f6620626f756e6473000000000000000000000000000000000000000000602082015250565b7f4552433732313a207472616e7366657220746f206e6f6e20455243373231526560008201527f63656976657220696d706c656d656e7465720000000000000000000000000000602082015250565b7f4552433732313a20746f6b656e20616c7265616479206d696e74656400000000600082015250565b7f4552433732313a207472616e7366657220746f20746865207a65726f2061646460008201527f7265737300000000000000000000000000000000000000000000000000000000602082015250565b7f4552433732313a20617070726f766520746f2063616c6c657200000000000000600082015250565b7f41766178417065733a206d75737420686176652061646d696e20726f6c65207460008201527f6f206368616e6765207072696365000000000000000000000000000000000000602082015250565b7f4552433732313a206f70657261746f7220717565727920666f72206e6f6e657860008201527f697374656e7420746f6b656e0000000000000000000000000000000000000000602082015250565b7f41766178417065733a206d7573742073656e6420636f7272656374207072696360008201527f6500000000000000000000000000000000000000000000000000000000000000602082015250565b7f416363657373436f6e74726f6c3a2073656e646572206d75737420626520616e60008201527f2061646d696e20746f207265766f6b6500000000000000000000000000000000602082015250565b7f4552433732313a20617070726f76652063616c6c6572206973206e6f74206f7760008201527f6e6572206e6f7220617070726f76656420666f7220616c6c0000000000000000602082015250565b7f4552433732313a2062616c616e636520717565727920666f7220746865207a6560008201527f726f206164647265737300000000000000000000000000000000000000000000602082015250565b7f4552433732313a206f776e657220717565727920666f72206e6f6e657869737460008201527f656e7420746f6b656e0000000000000000000000000000000000000000000000602082015250565b7f45524337323155524953746f726167653a2055524920736574206f66206e6f6e60008201527f6578697374656e7420746f6b656e000000000000000000000000000000000000602082015250565b7f4552433732313a206d696e7420746f20746865207a65726f2061646472657373600082015250565b7f45524337323155524953746f726167653a2055524920717565727920666f722060008201527f6e6f6e6578697374656e7420746f6b656e000000000000000000000000000000602082015250565b7f4552433732313a20617070726f76656420717565727920666f72206e6f6e657860008201527f697374656e7420746f6b656e0000000000000000000000000000000000000000602082015250565b7f4552433732313a207472616e73666572206f6620746f6b656e2074686174206960008201527f73206e6f74206f776e0000000000000000000000000000000000000000000000602082015250565b7f4552433732314d657461646174613a2055524920717565727920666f72206e6f60008201527f6e6578697374656e7420746f6b656e0000000000000000000000000000000000602082015250565b7f4552433732313a20617070726f76616c20746f2063757272656e74206f776e6560008201527f7200000000000000000000000000000000000000000000000000000000000000602082015250565b7f41766178417065733a206e6f7420656e6f75676820617661782061706573206c60008201527f65667420746f206d696e7420616d6f756e740000000000000000000000000000602082015250565b7f4552433732313a207472616e736665722063616c6c6572206973206e6f74206f60008201527f776e6572206e6f7220617070726f766564000000000000000000000000000000602082015250565b7f41766178417065733a206d75737420686176652061646d696e20726f6c65207460008201527f6f206368616e676520746f6b656e205552490000000000000000000000000000602082015250565b7f455243373231456e756d657261626c653a20676c6f62616c20696e646578206f60008201527f7574206f6620626f756e64730000000000000000000000000000000000000000602082015250565b7f41766178417065733a206d75737420686176652061646d696e20726f6c65207460008201527f6f206368616e6765206261736520555249000000000000000000000000000000602082015250565b7f416363657373436f6e74726f6c3a2063616e206f6e6c792072656e6f756e636560008201527f20726f6c657320666f722073656c660000000000000000000000000000000000602082015250565b61516a816146c5565b811461517557600080fd5b50565b615181816146d7565b811461518c57600080fd5b50565b615198816146e3565b81146151a357600080fd5b50565b6151af816146ed565b81146151ba57600080fd5b50565b6151c681614739565b81146151d157600080fd5b5056fea26469706673582212207591cfc6d420851b9068fbad355e7e0252bff840870424a5ee5d44fd38c30e4b64736f6c63430008040033",
  "linkReferences": {},
  "deployedLinkReferences": {}
}