{
  "_format": "hh-sol-artifact-1",
  "contractName": "KnivesLegacy",
  "sourceName": "contracts/KnivesLegacy.sol",
  "abi": [
    {
      "inputs": [
        {
          "internalType": "string",
          "name": "_name",
          "type": "string"
        },
        {
          "internalType": "string",
          "name": "_symbol",
          "type": "string"
        },
        {
          "internalType": "string",
          "name": "_initBaseURI",
          "type": "string"
        },
        {
          "internalType": "address",
          "name": "_admin",
          "type": "address"
        }
      ],
      "stateMutability": "nonpayable",
      "type": "constructor"
    },
    {
      "anonymous": false,
      "inputs": [
        {
          "indexed": true,
          "internalType": "address",
          "name": "owner",
          "type": "address"
        },
        {
          "indexed": true,
          "internalType": "address",
          "name": "approved",
          "type": "address"
        },
        {
          "indexed": true,
          "internalType": "uint256",
          "name": "tokenId",
          "type": "uint256"
        }
      ],
      "name": "Approval",
      "type": "event"
    },
    {
      "anonymous": false,
      "inputs": [
        {
          "indexed": true,
          "internalType": "address",
          "name": "owner",
          "type": "address"
        },
        {
          "indexed": true,
          "internalType": "address",
          "name": "operator",
          "type": "address"
        },
        {
          "indexed": false,
          "internalType": "bool",
          "name": "approved",
          "type": "bool"
        }
      ],
      "name": "ApprovalForAll",
      "type": "event"
    },
    {
      "anonymous": false,
      "inputs": [
        {
          "indexed": true,
          "internalType": "address",
          "name": "previousOwner",
          "type": "address"
        },
        {
          "indexed": true,
          "internalType": "address",
          "name": "newOwner",
          "type": "address"
        }
      ],
      "name": "OwnershipTransferred",
      "type": "event"
    },
    {
      "anonymous": false,
      "inputs": [
        {
          "indexed": true,
          "internalType": "address",
          "name": "from",
          "type": "address"
        },
        {
          "indexed": true,
          "internalType": "address",
          "name": "to",
          "type": "address"
        },
        {
          "indexed": true,
          "internalType": "uint256",
          "name": "tokenId",
          "type": "uint256"
        }
      ],
      "name": "Transfer",
      "type": "event"
    },
    {
      "inputs": [],
      "name": "admin",
      "outputs": [
        {
          "internalType": "address payable",
          "name": "",
          "type": "address"
        }
      ],
      "stateMutability": "view",
      "type": "function"
    },
    {
      "inputs": [
        {
          "internalType": "address",
          "name": "to",
          "type": "address"
        },
        {
          "internalType": "uint256",
          "name": "tokenId",
          "type": "uint256"
        }
      ],
      "name": "approve",
      "outputs": [],
      "stateMutability": "nonpayable",
      "type": "function"
    },
    {
      "inputs": [
        {
          "internalType": "address",
          "name": "owner",
          "type": "address"
        }
      ],
      "name": "balanceOf",
      "outputs": [
        {
          "internalType": "uint256",
          "name": "",
          "type": "uint256"
        }
      ],
      "stateMutability": "view",
      "type": "function"
    },
    {
      "inputs": [],
      "name": "baseExtension",
      "outputs": [
        {
          "internalType": "string",
          "name": "",
          "type": "string"
        }
      ],
      "stateMutability": "view",
      "type": "function"
    },
    {
      "inputs": [],
      "name": "baseURI",
      "outputs": [
        {
          "internalType": "string",
          "name": "",
          "type": "string"
        }
      ],
      "stateMutability": "view",
      "type": "function"
    },
    {
      "inputs": [
        {
          "internalType": "uint256",
          "name": "",
          "type": "uint256"
        }
      ],
      "name": "cache",
      "outputs": [
        {
          "internalType": "uint256",
          "name": "",
          "type": "uint256"
        }
      ],
      "stateMutability": "view",
      "type": "function"
    },
    {
      "inputs": [],
      "name": "cost",
      "outputs": [
        {
          "internalType": "uint256",
          "name": "",
          "type": "uint256"
        }
      ],
      "stateMutability": "view",
      "type": "function"
    },
    {
      "inputs": [],
      "name": "devShare",
      "outputs": [
        {
          "internalType": "uint256",
          "name": "",
          "type": "uint256"
        }
      ],
      "stateMutability": "view",
      "type": "function"
    },
    {
      "inputs": [
        {
          "internalType": "uint256",
          "name": "tokenId",
          "type": "uint256"
        }
      ],
      "name": "getApproved",
      "outputs": [
        {
          "internalType": "address",
          "name": "",
          "type": "address"
        }
      ],
      "stateMutability": "view",
      "type": "function"
    },
    {
      "inputs": [
        {
          "internalType": "address",
          "name": "owner",
          "type": "address"
        },
        {
          "internalType": "address",
          "name": "operator",
          "type": "address"
        }
      ],
      "name": "isApprovedForAll",
      "outputs": [
        {
          "internalType": "bool",
          "name": "",
          "type": "bool"
        }
      ],
      "stateMutability": "view",
      "type": "function"
    },
    {
      "inputs": [],
      "name": "maxMintAmount",
      "outputs": [
        {
          "internalType": "uint256",
          "name": "",
          "type": "uint256"
        }
      ],
      "stateMutability": "view",
      "type": "function"
    },
    {
      "inputs": [],
      "name": "maxSupply",
      "outputs": [
        {
          "internalType": "uint256",
          "name": "",
          "type": "uint256"
        }
      ],
      "stateMutability": "view",
      "type": "function"
    },
    {
      "inputs": [
        {
          "internalType": "uint256",
          "name": "_mintAmount",
          "type": "uint256"
        }
      ],
      "name": "mint",
      "outputs": [],
      "stateMutability": "payable",
      "type": "function"
    },
    {
      "inputs": [],
      "name": "name",
      "outputs": [
        {
          "internalType": "string",
          "name": "",
          "type": "string"
        }
      ],
      "stateMutability": "view",
      "type": "function"
    },
    {
      "inputs": [],
      "name": "notRevealedUri",
      "outputs": [
        {
          "internalType": "string",
          "name": "",
          "type": "string"
        }
      ],
      "stateMutability": "view",
      "type": "function"
    },
    {
      "inputs": [],
      "name": "owner",
      "outputs": [
        {
          "internalType": "address",
          "name": "",
          "type": "address"
        }
      ],
      "stateMutability": "view",
      "type": "function"
    },
    {
      "inputs": [
        {
          "internalType": "uint256",
          "name": "tokenId",
          "type": "uint256"
        }
      ],
      "name": "ownerOf",
      "outputs": [
        {
          "internalType": "address",
          "name": "",
          "type": "address"
        }
      ],
      "stateMutability": "view",
      "type": "function"
    },
    {
      "inputs": [
        {
          "internalType": "bool",
          "name": "_state",
          "type": "bool"
        }
      ],
      "name": "pause",
      "outputs": [],
      "stateMutability": "nonpayable",
      "type": "function"
    },
    {
      "inputs": [],
      "name": "paused",
      "outputs": [
        {
          "internalType": "bool",
          "name": "",
          "type": "bool"
        }
      ],
      "stateMutability": "view",
      "type": "function"
    },
    {
      "inputs": [],
      "name": "renounceOwnership",
      "outputs": [],
      "stateMutability": "nonpayable",
      "type": "function"
    },
    {
      "inputs": [],
      "name": "royaltyContract",
      "outputs": [
        {
          "internalType": "address payable",
          "name": "",
          "type": "address"
        }
      ],
      "stateMutability": "view",
      "type": "function"
    },
    {
      "inputs": [
        {
          "internalType": "uint256",
          "name": "tokenId",
          "type": "uint256"
        },
        {
          "internalType": "uint256",
          "name": "value",
          "type": "uint256"
        }
      ],
      "name": "royaltyInfo",
      "outputs": [
        {
          "internalType": "address",
          "name": "receiver",
          "type": "address"
        },
        {
          "internalType": "uint256",
          "name": "royaltyAmount",
          "type": "uint256"
        }
      ],
      "stateMutability": "view",
      "type": "function"
    },
    {
      "inputs": [],
      "name": "royaltyValue",
      "outputs": [
        {
          "internalType": "uint256",
          "name": "",
          "type": "uint256"
        }
      ],
      "stateMutability": "view",
      "type": "function"
    },
    {
      "inputs": [
        {
          "internalType": "address",
          "name": "from",
          "type": "address"
        },
        {
          "internalType": "address",
          "name": "to",
          "type": "address"
        },
        {
          "internalType": "uint256",
          "name": "tokenId",
          "type": "uint256"
        }
      ],
      "name": "safeTransferFrom",
      "outputs": [],
      "stateMutability": "nonpayable",
      "type": "function"
    },
    {
      "inputs": [
        {
          "internalType": "address",
          "name": "from",
          "type": "address"
        },
        {
          "internalType": "address",
          "name": "to",
          "type": "address"
        },
        {
          "internalType": "uint256",
          "name": "tokenId",
          "type": "uint256"
        },
        {
          "internalType": "bytes",
          "name": "_data",
          "type": "bytes"
        }
      ],
      "name": "safeTransferFrom",
      "outputs": [],
      "stateMutability": "nonpayable",
      "type": "function"
    },
    {
      "inputs": [
        {
          "internalType": "address",
          "name": "_admin",
          "type": "address"
        }
      ],
      "name": "setAdmin",
      "outputs": [],
      "stateMutability": "nonpayable",
      "type": "function"
    },
    {
      "inputs": [
        {
          "internalType": "address",
          "name": "operator",
          "type": "address"
        },
        {
          "internalType": "bool",
          "name": "approved",
          "type": "bool"
        }
      ],
      "name": "setApprovalForAll",
      "outputs": [],
      "stateMutability": "nonpayable",
      "type": "function"
    },
    {
      "inputs": [
        {
          "internalType": "string",
          "name": "_newBaseExtension",
          "type": "string"
        }
      ],
      "name": "setBaseExtension",
      "outputs": [],
      "stateMutability": "nonpayable",
      "type": "function"
    },
    {
      "inputs": [
        {
          "internalType": "string",
          "name": "_newBaseURI",
          "type": "string"
        }
      ],
      "name": "setBaseURI",
      "outputs": [],
      "stateMutability": "nonpayable",
      "type": "function"
    },
    {
      "inputs": [
        {
          "internalType": "uint256",
          "name": "_newCost",
          "type": "uint256"
        }
      ],
      "name": "setCost",
      "outputs": [],
      "stateMutability": "nonpayable",
      "type": "function"
    },
    {
      "inputs": [
        {
          "internalType": "uint256",
          "name": "_devShare",
          "type": "uint256"
        }
      ],
      "name": "setDevShare",
      "outputs": [],
      "stateMutability": "nonpayable",
      "type": "function"
    },
    {
      "inputs": [
        {
          "internalType": "string",
          "name": "_notRevealedURI",
          "type": "string"
        }
      ],
      "name": "setNotRevealedURI",
      "outputs": [],
      "stateMutability": "nonpayable",
      "type": "function"
    },
    {
      "inputs": [
        {
          "internalType": "address",
          "name": "_royaltyContract",
          "type": "address"
        }
      ],
      "name": "setRoyaltyContract",
      "outputs": [],
      "stateMutability": "nonpayable",
      "type": "function"
    },
    {
      "inputs": [
        {
          "internalType": "uint256",
          "name": "_royaltyValue",
          "type": "uint256"
        }
      ],
      "name": "setRoyaltyValue",
      "outputs": [],
      "stateMutability": "nonpayable",
      "type": "function"
    },
    {
      "inputs": [
        {
          "internalType": "uint256",
          "name": "_newmaxMintAmount",
          "type": "uint256"
        }
      ],
      "name": "setmaxMintAmount",
      "outputs": [],
      "stateMutability": "nonpayable",
      "type": "function"
    },
    {
      "inputs": [
        {
          "internalType": "bytes4",
          "name": "interfaceId",
          "type": "bytes4"
        }
      ],
      "name": "supportsInterface",
      "outputs": [
        {
          "internalType": "bool",
          "name": "",
          "type": "bool"
        }
      ],
      "stateMutability": "view",
      "type": "function"
    },
    {
      "inputs": [],
      "name": "symbol",
      "outputs": [
        {
          "internalType": "string",
          "name": "",
          "type": "string"
        }
      ],
      "stateMutability": "view",
      "type": "function"
    },
    {
      "inputs": [
        {
          "internalType": "uint256",
          "name": "index",
          "type": "uint256"
        }
      ],
      "name": "tokenByIndex",
      "outputs": [
        {
          "internalType": "uint256",
          "name": "",
          "type": "uint256"
        }
      ],
      "stateMutability": "view",
      "type": "function"
    },
    {
      "inputs": [
        {
          "internalType": "address",
          "name": "owner",
          "type": "address"
        },
        {
          "internalType": "uint256",
          "name": "index",
          "type": "uint256"
        }
      ],
      "name": "tokenOfOwnerByIndex",
      "outputs": [
        {
          "internalType": "uint256",
          "name": "",
          "type": "uint256"
        }
      ],
      "stateMutability": "view",
      "type": "function"
    },
    {
      "inputs": [
        {
          "internalType": "uint256",
          "name": "tokenId",
          "type": "uint256"
        }
      ],
      "name": "tokenURI",
      "outputs": [
        {
          "internalType": "string",
          "name": "",
          "type": "string"
        }
      ],
      "stateMutability": "view",
      "type": "function"
    },
    {
      "inputs": [],
      "name": "totalSupply",
      "outputs": [
        {
          "internalType": "uint256",
          "name": "",
          "type": "uint256"
        }
      ],
      "stateMutability": "view",
      "type": "function"
    },
    {
      "inputs": [
        {
          "internalType": "address",
          "name": "from",
          "type": "address"
        },
        {
          "internalType": "address",
          "name": "to",
          "type": "address"
        },
        {
          "internalType": "uint256",
          "name": "tokenId",
          "type": "uint256"
        }
      ],
      "name": "transferFrom",
      "outputs": [],
      "stateMutability": "nonpayable",
      "type": "function"
    },
    {
      "inputs": [
        {
          "internalType": "address",
          "name": "newOwner",
          "type": "address"
        }
      ],
      "name": "transferOwnership",
      "outputs": [],
      "stateMutability": "nonpayable",
      "type": "function"
    },
    {
      "inputs": [
        {
          "internalType": "uint256",
          "name": "tokenId",
          "type": "uint256"
        }
      ],
      "name": "types",
      "outputs": [
        {
          "internalType": "string",
          "name": "description",
          "type": "string"
        }
      ],
      "stateMutability": "pure",
      "type": "function"
    },
    {
      "inputs": [],
      "name": "walletOfOwner",
      "outputs": [
        {
          "internalType": "uint256[]",
          "name": "",
          "type": "uint256[]"
        }
      ],
      "stateMutability": "view",
      "type": "function"
    },
    {
      "inputs": [],
      "name": "withdraw",
      "outputs": [],
      "stateMutability": "payable",
      "type": "function"
    }
  ],
  "bytecode": "0x60806040526040518060400160405280600581526020017f2e6a736f6e000000000000000000000000000000000000000000000000000000815250600c90805190602001906200005192919062000311565b50670214e8348c4f0000600e5561115c600f55600560105560056012556000601360006101000a81548160ff0219169083151502179055503480156200009657600080fd5b50604051620054f3380380620054f38339818101604052810190620000bc91906200044a565b83838160009080519060200190620000d692919062000311565b508060019080519060200190620000ef92919062000311565b50505062000112620001066200016e60201b60201c565b6200017660201b60201c565b80601360016101000a81548173ffffffffffffffffffffffffffffffffffffffff021916908373ffffffffffffffffffffffffffffffffffffffff16021790555062000164826200023c60201b60201c565b5050505062000742565b600033905090565b6000600a60009054906101000a900473ffffffffffffffffffffffffffffffffffffffff16905081600a60006101000a81548173ffffffffffffffffffffffffffffffffffffffff021916908373ffffffffffffffffffffffffffffffffffffffff1602179055508173ffffffffffffffffffffffffffffffffffffffff168173ffffffffffffffffffffffffffffffffffffffff167f8be0079c531659141344cd1fd0a4f28419497f9722a3daafe3b4186f6b6457e060405160405180910390a35050565b6200024c6200016e60201b60201c565b73ffffffffffffffffffffffffffffffffffffffff1662000272620002e760201b60201c565b73ffffffffffffffffffffffffffffffffffffffff1614620002cb576040517f08c379a0000000000000000000000000000000000000000000000000000000008152600401620002c29062000528565b60405180910390fd5b80600b9080519060200190620002e392919062000311565b5050565b6000600a60009054906101000a900473ffffffffffffffffffffffffffffffffffffffff16905090565b8280546200031f9062000624565b90600052602060002090601f0160209004810192826200034357600085556200038f565b82601f106200035e57805160ff19168380011785556200038f565b828001600101855582156200038f579182015b828111156200038e57825182559160200191906001019062000371565b5b5090506200039e9190620003a2565b5090565b5b80821115620003bd576000816000905550600101620003a3565b5090565b6000620003d8620003d28462000573565b6200054a565b905082815260208101848484011115620003f157600080fd5b620003fe848285620005ee565b509392505050565b600081519050620004178162000728565b92915050565b600082601f8301126200042f57600080fd5b815162000441848260208601620003c1565b91505092915050565b600080600080608085870312156200046157600080fd5b600085015167ffffffffffffffff8111156200047c57600080fd5b6200048a878288016200041d565b945050602085015167ffffffffffffffff811115620004a857600080fd5b620004b6878288016200041d565b935050604085015167ffffffffffffffff811115620004d457600080fd5b620004e2878288016200041d565b9250506060620004f58782880162000406565b91505092959194509250565b600062000510602083620005a9565b91506200051d82620006ff565b602082019050919050565b60006020820190508181036000830152620005438162000501565b9050919050565b60006200055662000569565b90506200056482826200065a565b919050565b6000604051905090565b600067ffffffffffffffff821115620005915762000590620006bf565b5b6200059c82620006ee565b9050602081019050919050565b600082825260208201905092915050565b6000620005c782620005ce565b9050919050565b600073ffffffffffffffffffffffffffffffffffffffff82169050919050565b60005b838110156200060e578082015181840152602081019050620005f1565b838111156200061e576000848401525b50505050565b600060028204905060018216806200063d57607f821691505b6020821081141562000654576200065362000690565b5b50919050565b6200066582620006ee565b810181811067ffffffffffffffff82111715620006875762000686620006bf565b5b80604052505050565b7f4e487b7100000000000000000000000000000000000000000000000000000000600052602260045260246000fd5b7f4e487b7100000000000000000000000000000000000000000000000000000000600052604160045260246000fd5b6000601f19601f8301169050919050565b7f4f776e61626c653a2063616c6c6572206973206e6f7420746865206f776e6572600082015250565b6200073381620005ba565b81146200073f57600080fd5b50565b614da180620007526000396000f3fe60806040526004361061027d5760003560e01c80636352211e1161014f578063aed04fae116100c1578063d9aa187c1161007a578063d9aa187c14610993578063da3ef23f146109bc578063e985e9c5146109e5578063f2c4ce1e14610a22578063f2fde38b14610a4b578063f851a44014610a745761027d565b8063aed04fae1461086f578063b88d4fde1461089a578063c6682862146108c3578063c87b56dd146108ee578063cefbfa361461092b578063d5abeb01146109685761027d565b8063715018a611610113578063715018a6146107945780637f00c7a6146107ab5780638da5cb5b146107d457806395d89b41146107ff578063a0712d681461082a578063a22cb465146108465761027d565b80636352211e1461069d5780636881a077146106da5780636c0360eb14610703578063704b6c021461072e57806370a08231146107575761027d565b8063239c70ae116101f357806342842e0e116101ac57806342842e0e1461058f57806344a0d68a146105b85780634f6ccce7146105e157806355f804b31461061e5780635c975abb146106475780635fc20588146106725761027d565b8063239c70ae1461048b57806323b872dd146104b65780632a55205a146104df5780632f745c591461051d57806336fdefd41461055a5780633ccfd60b146105855761027d565b8063081c8c4411610245578063081c8c4414610379578063095ea7b3146103a457806313faede6146103cd5780631663ee03146103f857806317bf72c61461042357806318160ddd146104605761027d565b806301ffc9a71461028257806302329a29146102bf57806303c0fa01146102e857806306fdde0314610311578063081812fc1461033c575b600080fd5b34801561028e57600080fd5b506102a960048036038101906102a491906139ef565b610a9f565b6040516102b691906140ca565b60405180910390f35b3480156102cb57600080fd5b506102e660048036038101906102e191906139c6565b610b19565b005b3480156102f457600080fd5b5061030f600480360381019061030a9190613a82565b610bb2565b005b34801561031d57600080fd5b50610326610c38565b60405161033391906140e5565b60405180910390f35b34801561034857600080fd5b50610363600480360381019061035e9190613a82565b610cca565b6040516103709190613ffd565b60405180910390f35b34801561038557600080fd5b5061038e610d4f565b60405161039b91906140e5565b60405180910390f35b3480156103b057600080fd5b506103cb60048036038101906103c6919061398a565b610ddd565b005b3480156103d957600080fd5b506103e2610ef5565b6040516103ef9190614347565b60405180910390f35b34801561040457600080fd5b5061040d610efb565b60405161041a9190614018565b60405180910390f35b34801561042f57600080fd5b5061044a60048036038101906104459190613a82565b610f21565b6040516104579190614347565b60405180910390f35b34801561046c57600080fd5b50610475610f39565b6040516104829190614347565b60405180910390f35b34801561049757600080fd5b506104a0610f46565b6040516104ad9190614347565b60405180910390f35b3480156104c257600080fd5b506104dd60048036038101906104d89190613884565b610f4c565b005b3480156104eb57600080fd5b5061050660048036038101906105019190613aab565b610fac565b60405161051492919061407f565b60405180910390f35b34801561052957600080fd5b50610544600480360381019061053f919061398a565b610ff8565b6040516105519190614347565b60405180910390f35b34801561056657600080fd5b5061056f61109d565b60405161057c91906140a8565b60405180910390f35b61058d611195565b005b34801561059b57600080fd5b506105b660048036038101906105b19190613884565b611343565b005b3480156105c457600080fd5b506105df60048036038101906105da9190613a82565b611363565b005b3480156105ed57600080fd5b5061060860048036038101906106039190613a82565b6113e9565b6040516106159190614347565b60405180910390f35b34801561062a57600080fd5b5061064560048036038101906106409190613a41565b611480565b005b34801561065357600080fd5b5061065c611516565b60405161066991906140ca565b60405180910390f35b34801561067e57600080fd5b50610687611529565b6040516106949190614347565b60405180910390f35b3480156106a957600080fd5b506106c460048036038101906106bf9190613a82565b61152f565b6040516106d19190613ffd565b60405180910390f35b3480156106e657600080fd5b5061070160048036038101906106fc9190613a82565b6115e1565b005b34801561070f57600080fd5b50610718611667565b60405161072591906140e5565b60405180910390f35b34801561073a57600080fd5b506107556004803603810190610750919061381f565b6116f5565b005b34801561076357600080fd5b5061077e6004803603810190610779919061381f565b6117b5565b60405161078b9190614347565b60405180910390f35b3480156107a057600080fd5b506107a961186d565b005b3480156107b757600080fd5b506107d260048036038101906107cd9190613a82565b6118f5565b005b3480156107e057600080fd5b506107e961197b565b6040516107f69190613ffd565b60405180910390f35b34801561080b57600080fd5b506108146119a5565b60405161082191906140e5565b60405180910390f35b610844600480360381019061083f9190613a82565b611a37565b005b34801561085257600080fd5b5061086d6004803603810190610868919061394e565b611b81565b005b34801561087b57600080fd5b50610884611d02565b6040516108919190614347565b60405180910390f35b3480156108a657600080fd5b506108c160048036038101906108bc91906138d3565b611d08565b005b3480156108cf57600080fd5b506108d8611d6a565b6040516108e591906140e5565b60405180910390f35b3480156108fa57600080fd5b5061091560048036038101906109109190613a82565b611df8565b60405161092291906140e5565b60405180910390f35b34801561093757600080fd5b50610952600480360381019061094d9190613a82565b611ea2565b60405161095f91906140e5565b60405180910390f35b34801561097457600080fd5b5061097d611fef565b60405161098a9190614347565b60405180910390f35b34801561099f57600080fd5b506109ba60048036038101906109b5919061381f565b611ff5565b005b3480156109c857600080fd5b506109e360048036038101906109de9190613a41565b6120b5565b005b3480156109f157600080fd5b50610a0c6004803603810190610a079190613848565b61214b565b604051610a1991906140ca565b60405180910390f35b348015610a2e57600080fd5b50610a496004803603810190610a449190613a41565b6121df565b005b348015610a5757600080fd5b50610a726004803603810190610a6d919061381f565b612275565b005b348015610a8057600080fd5b50610a8961236d565b604051610a969190614018565b60405180910390f35b60007f780e9d63000000000000000000000000000000000000000000000000000000007bffffffffffffffffffffffffffffffffffffffffffffffffffffffff1916827bffffffffffffffffffffffffffffffffffffffffffffffffffffffff19161480610b125750610b1182612393565b5b9050919050565b610b21612475565b73ffffffffffffffffffffffffffffffffffffffff16610b3f61197b565b73ffffffffffffffffffffffffffffffffffffffff1614610b95576040517f08c379a0000000000000000000000000000000000000000000000000000000008152600401610b8c90614287565b60405180910390fd5b80601360006101000a81548160ff02191690831515021790555050565b610bba612475565b73ffffffffffffffffffffffffffffffffffffffff16610bd861197b565b73ffffffffffffffffffffffffffffffffffffffff1614610c2e576040517f08c379a0000000000000000000000000000000000000000000000000000000008152600401610c2590614287565b60405180910390fd5b8060128190555050565b606060008054610c4790614662565b80601f0160208091040260200160405190810160405280929190818152602001828054610c7390614662565b8015610cc05780601f10610c9557610100808354040283529160200191610cc0565b820191906000526020600020905b815481529060010190602001808311610ca357829003601f168201915b5050505050905090565b6000610cd58261247d565b610d14576040517f08c379a0000000000000000000000000000000000000000000000000000000008152600401610d0b90614267565b60405180910390fd5b6004600083815260200190815260200160002060009054906101000a900473ffffffffffffffffffffffffffffffffffffffff169050919050565b600d8054610d5c90614662565b80601f0160208091040260200160405190810160405280929190818152602001828054610d8890614662565b8015610dd55780601f10610daa57610100808354040283529160200191610dd5565b820191906000526020600020905b815481529060010190602001808311610db857829003601f168201915b505050505081565b6000610de88261152f565b90508073ffffffffffffffffffffffffffffffffffffffff168373ffffffffffffffffffffffffffffffffffffffff161415610e59576040517f08c379a0000000000000000000000000000000000000000000000000000000008152600401610e50906142e7565b60405180910390fd5b8073ffffffffffffffffffffffffffffffffffffffff16610e78612475565b73ffffffffffffffffffffffffffffffffffffffff161480610ea75750610ea681610ea1612475565b61214b565b5b610ee6576040517f08c379a0000000000000000000000000000000000000000000000000000000008152600401610edd906141e7565b60405180910390fd5b610ef083836124e9565b505050565b600e5481565b601460009054906101000a900473ffffffffffffffffffffffffffffffffffffffff1681565b60156020528060005260406000206000915090505481565b6000600880549050905090565b60105481565b610f5d610f57612475565b826125a2565b610f9c576040517f08c379a0000000000000000000000000000000000000000000000000000000008152600401610f9390614307565b60405180910390fd5b610fa7838383612680565b505050565b600080601460009054906101000a900473ffffffffffffffffffffffffffffffffffffffff1661271060115485610fe3919061450c565b610fed91906144db565b915091509250929050565b6000611003836117b5565b8210611044576040517f08c379a000000000000000000000000000000000000000000000000000000000815260040161103b90614107565b60405180910390fd5b600660008473ffffffffffffffffffffffffffffffffffffffff1673ffffffffffffffffffffffffffffffffffffffff168152602001908152602001600020600083815260200190815260200160002054905092915050565b606060006110aa336117b5565b905060008167ffffffffffffffff8111156110ee577f4e487b7100000000000000000000000000000000000000000000000000000000600052604160045260246000fd5b60405190808252806020026020018201604052801561111c5781602001602082028036833780820191505090505b50905060005b8281101561118c576111343382610ff8565b82828151811061116d577f4e487b7100000000000000000000000000000000000000000000000000000000600052603260045260246000fd5b6020026020010181815250508080611184906146c5565b915050611122565b50809250505090565b61119d612475565b73ffffffffffffffffffffffffffffffffffffffff166111bb61197b565b73ffffffffffffffffffffffffffffffffffffffff1614611211576040517f08c379a000000000000000000000000000000000000000000000000000000000815260040161120890614287565b60405180910390fd5b600061121b61197b565b73ffffffffffffffffffffffffffffffffffffffff16606460125447611241919061450c565b61124b91906144db565b60405161125790613fab565b60006040518083038185875af1925050503d8060008114611294576040519150601f19603f3d011682016040523d82523d6000602084013e611299565b606091505b50509050806112a757600080fd5b6000601360019054906101000a900473ffffffffffffffffffffffffffffffffffffffff1673ffffffffffffffffffffffffffffffffffffffff16476040516112ef90613fab565b60006040518083038185875af1925050503d806000811461132c576040519150601f19603f3d011682016040523d82523d6000602084013e611331565b606091505b505090508061133f57600080fd5b5050565b61135e83838360405180602001604052806000815250611d08565b505050565b61136b612475565b73ffffffffffffffffffffffffffffffffffffffff1661138961197b565b73ffffffffffffffffffffffffffffffffffffffff16146113df576040517f08c379a00000000000000000000000000000000000000000000000000000000081526004016113d690614287565b60405180910390fd5b80600e8190555050565b60006113f3610f39565b8210611434576040517f08c379a000000000000000000000000000000000000000000000000000000000815260040161142b90614327565b60405180910390fd5b6008828154811061146e577f4e487b7100000000000000000000000000000000000000000000000000000000600052603260045260246000fd5b90600052602060002001549050919050565b611488612475565b73ffffffffffffffffffffffffffffffffffffffff166114a661197b565b73ffffffffffffffffffffffffffffffffffffffff16146114fc576040517f08c379a00000000000000000000000000000000000000000000000000000000081526004016114f390614287565b60405180910390fd5b80600b9080519060200190611512929190613643565b5050565b601360009054906101000a900460ff1681565b60115481565b6000806002600084815260200190815260200160002060009054906101000a900473ffffffffffffffffffffffffffffffffffffffff169050600073ffffffffffffffffffffffffffffffffffffffff168173ffffffffffffffffffffffffffffffffffffffff1614156115d8576040517f08c379a00000000000000000000000000000000000000000000000000000000081526004016115cf90614227565b60405180910390fd5b80915050919050565b6115e9612475565b73ffffffffffffffffffffffffffffffffffffffff1661160761197b565b73ffffffffffffffffffffffffffffffffffffffff161461165d576040517f08c379a000000000000000000000000000000000000000000000000000000000815260040161165490614287565b60405180910390fd5b8060118190555050565b600b805461167490614662565b80601f01602080910402602001604051908101604052809291908181526020018280546116a090614662565b80156116ed5780601f106116c2576101008083540402835291602001916116ed565b820191906000526020600020905b8154815290600101906020018083116116d057829003601f168201915b505050505081565b6116fd612475565b73ffffffffffffffffffffffffffffffffffffffff1661171b61197b565b73ffffffffffffffffffffffffffffffffffffffff1614611771576040517f08c379a000000000000000000000000000000000000000000000000000000000815260040161176890614287565b60405180910390fd5b80601360016101000a81548173ffffffffffffffffffffffffffffffffffffffff021916908373ffffffffffffffffffffffffffffffffffffffff16021790555050565b60008073ffffffffffffffffffffffffffffffffffffffff168273ffffffffffffffffffffffffffffffffffffffff161415611826576040517f08c379a000000000000000000000000000000000000000000000000000000000815260040161181d90614207565b60405180910390fd5b600360008373ffffffffffffffffffffffffffffffffffffffff1673ffffffffffffffffffffffffffffffffffffffff168152602001908152602001600020549050919050565b611875612475565b73ffffffffffffffffffffffffffffffffffffffff1661189361197b565b73ffffffffffffffffffffffffffffffffffffffff16146118e9576040517f08c379a00000000000000000000000000000000000000000000000000000000081526004016118e090614287565b60405180910390fd5b6118f360006128dc565b565b6118fd612475565b73ffffffffffffffffffffffffffffffffffffffff1661191b61197b565b73ffffffffffffffffffffffffffffffffffffffff1614611971576040517f08c379a000000000000000000000000000000000000000000000000000000000815260040161196890614287565b60405180910390fd5b8060108190555050565b6000600a60009054906101000a900473ffffffffffffffffffffffffffffffffffffffff16905090565b6060600180546119b490614662565b80601f01602080910402602001604051908101604052809291908181526020018280546119e090614662565b8015611a2d5780601f10611a0257610100808354040283529160200191611a2d565b820191906000526020600020905b815481529060010190602001808311611a1057829003601f168201915b5050505050905090565b601360009054906101000a900460ff1615611a5157600080fd5b6000611a5b610f39565b905060008211611a6a57600080fd5b601054821115611a7957600080fd5b600f548282611a889190614485565b1115611a9357600080fd5b611a9b61197b565b73ffffffffffffffffffffffffffffffffffffffff163373ffffffffffffffffffffffffffffffffffffffff1614158015611b245750601360019054906101000a900473ffffffffffffffffffffffffffffffffffffffff1673ffffffffffffffffffffffffffffffffffffffff163373ffffffffffffffffffffffffffffffffffffffff1614155b15611b445781600e54611b37919061450c565b341015611b4357600080fd5b5b6000600190505b828111611b7c576000611b5c6129a2565b9050611b683382612abc565b508080611b74906146c5565b915050611b4b565b505050565b611b89612475565b73ffffffffffffffffffffffffffffffffffffffff168273ffffffffffffffffffffffffffffffffffffffff161415611bf7576040517f08c379a0000000000000000000000000000000000000000000000000000000008152600401611bee906141a7565b60405180910390fd5b8060056000611c04612475565b73ffffffffffffffffffffffffffffffffffffffff1673ffffffffffffffffffffffffffffffffffffffff16815260200190815260200160002060008473ffffffffffffffffffffffffffffffffffffffff1673ffffffffffffffffffffffffffffffffffffffff16815260200190815260200160002060006101000a81548160ff0219169083151502179055508173ffffffffffffffffffffffffffffffffffffffff16611cb1612475565b73ffffffffffffffffffffffffffffffffffffffff167f17307eab39ab6107e8899845ad3d59bd9653f200f220920489ca2b5937696c3183604051611cf691906140ca565b60405180910390a35050565b60125481565b611d19611d13612475565b836125a2565b611d58576040517f08c379a0000000000000000000000000000000000000000000000000000000008152600401611d4f90614307565b60405180910390fd5b611d6484848484612ada565b50505050565b600c8054611d7790614662565b80601f0160208091040260200160405190810160405280929190818152602001828054611da390614662565b8015611df05780601f10611dc557610100808354040283529160200191611df0565b820191906000526020600020905b815481529060010190602001808311611dd357829003601f168201915b505050505081565b6060611e038261247d565b611e42576040517f08c379a0000000000000000000000000000000000000000000000000000000008152600401611e39906142c7565b60405180910390fd5b6000611e4c612b36565b90506000815111611e6c5760405180602001604052806000815250611e9a565b80611e7684612bc8565b600c604051602001611e8a93929190613f7a565b6040516020818303038152906040525b915050919050565b60606104578211611eea576040518060400160405280600881526020017f4b6172616d6269740000000000000000000000000000000000000000000000008152509050611fea565b61045782118015611efd57506108ae8211155b15611f3f576040518060400160405280600881526020017f546163746963616c0000000000000000000000000000000000000000000000008152509050611fea565b6108ae82118015611f525750610d058211155b15611f94576040518060400160405280600981526020017f427574746572666c7900000000000000000000000000000000000000000000008152509050611fea565b610d0582118015611fa7575061115c8211155b15611fe9576040518060400160405280600581526020017f4b756e61690000000000000000000000000000000000000000000000000000008152509050611fea565b5b919050565b600f5481565b611ffd612475565b73ffffffffffffffffffffffffffffffffffffffff1661201b61197b565b73ffffffffffffffffffffffffffffffffffffffff1614612071576040517f08c379a000000000000000000000000000000000000000000000000000000000815260040161206890614287565b60405180910390fd5b80601460006101000a81548173ffffffffffffffffffffffffffffffffffffffff021916908373ffffffffffffffffffffffffffffffffffffffff16021790555050565b6120bd612475565b73ffffffffffffffffffffffffffffffffffffffff166120db61197b565b73ffffffffffffffffffffffffffffffffffffffff1614612131576040517f08c379a000000000000000000000000000000000000000000000000000000000815260040161212890614287565b60405180910390fd5b80600c9080519060200190612147929190613643565b5050565b6000600560008473ffffffffffffffffffffffffffffffffffffffff1673ffffffffffffffffffffffffffffffffffffffff16815260200190815260200160002060008373ffffffffffffffffffffffffffffffffffffffff1673ffffffffffffffffffffffffffffffffffffffff16815260200190815260200160002060009054906101000a900460ff16905092915050565b6121e7612475565b73ffffffffffffffffffffffffffffffffffffffff1661220561197b565b73ffffffffffffffffffffffffffffffffffffffff161461225b576040517f08c379a000000000000000000000000000000000000000000000000000000000815260040161225290614287565b60405180910390fd5b80600d9080519060200190612271929190613643565b5050565b61227d612475565b73ffffffffffffffffffffffffffffffffffffffff1661229b61197b565b73ffffffffffffffffffffffffffffffffffffffff16146122f1576040517f08c379a00000000000000000000000000000000000000000000000000000000081526004016122e890614287565b60405180910390fd5b600073ffffffffffffffffffffffffffffffffffffffff168173ffffffffffffffffffffffffffffffffffffffff161415612361576040517f08c379a000000000000000000000000000000000000000000000000000000000815260040161235890614147565b60405180910390fd5b61236a816128dc565b50565b601360019054906101000a900473ffffffffffffffffffffffffffffffffffffffff1681565b60007f80ac58cd000000000000000000000000000000000000000000000000000000007bffffffffffffffffffffffffffffffffffffffffffffffffffffffff1916827bffffffffffffffffffffffffffffffffffffffffffffffffffffffff1916148061245e57507f5b5e139f000000000000000000000000000000000000000000000000000000007bffffffffffffffffffffffffffffffffffffffffffffffffffffffff1916827bffffffffffffffffffffffffffffffffffffffffffffffffffffffff1916145b8061246e575061246d82612d75565b5b9050919050565b600033905090565b60008073ffffffffffffffffffffffffffffffffffffffff166002600084815260200190815260200160002060009054906101000a900473ffffffffffffffffffffffffffffffffffffffff1673ffffffffffffffffffffffffffffffffffffffff1614159050919050565b816004600083815260200190815260200160002060006101000a81548173ffffffffffffffffffffffffffffffffffffffff021916908373ffffffffffffffffffffffffffffffffffffffff160217905550808273ffffffffffffffffffffffffffffffffffffffff1661255c8361152f565b73ffffffffffffffffffffffffffffffffffffffff167f8c5be1e5ebec7d5bd14f71427d1e84f3dd0314c0f7b2291e5b200ac8c7c3b92560405160405180910390a45050565b60006125ad8261247d565b6125ec576040517f08c379a00000000000000000000000000000000000000000000000000000000081526004016125e3906141c7565b60405180910390fd5b60006125f78361152f565b90508073ffffffffffffffffffffffffffffffffffffffff168473ffffffffffffffffffffffffffffffffffffffff16148061266657508373ffffffffffffffffffffffffffffffffffffffff1661264e84610cca565b73ffffffffffffffffffffffffffffffffffffffff16145b806126775750612676818561214b565b5b91505092915050565b8273ffffffffffffffffffffffffffffffffffffffff166126a08261152f565b73ffffffffffffffffffffffffffffffffffffffff16146126f6576040517f08c379a00000000000000000000000000000000000000000000000000000000081526004016126ed906142a7565b60405180910390fd5b600073ffffffffffffffffffffffffffffffffffffffff168273ffffffffffffffffffffffffffffffffffffffff161415612766576040517f08c379a000000000000000000000000000000000000000000000000000000000815260040161275d90614187565b60405180910390fd5b612771838383612ddf565b61277c6000826124e9565b6001600360008573ffffffffffffffffffffffffffffffffffffffff1673ffffffffffffffffffffffffffffffffffffffff16815260200190815260200160002060008282546127cc9190614566565b925050819055506001600360008473ffffffffffffffffffffffffffffffffffffffff1673ffffffffffffffffffffffffffffffffffffffff16815260200190815260200160002060008282546128239190614485565b92505081905550816002600083815260200190815260200160002060006101000a81548173ffffffffffffffffffffffffffffffffffffffff021916908373ffffffffffffffffffffffffffffffffffffffff160217905550808273ffffffffffffffffffffffffffffffffffffffff168473ffffffffffffffffffffffffffffffffffffffff167fddf252ad1be2c89b69c2b068fc378daa952ba7f163c4a11628f55a4df523b3ef60405160405180910390a4505050565b6000600a60009054906101000a900473ffffffffffffffffffffffffffffffffffffffff16905081600a60006101000a81548173ffffffffffffffffffffffffffffffffffffffff021916908373ffffffffffffffffffffffffffffffffffffffff1602179055508173ffffffffffffffffffffffffffffffffffffffff168173ffffffffffffffffffffffffffffffffffffffff167f8be0079c531659141344cd1fd0a4f28419497f9722a3daafe3b4186f6b6457e060405160405180910390a35050565b6000806129ad610f39565b600f546129ba9190614566565b905060004442836040516020016129d393929190613fc0565b6040516020818303038152906040528051906020012060001c9050600082826129fc9190614718565b90506000601560008381526020019081526020016000205414612a32576015600082815260200190815260200160002054612a34565b805b9350600060156000600186612a499190614566565b81526020019081526020016000205414612a825760156000600185612a6e9190614566565b815260200190815260200160002054612a90565b600183612a8f9190614566565b5b6015600083815260200190815260200160002081905550600184612ab49190614485565b935050505090565b612ad6828260405180602001604052806000815250612ef3565b5050565b612ae5848484612680565b612af184848484612f4e565b612b30576040517f08c379a0000000000000000000000000000000000000000000000000000000008152600401612b2790614127565b60405180910390fd5b50505050565b6060600b8054612b4590614662565b80601f0160208091040260200160405190810160405280929190818152602001828054612b7190614662565b8015612bbe5780601f10612b9357610100808354040283529160200191612bbe565b820191906000526020600020905b815481529060010190602001808311612ba157829003601f168201915b5050505050905090565b60606000821415612c10576040518060400160405280600181526020017f30000000000000000000000000000000000000000000000000000000000000008152509050612d70565b600082905060005b60008214612c42578080612c2b906146c5565b915050600a82612c3b91906144db565b9150612c18565b60008167ffffffffffffffff811115612c84577f4e487b7100000000000000000000000000000000000000000000000000000000600052604160045260246000fd5b6040519080825280601f01601f191660200182016040528015612cb65781602001600182028036833780820191505090505b5090505b60008514612d6957600182612ccf9190614566565b9150600a85612cde9190614718565b6030612cea9190614485565b60f81b818381518110612d26577f4e487b7100000000000000000000000000000000000000000000000000000000600052603260045260246000fd5b60200101907effffffffffffffffffffffffffffffffffffffffffffffffffffffffffffff1916908160001a905350600a85612d6291906144db565b9450612cba565b8093505050505b919050565b60007f01ffc9a7000000000000000000000000000000000000000000000000000000007bffffffffffffffffffffffffffffffffffffffffffffffffffffffff1916827bffffffffffffffffffffffffffffffffffffffffffffffffffffffff1916149050919050565b612dea8383836130e5565b600073ffffffffffffffffffffffffffffffffffffffff168373ffffffffffffffffffffffffffffffffffffffff161415612e2d57612e28816130ea565b612e6c565b8173ffffffffffffffffffffffffffffffffffffffff168373ffffffffffffffffffffffffffffffffffffffff1614612e6b57612e6a8382613133565b5b5b600073ffffffffffffffffffffffffffffffffffffffff168273ffffffffffffffffffffffffffffffffffffffff161415612eaf57612eaa816132a0565b612eee565b8273ffffffffffffffffffffffffffffffffffffffff168273ffffffffffffffffffffffffffffffffffffffff1614612eed57612eec82826133e3565b5b5b505050565b612efd8383613462565b612f0a6000848484612f4e565b612f49576040517f08c379a0000000000000000000000000000000000000000000000000000000008152600401612f4090614127565b60405180910390fd5b505050565b6000612f6f8473ffffffffffffffffffffffffffffffffffffffff16613630565b156130d8578373ffffffffffffffffffffffffffffffffffffffff1663150b7a02612f98612475565b8786866040518563ffffffff1660e01b8152600401612fba9493929190614033565b602060405180830381600087803b158015612fd457600080fd5b505af192505050801561300557506040513d601f19601f820116820180604052508101906130029190613a18565b60015b613088573d8060008114613035576040519150601f19603f3d011682016040523d82523d6000602084013e61303a565b606091505b50600081511415613080576040517f08c379a000000000000000000000000000000000000000000000000000000000815260040161307790614127565b60405180910390fd5b805181602001fd5b63150b7a0260e01b7bffffffffffffffffffffffffffffffffffffffffffffffffffffffff1916817bffffffffffffffffffffffffffffffffffffffffffffffffffffffff1916149150506130dd565b600190505b949350505050565b505050565b6008805490506009600083815260200190815260200160002081905550600881908060018154018082558091505060019003906000526020600020016000909190919091505550565b60006001613140846117b5565b61314a9190614566565b905060006007600084815260200190815260200160002054905081811461322f576000600660008673ffffffffffffffffffffffffffffffffffffffff1673ffffffffffffffffffffffffffffffffffffffff168152602001908152602001600020600084815260200190815260200160002054905080600660008773ffffffffffffffffffffffffffffffffffffffff1673ffffffffffffffffffffffffffffffffffffffff168152602001908152602001600020600084815260200190815260200160002081905550816007600083815260200190815260200160002081905550505b6007600084815260200190815260200160002060009055600660008573ffffffffffffffffffffffffffffffffffffffff1673ffffffffffffffffffffffffffffffffffffffff16815260200190815260200160002060008381526020019081526020016000206000905550505050565b600060016008805490506132b49190614566565b905060006009600084815260200190815260200160002054905060006008838154811061330a577f4e487b7100000000000000000000000000000000000000000000000000000000600052603260045260246000fd5b906000526020600020015490508060088381548110613352577f4e487b7100000000000000000000000000000000000000000000000000000000600052603260045260246000fd5b9060005260206000200181905550816009600083815260200190815260200160002081905550600960008581526020019081526020016000206000905560088054806133c7577f4e487b7100000000000000000000000000000000000000000000000000000000600052603160045260246000fd5b6001900381819060005260206000200160009055905550505050565b60006133ee836117b5565b905081600660008573ffffffffffffffffffffffffffffffffffffffff1673ffffffffffffffffffffffffffffffffffffffff168152602001908152602001600020600083815260200190815260200160002081905550806007600084815260200190815260200160002081905550505050565b600073ffffffffffffffffffffffffffffffffffffffff168273ffffffffffffffffffffffffffffffffffffffff1614156134d2576040517f08c379a00000000000000000000000000000000000000000000000000000000081526004016134c990614247565b60405180910390fd5b6134db8161247d565b1561351b576040517f08c379a000000000000000000000000000000000000000000000000000000000815260040161351290614167565b60405180910390fd5b61352760008383612ddf565b6001600360008473ffffffffffffffffffffffffffffffffffffffff1673ffffffffffffffffffffffffffffffffffffffff16815260200190815260200160002060008282546135779190614485565b92505081905550816002600083815260200190815260200160002060006101000a81548173ffffffffffffffffffffffffffffffffffffffff021916908373ffffffffffffffffffffffffffffffffffffffff160217905550808273ffffffffffffffffffffffffffffffffffffffff16600073ffffffffffffffffffffffffffffffffffffffff167fddf252ad1be2c89b69c2b068fc378daa952ba7f163c4a11628f55a4df523b3ef60405160405180910390a45050565b600080823b905060008111915050919050565b82805461364f90614662565b90600052602060002090601f01602090048101928261367157600085556136b8565b82601f1061368a57805160ff19168380011785556136b8565b828001600101855582156136b8579182015b828111156136b757825182559160200191906001019061369c565b5b5090506136c591906136c9565b5090565b5b808211156136e25760008160009055506001016136ca565b5090565b60006136f96136f484614387565b614362565b90508281526020810184848401111561371157600080fd5b61371c848285614620565b509392505050565b6000613737613732846143b8565b614362565b90508281526020810184848401111561374f57600080fd5b61375a848285614620565b509392505050565b60008135905061377181614d0f565b92915050565b60008135905061378681614d26565b92915050565b60008135905061379b81614d3d565b92915050565b6000815190506137b081614d3d565b92915050565b600082601f8301126137c757600080fd5b81356137d78482602086016136e6565b91505092915050565b600082601f8301126137f157600080fd5b8135613801848260208601613724565b91505092915050565b60008135905061381981614d54565b92915050565b60006020828403121561383157600080fd5b600061383f84828501613762565b91505092915050565b6000806040838503121561385b57600080fd5b600061386985828601613762565b925050602061387a85828601613762565b9150509250929050565b60008060006060848603121561389957600080fd5b60006138a786828701613762565b93505060206138b886828701613762565b92505060406138c98682870161380a565b9150509250925092565b600080600080608085870312156138e957600080fd5b60006138f787828801613762565b945050602061390887828801613762565b93505060406139198782880161380a565b925050606085013567ffffffffffffffff81111561393657600080fd5b613942878288016137b6565b91505092959194509250565b6000806040838503121561396157600080fd5b600061396f85828601613762565b925050602061398085828601613777565b9150509250929050565b6000806040838503121561399d57600080fd5b60006139ab85828601613762565b92505060206139bc8582860161380a565b9150509250929050565b6000602082840312156139d857600080fd5b60006139e684828501613777565b91505092915050565b600060208284031215613a0157600080fd5b6000613a0f8482850161378c565b91505092915050565b600060208284031215613a2a57600080fd5b6000613a38848285016137a1565b91505092915050565b600060208284031215613a5357600080fd5b600082013567ffffffffffffffff811115613a6d57600080fd5b613a79848285016137e0565b91505092915050565b600060208284031215613a9457600080fd5b6000613aa28482850161380a565b91505092915050565b60008060408385031215613abe57600080fd5b6000613acc8582860161380a565b9250506020613add8582860161380a565b9150509250929050565b6000613af38383613f45565b60208301905092915050565b613b08816145ac565b82525050565b613b178161459a565b82525050565b6000613b288261440e565b613b32818561443c565b9350613b3d836143e9565b8060005b83811015613b6e578151613b558882613ae7565b9750613b608361442f565b925050600181019050613b41565b5085935050505092915050565b613b84816145be565b82525050565b6000613b9582614419565b613b9f818561444d565b9350613baf81856020860161462f565b613bb881614805565b840191505092915050565b6000613bce82614424565b613bd88185614469565b9350613be881856020860161462f565b613bf181614805565b840191505092915050565b6000613c0782614424565b613c11818561447a565b9350613c2181856020860161462f565b80840191505092915050565b60008154613c3a81614662565b613c44818661447a565b94506001821660008114613c5f5760018114613c7057613ca3565b60ff19831686528186019350613ca3565b613c79856143f9565b60005b83811015613c9b57815481890152600182019150602081019050613c7c565b838801955050505b50505092915050565b6000613cb9602b83614469565b9150613cc482614816565b604082019050919050565b6000613cdc603283614469565b9150613ce782614865565b604082019050919050565b6000613cff602683614469565b9150613d0a826148b4565b604082019050919050565b6000613d22601c83614469565b9150613d2d82614903565b602082019050919050565b6000613d45602483614469565b9150613d508261492c565b604082019050919050565b6000613d68601983614469565b9150613d738261497b565b602082019050919050565b6000613d8b602c83614469565b9150613d96826149a4565b604082019050919050565b6000613dae603883614469565b9150613db9826149f3565b604082019050919050565b6000613dd1602a83614469565b9150613ddc82614a42565b604082019050919050565b6000613df4602983614469565b9150613dff82614a91565b604082019050919050565b6000613e17602083614469565b9150613e2282614ae0565b602082019050919050565b6000613e3a602c83614469565b9150613e4582614b09565b604082019050919050565b6000613e5d602083614469565b9150613e6882614b58565b602082019050919050565b6000613e80602983614469565b9150613e8b82614b81565b604082019050919050565b6000613ea3602f83614469565b9150613eae82614bd0565b604082019050919050565b6000613ec6602183614469565b9150613ed182614c1f565b604082019050919050565b6000613ee960008361445e565b9150613ef482614c6e565b600082019050919050565b6000613f0c603183614469565b9150613f1782614c71565b604082019050919050565b6000613f2f602c83614469565b9150613f3a82614cc0565b604082019050919050565b613f4e81614616565b82525050565b613f5d81614616565b82525050565b613f74613f6f82614616565b61470e565b82525050565b6000613f868286613bfc565b9150613f928285613bfc565b9150613f9e8284613c2d565b9150819050949350505050565b6000613fb682613edc565b9150819050919050565b6000613fcc8286613f63565b602082019150613fdc8285613f63565b602082019150613fec8284613f63565b602082019150819050949350505050565b60006020820190506140126000830184613b0e565b92915050565b600060208201905061402d6000830184613aff565b92915050565b60006080820190506140486000830187613b0e565b6140556020830186613b0e565b6140626040830185613f54565b81810360608301526140748184613b8a565b905095945050505050565b60006040820190506140946000830185613b0e565b6140a16020830184613f54565b9392505050565b600060208201905081810360008301526140c28184613b1d565b905092915050565b60006020820190506140df6000830184613b7b565b92915050565b600060208201905081810360008301526140ff8184613bc3565b905092915050565b6000602082019050818103600083015261412081613cac565b9050919050565b6000602082019050818103600083015261414081613ccf565b9050919050565b6000602082019050818103600083015261416081613cf2565b9050919050565b6000602082019050818103600083015261418081613d15565b9050919050565b600060208201905081810360008301526141a081613d38565b9050919050565b600060208201905081810360008301526141c081613d5b565b9050919050565b600060208201905081810360008301526141e081613d7e565b9050919050565b6000602082019050818103600083015261420081613da1565b9050919050565b6000602082019050818103600083015261422081613dc4565b9050919050565b6000602082019050818103600083015261424081613de7565b9050919050565b6000602082019050818103600083015261426081613e0a565b9050919050565b6000602082019050818103600083015261428081613e2d565b9050919050565b600060208201905081810360008301526142a081613e50565b9050919050565b600060208201905081810360008301526142c081613e73565b9050919050565b600060208201905081810360008301526142e081613e96565b9050919050565b6000602082019050818103600083015261430081613eb9565b9050919050565b6000602082019050818103600083015261432081613eff565b9050919050565b6000602082019050818103600083015261434081613f22565b9050919050565b600060208201905061435c6000830184613f54565b92915050565b600061436c61437d565b90506143788282614694565b919050565b6000604051905090565b600067ffffffffffffffff8211156143a2576143a16147d6565b5b6143ab82614805565b9050602081019050919050565b600067ffffffffffffffff8211156143d3576143d26147d6565b5b6143dc82614805565b9050602081019050919050565b6000819050602082019050919050565b60008190508160005260206000209050919050565b600081519050919050565b600081519050919050565b600081519050919050565b6000602082019050919050565b600082825260208201905092915050565b600082825260208201905092915050565b600081905092915050565b600082825260208201905092915050565b600081905092915050565b600061449082614616565b915061449b83614616565b9250827fffffffffffffffffffffffffffffffffffffffffffffffffffffffffffffffff038211156144d0576144cf614749565b5b828201905092915050565b60006144e682614616565b91506144f183614616565b92508261450157614500614778565b5b828204905092915050565b600061451782614616565b915061452283614616565b9250817fffffffffffffffffffffffffffffffffffffffffffffffffffffffffffffffff048311821515161561455b5761455a614749565b5b828202905092915050565b600061457182614616565b915061457c83614616565b92508282101561458f5761458e614749565b5b828203905092915050565b60006145a5826145f6565b9050919050565b60006145b7826145f6565b9050919050565b60008115159050919050565b60007fffffffff0000000000000000000000000000000000000000000000000000000082169050919050565b600073ffffffffffffffffffffffffffffffffffffffff82169050919050565b6000819050919050565b82818337600083830152505050565b60005b8381101561464d578082015181840152602081019050614632565b8381111561465c576000848401525b50505050565b6000600282049050600182168061467a57607f821691505b6020821081141561468e5761468d6147a7565b5b50919050565b61469d82614805565b810181811067ffffffffffffffff821117156146bc576146bb6147d6565b5b80604052505050565b60006146d082614616565b91507fffffffffffffffffffffffffffffffffffffffffffffffffffffffffffffffff82141561470357614702614749565b5b600182019050919050565b6000819050919050565b600061472382614616565b915061472e83614616565b92508261473e5761473d614778565b5b828206905092915050565b7f4e487b7100000000000000000000000000000000000000000000000000000000600052601160045260246000fd5b7f4e487b7100000000000000000000000000000000000000000000000000000000600052601260045260246000fd5b7f4e487b7100000000000000000000000000000000000000000000000000000000600052602260045260246000fd5b7f4e487b7100000000000000000000000000000000000000000000000000000000600052604160045260246000fd5b6000601f19601f8301169050919050565b7f455243373231456e756d657261626c653a206f776e657220696e646578206f7560008201527f74206f6620626f756e6473000000000000000000000000000000000000000000602082015250565b7f4552433732313a207472616e7366657220746f206e6f6e20455243373231526560008201527f63656976657220696d706c656d656e7465720000000000000000000000000000602082015250565b7f4f776e61626c653a206e6577206f776e657220697320746865207a65726f206160008201527f6464726573730000000000000000000000000000000000000000000000000000602082015250565b7f4552433732313a20746f6b656e20616c7265616479206d696e74656400000000600082015250565b7f4552433732313a207472616e7366657220746f20746865207a65726f2061646460008201527f7265737300000000000000000000000000000000000000000000000000000000602082015250565b7f4552433732313a20617070726f766520746f2063616c6c657200000000000000600082015250565b7f4552433732313a206f70657261746f7220717565727920666f72206e6f6e657860008201527f697374656e7420746f6b656e0000000000000000000000000000000000000000602082015250565b7f4552433732313a20617070726f76652063616c6c6572206973206e6f74206f7760008201527f6e6572206e6f7220617070726f76656420666f7220616c6c0000000000000000602082015250565b7f4552433732313a2062616c616e636520717565727920666f7220746865207a6560008201527f726f206164647265737300000000000000000000000000000000000000000000602082015250565b7f4552433732313a206f776e657220717565727920666f72206e6f6e657869737460008201527f656e7420746f6b656e0000000000000000000000000000000000000000000000602082015250565b7f4552433732313a206d696e7420746f20746865207a65726f2061646472657373600082015250565b7f4552433732313a20617070726f76656420717565727920666f72206e6f6e657860008201527f697374656e7420746f6b656e0000000000000000000000000000000000000000602082015250565b7f4f776e61626c653a2063616c6c6572206973206e6f7420746865206f776e6572600082015250565b7f4552433732313a207472616e73666572206f6620746f6b656e2074686174206960008201527f73206e6f74206f776e0000000000000000000000000000000000000000000000602082015250565b7f4552433732314d657461646174613a2055524920717565727920666f72206e6f60008201527f6e6578697374656e7420746f6b656e0000000000000000000000000000000000602082015250565b7f4552433732313a20617070726f76616c20746f2063757272656e74206f776e6560008201527f7200000000000000000000000000000000000000000000000000000000000000602082015250565b50565b7f4552433732313a207472616e736665722063616c6c6572206973206e6f74206f60008201527f776e6572206e6f7220617070726f766564000000000000000000000000000000602082015250565b7f455243373231456e756d657261626c653a20676c6f62616c20696e646578206f60008201527f7574206f6620626f756e64730000000000000000000000000000000000000000602082015250565b614d188161459a565b8114614d2357600080fd5b50565b614d2f816145be565b8114614d3a57600080fd5b50565b614d46816145ca565b8114614d5157600080fd5b50565b614d5d81614616565b8114614d6857600080fd5b5056fea2646970667358221220a60bd71f3b964a3619e2faae4e52fb0a879bd47f385cfbac8681288009f1666264736f6c63430008040033",
  "linkReferences": {},
  "deployedLinkReferences": {}
}