{
  "_format": "hh-sol-artifact-1",
  "contractName": "KnivesLegacy",
  "sourceName": "contracts/KnivesLegacy.sol",
  "abi": [
    {
      "inputs": [
        {
          "internalType": "string",
          "name": "_name",
          "type": "string"
        },
        {
          "internalType": "string",
          "name": "_symbol",
          "type": "string"
        },
        {
          "internalType": "string",
          "name": "_initBaseURI",
          "type": "string"
        },
        {
          "internalType": "address",
          "name": "_admin",
          "type": "address"
        }
      ],
      "stateMutability": "nonpayable",
      "type": "constructor"
    },
    {
      "anonymous": false,
      "inputs": [
        {
          "indexed": true,
          "internalType": "address",
          "name": "owner",
          "type": "address"
        },
        {
          "indexed": true,
          "internalType": "address",
          "name": "approved",
          "type": "address"
        },
        {
          "indexed": true,
          "internalType": "uint256",
          "name": "tokenId",
          "type": "uint256"
        }
      ],
      "name": "Approval",
      "type": "event"
    },
    {
      "anonymous": false,
      "inputs": [
        {
          "indexed": true,
          "internalType": "address",
          "name": "owner",
          "type": "address"
        },
        {
          "indexed": true,
          "internalType": "address",
          "name": "operator",
          "type": "address"
        },
        {
          "indexed": false,
          "internalType": "bool",
          "name": "approved",
          "type": "bool"
        }
      ],
      "name": "ApprovalForAll",
      "type": "event"
    },
    {
      "anonymous": false,
      "inputs": [
        {
          "indexed": true,
          "internalType": "address",
          "name": "previousOwner",
          "type": "address"
        },
        {
          "indexed": true,
          "internalType": "address",
          "name": "newOwner",
          "type": "address"
        }
      ],
      "name": "OwnershipTransferred",
      "type": "event"
    },
    {
      "anonymous": false,
      "inputs": [
        {
          "indexed": true,
          "internalType": "address",
          "name": "from",
          "type": "address"
        },
        {
          "indexed": true,
          "internalType": "address",
          "name": "to",
          "type": "address"
        },
        {
          "indexed": true,
          "internalType": "uint256",
          "name": "tokenId",
          "type": "uint256"
        }
      ],
      "name": "Transfer",
      "type": "event"
    },
    {
      "inputs": [],
      "name": "admin",
      "outputs": [
        {
          "internalType": "address payable",
          "name": "",
          "type": "address"
        }
      ],
      "stateMutability": "view",
      "type": "function"
    },
    {
      "inputs": [],
      "name": "adminShare",
      "outputs": [
        {
          "internalType": "uint256",
          "name": "",
          "type": "uint256"
        }
      ],
      "stateMutability": "view",
      "type": "function"
    },
    {
      "inputs": [
        {
          "internalType": "address",
          "name": "to",
          "type": "address"
        },
        {
          "internalType": "uint256",
          "name": "tokenId",
          "type": "uint256"
        }
      ],
      "name": "approve",
      "outputs": [],
      "stateMutability": "nonpayable",
      "type": "function"
    },
    {
      "inputs": [
        {
          "internalType": "address",
          "name": "owner",
          "type": "address"
        }
      ],
      "name": "balanceOf",
      "outputs": [
        {
          "internalType": "uint256",
          "name": "",
          "type": "uint256"
        }
      ],
      "stateMutability": "view",
      "type": "function"
    },
    {
      "inputs": [],
      "name": "baseExtension",
      "outputs": [
        {
          "internalType": "string",
          "name": "",
          "type": "string"
        }
      ],
      "stateMutability": "view",
      "type": "function"
    },
    {
      "inputs": [],
      "name": "baseURI",
      "outputs": [
        {
          "internalType": "string",
          "name": "",
          "type": "string"
        }
      ],
      "stateMutability": "view",
      "type": "function"
    },
    {
      "inputs": [
        {
          "internalType": "uint256",
          "name": "",
          "type": "uint256"
        }
      ],
      "name": "cache",
      "outputs": [
        {
          "internalType": "uint256",
          "name": "",
          "type": "uint256"
        }
      ],
      "stateMutability": "view",
      "type": "function"
    },
    {
      "inputs": [],
      "name": "cost",
      "outputs": [
        {
          "internalType": "uint256",
          "name": "",
          "type": "uint256"
        }
      ],
      "stateMutability": "view",
      "type": "function"
    },
    {
      "inputs": [],
      "name": "devShare",
      "outputs": [
        {
          "internalType": "uint256",
          "name": "",
          "type": "uint256"
        }
      ],
      "stateMutability": "view",
      "type": "function"
    },
    {
      "inputs": [
        {
          "internalType": "uint256",
          "name": "tokenId",
          "type": "uint256"
        }
      ],
      "name": "getApproved",
      "outputs": [
        {
          "internalType": "address",
          "name": "",
          "type": "address"
        }
      ],
      "stateMutability": "view",
      "type": "function"
    },
    {
      "inputs": [
        {
          "internalType": "address",
          "name": "owner",
          "type": "address"
        },
        {
          "internalType": "address",
          "name": "operator",
          "type": "address"
        }
      ],
      "name": "isApprovedForAll",
      "outputs": [
        {
          "internalType": "bool",
          "name": "",
          "type": "bool"
        }
      ],
      "stateMutability": "view",
      "type": "function"
    },
    {
      "inputs": [],
      "name": "maxMintAmount",
      "outputs": [
        {
          "internalType": "uint256",
          "name": "",
          "type": "uint256"
        }
      ],
      "stateMutability": "view",
      "type": "function"
    },
    {
      "inputs": [],
      "name": "maxSupply",
      "outputs": [
        {
          "internalType": "uint256",
          "name": "",
          "type": "uint256"
        }
      ],
      "stateMutability": "view",
      "type": "function"
    },
    {
      "inputs": [
        {
          "internalType": "uint256",
          "name": "_mintAmount",
          "type": "uint256"
        }
      ],
      "name": "mint",
      "outputs": [],
      "stateMutability": "payable",
      "type": "function"
    },
    {
      "inputs": [],
      "name": "name",
      "outputs": [
        {
          "internalType": "string",
          "name": "",
          "type": "string"
        }
      ],
      "stateMutability": "view",
      "type": "function"
    },
    {
      "inputs": [],
      "name": "owner",
      "outputs": [
        {
          "internalType": "address",
          "name": "",
          "type": "address"
        }
      ],
      "stateMutability": "view",
      "type": "function"
    },
    {
      "inputs": [
        {
          "internalType": "uint256",
          "name": "tokenId",
          "type": "uint256"
        }
      ],
      "name": "ownerOf",
      "outputs": [
        {
          "internalType": "address",
          "name": "",
          "type": "address"
        }
      ],
      "stateMutability": "view",
      "type": "function"
    },
    {
      "inputs": [
        {
          "internalType": "bool",
          "name": "_state",
          "type": "bool"
        }
      ],
      "name": "pause",
      "outputs": [],
      "stateMutability": "nonpayable",
      "type": "function"
    },
    {
      "inputs": [],
      "name": "paused",
      "outputs": [
        {
          "internalType": "bool",
          "name": "",
          "type": "bool"
        }
      ],
      "stateMutability": "view",
      "type": "function"
    },
    {
      "inputs": [],
      "name": "renounceOwnership",
      "outputs": [],
      "stateMutability": "nonpayable",
      "type": "function"
    },
    {
      "inputs": [],
      "name": "royaltyContract",
      "outputs": [
        {
          "internalType": "address payable",
          "name": "",
          "type": "address"
        }
      ],
      "stateMutability": "view",
      "type": "function"
    },
    {
      "inputs": [
        {
          "internalType": "uint256",
          "name": "tokenId",
          "type": "uint256"
        },
        {
          "internalType": "uint256",
          "name": "value",
          "type": "uint256"
        }
      ],
      "name": "royaltyInfo",
      "outputs": [
        {
          "internalType": "address",
          "name": "receiver",
          "type": "address"
        },
        {
          "internalType": "uint256",
          "name": "royaltyAmount",
          "type": "uint256"
        }
      ],
      "stateMutability": "view",
      "type": "function"
    },
    {
      "inputs": [],
      "name": "royaltyValue",
      "outputs": [
        {
          "internalType": "uint256",
          "name": "",
          "type": "uint256"
        }
      ],
      "stateMutability": "view",
      "type": "function"
    },
    {
      "inputs": [
        {
          "internalType": "address",
          "name": "from",
          "type": "address"
        },
        {
          "internalType": "address",
          "name": "to",
          "type": "address"
        },
        {
          "internalType": "uint256",
          "name": "tokenId",
          "type": "uint256"
        }
      ],
      "name": "safeTransferFrom",
      "outputs": [],
      "stateMutability": "nonpayable",
      "type": "function"
    },
    {
      "inputs": [
        {
          "internalType": "address",
          "name": "from",
          "type": "address"
        },
        {
          "internalType": "address",
          "name": "to",
          "type": "address"
        },
        {
          "internalType": "uint256",
          "name": "tokenId",
          "type": "uint256"
        },
        {
          "internalType": "bytes",
          "name": "_data",
          "type": "bytes"
        }
      ],
      "name": "safeTransferFrom",
      "outputs": [],
      "stateMutability": "nonpayable",
      "type": "function"
    },
    {
      "inputs": [
        {
          "internalType": "address",
          "name": "_admin",
          "type": "address"
        }
      ],
      "name": "setAdmin",
      "outputs": [],
      "stateMutability": "nonpayable",
      "type": "function"
    },
    {
      "inputs": [
        {
          "internalType": "uint256",
          "name": "_adminShare",
          "type": "uint256"
        }
      ],
      "name": "setAdminShare",
      "outputs": [],
      "stateMutability": "nonpayable",
      "type": "function"
    },
    {
      "inputs": [
        {
          "internalType": "address",
          "name": "operator",
          "type": "address"
        },
        {
          "internalType": "bool",
          "name": "approved",
          "type": "bool"
        }
      ],
      "name": "setApprovalForAll",
      "outputs": [],
      "stateMutability": "nonpayable",
      "type": "function"
    },
    {
      "inputs": [
        {
          "internalType": "string",
          "name": "_newBaseExtension",
          "type": "string"
        }
      ],
      "name": "setBaseExtension",
      "outputs": [],
      "stateMutability": "nonpayable",
      "type": "function"
    },
    {
      "inputs": [
        {
          "internalType": "string",
          "name": "_newBaseURI",
          "type": "string"
        }
      ],
      "name": "setBaseURI",
      "outputs": [],
      "stateMutability": "nonpayable",
      "type": "function"
    },
    {
      "inputs": [
        {
          "internalType": "uint256",
          "name": "_newCost",
          "type": "uint256"
        }
      ],
      "name": "setCost",
      "outputs": [],
      "stateMutability": "nonpayable",
      "type": "function"
    },
    {
      "inputs": [
        {
          "internalType": "uint256",
          "name": "_devShare",
          "type": "uint256"
        }
      ],
      "name": "setDevShare",
      "outputs": [],
      "stateMutability": "nonpayable",
      "type": "function"
    },
    {
      "inputs": [
        {
          "internalType": "address",
          "name": "_royaltyContract",
          "type": "address"
        }
      ],
      "name": "setRoyaltyContract",
      "outputs": [],
      "stateMutability": "nonpayable",
      "type": "function"
    },
    {
      "inputs": [
        {
          "internalType": "uint256",
          "name": "_royaltyValue",
          "type": "uint256"
        }
      ],
      "name": "setRoyaltyValue",
      "outputs": [],
      "stateMutability": "nonpayable",
      "type": "function"
    },
    {
      "inputs": [
        {
          "internalType": "uint256",
          "name": "_newmaxMintAmount",
          "type": "uint256"
        }
      ],
      "name": "setmaxMintAmount",
      "outputs": [],
      "stateMutability": "nonpayable",
      "type": "function"
    },
    {
      "inputs": [
        {
          "internalType": "bytes4",
          "name": "interfaceId",
          "type": "bytes4"
        }
      ],
      "name": "supportsInterface",
      "outputs": [
        {
          "internalType": "bool",
          "name": "",
          "type": "bool"
        }
      ],
      "stateMutability": "view",
      "type": "function"
    },
    {
      "inputs": [],
      "name": "symbol",
      "outputs": [
        {
          "internalType": "string",
          "name": "",
          "type": "string"
        }
      ],
      "stateMutability": "view",
      "type": "function"
    },
    {
      "inputs": [
        {
          "internalType": "uint256",
          "name": "index",
          "type": "uint256"
        }
      ],
      "name": "tokenByIndex",
      "outputs": [
        {
          "internalType": "uint256",
          "name": "",
          "type": "uint256"
        }
      ],
      "stateMutability": "view",
      "type": "function"
    },
    {
      "inputs": [
        {
          "internalType": "address",
          "name": "owner",
          "type": "address"
        },
        {
          "internalType": "uint256",
          "name": "index",
          "type": "uint256"
        }
      ],
      "name": "tokenOfOwnerByIndex",
      "outputs": [
        {
          "internalType": "uint256",
          "name": "",
          "type": "uint256"
        }
      ],
      "stateMutability": "view",
      "type": "function"
    },
    {
      "inputs": [
        {
          "internalType": "uint256",
          "name": "tokenId",
          "type": "uint256"
        }
      ],
      "name": "tokenURI",
      "outputs": [
        {
          "internalType": "string",
          "name": "",
          "type": "string"
        }
      ],
      "stateMutability": "view",
      "type": "function"
    },
    {
      "inputs": [],
      "name": "totalSupply",
      "outputs": [
        {
          "internalType": "uint256",
          "name": "",
          "type": "uint256"
        }
      ],
      "stateMutability": "view",
      "type": "function"
    },
    {
      "inputs": [
        {
          "internalType": "address",
          "name": "from",
          "type": "address"
        },
        {
          "internalType": "address",
          "name": "to",
          "type": "address"
        },
        {
          "internalType": "uint256",
          "name": "tokenId",
          "type": "uint256"
        }
      ],
      "name": "transferFrom",
      "outputs": [],
      "stateMutability": "nonpayable",
      "type": "function"
    },
    {
      "inputs": [
        {
          "internalType": "address",
          "name": "newOwner",
          "type": "address"
        }
      ],
      "name": "transferOwnership",
      "outputs": [],
      "stateMutability": "nonpayable",
      "type": "function"
    },
    {
      "inputs": [
        {
          "internalType": "uint256",
          "name": "tokenId",
          "type": "uint256"
        }
      ],
      "name": "types",
      "outputs": [
        {
          "internalType": "string",
          "name": "description",
          "type": "string"
        }
      ],
      "stateMutability": "pure",
      "type": "function"
    },
    {
      "inputs": [],
      "name": "walletOfOwner",
      "outputs": [
        {
          "internalType": "uint256[]",
          "name": "",
          "type": "uint256[]"
        }
      ],
      "stateMutability": "view",
      "type": "function"
    },
    {
      "inputs": [],
      "name": "withdraw",
      "outputs": [],
      "stateMutability": "payable",
      "type": "function"
    }
  ],
  "bytecode": "0x60806040526040518060400160405280600581526020017f2e6a736f6e000000000000000000000000000000000000000000000000000000815250600c90805190602001906200005192919062000316565b50670de0b6b3a7640000600d5561115c600e556005600f556005601155605f6012556001601360006101000a81548160ff0219169083151502179055503480156200009b57600080fd5b5060405162005587380380620055878339818101604052810190620000c191906200044f565b83838160009080519060200190620000db92919062000316565b508060019080519060200190620000f492919062000316565b505050620001176200010b6200017360201b60201c565b6200017b60201b60201c565b80601360016101000a81548173ffffffffffffffffffffffffffffffffffffffff021916908373ffffffffffffffffffffffffffffffffffffffff16021790555062000169826200024160201b60201c565b5050505062000747565b600033905090565b6000600a60009054906101000a900473ffffffffffffffffffffffffffffffffffffffff16905081600a60006101000a81548173ffffffffffffffffffffffffffffffffffffffff021916908373ffffffffffffffffffffffffffffffffffffffff1602179055508173ffffffffffffffffffffffffffffffffffffffff168173ffffffffffffffffffffffffffffffffffffffff167f8be0079c531659141344cd1fd0a4f28419497f9722a3daafe3b4186f6b6457e060405160405180910390a35050565b620002516200017360201b60201c565b73ffffffffffffffffffffffffffffffffffffffff1662000277620002ec60201b60201c565b73ffffffffffffffffffffffffffffffffffffffff1614620002d0576040517f08c379a0000000000000000000000000000000000000000000000000000000008152600401620002c7906200052d565b60405180910390fd5b80600b9080519060200190620002e892919062000316565b5050565b6000600a60009054906101000a900473ffffffffffffffffffffffffffffffffffffffff16905090565b828054620003249062000629565b90600052602060002090601f01602090048101928262000348576000855562000394565b82601f106200036357805160ff191683800117855562000394565b8280016001018555821562000394579182015b828111156200039357825182559160200191906001019062000376565b5b509050620003a39190620003a7565b5090565b5b80821115620003c2576000816000905550600101620003a8565b5090565b6000620003dd620003d78462000578565b6200054f565b905082815260208101848484011115620003f657600080fd5b62000403848285620005f3565b509392505050565b6000815190506200041c816200072d565b92915050565b600082601f8301126200043457600080fd5b815162000446848260208601620003c6565b91505092915050565b600080600080608085870312156200046657600080fd5b600085015167ffffffffffffffff8111156200048157600080fd5b6200048f8782880162000422565b945050602085015167ffffffffffffffff811115620004ad57600080fd5b620004bb8782880162000422565b935050604085015167ffffffffffffffff811115620004d957600080fd5b620004e78782880162000422565b9250506060620004fa878288016200040b565b91505092959194509250565b600062000515602083620005ae565b9150620005228262000704565b602082019050919050565b60006020820190508181036000830152620005488162000506565b9050919050565b60006200055b6200056e565b90506200056982826200065f565b919050565b6000604051905090565b600067ffffffffffffffff821115620005965762000595620006c4565b5b620005a182620006f3565b9050602081019050919050565b600082825260208201905092915050565b6000620005cc82620005d3565b9050919050565b600073ffffffffffffffffffffffffffffffffffffffff82169050919050565b60005b8381101562000613578082015181840152602081019050620005f6565b8381111562000623576000848401525b50505050565b600060028204905060018216806200064257607f821691505b6020821081141562000659576200065862000695565b5b50919050565b6200066a82620006f3565b810181811067ffffffffffffffff821117156200068c576200068b620006c4565b5b80604052505050565b7f4e487b7100000000000000000000000000000000000000000000000000000000600052602260045260246000fd5b7f4e487b7100000000000000000000000000000000000000000000000000000000600052604160045260246000fd5b6000601f19601f8301169050919050565b7f4f776e61626c653a2063616c6c6572206973206e6f7420746865206f776e6572600082015250565b6200073881620005bf565b81146200074457600080fd5b50565b614e3080620007576000396000f3fe60806040526004361061027d5760003560e01c80636352211e1161014f578063a22cb465116100c1578063d5abeb011161007a578063d5abeb0114610991578063d9aa187c146109bc578063da3ef23f146109e5578063e985e9c514610a0e578063f2fde38b14610a4b578063f851a44014610a745761027d565b8063a22cb4651461086f578063aed04fae14610898578063b88d4fde146108c3578063c6682862146108ec578063c87b56dd14610917578063cefbfa36146109545761027d565b8063715018a611610113578063715018a6146107925780637f00c7a6146107a95780638da5cb5b146107d257806395d89b41146107fd57806396087a9f14610828578063a0712d68146108535761027d565b80636352211e1461069b5780636881a077146106d85780636c0360eb14610701578063704b6c021461072c57806370a08231146107555761027d565b806323b872dd116101f357806342842e0e116101ac57806342842e0e1461058d57806344a0d68a146105b65780634f6ccce7146105df57806355f804b31461061c5780635c975abb146106455780635fc20588146106705761027d565b806323b872dd1461048b57806325c5ff86146104b45780632a55205a146104dd5780632f745c591461051b57806336fdefd4146105585780633ccfd60b146105835761027d565b8063095ea7b311610245578063095ea7b31461037957806313faede6146103a25780631663ee03146103cd57806317bf72c6146103f857806318160ddd14610435578063239c70ae146104605761027d565b806301ffc9a71461028257806302329a29146102bf57806303c0fa01146102e857806306fdde0314610311578063081812fc1461033c575b600080fd5b34801561028e57600080fd5b506102a960048036038101906102a49190613a12565b610a9f565b6040516102b69190614110565b60405180910390f35b3480156102cb57600080fd5b506102e660048036038101906102e191906139e9565b610b19565b005b3480156102f457600080fd5b5061030f600480360381019061030a9190613aa5565b610bb2565b005b34801561031d57600080fd5b50610326610c4b565b604051610333919061412b565b60405180910390f35b34801561034857600080fd5b50610363600480360381019061035e9190613aa5565b610cdd565b6040516103709190614043565b60405180910390f35b34801561038557600080fd5b506103a0600480360381019061039b91906139ad565b610d62565b005b3480156103ae57600080fd5b506103b7610e7a565b6040516103c491906143ad565b60405180910390f35b3480156103d957600080fd5b506103e2610e80565b6040516103ef919061405e565b60405180910390f35b34801561040457600080fd5b5061041f600480360381019061041a9190613aa5565b610ea6565b60405161042c91906143ad565b60405180910390f35b34801561044157600080fd5b5061044a610ebe565b60405161045791906143ad565b60405180910390f35b34801561046c57600080fd5b50610475610ecb565b60405161048291906143ad565b60405180910390f35b34801561049757600080fd5b506104b260048036038101906104ad91906138a7565b610ed1565b005b3480156104c057600080fd5b506104db60048036038101906104d69190613aa5565b610f31565b005b3480156104e957600080fd5b5061050460048036038101906104ff9190613ace565b610fca565b6040516105129291906140c5565b60405180910390f35b34801561052757600080fd5b50610542600480360381019061053d91906139ad565b611016565b60405161054f91906143ad565b60405180910390f35b34801561056457600080fd5b5061056d6110bb565b60405161057a91906140ee565b60405180910390f35b61058b6111b3565b005b34801561059957600080fd5b506105b460048036038101906105af91906138a7565b6112af565b005b3480156105c257600080fd5b506105dd60048036038101906105d89190613aa5565b6112cf565b005b3480156105eb57600080fd5b5061060660048036038101906106019190613aa5565b611355565b60405161061391906143ad565b60405180910390f35b34801561062857600080fd5b50610643600480360381019061063e9190613a64565b6113ec565b005b34801561065157600080fd5b5061065a611482565b6040516106679190614110565b60405180910390f35b34801561067c57600080fd5b50610685611495565b60405161069291906143ad565b60405180910390f35b3480156106a757600080fd5b506106c260048036038101906106bd9190613aa5565b61149b565b6040516106cf9190614043565b60405180910390f35b3480156106e457600080fd5b506106ff60048036038101906106fa9190613aa5565b61154d565b005b34801561070d57600080fd5b506107166115d3565b604051610723919061412b565b60405180910390f35b34801561073857600080fd5b50610753600480360381019061074e9190613842565b611661565b005b34801561076157600080fd5b5061077c60048036038101906107779190613842565b611721565b60405161078991906143ad565b60405180910390f35b34801561079e57600080fd5b506107a76117d9565b005b3480156107b557600080fd5b506107d060048036038101906107cb9190613aa5565b611861565b005b3480156107de57600080fd5b506107e76118e7565b6040516107f49190614043565b60405180910390f35b34801561080957600080fd5b50610812611911565b60405161081f919061412b565b60405180910390f35b34801561083457600080fd5b5061083d6119a3565b60405161084a91906143ad565b60405180910390f35b61086d60048036038101906108689190613aa5565b6119a9565b005b34801561087b57600080fd5b5061089660048036038101906108919190613971565b611be8565b005b3480156108a457600080fd5b506108ad611d69565b6040516108ba91906143ad565b60405180910390f35b3480156108cf57600080fd5b506108ea60048036038101906108e591906138f6565b611d6f565b005b3480156108f857600080fd5b50610901611dd1565b60405161090e919061412b565b60405180910390f35b34801561092357600080fd5b5061093e60048036038101906109399190613aa5565b611e5f565b60405161094b919061412b565b60405180910390f35b34801561096057600080fd5b5061097b60048036038101906109769190613aa5565b611f09565b604051610988919061412b565b60405180910390f35b34801561099d57600080fd5b506109a66120a8565b6040516109b391906143ad565b60405180910390f35b3480156109c857600080fd5b506109e360048036038101906109de9190613842565b6120ae565b005b3480156109f157600080fd5b50610a0c6004803603810190610a079190613a64565b61216e565b005b348015610a1a57600080fd5b50610a356004803603810190610a30919061386b565b612204565b604051610a429190614110565b60405180910390f35b348015610a5757600080fd5b50610a726004803603810190610a6d9190613842565b612298565b005b348015610a8057600080fd5b50610a89612390565b604051610a96919061405e565b60405180910390f35b60007f780e9d63000000000000000000000000000000000000000000000000000000007bffffffffffffffffffffffffffffffffffffffffffffffffffffffff1916827bffffffffffffffffffffffffffffffffffffffffffffffffffffffff19161480610b125750610b11826123b6565b5b9050919050565b610b21612498565b73ffffffffffffffffffffffffffffffffffffffff16610b3f6118e7565b73ffffffffffffffffffffffffffffffffffffffff1614610b95576040517f08c379a0000000000000000000000000000000000000000000000000000000008152600401610b8c906142ed565b60405180910390fd5b80601360006101000a81548160ff02191690831515021790555050565b610bba612498565b73ffffffffffffffffffffffffffffffffffffffff16610bd86118e7565b73ffffffffffffffffffffffffffffffffffffffff1614610c2e576040517f08c379a0000000000000000000000000000000000000000000000000000000008152600401610c25906142ed565b60405180910390fd5b80601181905550806064610c4291906145cc565b60128190555050565b606060008054610c5a906146c8565b80601f0160208091040260200160405190810160405280929190818152602001828054610c86906146c8565b8015610cd35780601f10610ca857610100808354040283529160200191610cd3565b820191906000526020600020905b815481529060010190602001808311610cb657829003601f168201915b5050505050905090565b6000610ce8826124a0565b610d27576040517f08c379a0000000000000000000000000000000000000000000000000000000008152600401610d1e906142cd565b60405180910390fd5b6004600083815260200190815260200160002060009054906101000a900473ffffffffffffffffffffffffffffffffffffffff169050919050565b6000610d6d8261149b565b90508073ffffffffffffffffffffffffffffffffffffffff168373ffffffffffffffffffffffffffffffffffffffff161415610dde576040517f08c379a0000000000000000000000000000000000000000000000000000000008152600401610dd59061434d565b60405180910390fd5b8073ffffffffffffffffffffffffffffffffffffffff16610dfd612498565b73ffffffffffffffffffffffffffffffffffffffff161480610e2c5750610e2b81610e26612498565b612204565b5b610e6b576040517f08c379a0000000000000000000000000000000000000000000000000000000008152600401610e629061422d565b60405180910390fd5b610e75838361250c565b505050565b600d5481565b601460009054906101000a900473ffffffffffffffffffffffffffffffffffffffff1681565b60156020528060005260406000206000915090505481565b6000600880549050905090565b600f5481565b610ee2610edc612498565b826125c5565b610f21576040517f08c379a0000000000000000000000000000000000000000000000000000000008152600401610f189061436d565b60405180910390fd5b610f2c8383836126a3565b505050565b610f39612498565b73ffffffffffffffffffffffffffffffffffffffff16610f576118e7565b73ffffffffffffffffffffffffffffffffffffffff1614610fad576040517f08c379a0000000000000000000000000000000000000000000000000000000008152600401610fa4906142ed565b60405180910390fd5b80601281905550806064610fc191906145cc565b60118190555050565b600080601460009054906101000a900473ffffffffffffffffffffffffffffffffffffffff16612710601054856110019190614572565b61100b9190614541565b915091509250929050565b600061102183611721565b8210611062576040517f08c379a00000000000000000000000000000000000000000000000000000000081526004016110599061414d565b60405180910390fd5b600660008473ffffffffffffffffffffffffffffffffffffffff1673ffffffffffffffffffffffffffffffffffffffff168152602001908152602001600020600083815260200190815260200160002054905092915050565b606060006110c833611721565b905060008167ffffffffffffffff81111561110c577f4e487b7100000000000000000000000000000000000000000000000000000000600052604160045260246000fd5b60405190808252806020026020018201604052801561113a5781602001602082028036833780820191505090505b50905060005b828110156111aa576111523382611016565b82828151811061118b577f4e487b7100000000000000000000000000000000000000000000000000000000600052603260045260246000fd5b60200260200101818152505080806111a29061472b565b915050611140565b50809250505090565b6111bb612498565b73ffffffffffffffffffffffffffffffffffffffff166111d96118e7565b73ffffffffffffffffffffffffffffffffffffffff161461122f576040517f08c379a0000000000000000000000000000000000000000000000000000000008152600401611226906142ed565b60405180910390fd5b60006112396118e7565b73ffffffffffffffffffffffffffffffffffffffff164760405161125c90613ff1565b60006040518083038185875af1925050503d8060008114611299576040519150601f19603f3d011682016040523d82523d6000602084013e61129e565b606091505b50509050806112ac57600080fd5b50565b6112ca83838360405180602001604052806000815250611d6f565b505050565b6112d7612498565b73ffffffffffffffffffffffffffffffffffffffff166112f56118e7565b73ffffffffffffffffffffffffffffffffffffffff161461134b576040517f08c379a0000000000000000000000000000000000000000000000000000000008152600401611342906142ed565b60405180910390fd5b80600d8190555050565b600061135f610ebe565b82106113a0576040517f08c379a00000000000000000000000000000000000000000000000000000000081526004016113979061438d565b60405180910390fd5b600882815481106113da577f4e487b7100000000000000000000000000000000000000000000000000000000600052603260045260246000fd5b90600052602060002001549050919050565b6113f4612498565b73ffffffffffffffffffffffffffffffffffffffff166114126118e7565b73ffffffffffffffffffffffffffffffffffffffff1614611468576040517f08c379a000000000000000000000000000000000000000000000000000000000815260040161145f906142ed565b60405180910390fd5b80600b908051906020019061147e929190613666565b5050565b601360009054906101000a900460ff1681565b60105481565b6000806002600084815260200190815260200160002060009054906101000a900473ffffffffffffffffffffffffffffffffffffffff169050600073ffffffffffffffffffffffffffffffffffffffff168173ffffffffffffffffffffffffffffffffffffffff161415611544576040517f08c379a000000000000000000000000000000000000000000000000000000000815260040161153b9061428d565b60405180910390fd5b80915050919050565b611555612498565b73ffffffffffffffffffffffffffffffffffffffff166115736118e7565b73ffffffffffffffffffffffffffffffffffffffff16146115c9576040517f08c379a00000000000000000000000000000000000000000000000000000000081526004016115c0906142ed565b60405180910390fd5b8060108190555050565b600b80546115e0906146c8565b80601f016020809104026020016040519081016040528092919081815260200182805461160c906146c8565b80156116595780601f1061162e57610100808354040283529160200191611659565b820191906000526020600020905b81548152906001019060200180831161163c57829003601f168201915b505050505081565b611669612498565b73ffffffffffffffffffffffffffffffffffffffff166116876118e7565b73ffffffffffffffffffffffffffffffffffffffff16146116dd576040517f08c379a00000000000000000000000000000000000000000000000000000000081526004016116d4906142ed565b60405180910390fd5b80601360016101000a81548173ffffffffffffffffffffffffffffffffffffffff021916908373ffffffffffffffffffffffffffffffffffffffff16021790555050565b60008073ffffffffffffffffffffffffffffffffffffffff168273ffffffffffffffffffffffffffffffffffffffff161415611792576040517f08c379a00000000000000000000000000000000000000000000000000000000081526004016117899061426d565b60405180910390fd5b600360008373ffffffffffffffffffffffffffffffffffffffff1673ffffffffffffffffffffffffffffffffffffffff168152602001908152602001600020549050919050565b6117e1612498565b73ffffffffffffffffffffffffffffffffffffffff166117ff6118e7565b73ffffffffffffffffffffffffffffffffffffffff1614611855576040517f08c379a000000000000000000000000000000000000000000000000000000000815260040161184c906142ed565b60405180910390fd5b61185f60006128ff565b565b611869612498565b73ffffffffffffffffffffffffffffffffffffffff166118876118e7565b73ffffffffffffffffffffffffffffffffffffffff16146118dd576040517f08c379a00000000000000000000000000000000000000000000000000000000081526004016118d4906142ed565b60405180910390fd5b80600f8190555050565b6000600a60009054906101000a900473ffffffffffffffffffffffffffffffffffffffff16905090565b606060018054611920906146c8565b80601f016020809104026020016040519081016040528092919081815260200182805461194c906146c8565b80156119995780601f1061196e57610100808354040283529160200191611999565b820191906000526020600020905b81548152906001019060200180831161197c57829003601f168201915b5050505050905090565b60125481565b601360009054906101000a900460ff16156119c357600080fd5b60006119cd610ebe565b9050600082116119dc57600080fd5b600f548211156119eb57600080fd5b600e5482826119fa91906144eb565b1115611a0557600080fd5b611a0d6118e7565b73ffffffffffffffffffffffffffffffffffffffff163373ffffffffffffffffffffffffffffffffffffffff1614158015611a965750601360019054906101000a900473ffffffffffffffffffffffffffffffffffffffff1673ffffffffffffffffffffffffffffffffffffffff163373ffffffffffffffffffffffffffffffffffffffff1614155b15611ab65781600d54611aa99190614572565b341015611ab557600080fd5b5b6000600190505b828111611aee576000611ace6129c5565b9050611ada3382612adf565b508080611ae69061472b565b915050611abd565b506000606460115434611b019190614572565b611b0b9190614541565b90506000606460125434611b1f9190614572565b611b299190614541565b9050611b336118e7565b73ffffffffffffffffffffffffffffffffffffffff166108fc839081150290604051600060405180830381858888f19350505050158015611b78573d6000803e3d6000fd5b50601360019054906101000a900473ffffffffffffffffffffffffffffffffffffffff1673ffffffffffffffffffffffffffffffffffffffff166108fc829081150290604051600060405180830381858888f19350505050158015611be1573d6000803e3d6000fd5b5050505050565b611bf0612498565b73ffffffffffffffffffffffffffffffffffffffff168273ffffffffffffffffffffffffffffffffffffffff161415611c5e576040517f08c379a0000000000000000000000000000000000000000000000000000000008152600401611c55906141ed565b60405180910390fd5b8060056000611c6b612498565b73ffffffffffffffffffffffffffffffffffffffff1673ffffffffffffffffffffffffffffffffffffffff16815260200190815260200160002060008473ffffffffffffffffffffffffffffffffffffffff1673ffffffffffffffffffffffffffffffffffffffff16815260200190815260200160002060006101000a81548160ff0219169083151502179055508173ffffffffffffffffffffffffffffffffffffffff16611d18612498565b73ffffffffffffffffffffffffffffffffffffffff167f17307eab39ab6107e8899845ad3d59bd9653f200f220920489ca2b5937696c3183604051611d5d9190614110565b60405180910390a35050565b60115481565b611d80611d7a612498565b836125c5565b611dbf576040517f08c379a0000000000000000000000000000000000000000000000000000000008152600401611db69061436d565b60405180910390fd5b611dcb84848484612afd565b50505050565b600c8054611dde906146c8565b80601f0160208091040260200160405190810160405280929190818152602001828054611e0a906146c8565b8015611e575780601f10611e2c57610100808354040283529160200191611e57565b820191906000526020600020905b815481529060010190602001808311611e3a57829003601f168201915b505050505081565b6060611e6a826124a0565b611ea9576040517f08c379a0000000000000000000000000000000000000000000000000000000008152600401611ea09061432d565b60405180910390fd5b6000611eb3612b59565b90506000815111611ed35760405180602001604052806000815250611f01565b80611edd84612beb565b600c604051602001611ef193929190613fc0565b6040516020818303038152906040525b915050919050565b606060018210158015611f1e575061115c8211155b611f5d576040517f08c379a0000000000000000000000000000000000000000000000000000000008152600401611f549061424d565b60405180910390fd5b6104578211611fa3576040518060400160405280600881526020017f4b6172616d62697400000000000000000000000000000000000000000000000081525090506120a3565b61045782118015611fb657506108ae8211155b15611ff8576040518060400160405280600881526020017f546163746963616c00000000000000000000000000000000000000000000000081525090506120a3565b6108ae8211801561200b5750610d058211155b1561204d576040518060400160405280600981526020017f427574746572666c79000000000000000000000000000000000000000000000081525090506120a3565b610d0582118015612060575061115c8211155b156120a2576040518060400160405280600581526020017f4b756e616900000000000000000000000000000000000000000000000000000081525090506120a3565b5b919050565b600e5481565b6120b6612498565b73ffffffffffffffffffffffffffffffffffffffff166120d46118e7565b73ffffffffffffffffffffffffffffffffffffffff161461212a576040517f08c379a0000000000000000000000000000000000000000000000000000000008152600401612121906142ed565b60405180910390fd5b80601460006101000a81548173ffffffffffffffffffffffffffffffffffffffff021916908373ffffffffffffffffffffffffffffffffffffffff16021790555050565b612176612498565b73ffffffffffffffffffffffffffffffffffffffff166121946118e7565b73ffffffffffffffffffffffffffffffffffffffff16146121ea576040517f08c379a00000000000000000000000000000000000000000000000000000000081526004016121e1906142ed565b60405180910390fd5b80600c9080519060200190612200929190613666565b5050565b6000600560008473ffffffffffffffffffffffffffffffffffffffff1673ffffffffffffffffffffffffffffffffffffffff16815260200190815260200160002060008373ffffffffffffffffffffffffffffffffffffffff1673ffffffffffffffffffffffffffffffffffffffff16815260200190815260200160002060009054906101000a900460ff16905092915050565b6122a0612498565b73ffffffffffffffffffffffffffffffffffffffff166122be6118e7565b73ffffffffffffffffffffffffffffffffffffffff1614612314576040517f08c379a000000000000000000000000000000000000000000000000000000000815260040161230b906142ed565b60405180910390fd5b600073ffffffffffffffffffffffffffffffffffffffff168173ffffffffffffffffffffffffffffffffffffffff161415612384576040517f08c379a000000000000000000000000000000000000000000000000000000000815260040161237b9061418d565b60405180910390fd5b61238d816128ff565b50565b601360019054906101000a900473ffffffffffffffffffffffffffffffffffffffff1681565b60007f80ac58cd000000000000000000000000000000000000000000000000000000007bffffffffffffffffffffffffffffffffffffffffffffffffffffffff1916827bffffffffffffffffffffffffffffffffffffffffffffffffffffffff1916148061248157507f5b5e139f000000000000000000000000000000000000000000000000000000007bffffffffffffffffffffffffffffffffffffffffffffffffffffffff1916827bffffffffffffffffffffffffffffffffffffffffffffffffffffffff1916145b80612491575061249082612d98565b5b9050919050565b600033905090565b60008073ffffffffffffffffffffffffffffffffffffffff166002600084815260200190815260200160002060009054906101000a900473ffffffffffffffffffffffffffffffffffffffff1673ffffffffffffffffffffffffffffffffffffffff1614159050919050565b816004600083815260200190815260200160002060006101000a81548173ffffffffffffffffffffffffffffffffffffffff021916908373ffffffffffffffffffffffffffffffffffffffff160217905550808273ffffffffffffffffffffffffffffffffffffffff1661257f8361149b565b73ffffffffffffffffffffffffffffffffffffffff167f8c5be1e5ebec7d5bd14f71427d1e84f3dd0314c0f7b2291e5b200ac8c7c3b92560405160405180910390a45050565b60006125d0826124a0565b61260f576040517f08c379a00000000000000000000000000000000000000000000000000000000081526004016126069061420d565b60405180910390fd5b600061261a8361149b565b90508073ffffffffffffffffffffffffffffffffffffffff168473ffffffffffffffffffffffffffffffffffffffff16148061268957508373ffffffffffffffffffffffffffffffffffffffff1661267184610cdd565b73ffffffffffffffffffffffffffffffffffffffff16145b8061269a57506126998185612204565b5b91505092915050565b8273ffffffffffffffffffffffffffffffffffffffff166126c38261149b565b73ffffffffffffffffffffffffffffffffffffffff1614612719576040517f08c379a00000000000000000000000000000000000000000000000000000000081526004016127109061430d565b60405180910390fd5b600073ffffffffffffffffffffffffffffffffffffffff168273ffffffffffffffffffffffffffffffffffffffff161415612789576040517f08c379a0000000000000000000000000000000000000000000000000000000008152600401612780906141cd565b60405180910390fd5b612794838383612e02565b61279f60008261250c565b6001600360008573ffffffffffffffffffffffffffffffffffffffff1673ffffffffffffffffffffffffffffffffffffffff16815260200190815260200160002060008282546127ef91906145cc565b925050819055506001600360008473ffffffffffffffffffffffffffffffffffffffff1673ffffffffffffffffffffffffffffffffffffffff168152602001908152602001600020600082825461284691906144eb565b92505081905550816002600083815260200190815260200160002060006101000a81548173ffffffffffffffffffffffffffffffffffffffff021916908373ffffffffffffffffffffffffffffffffffffffff160217905550808273ffffffffffffffffffffffffffffffffffffffff168473ffffffffffffffffffffffffffffffffffffffff167fddf252ad1be2c89b69c2b068fc378daa952ba7f163c4a11628f55a4df523b3ef60405160405180910390a4505050565b6000600a60009054906101000a900473ffffffffffffffffffffffffffffffffffffffff16905081600a60006101000a81548173ffffffffffffffffffffffffffffffffffffffff021916908373ffffffffffffffffffffffffffffffffffffffff1602179055508173ffffffffffffffffffffffffffffffffffffffff168173ffffffffffffffffffffffffffffffffffffffff167f8be0079c531659141344cd1fd0a4f28419497f9722a3daafe3b4186f6b6457e060405160405180910390a35050565b6000806129d0610ebe565b600e546129dd91906145cc565b905060004442836040516020016129f693929190614006565b6040516020818303038152906040528051906020012060001c905060008282612a1f919061477e565b90506000601560008381526020019081526020016000205414612a55576015600082815260200190815260200160002054612a57565b805b9350600060156000600186612a6c91906145cc565b81526020019081526020016000205414612aa55760156000600185612a9191906145cc565b815260200190815260200160002054612ab3565b600183612ab291906145cc565b5b6015600083815260200190815260200160002081905550600184612ad791906144eb565b935050505090565b612af9828260405180602001604052806000815250612f16565b5050565b612b088484846126a3565b612b1484848484612f71565b612b53576040517f08c379a0000000000000000000000000000000000000000000000000000000008152600401612b4a9061416d565b60405180910390fd5b50505050565b6060600b8054612b68906146c8565b80601f0160208091040260200160405190810160405280929190818152602001828054612b94906146c8565b8015612be15780601f10612bb657610100808354040283529160200191612be1565b820191906000526020600020905b815481529060010190602001808311612bc457829003601f168201915b5050505050905090565b60606000821415612c33576040518060400160405280600181526020017f30000000000000000000000000000000000000000000000000000000000000008152509050612d93565b600082905060005b60008214612c65578080612c4e9061472b565b915050600a82612c5e9190614541565b9150612c3b565b60008167ffffffffffffffff811115612ca7577f4e487b7100000000000000000000000000000000000000000000000000000000600052604160045260246000fd5b6040519080825280601f01601f191660200182016040528015612cd95781602001600182028036833780820191505090505b5090505b60008514612d8c57600182612cf291906145cc565b9150600a85612d01919061477e565b6030612d0d91906144eb565b60f81b818381518110612d49577f4e487b7100000000000000000000000000000000000000000000000000000000600052603260045260246000fd5b60200101907effffffffffffffffffffffffffffffffffffffffffffffffffffffffffffff1916908160001a905350600a85612d859190614541565b9450612cdd565b8093505050505b919050565b60007f01ffc9a7000000000000000000000000000000000000000000000000000000007bffffffffffffffffffffffffffffffffffffffffffffffffffffffff1916827bffffffffffffffffffffffffffffffffffffffffffffffffffffffff1916149050919050565b612e0d838383613108565b600073ffffffffffffffffffffffffffffffffffffffff168373ffffffffffffffffffffffffffffffffffffffff161415612e5057612e4b8161310d565b612e8f565b8173ffffffffffffffffffffffffffffffffffffffff168373ffffffffffffffffffffffffffffffffffffffff1614612e8e57612e8d8382613156565b5b5b600073ffffffffffffffffffffffffffffffffffffffff168273ffffffffffffffffffffffffffffffffffffffff161415612ed257612ecd816132c3565b612f11565b8273ffffffffffffffffffffffffffffffffffffffff168273ffffffffffffffffffffffffffffffffffffffff1614612f1057612f0f8282613406565b5b5b505050565b612f208383613485565b612f2d6000848484612f71565b612f6c576040517f08c379a0000000000000000000000000000000000000000000000000000000008152600401612f639061416d565b60405180910390fd5b505050565b6000612f928473ffffffffffffffffffffffffffffffffffffffff16613653565b156130fb578373ffffffffffffffffffffffffffffffffffffffff1663150b7a02612fbb612498565b8786866040518563ffffffff1660e01b8152600401612fdd9493929190614079565b602060405180830381600087803b158015612ff757600080fd5b505af192505050801561302857506040513d601f19601f820116820180604052508101906130259190613a3b565b60015b6130ab573d8060008114613058576040519150601f19603f3d011682016040523d82523d6000602084013e61305d565b606091505b506000815114156130a3576040517f08c379a000000000000000000000000000000000000000000000000000000000815260040161309a9061416d565b60405180910390fd5b805181602001fd5b63150b7a0260e01b7bffffffffffffffffffffffffffffffffffffffffffffffffffffffff1916817bffffffffffffffffffffffffffffffffffffffffffffffffffffffff191614915050613100565b600190505b949350505050565b505050565b6008805490506009600083815260200190815260200160002081905550600881908060018154018082558091505060019003906000526020600020016000909190919091505550565b6000600161316384611721565b61316d91906145cc565b9050600060076000848152602001908152602001600020549050818114613252576000600660008673ffffffffffffffffffffffffffffffffffffffff1673ffffffffffffffffffffffffffffffffffffffff168152602001908152602001600020600084815260200190815260200160002054905080600660008773ffffffffffffffffffffffffffffffffffffffff1673ffffffffffffffffffffffffffffffffffffffff168152602001908152602001600020600084815260200190815260200160002081905550816007600083815260200190815260200160002081905550505b6007600084815260200190815260200160002060009055600660008573ffffffffffffffffffffffffffffffffffffffff1673ffffffffffffffffffffffffffffffffffffffff16815260200190815260200160002060008381526020019081526020016000206000905550505050565b600060016008805490506132d791906145cc565b905060006009600084815260200190815260200160002054905060006008838154811061332d577f4e487b7100000000000000000000000000000000000000000000000000000000600052603260045260246000fd5b906000526020600020015490508060088381548110613375577f4e487b7100000000000000000000000000000000000000000000000000000000600052603260045260246000fd5b9060005260206000200181905550816009600083815260200190815260200160002081905550600960008581526020019081526020016000206000905560088054806133ea577f4e487b7100000000000000000000000000000000000000000000000000000000600052603160045260246000fd5b6001900381819060005260206000200160009055905550505050565b600061341183611721565b905081600660008573ffffffffffffffffffffffffffffffffffffffff1673ffffffffffffffffffffffffffffffffffffffff168152602001908152602001600020600083815260200190815260200160002081905550806007600084815260200190815260200160002081905550505050565b600073ffffffffffffffffffffffffffffffffffffffff168273ffffffffffffffffffffffffffffffffffffffff1614156134f5576040517f08c379a00000000000000000000000000000000000000000000000000000000081526004016134ec906142ad565b60405180910390fd5b6134fe816124a0565b1561353e576040517f08c379a0000000000000000000000000000000000000000000000000000000008152600401613535906141ad565b60405180910390fd5b61354a60008383612e02565b6001600360008473ffffffffffffffffffffffffffffffffffffffff1673ffffffffffffffffffffffffffffffffffffffff168152602001908152602001600020600082825461359a91906144eb565b92505081905550816002600083815260200190815260200160002060006101000a81548173ffffffffffffffffffffffffffffffffffffffff021916908373ffffffffffffffffffffffffffffffffffffffff160217905550808273ffffffffffffffffffffffffffffffffffffffff16600073ffffffffffffffffffffffffffffffffffffffff167fddf252ad1be2c89b69c2b068fc378daa952ba7f163c4a11628f55a4df523b3ef60405160405180910390a45050565b600080823b905060008111915050919050565b828054613672906146c8565b90600052602060002090601f01602090048101928261369457600085556136db565b82601f106136ad57805160ff19168380011785556136db565b828001600101855582156136db579182015b828111156136da5782518255916020019190600101906136bf565b5b5090506136e891906136ec565b5090565b5b808211156137055760008160009055506001016136ed565b5090565b600061371c613717846143ed565b6143c8565b90508281526020810184848401111561373457600080fd5b61373f848285614686565b509392505050565b600061375a6137558461441e565b6143c8565b90508281526020810184848401111561377257600080fd5b61377d848285614686565b509392505050565b60008135905061379481614d9e565b92915050565b6000813590506137a981614db5565b92915050565b6000813590506137be81614dcc565b92915050565b6000815190506137d381614dcc565b92915050565b600082601f8301126137ea57600080fd5b81356137fa848260208601613709565b91505092915050565b600082601f83011261381457600080fd5b8135613824848260208601613747565b91505092915050565b60008135905061383c81614de3565b92915050565b60006020828403121561385457600080fd5b600061386284828501613785565b91505092915050565b6000806040838503121561387e57600080fd5b600061388c85828601613785565b925050602061389d85828601613785565b9150509250929050565b6000806000606084860312156138bc57600080fd5b60006138ca86828701613785565b93505060206138db86828701613785565b92505060406138ec8682870161382d565b9150509250925092565b6000806000806080858703121561390c57600080fd5b600061391a87828801613785565b945050602061392b87828801613785565b935050604061393c8782880161382d565b925050606085013567ffffffffffffffff81111561395957600080fd5b613965878288016137d9565b91505092959194509250565b6000806040838503121561398457600080fd5b600061399285828601613785565b92505060206139a38582860161379a565b9150509250929050565b600080604083850312156139c057600080fd5b60006139ce85828601613785565b92505060206139df8582860161382d565b9150509250929050565b6000602082840312156139fb57600080fd5b6000613a098482850161379a565b91505092915050565b600060208284031215613a2457600080fd5b6000613a32848285016137af565b91505092915050565b600060208284031215613a4d57600080fd5b6000613a5b848285016137c4565b91505092915050565b600060208284031215613a7657600080fd5b600082013567ffffffffffffffff811115613a9057600080fd5b613a9c84828501613803565b91505092915050565b600060208284031215613ab757600080fd5b6000613ac58482850161382d565b91505092915050565b60008060408385031215613ae157600080fd5b6000613aef8582860161382d565b9250506020613b008582860161382d565b9150509250929050565b6000613b168383613f8b565b60208301905092915050565b613b2b81614612565b82525050565b613b3a81614600565b82525050565b6000613b4b82614474565b613b5581856144a2565b9350613b608361444f565b8060005b83811015613b91578151613b788882613b0a565b9750613b8383614495565b925050600181019050613b64565b5085935050505092915050565b613ba781614624565b82525050565b6000613bb88261447f565b613bc281856144b3565b9350613bd2818560208601614695565b613bdb8161486b565b840191505092915050565b6000613bf18261448a565b613bfb81856144cf565b9350613c0b818560208601614695565b613c148161486b565b840191505092915050565b6000613c2a8261448a565b613c3481856144e0565b9350613c44818560208601614695565b80840191505092915050565b60008154613c5d816146c8565b613c6781866144e0565b94506001821660008114613c825760018114613c9357613cc6565b60ff19831686528186019350613cc6565b613c9c8561445f565b60005b83811015613cbe57815481890152600182019150602081019050613c9f565b838801955050505b50505092915050565b6000613cdc602b836144cf565b9150613ce78261487c565b604082019050919050565b6000613cff6032836144cf565b9150613d0a826148cb565b604082019050919050565b6000613d226026836144cf565b9150613d2d8261491a565b604082019050919050565b6000613d45601c836144cf565b9150613d5082614969565b602082019050919050565b6000613d686024836144cf565b9150613d7382614992565b604082019050919050565b6000613d8b6019836144cf565b9150613d96826149e1565b602082019050919050565b6000613dae602c836144cf565b9150613db982614a0a565b604082019050919050565b6000613dd16038836144cf565b9150613ddc82614a59565b604082019050919050565b6000613df46010836144cf565b9150613dff82614aa8565b602082019050919050565b6000613e17602a836144cf565b9150613e2282614ad1565b604082019050919050565b6000613e3a6029836144cf565b9150613e4582614b20565b604082019050919050565b6000613e5d6020836144cf565b9150613e6882614b6f565b602082019050919050565b6000613e80602c836144cf565b9150613e8b82614b98565b604082019050919050565b6000613ea36020836144cf565b9150613eae82614be7565b602082019050919050565b6000613ec66029836144cf565b9150613ed182614c10565b604082019050919050565b6000613ee9602f836144cf565b9150613ef482614c5f565b604082019050919050565b6000613f0c6021836144cf565b9150613f1782614cae565b604082019050919050565b6000613f2f6000836144c4565b9150613f3a82614cfd565b600082019050919050565b6000613f526031836144cf565b9150613f5d82614d00565b604082019050919050565b6000613f75602c836144cf565b9150613f8082614d4f565b604082019050919050565b613f948161467c565b82525050565b613fa38161467c565b82525050565b613fba613fb58261467c565b614774565b82525050565b6000613fcc8286613c1f565b9150613fd88285613c1f565b9150613fe48284613c50565b9150819050949350505050565b6000613ffc82613f22565b9150819050919050565b60006140128286613fa9565b6020820191506140228285613fa9565b6020820191506140328284613fa9565b602082019150819050949350505050565b60006020820190506140586000830184613b31565b92915050565b60006020820190506140736000830184613b22565b92915050565b600060808201905061408e6000830187613b31565b61409b6020830186613b31565b6140a86040830185613f9a565b81810360608301526140ba8184613bad565b905095945050505050565b60006040820190506140da6000830185613b31565b6140e76020830184613f9a565b9392505050565b600060208201905081810360008301526141088184613b40565b905092915050565b60006020820190506141256000830184613b9e565b92915050565b600060208201905081810360008301526141458184613be6565b905092915050565b6000602082019050818103600083015261416681613ccf565b9050919050565b6000602082019050818103600083015261418681613cf2565b9050919050565b600060208201905081810360008301526141a681613d15565b9050919050565b600060208201905081810360008301526141c681613d38565b9050919050565b600060208201905081810360008301526141e681613d5b565b9050919050565b6000602082019050818103600083015261420681613d7e565b9050919050565b6000602082019050818103600083015261422681613da1565b9050919050565b6000602082019050818103600083015261424681613dc4565b9050919050565b6000602082019050818103600083015261426681613de7565b9050919050565b6000602082019050818103600083015261428681613e0a565b9050919050565b600060208201905081810360008301526142a681613e2d565b9050919050565b600060208201905081810360008301526142c681613e50565b9050919050565b600060208201905081810360008301526142e681613e73565b9050919050565b6000602082019050818103600083015261430681613e96565b9050919050565b6000602082019050818103600083015261432681613eb9565b9050919050565b6000602082019050818103600083015261434681613edc565b9050919050565b6000602082019050818103600083015261436681613eff565b9050919050565b6000602082019050818103600083015261438681613f45565b9050919050565b600060208201905081810360008301526143a681613f68565b9050919050565b60006020820190506143c26000830184613f9a565b92915050565b60006143d26143e3565b90506143de82826146fa565b919050565b6000604051905090565b600067ffffffffffffffff8211156144085761440761483c565b5b6144118261486b565b9050602081019050919050565b600067ffffffffffffffff8211156144395761443861483c565b5b6144428261486b565b9050602081019050919050565b6000819050602082019050919050565b60008190508160005260206000209050919050565b600081519050919050565b600081519050919050565b600081519050919050565b6000602082019050919050565b600082825260208201905092915050565b600082825260208201905092915050565b600081905092915050565b600082825260208201905092915050565b600081905092915050565b60006144f68261467c565b91506145018361467c565b9250827fffffffffffffffffffffffffffffffffffffffffffffffffffffffffffffffff03821115614536576145356147af565b5b828201905092915050565b600061454c8261467c565b91506145578361467c565b925082614567576145666147de565b5b828204905092915050565b600061457d8261467c565b91506145888361467c565b9250817fffffffffffffffffffffffffffffffffffffffffffffffffffffffffffffffff04831182151516156145c1576145c06147af565b5b828202905092915050565b60006145d78261467c565b91506145e28361467c565b9250828210156145f5576145f46147af565b5b828203905092915050565b600061460b8261465c565b9050919050565b600061461d8261465c565b9050919050565b60008115159050919050565b60007fffffffff0000000000000000000000000000000000000000000000000000000082169050919050565b600073ffffffffffffffffffffffffffffffffffffffff82169050919050565b6000819050919050565b82818337600083830152505050565b60005b838110156146b3578082015181840152602081019050614698565b838111156146c2576000848401525b50505050565b600060028204905060018216806146e057607f821691505b602082108114156146f4576146f361480d565b5b50919050565b6147038261486b565b810181811067ffffffffffffffff821117156147225761472161483c565b5b80604052505050565b60006147368261467c565b91507fffffffffffffffffffffffffffffffffffffffffffffffffffffffffffffffff821415614769576147686147af565b5b600182019050919050565b6000819050919050565b60006147898261467c565b91506147948361467c565b9250826147a4576147a36147de565b5b828206905092915050565b7f4e487b7100000000000000000000000000000000000000000000000000000000600052601160045260246000fd5b7f4e487b7100000000000000000000000000000000000000000000000000000000600052601260045260246000fd5b7f4e487b7100000000000000000000000000000000000000000000000000000000600052602260045260246000fd5b7f4e487b7100000000000000000000000000000000000000000000000000000000600052604160045260246000fd5b6000601f19601f8301169050919050565b7f455243373231456e756d657261626c653a206f776e657220696e646578206f7560008201527f74206f6620626f756e6473000000000000000000000000000000000000000000602082015250565b7f4552433732313a207472616e7366657220746f206e6f6e20455243373231526560008201527f63656976657220696d706c656d656e7465720000000000000000000000000000602082015250565b7f4f776e61626c653a206e6577206f776e657220697320746865207a65726f206160008201527f6464726573730000000000000000000000000000000000000000000000000000602082015250565b7f4552433732313a20746f6b656e20616c7265616479206d696e74656400000000600082015250565b7f4552433732313a207472616e7366657220746f20746865207a65726f2061646460008201527f7265737300000000000000000000000000000000000000000000000000000000602082015250565b7f4552433732313a20617070726f766520746f2063616c6c657200000000000000600082015250565b7f4552433732313a206f70657261746f7220717565727920666f72206e6f6e657860008201527f697374656e7420746f6b656e0000000000000000000000000000000000000000602082015250565b7f4552433732313a20617070726f76652063616c6c6572206973206e6f74206f7760008201527f6e6572206e6f7220617070726f76656420666f7220616c6c0000000000000000602082015250565b7f496e76616c696420546f6b656e20496400000000000000000000000000000000600082015250565b7f4552433732313a2062616c616e636520717565727920666f7220746865207a6560008201527f726f206164647265737300000000000000000000000000000000000000000000602082015250565b7f4552433732313a206f776e657220717565727920666f72206e6f6e657869737460008201527f656e7420746f6b656e0000000000000000000000000000000000000000000000602082015250565b7f4552433732313a206d696e7420746f20746865207a65726f2061646472657373600082015250565b7f4552433732313a20617070726f76656420717565727920666f72206e6f6e657860008201527f697374656e7420746f6b656e0000000000000000000000000000000000000000602082015250565b7f4f776e61626c653a2063616c6c6572206973206e6f7420746865206f776e6572600082015250565b7f4552433732313a207472616e73666572206f6620746f6b656e2074686174206960008201527f73206e6f74206f776e0000000000000000000000000000000000000000000000602082015250565b7f4552433732314d657461646174613a2055524920717565727920666f72206e6f60008201527f6e6578697374656e7420746f6b656e0000000000000000000000000000000000602082015250565b7f4552433732313a20617070726f76616c20746f2063757272656e74206f776e6560008201527f7200000000000000000000000000000000000000000000000000000000000000602082015250565b50565b7f4552433732313a207472616e736665722063616c6c6572206973206e6f74206f60008201527f776e6572206e6f7220617070726f766564000000000000000000000000000000602082015250565b7f455243373231456e756d657261626c653a20676c6f62616c20696e646578206f60008201527f7574206f6620626f756e64730000000000000000000000000000000000000000602082015250565b614da781614600565b8114614db257600080fd5b50565b614dbe81614624565b8114614dc957600080fd5b50565b614dd581614630565b8114614de057600080fd5b50565b614dec8161467c565b8114614df757600080fd5b5056fea264697066735822122091f0f7d6512b65e3543016756dce24d4756e046554ad6969cc972edd47dbaa0264736f6c63430008040033",
  "linkReferences": {},
  "deployedLinkReferences": {}
}