{
  "_format": "hh-sol-artifact-1",
  "contractName": "KnivesLegacy",
  "sourceName": "contracts/KnivesLegacy.sol",
  "abi": [
    {
      "inputs": [
        {
          "internalType": "string",
          "name": "_name",
          "type": "string"
        },
        {
          "internalType": "string",
          "name": "_symbol",
          "type": "string"
        },
        {
          "internalType": "string",
          "name": "_initBaseURI",
          "type": "string"
        },
        {
          "internalType": "address",
          "name": "_admin",
          "type": "address"
        },
        {
          "internalType": "address",
          "name": "_royaltyContract",
          "type": "address"
        }
      ],
      "stateMutability": "nonpayable",
      "type": "constructor"
    },
    {
      "anonymous": false,
      "inputs": [
        {
          "indexed": true,
          "internalType": "address",
          "name": "owner",
          "type": "address"
        },
        {
          "indexed": true,
          "internalType": "address",
          "name": "approved",
          "type": "address"
        },
        {
          "indexed": true,
          "internalType": "uint256",
          "name": "tokenId",
          "type": "uint256"
        }
      ],
      "name": "Approval",
      "type": "event"
    },
    {
      "anonymous": false,
      "inputs": [
        {
          "indexed": true,
          "internalType": "address",
          "name": "owner",
          "type": "address"
        },
        {
          "indexed": true,
          "internalType": "address",
          "name": "operator",
          "type": "address"
        },
        {
          "indexed": false,
          "internalType": "bool",
          "name": "approved",
          "type": "bool"
        }
      ],
      "name": "ApprovalForAll",
      "type": "event"
    },
    {
      "anonymous": false,
      "inputs": [
        {
          "indexed": true,
          "internalType": "address",
          "name": "previousOwner",
          "type": "address"
        },
        {
          "indexed": true,
          "internalType": "address",
          "name": "newOwner",
          "type": "address"
        }
      ],
      "name": "OwnershipTransferred",
      "type": "event"
    },
    {
      "anonymous": false,
      "inputs": [
        {
          "indexed": true,
          "internalType": "address",
          "name": "from",
          "type": "address"
        },
        {
          "indexed": true,
          "internalType": "address",
          "name": "to",
          "type": "address"
        },
        {
          "indexed": true,
          "internalType": "uint256",
          "name": "tokenId",
          "type": "uint256"
        }
      ],
      "name": "Transfer",
      "type": "event"
    },
    {
      "inputs": [],
      "name": "admin",
      "outputs": [
        {
          "internalType": "address payable",
          "name": "",
          "type": "address"
        }
      ],
      "stateMutability": "view",
      "type": "function"
    },
    {
      "inputs": [
        {
          "internalType": "address",
          "name": "to",
          "type": "address"
        },
        {
          "internalType": "uint256",
          "name": "tokenId",
          "type": "uint256"
        }
      ],
      "name": "approve",
      "outputs": [],
      "stateMutability": "nonpayable",
      "type": "function"
    },
    {
      "inputs": [
        {
          "internalType": "address",
          "name": "owner",
          "type": "address"
        }
      ],
      "name": "balanceOf",
      "outputs": [
        {
          "internalType": "uint256",
          "name": "",
          "type": "uint256"
        }
      ],
      "stateMutability": "view",
      "type": "function"
    },
    {
      "inputs": [],
      "name": "baseExtension",
      "outputs": [
        {
          "internalType": "string",
          "name": "",
          "type": "string"
        }
      ],
      "stateMutability": "view",
      "type": "function"
    },
    {
      "inputs": [],
      "name": "baseURI",
      "outputs": [
        {
          "internalType": "string",
          "name": "",
          "type": "string"
        }
      ],
      "stateMutability": "view",
      "type": "function"
    },
    {
      "inputs": [],
      "name": "cost",
      "outputs": [
        {
          "internalType": "uint256",
          "name": "",
          "type": "uint256"
        }
      ],
      "stateMutability": "view",
      "type": "function"
    },
    {
      "inputs": [
        {
          "internalType": "uint256",
          "name": "tokenId",
          "type": "uint256"
        }
      ],
      "name": "getApproved",
      "outputs": [
        {
          "internalType": "address",
          "name": "",
          "type": "address"
        }
      ],
      "stateMutability": "view",
      "type": "function"
    },
    {
      "inputs": [
        {
          "internalType": "address",
          "name": "owner",
          "type": "address"
        },
        {
          "internalType": "address",
          "name": "operator",
          "type": "address"
        }
      ],
      "name": "isApprovedForAll",
      "outputs": [
        {
          "internalType": "bool",
          "name": "",
          "type": "bool"
        }
      ],
      "stateMutability": "view",
      "type": "function"
    },
    {
      "inputs": [],
      "name": "maxMintAmount",
      "outputs": [
        {
          "internalType": "uint256",
          "name": "",
          "type": "uint256"
        }
      ],
      "stateMutability": "view",
      "type": "function"
    },
    {
      "inputs": [],
      "name": "maxSupply",
      "outputs": [
        {
          "internalType": "uint256",
          "name": "",
          "type": "uint256"
        }
      ],
      "stateMutability": "view",
      "type": "function"
    },
    {
      "inputs": [
        {
          "internalType": "uint256",
          "name": "_mintAmount",
          "type": "uint256"
        }
      ],
      "name": "mint",
      "outputs": [],
      "stateMutability": "payable",
      "type": "function"
    },
    {
      "inputs": [],
      "name": "name",
      "outputs": [
        {
          "internalType": "string",
          "name": "",
          "type": "string"
        }
      ],
      "stateMutability": "view",
      "type": "function"
    },
    {
      "inputs": [],
      "name": "nftPerAddressLimit",
      "outputs": [
        {
          "internalType": "uint256",
          "name": "",
          "type": "uint256"
        }
      ],
      "stateMutability": "view",
      "type": "function"
    },
    {
      "inputs": [],
      "name": "notRevealedUri",
      "outputs": [
        {
          "internalType": "string",
          "name": "",
          "type": "string"
        }
      ],
      "stateMutability": "view",
      "type": "function"
    },
    {
      "inputs": [],
      "name": "owner",
      "outputs": [
        {
          "internalType": "address",
          "name": "",
          "type": "address"
        }
      ],
      "stateMutability": "view",
      "type": "function"
    },
    {
      "inputs": [
        {
          "internalType": "uint256",
          "name": "tokenId",
          "type": "uint256"
        }
      ],
      "name": "ownerOf",
      "outputs": [
        {
          "internalType": "address",
          "name": "",
          "type": "address"
        }
      ],
      "stateMutability": "view",
      "type": "function"
    },
    {
      "inputs": [
        {
          "internalType": "bool",
          "name": "_state",
          "type": "bool"
        }
      ],
      "name": "pause",
      "outputs": [],
      "stateMutability": "nonpayable",
      "type": "function"
    },
    {
      "inputs": [],
      "name": "paused",
      "outputs": [
        {
          "internalType": "bool",
          "name": "",
          "type": "bool"
        }
      ],
      "stateMutability": "view",
      "type": "function"
    },
    {
      "inputs": [],
      "name": "renounceOwnership",
      "outputs": [],
      "stateMutability": "nonpayable",
      "type": "function"
    },
    {
      "inputs": [],
      "name": "royaltyContract",
      "outputs": [
        {
          "internalType": "address payable",
          "name": "",
          "type": "address"
        }
      ],
      "stateMutability": "view",
      "type": "function"
    },
    {
      "inputs": [
        {
          "internalType": "uint256",
          "name": "tokenId",
          "type": "uint256"
        },
        {
          "internalType": "uint256",
          "name": "value",
          "type": "uint256"
        }
      ],
      "name": "royaltyInfo",
      "outputs": [
        {
          "internalType": "address",
          "name": "receiver",
          "type": "address"
        },
        {
          "internalType": "uint256",
          "name": "royaltyAmount",
          "type": "uint256"
        }
      ],
      "stateMutability": "view",
      "type": "function"
    },
    {
      "inputs": [],
      "name": "royaltyValue",
      "outputs": [
        {
          "internalType": "uint256",
          "name": "",
          "type": "uint256"
        }
      ],
      "stateMutability": "view",
      "type": "function"
    },
    {
      "inputs": [
        {
          "internalType": "address",
          "name": "from",
          "type": "address"
        },
        {
          "internalType": "address",
          "name": "to",
          "type": "address"
        },
        {
          "internalType": "uint256",
          "name": "tokenId",
          "type": "uint256"
        }
      ],
      "name": "safeTransferFrom",
      "outputs": [],
      "stateMutability": "nonpayable",
      "type": "function"
    },
    {
      "inputs": [
        {
          "internalType": "address",
          "name": "from",
          "type": "address"
        },
        {
          "internalType": "address",
          "name": "to",
          "type": "address"
        },
        {
          "internalType": "uint256",
          "name": "tokenId",
          "type": "uint256"
        },
        {
          "internalType": "bytes",
          "name": "_data",
          "type": "bytes"
        }
      ],
      "name": "safeTransferFrom",
      "outputs": [],
      "stateMutability": "nonpayable",
      "type": "function"
    },
    {
      "inputs": [
        {
          "internalType": "address",
          "name": "operator",
          "type": "address"
        },
        {
          "internalType": "bool",
          "name": "approved",
          "type": "bool"
        }
      ],
      "name": "setApprovalForAll",
      "outputs": [],
      "stateMutability": "nonpayable",
      "type": "function"
    },
    {
      "inputs": [
        {
          "internalType": "string",
          "name": "_newBaseExtension",
          "type": "string"
        }
      ],
      "name": "setBaseExtension",
      "outputs": [],
      "stateMutability": "nonpayable",
      "type": "function"
    },
    {
      "inputs": [
        {
          "internalType": "string",
          "name": "_newBaseURI",
          "type": "string"
        }
      ],
      "name": "setBaseURI",
      "outputs": [],
      "stateMutability": "nonpayable",
      "type": "function"
    },
    {
      "inputs": [
        {
          "internalType": "uint256",
          "name": "_newCost",
          "type": "uint256"
        }
      ],
      "name": "setCost",
      "outputs": [],
      "stateMutability": "nonpayable",
      "type": "function"
    },
    {
      "inputs": [
        {
          "internalType": "uint256",
          "name": "_limit",
          "type": "uint256"
        }
      ],
      "name": "setNftPerAddressLimit",
      "outputs": [],
      "stateMutability": "nonpayable",
      "type": "function"
    },
    {
      "inputs": [
        {
          "internalType": "string",
          "name": "_notRevealedURI",
          "type": "string"
        }
      ],
      "name": "setNotRevealedURI",
      "outputs": [],
      "stateMutability": "nonpayable",
      "type": "function"
    },
    {
      "inputs": [
        {
          "internalType": "address",
          "name": "_royaltyContract",
          "type": "address"
        }
      ],
      "name": "setRoyaltyContract",
      "outputs": [],
      "stateMutability": "nonpayable",
      "type": "function"
    },
    {
      "inputs": [
        {
          "internalType": "uint256",
          "name": "_newmaxMintAmount",
          "type": "uint256"
        }
      ],
      "name": "setmaxMintAmount",
      "outputs": [],
      "stateMutability": "nonpayable",
      "type": "function"
    },
    {
      "inputs": [
        {
          "internalType": "bytes4",
          "name": "interfaceId",
          "type": "bytes4"
        }
      ],
      "name": "supportsInterface",
      "outputs": [
        {
          "internalType": "bool",
          "name": "",
          "type": "bool"
        }
      ],
      "stateMutability": "view",
      "type": "function"
    },
    {
      "inputs": [],
      "name": "symbol",
      "outputs": [
        {
          "internalType": "string",
          "name": "",
          "type": "string"
        }
      ],
      "stateMutability": "view",
      "type": "function"
    },
    {
      "inputs": [
        {
          "internalType": "uint256",
          "name": "index",
          "type": "uint256"
        }
      ],
      "name": "tokenByIndex",
      "outputs": [
        {
          "internalType": "uint256",
          "name": "",
          "type": "uint256"
        }
      ],
      "stateMutability": "view",
      "type": "function"
    },
    {
      "inputs": [
        {
          "internalType": "address",
          "name": "owner",
          "type": "address"
        },
        {
          "internalType": "uint256",
          "name": "index",
          "type": "uint256"
        }
      ],
      "name": "tokenOfOwnerByIndex",
      "outputs": [
        {
          "internalType": "uint256",
          "name": "",
          "type": "uint256"
        }
      ],
      "stateMutability": "view",
      "type": "function"
    },
    {
      "inputs": [
        {
          "internalType": "uint256",
          "name": "tokenId",
          "type": "uint256"
        }
      ],
      "name": "tokenURI",
      "outputs": [
        {
          "internalType": "string",
          "name": "",
          "type": "string"
        }
      ],
      "stateMutability": "view",
      "type": "function"
    },
    {
      "inputs": [],
      "name": "totalSupply",
      "outputs": [
        {
          "internalType": "uint256",
          "name": "",
          "type": "uint256"
        }
      ],
      "stateMutability": "view",
      "type": "function"
    },
    {
      "inputs": [
        {
          "internalType": "address",
          "name": "from",
          "type": "address"
        },
        {
          "internalType": "address",
          "name": "to",
          "type": "address"
        },
        {
          "internalType": "uint256",
          "name": "tokenId",
          "type": "uint256"
        }
      ],
      "name": "transferFrom",
      "outputs": [],
      "stateMutability": "nonpayable",
      "type": "function"
    },
    {
      "inputs": [
        {
          "internalType": "address",
          "name": "newOwner",
          "type": "address"
        }
      ],
      "name": "transferOwnership",
      "outputs": [],
      "stateMutability": "nonpayable",
      "type": "function"
    },
    {
      "inputs": [],
      "name": "walletOfOwner",
      "outputs": [
        {
          "internalType": "uint256[]",
          "name": "",
          "type": "uint256[]"
        }
      ],
      "stateMutability": "view",
      "type": "function"
    },
    {
      "inputs": [],
      "name": "withdraw",
      "outputs": [],
      "stateMutability": "payable",
      "type": "function"
    }
  ],
  "bytecode": "0x60806040526040518060400160405280600581526020017f2e6a736f6e000000000000000000000000000000000000000000000000000000815250600c90805190602001906200005192919062000f84565b50671bc16d674ec80000600e5561115c600f5560146010556127106011556101f46012556000601360006101000a81548160ff0219169083151502179055503480156200009d57600080fd5b506040516200610a3803806200610a8339818101604052810190620000c3919062001100565b84848160009080519060200190620000dd92919062000f84565b508060019080519060200190620000f692919062000f84565b505050620001196200010d6200019960201b60201c565b620001a160201b60201c565b81601360016101000a81548173ffffffffffffffffffffffffffffffffffffffff021916908373ffffffffffffffffffffffffffffffffffffffff1602179055506200016b836200026760201b60201c565b6200017c816200031260201b60201c565b6200018e6014620003e560201b60201c565b5050505050620018bb565b600033905090565b6000600a60009054906101000a900473ffffffffffffffffffffffffffffffffffffffff16905081600a60006101000a81548173ffffffffffffffffffffffffffffffffffffffff021916908373ffffffffffffffffffffffffffffffffffffffff1602179055508173ffffffffffffffffffffffffffffffffffffffff168173ffffffffffffffffffffffffffffffffffffffff167f8be0079c531659141344cd1fd0a4f28419497f9722a3daafe3b4186f6b6457e060405160405180910390a35050565b620002776200019960201b60201c565b73ffffffffffffffffffffffffffffffffffffffff166200029d620004f960201b60201c565b73ffffffffffffffffffffffffffffffffffffffff1614620002f6576040517f08c379a0000000000000000000000000000000000000000000000000000000008152600401620002ed90620013cf565b60405180910390fd5b80600b90805190602001906200030e92919062000f84565b5050565b620003226200019960201b60201c565b73ffffffffffffffffffffffffffffffffffffffff1662000348620004f960201b60201c565b73ffffffffffffffffffffffffffffffffffffffff1614620003a1576040517f08c379a00000000000000000000000000000000000000000000000000000000081526004016200039890620013cf565b60405180910390fd5b80601460006101000a81548173ffffffffffffffffffffffffffffffffffffffff021916908373ffffffffffffffffffffffffffffffffffffffff16021790555050565b601360009054906101000a900460ff16156200040057600080fd5b6000620004126200052360201b60201c565b9050600082116200042257600080fd5b6010548211156200043257600080fd5b600f5482826200044391906200147d565b11156200044f57600080fd5b6200045f620004f960201b60201c565b73ffffffffffffffffffffffffffffffffffffffff163373ffffffffffffffffffffffffffffffffffffffff1614620004b05781600e54620004a29190620014da565b341015620004af57600080fd5b5b6000600190505b828111620004f457620004de338284620004d291906200147d565b6200053060201b60201c565b8080620004eb9062001682565b915050620004b7565b505050565b6000600a60009054906101000a900473ffffffffffffffffffffffffffffffffffffffff16905090565b6000600880549050905090565b620005528282604051806020016040528060008152506200055660201b60201c565b5050565b620005688383620005c460201b60201c565b6200057d6000848484620007aa60201b60201c565b620005bf576040517f08c379a0000000000000000000000000000000000000000000000000000000008152600401620005b69062001347565b60405180910390fd5b505050565b600073ffffffffffffffffffffffffffffffffffffffff168273ffffffffffffffffffffffffffffffffffffffff16141562000637576040517f08c379a00000000000000000000000000000000000000000000000000000000081526004016200062e90620013ad565b60405180910390fd5b62000648816200096460201b60201c565b156200068b576040517f08c379a0000000000000000000000000000000000000000000000000000000008152600401620006829062001369565b60405180910390fd5b6200069f60008383620009d060201b60201c565b6001600360008473ffffffffffffffffffffffffffffffffffffffff1673ffffffffffffffffffffffffffffffffffffffff1681526020019081526020016000206000828254620006f191906200147d565b92505081905550816002600083815260200190815260200160002060006101000a81548173ffffffffffffffffffffffffffffffffffffffff021916908373ffffffffffffffffffffffffffffffffffffffff160217905550808273ffffffffffffffffffffffffffffffffffffffff16600073ffffffffffffffffffffffffffffffffffffffff167fddf252ad1be2c89b69c2b068fc378daa952ba7f163c4a11628f55a4df523b3ef60405160405180910390a45050565b6000620007d88473ffffffffffffffffffffffffffffffffffffffff1662000b1760201b62001fa91760201c565b1562000957578373ffffffffffffffffffffffffffffffffffffffff1663150b7a026200080a6200019960201b60201c565b8786866040518563ffffffff1660e01b81526004016200082e9493929190620012f3565b602060405180830381600087803b1580156200084957600080fd5b505af19250505080156200087d57506040513d601f19601f820116820180604052508101906200087a9190620010d4565b60015b62000906573d8060008114620008b0576040519150601f19603f3d011682016040523d82523d6000602084013e620008b5565b606091505b50600081511415620008fe576040517f08c379a0000000000000000000000000000000000000000000000000000000008152600401620008f59062001347565b60405180910390fd5b805181602001fd5b63150b7a0260e01b7bffffffffffffffffffffffffffffffffffffffffffffffffffffffff1916817bffffffffffffffffffffffffffffffffffffffffffffffffffffffff1916149150506200095c565b600190505b949350505050565b60008073ffffffffffffffffffffffffffffffffffffffff166002600084815260200190815260200160002060009054906101000a900473ffffffffffffffffffffffffffffffffffffffff1673ffffffffffffffffffffffffffffffffffffffff1614159050919050565b620009e883838362000b2a60201b62001fbc1760201c565b600073ffffffffffffffffffffffffffffffffffffffff168373ffffffffffffffffffffffffffffffffffffffff16141562000a355762000a2f8162000b2f60201b60201c565b62000a7d565b8173ffffffffffffffffffffffffffffffffffffffff168373ffffffffffffffffffffffffffffffffffffffff161462000a7c5762000a7b838262000b7860201b60201c565b5b5b600073ffffffffffffffffffffffffffffffffffffffff168273ffffffffffffffffffffffffffffffffffffffff16141562000aca5762000ac48162000cf560201b60201c565b62000b12565b8273ffffffffffffffffffffffffffffffffffffffff168273ffffffffffffffffffffffffffffffffffffffff161462000b115762000b10828262000e3d60201b60201c565b5b5b505050565b600080823b905060008111915050919050565b505050565b6008805490506009600083815260200190815260200160002081905550600881908060018154018082558091505060019003906000526020600020016000909190919091505550565b6000600162000b928462000ec960201b620014f01760201c565b62000b9e91906200153b565b905060006007600084815260200190815260200160002054905081811462000c84576000600660008673ffffffffffffffffffffffffffffffffffffffff1673ffffffffffffffffffffffffffffffffffffffff168152602001908152602001600020600084815260200190815260200160002054905080600660008773ffffffffffffffffffffffffffffffffffffffff1673ffffffffffffffffffffffffffffffffffffffff168152602001908152602001600020600084815260200190815260200160002081905550816007600083815260200190815260200160002081905550505b6007600084815260200190815260200160002060009055600660008573ffffffffffffffffffffffffffffffffffffffff1673ffffffffffffffffffffffffffffffffffffffff16815260200190815260200160002060008381526020019081526020016000206000905550505050565b6000600160088054905062000d0b91906200153b565b905060006009600084815260200190815260200160002054905060006008838154811062000d62577f4e487b7100000000000000000000000000000000000000000000000000000000600052603260045260246000fd5b90600052602060002001549050806008838154811062000dab577f4e487b7100000000000000000000000000000000000000000000000000000000600052603260045260246000fd5b90600052602060002001819055508160096000838152602001908152602001600020819055506009600085815260200190815260200160002060009055600880548062000e21577f4e487b7100000000000000000000000000000000000000000000000000000000600052603160045260246000fd5b6001900381819060005260206000200160009055905550505050565b600062000e558362000ec960201b620014f01760201c565b905081600660008573ffffffffffffffffffffffffffffffffffffffff1673ffffffffffffffffffffffffffffffffffffffff168152602001908152602001600020600083815260200190815260200160002081905550806007600084815260200190815260200160002081905550505050565b60008073ffffffffffffffffffffffffffffffffffffffff168273ffffffffffffffffffffffffffffffffffffffff16141562000f3d576040517f08c379a000000000000000000000000000000000000000000000000000000000815260040162000f34906200138b565b60405180910390fd5b600360008373ffffffffffffffffffffffffffffffffffffffff1673ffffffffffffffffffffffffffffffffffffffff168152602001908152602001600020549050919050565b82805462000f929062001616565b90600052602060002090601f01602090048101928262000fb6576000855562001002565b82601f1062000fd157805160ff191683800117855562001002565b8280016001018555821562001002579182015b828111156200100157825182559160200191906001019062000fe4565b5b50905062001011919062001015565b5090565b5b808211156200103057600081600090555060010162001016565b5090565b60006200104b62001045846200141a565b620013f1565b9050828152602081018484840111156200106457600080fd5b62001071848285620015e0565b509392505050565b6000815190506200108a8162001887565b92915050565b600081519050620010a181620018a1565b92915050565b600082601f830112620010b957600080fd5b8151620010cb84826020860162001034565b91505092915050565b600060208284031215620010e757600080fd5b6000620010f78482850162001090565b91505092915050565b600080600080600060a086880312156200111957600080fd5b600086015167ffffffffffffffff8111156200113457600080fd5b6200114288828901620010a7565b955050602086015167ffffffffffffffff8111156200116057600080fd5b6200116e88828901620010a7565b945050604086015167ffffffffffffffff8111156200118c57600080fd5b6200119a88828901620010a7565b9350506060620011ad8882890162001079565b9250506080620011c08882890162001079565b9150509295509295909350565b620011d88162001576565b82525050565b6000620011eb8262001450565b620011f781856200145b565b935062001209818560208601620015e0565b62001214816200175d565b840191505092915050565b60006200122e6032836200146c565b91506200123b826200176e565b604082019050919050565b600062001255601c836200146c565b91506200126282620017bd565b602082019050919050565b60006200127c602a836200146c565b91506200128982620017e6565b604082019050919050565b6000620012a36020836200146c565b9150620012b08262001835565b602082019050919050565b6000620012ca6020836200146c565b9150620012d7826200185e565b602082019050919050565b620012ed81620015d6565b82525050565b60006080820190506200130a6000830187620011cd565b620013196020830186620011cd565b620013286040830185620012e2565b81810360608301526200133c8184620011de565b905095945050505050565b6000602082019050818103600083015262001362816200121f565b9050919050565b60006020820190508181036000830152620013848162001246565b9050919050565b60006020820190508181036000830152620013a6816200126d565b9050919050565b60006020820190508181036000830152620013c88162001294565b9050919050565b60006020820190508181036000830152620013ea81620012bb565b9050919050565b6000620013fd62001410565b90506200140b82826200164c565b919050565b6000604051905090565b600067ffffffffffffffff8211156200143857620014376200172e565b5b62001443826200175d565b9050602081019050919050565b600081519050919050565b600082825260208201905092915050565b600082825260208201905092915050565b60006200148a82620015d6565b91506200149783620015d6565b9250827fffffffffffffffffffffffffffffffffffffffffffffffffffffffffffffffff03821115620014cf57620014ce620016d0565b5b828201905092915050565b6000620014e782620015d6565b9150620014f483620015d6565b9250817fffffffffffffffffffffffffffffffffffffffffffffffffffffffffffffffff048311821515161562001530576200152f620016d0565b5b828202905092915050565b60006200154882620015d6565b91506200155583620015d6565b9250828210156200156b576200156a620016d0565b5b828203905092915050565b60006200158382620015b6565b9050919050565b60007fffffffff0000000000000000000000000000000000000000000000000000000082169050919050565b600073ffffffffffffffffffffffffffffffffffffffff82169050919050565b6000819050919050565b60005b8381101562001600578082015181840152602081019050620015e3565b8381111562001610576000848401525b50505050565b600060028204905060018216806200162f57607f821691505b60208210811415620016465762001645620016ff565b5b50919050565b62001657826200175d565b810181811067ffffffffffffffff821117156200167957620016786200172e565b5b80604052505050565b60006200168f82620015d6565b91507fffffffffffffffffffffffffffffffffffffffffffffffffffffffffffffffff821415620016c557620016c4620016d0565b5b600182019050919050565b7f4e487b7100000000000000000000000000000000000000000000000000000000600052601160045260246000fd5b7f4e487b7100000000000000000000000000000000000000000000000000000000600052602260045260246000fd5b7f4e487b7100000000000000000000000000000000000000000000000000000000600052604160045260246000fd5b6000601f19601f8301169050919050565b7f4552433732313a207472616e7366657220746f206e6f6e20455243373231526560008201527f63656976657220696d706c656d656e7465720000000000000000000000000000602082015250565b7f4552433732313a20746f6b656e20616c7265616479206d696e74656400000000600082015250565b7f4552433732313a2062616c616e636520717565727920666f7220746865207a6560008201527f726f206164647265737300000000000000000000000000000000000000000000602082015250565b7f4552433732313a206d696e7420746f20746865207a65726f2061646472657373600082015250565b7f4f776e61626c653a2063616c6c6572206973206e6f7420746865206f776e6572600082015250565b620018928162001576565b81146200189e57600080fd5b50565b620018ac816200158a565b8114620018b857600080fd5b50565b61483f80620018cb6000396000f3fe6080604052600436106102515760003560e01c80636352211e11610139578063ba7d2c76116100b6578063d9aa187c1161007a578063d9aa187c1461089b578063da3ef23f146108c4578063e985e9c5146108ed578063f2c4ce1e1461092a578063f2fde38b14610953578063f851a4401461097c57610251565b8063ba7d2c76146107b4578063c6682862146107df578063c87b56dd1461080a578063d0eb26b014610847578063d5abeb011461087057610251565b80638da5cb5b116100fd5780638da5cb5b146106f057806395d89b411461071b578063a0712d6814610746578063a22cb46514610762578063b88d4fde1461078b57610251565b80636352211e1461060b5780636c0360eb1461064857806370a0823114610673578063715018a6146106b05780637f00c7a6146106c757610251565b806323b872dd116101d257806342842e0e1161019657806342842e0e146104fd57806344a0d68a146105265780634f6ccce71461054f57806355f804b31461058c5780635c975abb146105b55780635fc20588146105e057610251565b806323b872dd146104245780632a55205a1461044d5780632f745c591461048b57806336fdefd4146104c85780633ccfd60b146104f357610251565b8063095ea7b311610219578063095ea7b31461034f57806313faede6146103785780631663ee03146103a357806318160ddd146103ce578063239c70ae146103f957610251565b806301ffc9a71461025657806302329a291461029357806306fdde03146102bc578063081812fc146102e7578063081c8c4414610324575b600080fd5b34801561026257600080fd5b5061027d600480360381019061027891906134eb565b6109a7565b60405161028a9190613b72565b60405180910390f35b34801561029f57600080fd5b506102ba60048036038101906102b591906134c2565b610a21565b005b3480156102c857600080fd5b506102d1610aba565b6040516102de9190613b8d565b60405180910390f35b3480156102f357600080fd5b5061030e6004803603810190610309919061357e565b610b4c565b60405161031b9190613aa5565b60405180910390f35b34801561033057600080fd5b50610339610bd1565b6040516103469190613b8d565b60405180910390f35b34801561035b57600080fd5b5061037660048036038101906103719190613486565b610c5f565b005b34801561038457600080fd5b5061038d610d77565b60405161039a9190613def565b60405180910390f35b3480156103af57600080fd5b506103b8610d7d565b6040516103c59190613ac0565b60405180910390f35b3480156103da57600080fd5b506103e3610da3565b6040516103f09190613def565b60405180910390f35b34801561040557600080fd5b5061040e610db0565b60405161041b9190613def565b60405180910390f35b34801561043057600080fd5b5061044b60048036038101906104469190613380565b610db6565b005b34801561045957600080fd5b50610474600480360381019061046f91906135a7565b610e16565b604051610482929190613b27565b60405180910390f35b34801561049757600080fd5b506104b260048036038101906104ad9190613486565b610e62565b6040516104bf9190613def565b60405180910390f35b3480156104d457600080fd5b506104dd610f07565b6040516104ea9190613b50565b60405180910390f35b6104fb610fff565b005b34801561050957600080fd5b50610524600480360381019061051f9190613380565b6111c4565b005b34801561053257600080fd5b5061054d6004803603810190610548919061357e565b6111e4565b005b34801561055b57600080fd5b506105766004803603810190610571919061357e565b61126a565b6040516105839190613def565b60405180910390f35b34801561059857600080fd5b506105b360048036038101906105ae919061353d565b611301565b005b3480156105c157600080fd5b506105ca611397565b6040516105d79190613b72565b60405180910390f35b3480156105ec57600080fd5b506105f56113aa565b6040516106029190613def565b60405180910390f35b34801561061757600080fd5b50610632600480360381019061062d919061357e565b6113b0565b60405161063f9190613aa5565b60405180910390f35b34801561065457600080fd5b5061065d611462565b60405161066a9190613b8d565b60405180910390f35b34801561067f57600080fd5b5061069a6004803603810190610695919061331b565b6114f0565b6040516106a79190613def565b60405180910390f35b3480156106bc57600080fd5b506106c56115a8565b005b3480156106d357600080fd5b506106ee60048036038101906106e9919061357e565b611630565b005b3480156106fc57600080fd5b506107056116b6565b6040516107129190613aa5565b60405180910390f35b34801561072757600080fd5b506107306116e0565b60405161073d9190613b8d565b60405180910390f35b610760600480360381019061075b919061357e565b611772565b005b34801561076e57600080fd5b506107896004803603810190610784919061344a565b61185e565b005b34801561079757600080fd5b506107b260048036038101906107ad91906133cf565b6119df565b005b3480156107c057600080fd5b506107c9611a41565b6040516107d69190613def565b60405180910390f35b3480156107eb57600080fd5b506107f4611a47565b6040516108019190613b8d565b60405180910390f35b34801561081657600080fd5b50610831600480360381019061082c919061357e565b611ad5565b60405161083e9190613b8d565b60405180910390f35b34801561085357600080fd5b5061086e6004803603810190610869919061357e565b611b7f565b005b34801561087c57600080fd5b50610885611c05565b6040516108929190613def565b60405180910390f35b3480156108a757600080fd5b506108c260048036038101906108bd919061331b565b611c0b565b005b3480156108d057600080fd5b506108eb60048036038101906108e6919061353d565b611ccb565b005b3480156108f957600080fd5b50610914600480360381019061090f9190613344565b611d61565b6040516109219190613b72565b60405180910390f35b34801561093657600080fd5b50610951600480360381019061094c919061353d565b611df5565b005b34801561095f57600080fd5b5061097a6004803603810190610975919061331b565b611e8b565b005b34801561098857600080fd5b50610991611f83565b60405161099e9190613ac0565b60405180910390f35b60007f780e9d63000000000000000000000000000000000000000000000000000000007bffffffffffffffffffffffffffffffffffffffffffffffffffffffff1916827bffffffffffffffffffffffffffffffffffffffffffffffffffffffff19161480610a1a5750610a1982611fc1565b5b9050919050565b610a296120a3565b73ffffffffffffffffffffffffffffffffffffffff16610a476116b6565b73ffffffffffffffffffffffffffffffffffffffff1614610a9d576040517f08c379a0000000000000000000000000000000000000000000000000000000008152600401610a9490613d2f565b60405180910390fd5b80601360006101000a81548160ff02191690831515021790555050565b606060008054610ac99061410a565b80601f0160208091040260200160405190810160405280929190818152602001828054610af59061410a565b8015610b425780601f10610b1757610100808354040283529160200191610b42565b820191906000526020600020905b815481529060010190602001808311610b2557829003601f168201915b5050505050905090565b6000610b57826120ab565b610b96576040517f08c379a0000000000000000000000000000000000000000000000000000000008152600401610b8d90613d0f565b60405180910390fd5b6004600083815260200190815260200160002060009054906101000a900473ffffffffffffffffffffffffffffffffffffffff169050919050565b600d8054610bde9061410a565b80601f0160208091040260200160405190810160405280929190818152602001828054610c0a9061410a565b8015610c575780601f10610c2c57610100808354040283529160200191610c57565b820191906000526020600020905b815481529060010190602001808311610c3a57829003601f168201915b505050505081565b6000610c6a826113b0565b90508073ffffffffffffffffffffffffffffffffffffffff168373ffffffffffffffffffffffffffffffffffffffff161415610cdb576040517f08c379a0000000000000000000000000000000000000000000000000000000008152600401610cd290613d8f565b60405180910390fd5b8073ffffffffffffffffffffffffffffffffffffffff16610cfa6120a3565b73ffffffffffffffffffffffffffffffffffffffff161480610d295750610d2881610d236120a3565b611d61565b5b610d68576040517f08c379a0000000000000000000000000000000000000000000000000000000008152600401610d5f90613c8f565b60405180910390fd5b610d728383612117565b505050565b600e5481565b601460009054906101000a900473ffffffffffffffffffffffffffffffffffffffff1681565b6000600880549050905090565b60105481565b610dc7610dc16120a3565b826121d0565b610e06576040517f08c379a0000000000000000000000000000000000000000000000000000000008152600401610dfd90613daf565b60405180910390fd5b610e118383836122ae565b505050565b600080601460009054906101000a900473ffffffffffffffffffffffffffffffffffffffff1661271060125485610e4d9190613fb4565b610e579190613f83565b915091509250929050565b6000610e6d836114f0565b8210610eae576040517f08c379a0000000000000000000000000000000000000000000000000000000008152600401610ea590613baf565b60405180910390fd5b600660008473ffffffffffffffffffffffffffffffffffffffff1673ffffffffffffffffffffffffffffffffffffffff168152602001908152602001600020600083815260200190815260200160002054905092915050565b60606000610f14336114f0565b905060008167ffffffffffffffff811115610f58577f4e487b7100000000000000000000000000000000000000000000000000000000600052604160045260246000fd5b604051908082528060200260200182016040528015610f865781602001602082028036833780820191505090505b50905060005b82811015610ff657610f9e3382610e62565b828281518110610fd7577f4e487b7100000000000000000000000000000000000000000000000000000000600052603260045260246000fd5b6020026020010181815250508080610fee9061416d565b915050610f8c565b50809250505090565b6110076120a3565b73ffffffffffffffffffffffffffffffffffffffff166110256116b6565b73ffffffffffffffffffffffffffffffffffffffff161461107b576040517f08c379a000000000000000000000000000000000000000000000000000000000815260040161107290613d2f565b60405180910390fd5b60006110856116b6565b73ffffffffffffffffffffffffffffffffffffffff1660646005476110aa9190613fb4565b6110b49190613f83565b6040516110c090613a90565b60006040518083038185875af1925050503d80600081146110fd576040519150601f19603f3d011682016040523d82523d6000602084013e611102565b606091505b505090508061111057600080fd5b6000601360019054906101000a900473ffffffffffffffffffffffffffffffffffffffff1673ffffffffffffffffffffffffffffffffffffffff16606460054761115a9190613fb4565b6111649190613f83565b60405161117090613a90565b60006040518083038185875af1925050503d80600081146111ad576040519150601f19603f3d011682016040523d82523d6000602084013e6111b2565b606091505b50509050806111c057600080fd5b5050565b6111df838383604051806020016040528060008152506119df565b505050565b6111ec6120a3565b73ffffffffffffffffffffffffffffffffffffffff1661120a6116b6565b73ffffffffffffffffffffffffffffffffffffffff1614611260576040517f08c379a000000000000000000000000000000000000000000000000000000000815260040161125790613d2f565b60405180910390fd5b80600e8190555050565b6000611274610da3565b82106112b5576040517f08c379a00000000000000000000000000000000000000000000000000000000081526004016112ac90613dcf565b60405180910390fd5b600882815481106112ef577f4e487b7100000000000000000000000000000000000000000000000000000000600052603260045260246000fd5b90600052602060002001549050919050565b6113096120a3565b73ffffffffffffffffffffffffffffffffffffffff166113276116b6565b73ffffffffffffffffffffffffffffffffffffffff161461137d576040517f08c379a000000000000000000000000000000000000000000000000000000000815260040161137490613d2f565b60405180910390fd5b80600b908051906020019061139392919061313f565b5050565b601360009054906101000a900460ff1681565b60125481565b6000806002600084815260200190815260200160002060009054906101000a900473ffffffffffffffffffffffffffffffffffffffff169050600073ffffffffffffffffffffffffffffffffffffffff168173ffffffffffffffffffffffffffffffffffffffff161415611459576040517f08c379a000000000000000000000000000000000000000000000000000000000815260040161145090613ccf565b60405180910390fd5b80915050919050565b600b805461146f9061410a565b80601f016020809104026020016040519081016040528092919081815260200182805461149b9061410a565b80156114e85780601f106114bd576101008083540402835291602001916114e8565b820191906000526020600020905b8154815290600101906020018083116114cb57829003601f168201915b505050505081565b60008073ffffffffffffffffffffffffffffffffffffffff168273ffffffffffffffffffffffffffffffffffffffff161415611561576040517f08c379a000000000000000000000000000000000000000000000000000000000815260040161155890613caf565b60405180910390fd5b600360008373ffffffffffffffffffffffffffffffffffffffff1673ffffffffffffffffffffffffffffffffffffffff168152602001908152602001600020549050919050565b6115b06120a3565b73ffffffffffffffffffffffffffffffffffffffff166115ce6116b6565b73ffffffffffffffffffffffffffffffffffffffff1614611624576040517f08c379a000000000000000000000000000000000000000000000000000000000815260040161161b90613d2f565b60405180910390fd5b61162e600061250a565b565b6116386120a3565b73ffffffffffffffffffffffffffffffffffffffff166116566116b6565b73ffffffffffffffffffffffffffffffffffffffff16146116ac576040517f08c379a00000000000000000000000000000000000000000000000000000000081526004016116a390613d2f565b60405180910390fd5b8060108190555050565b6000600a60009054906101000a900473ffffffffffffffffffffffffffffffffffffffff16905090565b6060600180546116ef9061410a565b80601f016020809104026020016040519081016040528092919081815260200182805461171b9061410a565b80156117685780601f1061173d57610100808354040283529160200191611768565b820191906000526020600020905b81548152906001019060200180831161174b57829003601f168201915b5050505050905090565b601360009054906101000a900460ff161561178c57600080fd5b6000611796610da3565b9050600082116117a557600080fd5b6010548211156117b457600080fd5b600f5482826117c39190613f2d565b11156117ce57600080fd5b6117d66116b6565b73ffffffffffffffffffffffffffffffffffffffff163373ffffffffffffffffffffffffffffffffffffffff16146118235781600e546118169190613fb4565b34101561182257600080fd5b5b6000600190505b828111611859576118463382846118419190613f2d565b6125d0565b80806118519061416d565b91505061182a565b505050565b6118666120a3565b73ffffffffffffffffffffffffffffffffffffffff168273ffffffffffffffffffffffffffffffffffffffff1614156118d4576040517f08c379a00000000000000000000000000000000000000000000000000000000081526004016118cb90613c4f565b60405180910390fd5b80600560006118e16120a3565b73ffffffffffffffffffffffffffffffffffffffff1673ffffffffffffffffffffffffffffffffffffffff16815260200190815260200160002060008473ffffffffffffffffffffffffffffffffffffffff1673ffffffffffffffffffffffffffffffffffffffff16815260200190815260200160002060006101000a81548160ff0219169083151502179055508173ffffffffffffffffffffffffffffffffffffffff1661198e6120a3565b73ffffffffffffffffffffffffffffffffffffffff167f17307eab39ab6107e8899845ad3d59bd9653f200f220920489ca2b5937696c31836040516119d39190613b72565b60405180910390a35050565b6119f06119ea6120a3565b836121d0565b611a2f576040517f08c379a0000000000000000000000000000000000000000000000000000000008152600401611a2690613daf565b60405180910390fd5b611a3b848484846125ee565b50505050565b60115481565b600c8054611a549061410a565b80601f0160208091040260200160405190810160405280929190818152602001828054611a809061410a565b8015611acd5780601f10611aa257610100808354040283529160200191611acd565b820191906000526020600020905b815481529060010190602001808311611ab057829003601f168201915b505050505081565b6060611ae0826120ab565b611b1f576040517f08c379a0000000000000000000000000000000000000000000000000000000008152600401611b1690613d6f565b60405180910390fd5b6000611b2961264a565b90506000815111611b495760405180602001604052806000815250611b77565b80611b53846126dc565b600c604051602001611b6793929190613a5f565b6040516020818303038152906040525b915050919050565b611b876120a3565b73ffffffffffffffffffffffffffffffffffffffff16611ba56116b6565b73ffffffffffffffffffffffffffffffffffffffff1614611bfb576040517f08c379a0000000000000000000000000000000000000000000000000000000008152600401611bf290613d2f565b60405180910390fd5b8060118190555050565b600f5481565b611c136120a3565b73ffffffffffffffffffffffffffffffffffffffff16611c316116b6565b73ffffffffffffffffffffffffffffffffffffffff1614611c87576040517f08c379a0000000000000000000000000000000000000000000000000000000008152600401611c7e90613d2f565b60405180910390fd5b80601460006101000a81548173ffffffffffffffffffffffffffffffffffffffff021916908373ffffffffffffffffffffffffffffffffffffffff16021790555050565b611cd36120a3565b73ffffffffffffffffffffffffffffffffffffffff16611cf16116b6565b73ffffffffffffffffffffffffffffffffffffffff1614611d47576040517f08c379a0000000000000000000000000000000000000000000000000000000008152600401611d3e90613d2f565b60405180910390fd5b80600c9080519060200190611d5d92919061313f565b5050565b6000600560008473ffffffffffffffffffffffffffffffffffffffff1673ffffffffffffffffffffffffffffffffffffffff16815260200190815260200160002060008373ffffffffffffffffffffffffffffffffffffffff1673ffffffffffffffffffffffffffffffffffffffff16815260200190815260200160002060009054906101000a900460ff16905092915050565b611dfd6120a3565b73ffffffffffffffffffffffffffffffffffffffff16611e1b6116b6565b73ffffffffffffffffffffffffffffffffffffffff1614611e71576040517f08c379a0000000000000000000000000000000000000000000000000000000008152600401611e6890613d2f565b60405180910390fd5b80600d9080519060200190611e8792919061313f565b5050565b611e936120a3565b73ffffffffffffffffffffffffffffffffffffffff16611eb16116b6565b73ffffffffffffffffffffffffffffffffffffffff1614611f07576040517f08c379a0000000000000000000000000000000000000000000000000000000008152600401611efe90613d2f565b60405180910390fd5b600073ffffffffffffffffffffffffffffffffffffffff168173ffffffffffffffffffffffffffffffffffffffff161415611f77576040517f08c379a0000000000000000000000000000000000000000000000000000000008152600401611f6e90613bef565b60405180910390fd5b611f808161250a565b50565b601360019054906101000a900473ffffffffffffffffffffffffffffffffffffffff1681565b600080823b905060008111915050919050565b505050565b60007f80ac58cd000000000000000000000000000000000000000000000000000000007bffffffffffffffffffffffffffffffffffffffffffffffffffffffff1916827bffffffffffffffffffffffffffffffffffffffffffffffffffffffff1916148061208c57507f5b5e139f000000000000000000000000000000000000000000000000000000007bffffffffffffffffffffffffffffffffffffffffffffffffffffffff1916827bffffffffffffffffffffffffffffffffffffffffffffffffffffffff1916145b8061209c575061209b82612889565b5b9050919050565b600033905090565b60008073ffffffffffffffffffffffffffffffffffffffff166002600084815260200190815260200160002060009054906101000a900473ffffffffffffffffffffffffffffffffffffffff1673ffffffffffffffffffffffffffffffffffffffff1614159050919050565b816004600083815260200190815260200160002060006101000a81548173ffffffffffffffffffffffffffffffffffffffff021916908373ffffffffffffffffffffffffffffffffffffffff160217905550808273ffffffffffffffffffffffffffffffffffffffff1661218a836113b0565b73ffffffffffffffffffffffffffffffffffffffff167f8c5be1e5ebec7d5bd14f71427d1e84f3dd0314c0f7b2291e5b200ac8c7c3b92560405160405180910390a45050565b60006121db826120ab565b61221a576040517f08c379a000000000000000000000000000000000000000000000000000000000815260040161221190613c6f565b60405180910390fd5b6000612225836113b0565b90508073ffffffffffffffffffffffffffffffffffffffff168473ffffffffffffffffffffffffffffffffffffffff16148061229457508373ffffffffffffffffffffffffffffffffffffffff1661227c84610b4c565b73ffffffffffffffffffffffffffffffffffffffff16145b806122a557506122a48185611d61565b5b91505092915050565b8273ffffffffffffffffffffffffffffffffffffffff166122ce826113b0565b73ffffffffffffffffffffffffffffffffffffffff1614612324576040517f08c379a000000000000000000000000000000000000000000000000000000000815260040161231b90613d4f565b60405180910390fd5b600073ffffffffffffffffffffffffffffffffffffffff168273ffffffffffffffffffffffffffffffffffffffff161415612394576040517f08c379a000000000000000000000000000000000000000000000000000000000815260040161238b90613c2f565b60405180910390fd5b61239f8383836128f3565b6123aa600082612117565b6001600360008573ffffffffffffffffffffffffffffffffffffffff1673ffffffffffffffffffffffffffffffffffffffff16815260200190815260200160002060008282546123fa919061400e565b925050819055506001600360008473ffffffffffffffffffffffffffffffffffffffff1673ffffffffffffffffffffffffffffffffffffffff16815260200190815260200160002060008282546124519190613f2d565b92505081905550816002600083815260200190815260200160002060006101000a81548173ffffffffffffffffffffffffffffffffffffffff021916908373ffffffffffffffffffffffffffffffffffffffff160217905550808273ffffffffffffffffffffffffffffffffffffffff168473ffffffffffffffffffffffffffffffffffffffff167fddf252ad1be2c89b69c2b068fc378daa952ba7f163c4a11628f55a4df523b3ef60405160405180910390a4505050565b6000600a60009054906101000a900473ffffffffffffffffffffffffffffffffffffffff16905081600a60006101000a81548173ffffffffffffffffffffffffffffffffffffffff021916908373ffffffffffffffffffffffffffffffffffffffff1602179055508173ffffffffffffffffffffffffffffffffffffffff168173ffffffffffffffffffffffffffffffffffffffff167f8be0079c531659141344cd1fd0a4f28419497f9722a3daafe3b4186f6b6457e060405160405180910390a35050565b6125ea828260405180602001604052806000815250612a07565b5050565b6125f98484846122ae565b61260584848484612a62565b612644576040517f08c379a000000000000000000000000000000000000000000000000000000000815260040161263b90613bcf565b60405180910390fd5b50505050565b6060600b80546126599061410a565b80601f01602080910402602001604051908101604052809291908181526020018280546126859061410a565b80156126d25780601f106126a7576101008083540402835291602001916126d2565b820191906000526020600020905b8154815290600101906020018083116126b557829003601f168201915b5050505050905090565b60606000821415612724576040518060400160405280600181526020017f30000000000000000000000000000000000000000000000000000000000000008152509050612884565b600082905060005b6000821461275657808061273f9061416d565b915050600a8261274f9190613f83565b915061272c565b60008167ffffffffffffffff811115612798577f4e487b7100000000000000000000000000000000000000000000000000000000600052604160045260246000fd5b6040519080825280601f01601f1916602001820160405280156127ca5781602001600182028036833780820191505090505b5090505b6000851461287d576001826127e3919061400e565b9150600a856127f291906141b6565b60306127fe9190613f2d565b60f81b81838151811061283a577f4e487b7100000000000000000000000000000000000000000000000000000000600052603260045260246000fd5b60200101907effffffffffffffffffffffffffffffffffffffffffffffffffffffffffffff1916908160001a905350600a856128769190613f83565b94506127ce565b8093505050505b919050565b60007f01ffc9a7000000000000000000000000000000000000000000000000000000007bffffffffffffffffffffffffffffffffffffffffffffffffffffffff1916827bffffffffffffffffffffffffffffffffffffffffffffffffffffffff1916149050919050565b6128fe838383611fbc565b600073ffffffffffffffffffffffffffffffffffffffff168373ffffffffffffffffffffffffffffffffffffffff1614156129415761293c81612bf9565b612980565b8173ffffffffffffffffffffffffffffffffffffffff168373ffffffffffffffffffffffffffffffffffffffff161461297f5761297e8382612c42565b5b5b600073ffffffffffffffffffffffffffffffffffffffff168273ffffffffffffffffffffffffffffffffffffffff1614156129c3576129be81612daf565b612a02565b8273ffffffffffffffffffffffffffffffffffffffff168273ffffffffffffffffffffffffffffffffffffffff1614612a0157612a008282612ef2565b5b5b505050565b612a118383612f71565b612a1e6000848484612a62565b612a5d576040517f08c379a0000000000000000000000000000000000000000000000000000000008152600401612a5490613bcf565b60405180910390fd5b505050565b6000612a838473ffffffffffffffffffffffffffffffffffffffff16611fa9565b15612bec578373ffffffffffffffffffffffffffffffffffffffff1663150b7a02612aac6120a3565b8786866040518563ffffffff1660e01b8152600401612ace9493929190613adb565b602060405180830381600087803b158015612ae857600080fd5b505af1925050508015612b1957506040513d601f19601f82011682018060405250810190612b169190613514565b60015b612b9c573d8060008114612b49576040519150601f19603f3d011682016040523d82523d6000602084013e612b4e565b606091505b50600081511415612b94576040517f08c379a0000000000000000000000000000000000000000000000000000000008152600401612b8b90613bcf565b60405180910390fd5b805181602001fd5b63150b7a0260e01b7bffffffffffffffffffffffffffffffffffffffffffffffffffffffff1916817bffffffffffffffffffffffffffffffffffffffffffffffffffffffff191614915050612bf1565b600190505b949350505050565b6008805490506009600083815260200190815260200160002081905550600881908060018154018082558091505060019003906000526020600020016000909190919091505550565b60006001612c4f846114f0565b612c59919061400e565b9050600060076000848152602001908152602001600020549050818114612d3e576000600660008673ffffffffffffffffffffffffffffffffffffffff1673ffffffffffffffffffffffffffffffffffffffff168152602001908152602001600020600084815260200190815260200160002054905080600660008773ffffffffffffffffffffffffffffffffffffffff1673ffffffffffffffffffffffffffffffffffffffff168152602001908152602001600020600084815260200190815260200160002081905550816007600083815260200190815260200160002081905550505b6007600084815260200190815260200160002060009055600660008573ffffffffffffffffffffffffffffffffffffffff1673ffffffffffffffffffffffffffffffffffffffff16815260200190815260200160002060008381526020019081526020016000206000905550505050565b60006001600880549050612dc3919061400e565b9050600060096000848152602001908152602001600020549050600060088381548110612e19577f4e487b7100000000000000000000000000000000000000000000000000000000600052603260045260246000fd5b906000526020600020015490508060088381548110612e61577f4e487b7100000000000000000000000000000000000000000000000000000000600052603260045260246000fd5b906000526020600020018190555081600960008381526020019081526020016000208190555060096000858152602001908152602001600020600090556008805480612ed6577f4e487b7100000000000000000000000000000000000000000000000000000000600052603160045260246000fd5b6001900381819060005260206000200160009055905550505050565b6000612efd836114f0565b905081600660008573ffffffffffffffffffffffffffffffffffffffff1673ffffffffffffffffffffffffffffffffffffffff168152602001908152602001600020600083815260200190815260200160002081905550806007600084815260200190815260200160002081905550505050565b600073ffffffffffffffffffffffffffffffffffffffff168273ffffffffffffffffffffffffffffffffffffffff161415612fe1576040517f08c379a0000000000000000000000000000000000000000000000000000000008152600401612fd890613cef565b60405180910390fd5b612fea816120ab565b1561302a576040517f08c379a000000000000000000000000000000000000000000000000000000000815260040161302190613c0f565b60405180910390fd5b613036600083836128f3565b6001600360008473ffffffffffffffffffffffffffffffffffffffff1673ffffffffffffffffffffffffffffffffffffffff16815260200190815260200160002060008282546130869190613f2d565b92505081905550816002600083815260200190815260200160002060006101000a81548173ffffffffffffffffffffffffffffffffffffffff021916908373ffffffffffffffffffffffffffffffffffffffff160217905550808273ffffffffffffffffffffffffffffffffffffffff16600073ffffffffffffffffffffffffffffffffffffffff167fddf252ad1be2c89b69c2b068fc378daa952ba7f163c4a11628f55a4df523b3ef60405160405180910390a45050565b82805461314b9061410a565b90600052602060002090601f01602090048101928261316d57600085556131b4565b82601f1061318657805160ff19168380011785556131b4565b828001600101855582156131b4579182015b828111156131b3578251825591602001919060010190613198565b5b5090506131c191906131c5565b5090565b5b808211156131de5760008160009055506001016131c6565b5090565b60006131f56131f084613e2f565b613e0a565b90508281526020810184848401111561320d57600080fd5b6132188482856140c8565b509392505050565b600061323361322e84613e60565b613e0a565b90508281526020810184848401111561324b57600080fd5b6132568482856140c8565b509392505050565b60008135905061326d816147ad565b92915050565b600081359050613282816147c4565b92915050565b600081359050613297816147db565b92915050565b6000815190506132ac816147db565b92915050565b600082601f8301126132c357600080fd5b81356132d38482602086016131e2565b91505092915050565b600082601f8301126132ed57600080fd5b81356132fd848260208601613220565b91505092915050565b600081359050613315816147f2565b92915050565b60006020828403121561332d57600080fd5b600061333b8482850161325e565b91505092915050565b6000806040838503121561335757600080fd5b60006133658582860161325e565b92505060206133768582860161325e565b9150509250929050565b60008060006060848603121561339557600080fd5b60006133a38682870161325e565b93505060206133b48682870161325e565b92505060406133c586828701613306565b9150509250925092565b600080600080608085870312156133e557600080fd5b60006133f38782880161325e565b94505060206134048782880161325e565b935050604061341587828801613306565b925050606085013567ffffffffffffffff81111561343257600080fd5b61343e878288016132b2565b91505092959194509250565b6000806040838503121561345d57600080fd5b600061346b8582860161325e565b925050602061347c85828601613273565b9150509250929050565b6000806040838503121561349957600080fd5b60006134a78582860161325e565b92505060206134b885828601613306565b9150509250929050565b6000602082840312156134d457600080fd5b60006134e284828501613273565b91505092915050565b6000602082840312156134fd57600080fd5b600061350b84828501613288565b91505092915050565b60006020828403121561352657600080fd5b60006135348482850161329d565b91505092915050565b60006020828403121561354f57600080fd5b600082013567ffffffffffffffff81111561356957600080fd5b613575848285016132dc565b91505092915050565b60006020828403121561359057600080fd5b600061359e84828501613306565b91505092915050565b600080604083850312156135ba57600080fd5b60006135c885828601613306565b92505060206135d985828601613306565b9150509250929050565b60006135ef8383613a41565b60208301905092915050565b61360481614054565b82525050565b61361381614042565b82525050565b600061362482613eb6565b61362e8185613ee4565b935061363983613e91565b8060005b8381101561366a57815161365188826135e3565b975061365c83613ed7565b92505060018101905061363d565b5085935050505092915050565b61368081614066565b82525050565b600061369182613ec1565b61369b8185613ef5565b93506136ab8185602086016140d7565b6136b4816142a3565b840191505092915050565b60006136ca82613ecc565b6136d48185613f11565b93506136e48185602086016140d7565b6136ed816142a3565b840191505092915050565b600061370382613ecc565b61370d8185613f22565b935061371d8185602086016140d7565b80840191505092915050565b600081546137368161410a565b6137408186613f22565b9450600182166000811461375b576001811461376c5761379f565b60ff1983168652818601935061379f565b61377585613ea1565b60005b8381101561379757815481890152600182019150602081019050613778565b838801955050505b50505092915050565b60006137b5602b83613f11565b91506137c0826142b4565b604082019050919050565b60006137d8603283613f11565b91506137e382614303565b604082019050919050565b60006137fb602683613f11565b915061380682614352565b604082019050919050565b600061381e601c83613f11565b9150613829826143a1565b602082019050919050565b6000613841602483613f11565b915061384c826143ca565b604082019050919050565b6000613864601983613f11565b915061386f82614419565b602082019050919050565b6000613887602c83613f11565b915061389282614442565b604082019050919050565b60006138aa603883613f11565b91506138b582614491565b604082019050919050565b60006138cd602a83613f11565b91506138d8826144e0565b604082019050919050565b60006138f0602983613f11565b91506138fb8261452f565b604082019050919050565b6000613913602083613f11565b915061391e8261457e565b602082019050919050565b6000613936602c83613f11565b9150613941826145a7565b604082019050919050565b6000613959602083613f11565b9150613964826145f6565b602082019050919050565b600061397c602983613f11565b91506139878261461f565b604082019050919050565b600061399f602f83613f11565b91506139aa8261466e565b604082019050919050565b60006139c2602183613f11565b91506139cd826146bd565b604082019050919050565b60006139e5600083613f06565b91506139f08261470c565b600082019050919050565b6000613a08603183613f11565b9150613a138261470f565b604082019050919050565b6000613a2b602c83613f11565b9150613a368261475e565b604082019050919050565b613a4a816140be565b82525050565b613a59816140be565b82525050565b6000613a6b82866136f8565b9150613a7782856136f8565b9150613a838284613729565b9150819050949350505050565b6000613a9b826139d8565b9150819050919050565b6000602082019050613aba600083018461360a565b92915050565b6000602082019050613ad560008301846135fb565b92915050565b6000608082019050613af0600083018761360a565b613afd602083018661360a565b613b0a6040830185613a50565b8181036060830152613b1c8184613686565b905095945050505050565b6000604082019050613b3c600083018561360a565b613b496020830184613a50565b9392505050565b60006020820190508181036000830152613b6a8184613619565b905092915050565b6000602082019050613b876000830184613677565b92915050565b60006020820190508181036000830152613ba781846136bf565b905092915050565b60006020820190508181036000830152613bc8816137a8565b9050919050565b60006020820190508181036000830152613be8816137cb565b9050919050565b60006020820190508181036000830152613c08816137ee565b9050919050565b60006020820190508181036000830152613c2881613811565b9050919050565b60006020820190508181036000830152613c4881613834565b9050919050565b60006020820190508181036000830152613c6881613857565b9050919050565b60006020820190508181036000830152613c888161387a565b9050919050565b60006020820190508181036000830152613ca88161389d565b9050919050565b60006020820190508181036000830152613cc8816138c0565b9050919050565b60006020820190508181036000830152613ce8816138e3565b9050919050565b60006020820190508181036000830152613d0881613906565b9050919050565b60006020820190508181036000830152613d2881613929565b9050919050565b60006020820190508181036000830152613d488161394c565b9050919050565b60006020820190508181036000830152613d688161396f565b9050919050565b60006020820190508181036000830152613d8881613992565b9050919050565b60006020820190508181036000830152613da8816139b5565b9050919050565b60006020820190508181036000830152613dc8816139fb565b9050919050565b60006020820190508181036000830152613de881613a1e565b9050919050565b6000602082019050613e046000830184613a50565b92915050565b6000613e14613e25565b9050613e20828261413c565b919050565b6000604051905090565b600067ffffffffffffffff821115613e4a57613e49614274565b5b613e53826142a3565b9050602081019050919050565b600067ffffffffffffffff821115613e7b57613e7a614274565b5b613e84826142a3565b9050602081019050919050565b6000819050602082019050919050565b60008190508160005260206000209050919050565b600081519050919050565b600081519050919050565b600081519050919050565b6000602082019050919050565b600082825260208201905092915050565b600082825260208201905092915050565b600081905092915050565b600082825260208201905092915050565b600081905092915050565b6000613f38826140be565b9150613f43836140be565b9250827fffffffffffffffffffffffffffffffffffffffffffffffffffffffffffffffff03821115613f7857613f776141e7565b5b828201905092915050565b6000613f8e826140be565b9150613f99836140be565b925082613fa957613fa8614216565b5b828204905092915050565b6000613fbf826140be565b9150613fca836140be565b9250817fffffffffffffffffffffffffffffffffffffffffffffffffffffffffffffffff0483118215151615614003576140026141e7565b5b828202905092915050565b6000614019826140be565b9150614024836140be565b925082821015614037576140366141e7565b5b828203905092915050565b600061404d8261409e565b9050919050565b600061405f8261409e565b9050919050565b60008115159050919050565b60007fffffffff0000000000000000000000000000000000000000000000000000000082169050919050565b600073ffffffffffffffffffffffffffffffffffffffff82169050919050565b6000819050919050565b82818337600083830152505050565b60005b838110156140f55780820151818401526020810190506140da565b83811115614104576000848401525b50505050565b6000600282049050600182168061412257607f821691505b6020821081141561413657614135614245565b5b50919050565b614145826142a3565b810181811067ffffffffffffffff8211171561416457614163614274565b5b80604052505050565b6000614178826140be565b91507fffffffffffffffffffffffffffffffffffffffffffffffffffffffffffffffff8214156141ab576141aa6141e7565b5b600182019050919050565b60006141c1826140be565b91506141cc836140be565b9250826141dc576141db614216565b5b828206905092915050565b7f4e487b7100000000000000000000000000000000000000000000000000000000600052601160045260246000fd5b7f4e487b7100000000000000000000000000000000000000000000000000000000600052601260045260246000fd5b7f4e487b7100000000000000000000000000000000000000000000000000000000600052602260045260246000fd5b7f4e487b7100000000000000000000000000000000000000000000000000000000600052604160045260246000fd5b6000601f19601f8301169050919050565b7f455243373231456e756d657261626c653a206f776e657220696e646578206f7560008201527f74206f6620626f756e6473000000000000000000000000000000000000000000602082015250565b7f4552433732313a207472616e7366657220746f206e6f6e20455243373231526560008201527f63656976657220696d706c656d656e7465720000000000000000000000000000602082015250565b7f4f776e61626c653a206e6577206f776e657220697320746865207a65726f206160008201527f6464726573730000000000000000000000000000000000000000000000000000602082015250565b7f4552433732313a20746f6b656e20616c7265616479206d696e74656400000000600082015250565b7f4552433732313a207472616e7366657220746f20746865207a65726f2061646460008201527f7265737300000000000000000000000000000000000000000000000000000000602082015250565b7f4552433732313a20617070726f766520746f2063616c6c657200000000000000600082015250565b7f4552433732313a206f70657261746f7220717565727920666f72206e6f6e657860008201527f697374656e7420746f6b656e0000000000000000000000000000000000000000602082015250565b7f4552433732313a20617070726f76652063616c6c6572206973206e6f74206f7760008201527f6e6572206e6f7220617070726f76656420666f7220616c6c0000000000000000602082015250565b7f4552433732313a2062616c616e636520717565727920666f7220746865207a6560008201527f726f206164647265737300000000000000000000000000000000000000000000602082015250565b7f4552433732313a206f776e657220717565727920666f72206e6f6e657869737460008201527f656e7420746f6b656e0000000000000000000000000000000000000000000000602082015250565b7f4552433732313a206d696e7420746f20746865207a65726f2061646472657373600082015250565b7f4552433732313a20617070726f76656420717565727920666f72206e6f6e657860008201527f697374656e7420746f6b656e0000000000000000000000000000000000000000602082015250565b7f4f776e61626c653a2063616c6c6572206973206e6f7420746865206f776e6572600082015250565b7f4552433732313a207472616e73666572206f6620746f6b656e2074686174206960008201527f73206e6f74206f776e0000000000000000000000000000000000000000000000602082015250565b7f4552433732314d657461646174613a2055524920717565727920666f72206e6f60008201527f6e6578697374656e7420746f6b656e0000000000000000000000000000000000602082015250565b7f4552433732313a20617070726f76616c20746f2063757272656e74206f776e6560008201527f7200000000000000000000000000000000000000000000000000000000000000602082015250565b50565b7f4552433732313a207472616e736665722063616c6c6572206973206e6f74206f60008201527f776e6572206e6f7220617070726f766564000000000000000000000000000000602082015250565b7f455243373231456e756d657261626c653a20676c6f62616c20696e646578206f60008201527f7574206f6620626f756e64730000000000000000000000000000000000000000602082015250565b6147b681614042565b81146147c157600080fd5b50565b6147cd81614066565b81146147d857600080fd5b50565b6147e481614072565b81146147ef57600080fd5b50565b6147fb816140be565b811461480657600080fd5b5056fea2646970667358221220a8a87a8df34c373510ba14e6768ec6dde26aac796650e95831d8ed3ee056b35264736f6c63430008040033",
  "linkReferences": {},
  "deployedLinkReferences": {}
}