{
  "_format": "hh-sol-artifact-1",
  "contractName": "KnivesLegacy",
  "sourceName": "contracts/KnivesLegacy.sol",
  "abi": [
    {
      "inputs": [
        {
          "internalType": "string",
          "name": "_name",
          "type": "string"
        },
        {
          "internalType": "string",
          "name": "_symbol",
          "type": "string"
        },
        {
          "internalType": "string",
          "name": "_initBaseURI",
          "type": "string"
        },
        {
          "internalType": "address",
          "name": "_admin",
          "type": "address"
        }
      ],
      "stateMutability": "nonpayable",
      "type": "constructor"
    },
    {
      "anonymous": false,
      "inputs": [
        {
          "indexed": true,
          "internalType": "address",
          "name": "owner",
          "type": "address"
        },
        {
          "indexed": true,
          "internalType": "address",
          "name": "approved",
          "type": "address"
        },
        {
          "indexed": true,
          "internalType": "uint256",
          "name": "tokenId",
          "type": "uint256"
        }
      ],
      "name": "Approval",
      "type": "event"
    },
    {
      "anonymous": false,
      "inputs": [
        {
          "indexed": true,
          "internalType": "address",
          "name": "owner",
          "type": "address"
        },
        {
          "indexed": true,
          "internalType": "address",
          "name": "operator",
          "type": "address"
        },
        {
          "indexed": false,
          "internalType": "bool",
          "name": "approved",
          "type": "bool"
        }
      ],
      "name": "ApprovalForAll",
      "type": "event"
    },
    {
      "anonymous": false,
      "inputs": [
        {
          "indexed": true,
          "internalType": "address",
          "name": "previousOwner",
          "type": "address"
        },
        {
          "indexed": true,
          "internalType": "address",
          "name": "newOwner",
          "type": "address"
        }
      ],
      "name": "OwnershipTransferred",
      "type": "event"
    },
    {
      "anonymous": false,
      "inputs": [
        {
          "indexed": true,
          "internalType": "address",
          "name": "from",
          "type": "address"
        },
        {
          "indexed": true,
          "internalType": "address",
          "name": "to",
          "type": "address"
        },
        {
          "indexed": true,
          "internalType": "uint256",
          "name": "tokenId",
          "type": "uint256"
        }
      ],
      "name": "Transfer",
      "type": "event"
    },
    {
      "inputs": [],
      "name": "admin",
      "outputs": [
        {
          "internalType": "address payable",
          "name": "",
          "type": "address"
        }
      ],
      "stateMutability": "view",
      "type": "function"
    },
    {
      "inputs": [],
      "name": "adminShare",
      "outputs": [
        {
          "internalType": "uint256",
          "name": "",
          "type": "uint256"
        }
      ],
      "stateMutability": "view",
      "type": "function"
    },
    {
      "inputs": [
        {
          "internalType": "address",
          "name": "to",
          "type": "address"
        },
        {
          "internalType": "uint256",
          "name": "tokenId",
          "type": "uint256"
        }
      ],
      "name": "approve",
      "outputs": [],
      "stateMutability": "nonpayable",
      "type": "function"
    },
    {
      "inputs": [
        {
          "internalType": "address",
          "name": "owner",
          "type": "address"
        }
      ],
      "name": "balanceOf",
      "outputs": [
        {
          "internalType": "uint256",
          "name": "",
          "type": "uint256"
        }
      ],
      "stateMutability": "view",
      "type": "function"
    },
    {
      "inputs": [],
      "name": "baseExtension",
      "outputs": [
        {
          "internalType": "string",
          "name": "",
          "type": "string"
        }
      ],
      "stateMutability": "view",
      "type": "function"
    },
    {
      "inputs": [],
      "name": "baseURI",
      "outputs": [
        {
          "internalType": "string",
          "name": "",
          "type": "string"
        }
      ],
      "stateMutability": "view",
      "type": "function"
    },
    {
      "inputs": [
        {
          "internalType": "uint256",
          "name": "",
          "type": "uint256"
        }
      ],
      "name": "cache",
      "outputs": [
        {
          "internalType": "uint256",
          "name": "",
          "type": "uint256"
        }
      ],
      "stateMutability": "view",
      "type": "function"
    },
    {
      "inputs": [],
      "name": "cost",
      "outputs": [
        {
          "internalType": "uint256",
          "name": "",
          "type": "uint256"
        }
      ],
      "stateMutability": "view",
      "type": "function"
    },
    {
      "inputs": [],
      "name": "devShare",
      "outputs": [
        {
          "internalType": "uint256",
          "name": "",
          "type": "uint256"
        }
      ],
      "stateMutability": "view",
      "type": "function"
    },
    {
      "inputs": [
        {
          "internalType": "uint256",
          "name": "tokenId",
          "type": "uint256"
        }
      ],
      "name": "getApproved",
      "outputs": [
        {
          "internalType": "address",
          "name": "",
          "type": "address"
        }
      ],
      "stateMutability": "view",
      "type": "function"
    },
    {
      "inputs": [
        {
          "internalType": "address",
          "name": "owner",
          "type": "address"
        },
        {
          "internalType": "address",
          "name": "operator",
          "type": "address"
        }
      ],
      "name": "isApprovedForAll",
      "outputs": [
        {
          "internalType": "bool",
          "name": "",
          "type": "bool"
        }
      ],
      "stateMutability": "view",
      "type": "function"
    },
    {
      "inputs": [],
      "name": "maxMintAmount",
      "outputs": [
        {
          "internalType": "uint256",
          "name": "",
          "type": "uint256"
        }
      ],
      "stateMutability": "view",
      "type": "function"
    },
    {
      "inputs": [],
      "name": "maxSupply",
      "outputs": [
        {
          "internalType": "uint256",
          "name": "",
          "type": "uint256"
        }
      ],
      "stateMutability": "view",
      "type": "function"
    },
    {
      "inputs": [
        {
          "internalType": "uint256",
          "name": "_mintAmount",
          "type": "uint256"
        }
      ],
      "name": "mint",
      "outputs": [],
      "stateMutability": "payable",
      "type": "function"
    },
    {
      "inputs": [],
      "name": "name",
      "outputs": [
        {
          "internalType": "string",
          "name": "",
          "type": "string"
        }
      ],
      "stateMutability": "view",
      "type": "function"
    },
    {
      "inputs": [],
      "name": "owner",
      "outputs": [
        {
          "internalType": "address",
          "name": "",
          "type": "address"
        }
      ],
      "stateMutability": "view",
      "type": "function"
    },
    {
      "inputs": [
        {
          "internalType": "uint256",
          "name": "tokenId",
          "type": "uint256"
        }
      ],
      "name": "ownerOf",
      "outputs": [
        {
          "internalType": "address",
          "name": "",
          "type": "address"
        }
      ],
      "stateMutability": "view",
      "type": "function"
    },
    {
      "inputs": [
        {
          "internalType": "bool",
          "name": "_state",
          "type": "bool"
        }
      ],
      "name": "pause",
      "outputs": [],
      "stateMutability": "nonpayable",
      "type": "function"
    },
    {
      "inputs": [],
      "name": "paused",
      "outputs": [
        {
          "internalType": "bool",
          "name": "",
          "type": "bool"
        }
      ],
      "stateMutability": "view",
      "type": "function"
    },
    {
      "inputs": [],
      "name": "renounceOwnership",
      "outputs": [],
      "stateMutability": "nonpayable",
      "type": "function"
    },
    {
      "inputs": [],
      "name": "royaltyContract",
      "outputs": [
        {
          "internalType": "address payable",
          "name": "",
          "type": "address"
        }
      ],
      "stateMutability": "view",
      "type": "function"
    },
    {
      "inputs": [
        {
          "internalType": "uint256",
          "name": "tokenId",
          "type": "uint256"
        },
        {
          "internalType": "uint256",
          "name": "value",
          "type": "uint256"
        }
      ],
      "name": "royaltyInfo",
      "outputs": [
        {
          "internalType": "address",
          "name": "receiver",
          "type": "address"
        },
        {
          "internalType": "uint256",
          "name": "royaltyAmount",
          "type": "uint256"
        }
      ],
      "stateMutability": "view",
      "type": "function"
    },
    {
      "inputs": [],
      "name": "royaltyValue",
      "outputs": [
        {
          "internalType": "uint256",
          "name": "",
          "type": "uint256"
        }
      ],
      "stateMutability": "view",
      "type": "function"
    },
    {
      "inputs": [
        {
          "internalType": "address",
          "name": "from",
          "type": "address"
        },
        {
          "internalType": "address",
          "name": "to",
          "type": "address"
        },
        {
          "internalType": "uint256",
          "name": "tokenId",
          "type": "uint256"
        }
      ],
      "name": "safeTransferFrom",
      "outputs": [],
      "stateMutability": "nonpayable",
      "type": "function"
    },
    {
      "inputs": [
        {
          "internalType": "address",
          "name": "from",
          "type": "address"
        },
        {
          "internalType": "address",
          "name": "to",
          "type": "address"
        },
        {
          "internalType": "uint256",
          "name": "tokenId",
          "type": "uint256"
        },
        {
          "internalType": "bytes",
          "name": "_data",
          "type": "bytes"
        }
      ],
      "name": "safeTransferFrom",
      "outputs": [],
      "stateMutability": "nonpayable",
      "type": "function"
    },
    {
      "inputs": [
        {
          "internalType": "address",
          "name": "_admin",
          "type": "address"
        }
      ],
      "name": "setAdmin",
      "outputs": [],
      "stateMutability": "nonpayable",
      "type": "function"
    },
    {
      "inputs": [
        {
          "internalType": "uint256",
          "name": "_adminShare",
          "type": "uint256"
        }
      ],
      "name": "setAdminShare",
      "outputs": [],
      "stateMutability": "nonpayable",
      "type": "function"
    },
    {
      "inputs": [
        {
          "internalType": "address",
          "name": "operator",
          "type": "address"
        },
        {
          "internalType": "bool",
          "name": "approved",
          "type": "bool"
        }
      ],
      "name": "setApprovalForAll",
      "outputs": [],
      "stateMutability": "nonpayable",
      "type": "function"
    },
    {
      "inputs": [
        {
          "internalType": "string",
          "name": "_newBaseExtension",
          "type": "string"
        }
      ],
      "name": "setBaseExtension",
      "outputs": [],
      "stateMutability": "nonpayable",
      "type": "function"
    },
    {
      "inputs": [
        {
          "internalType": "string",
          "name": "_newBaseURI",
          "type": "string"
        }
      ],
      "name": "setBaseURI",
      "outputs": [],
      "stateMutability": "nonpayable",
      "type": "function"
    },
    {
      "inputs": [
        {
          "internalType": "uint256",
          "name": "_newCost",
          "type": "uint256"
        }
      ],
      "name": "setCost",
      "outputs": [],
      "stateMutability": "nonpayable",
      "type": "function"
    },
    {
      "inputs": [
        {
          "internalType": "uint256",
          "name": "_devShare",
          "type": "uint256"
        }
      ],
      "name": "setDevShare",
      "outputs": [],
      "stateMutability": "nonpayable",
      "type": "function"
    },
    {
      "inputs": [
        {
          "internalType": "address",
          "name": "_royaltyContract",
          "type": "address"
        }
      ],
      "name": "setRoyaltyContract",
      "outputs": [],
      "stateMutability": "nonpayable",
      "type": "function"
    },
    {
      "inputs": [
        {
          "internalType": "uint256",
          "name": "_royaltyValue",
          "type": "uint256"
        }
      ],
      "name": "setRoyaltyValue",
      "outputs": [],
      "stateMutability": "nonpayable",
      "type": "function"
    },
    {
      "inputs": [
        {
          "internalType": "uint256",
          "name": "_newmaxMintAmount",
          "type": "uint256"
        }
      ],
      "name": "setmaxMintAmount",
      "outputs": [],
      "stateMutability": "nonpayable",
      "type": "function"
    },
    {
      "inputs": [
        {
          "internalType": "bytes4",
          "name": "interfaceId",
          "type": "bytes4"
        }
      ],
      "name": "supportsInterface",
      "outputs": [
        {
          "internalType": "bool",
          "name": "",
          "type": "bool"
        }
      ],
      "stateMutability": "view",
      "type": "function"
    },
    {
      "inputs": [],
      "name": "symbol",
      "outputs": [
        {
          "internalType": "string",
          "name": "",
          "type": "string"
        }
      ],
      "stateMutability": "view",
      "type": "function"
    },
    {
      "inputs": [
        {
          "internalType": "uint256",
          "name": "index",
          "type": "uint256"
        }
      ],
      "name": "tokenByIndex",
      "outputs": [
        {
          "internalType": "uint256",
          "name": "",
          "type": "uint256"
        }
      ],
      "stateMutability": "view",
      "type": "function"
    },
    {
      "inputs": [
        {
          "internalType": "address",
          "name": "owner",
          "type": "address"
        },
        {
          "internalType": "uint256",
          "name": "index",
          "type": "uint256"
        }
      ],
      "name": "tokenOfOwnerByIndex",
      "outputs": [
        {
          "internalType": "uint256",
          "name": "",
          "type": "uint256"
        }
      ],
      "stateMutability": "view",
      "type": "function"
    },
    {
      "inputs": [
        {
          "internalType": "uint256",
          "name": "tokenId",
          "type": "uint256"
        }
      ],
      "name": "tokenURI",
      "outputs": [
        {
          "internalType": "string",
          "name": "",
          "type": "string"
        }
      ],
      "stateMutability": "view",
      "type": "function"
    },
    {
      "inputs": [],
      "name": "totalSupply",
      "outputs": [
        {
          "internalType": "uint256",
          "name": "",
          "type": "uint256"
        }
      ],
      "stateMutability": "view",
      "type": "function"
    },
    {
      "inputs": [
        {
          "internalType": "address",
          "name": "from",
          "type": "address"
        },
        {
          "internalType": "address",
          "name": "to",
          "type": "address"
        },
        {
          "internalType": "uint256",
          "name": "tokenId",
          "type": "uint256"
        }
      ],
      "name": "transferFrom",
      "outputs": [],
      "stateMutability": "nonpayable",
      "type": "function"
    },
    {
      "inputs": [
        {
          "internalType": "address",
          "name": "newOwner",
          "type": "address"
        }
      ],
      "name": "transferOwnership",
      "outputs": [],
      "stateMutability": "nonpayable",
      "type": "function"
    },
    {
      "inputs": [
        {
          "internalType": "uint256",
          "name": "tokenId",
          "type": "uint256"
        }
      ],
      "name": "types",
      "outputs": [
        {
          "internalType": "string",
          "name": "description",
          "type": "string"
        }
      ],
      "stateMutability": "pure",
      "type": "function"
    },
    {
      "inputs": [],
      "name": "walletOfOwner",
      "outputs": [
        {
          "internalType": "uint256[]",
          "name": "",
          "type": "uint256[]"
        }
      ],
      "stateMutability": "view",
      "type": "function"
    },
    {
      "inputs": [],
      "name": "withdraw",
      "outputs": [],
      "stateMutability": "payable",
      "type": "function"
    }
  ],
  "bytecode": "0x60806040526040518060400160405280600581526020017f2e6a736f6e000000000000000000000000000000000000000000000000000000815250600c90805190602001906200005192919062000316565b50670de0b6b3a7640000600d5561115c600e556005600f556005601155605f6012556001601360006101000a81548160ff0219169083151502179055503480156200009b57600080fd5b50604051620055b5380380620055b58339818101604052810190620000c191906200044f565b83838160009080519060200190620000db92919062000316565b508060019080519060200190620000f492919062000316565b505050620001176200010b6200017360201b60201c565b6200017b60201b60201c565b80601360016101000a81548173ffffffffffffffffffffffffffffffffffffffff021916908373ffffffffffffffffffffffffffffffffffffffff16021790555062000169826200024160201b60201c565b5050505062000747565b600033905090565b6000600a60009054906101000a900473ffffffffffffffffffffffffffffffffffffffff16905081600a60006101000a81548173ffffffffffffffffffffffffffffffffffffffff021916908373ffffffffffffffffffffffffffffffffffffffff1602179055508173ffffffffffffffffffffffffffffffffffffffff168173ffffffffffffffffffffffffffffffffffffffff167f8be0079c531659141344cd1fd0a4f28419497f9722a3daafe3b4186f6b6457e060405160405180910390a35050565b620002516200017360201b60201c565b73ffffffffffffffffffffffffffffffffffffffff1662000277620002ec60201b60201c565b73ffffffffffffffffffffffffffffffffffffffff1614620002d0576040517f08c379a0000000000000000000000000000000000000000000000000000000008152600401620002c7906200052d565b60405180910390fd5b80600b9080519060200190620002e892919062000316565b5050565b6000600a60009054906101000a900473ffffffffffffffffffffffffffffffffffffffff16905090565b828054620003249062000629565b90600052602060002090601f01602090048101928262000348576000855562000394565b82601f106200036357805160ff191683800117855562000394565b8280016001018555821562000394579182015b828111156200039357825182559160200191906001019062000376565b5b509050620003a39190620003a7565b5090565b5b80821115620003c2576000816000905550600101620003a8565b5090565b6000620003dd620003d78462000578565b6200054f565b905082815260208101848484011115620003f657600080fd5b62000403848285620005f3565b509392505050565b6000815190506200041c816200072d565b92915050565b600082601f8301126200043457600080fd5b815162000446848260208601620003c6565b91505092915050565b600080600080608085870312156200046657600080fd5b600085015167ffffffffffffffff8111156200048157600080fd5b6200048f8782880162000422565b945050602085015167ffffffffffffffff811115620004ad57600080fd5b620004bb8782880162000422565b935050604085015167ffffffffffffffff811115620004d957600080fd5b620004e78782880162000422565b9250506060620004fa878288016200040b565b91505092959194509250565b600062000515602083620005ae565b9150620005228262000704565b602082019050919050565b60006020820190508181036000830152620005488162000506565b9050919050565b60006200055b6200056e565b90506200056982826200065f565b919050565b6000604051905090565b600067ffffffffffffffff821115620005965762000595620006c4565b5b620005a182620006f3565b9050602081019050919050565b600082825260208201905092915050565b6000620005cc82620005d3565b9050919050565b600073ffffffffffffffffffffffffffffffffffffffff82169050919050565b60005b8381101562000613578082015181840152602081019050620005f6565b8381111562000623576000848401525b50505050565b600060028204905060018216806200064257607f821691505b6020821081141562000659576200065862000695565b5b50919050565b6200066a82620006f3565b810181811067ffffffffffffffff821117156200068c576200068b620006c4565b5b80604052505050565b7f4e487b7100000000000000000000000000000000000000000000000000000000600052602260045260246000fd5b7f4e487b7100000000000000000000000000000000000000000000000000000000600052604160045260246000fd5b6000601f19601f8301169050919050565b7f4f776e61626c653a2063616c6c6572206973206e6f7420746865206f776e6572600082015250565b6200073881620005bf565b81146200074457600080fd5b50565b614e5e80620007576000396000f3fe60806040526004361061027d5760003560e01c80636352211e1161014f578063a22cb465116100c1578063d5abeb011161007a578063d5abeb0114610991578063d9aa187c146109bc578063da3ef23f146109e5578063e985e9c514610a0e578063f2fde38b14610a4b578063f851a44014610a745761027d565b8063a22cb4651461086f578063aed04fae14610898578063b88d4fde146108c3578063c6682862146108ec578063c87b56dd14610917578063cefbfa36146109545761027d565b8063715018a611610113578063715018a6146107925780637f00c7a6146107a95780638da5cb5b146107d257806395d89b41146107fd57806396087a9f14610828578063a0712d68146108535761027d565b80636352211e1461069b5780636881a077146106d85780636c0360eb14610701578063704b6c021461072c57806370a08231146107555761027d565b806323b872dd116101f357806342842e0e116101ac57806342842e0e1461058d57806344a0d68a146105b65780634f6ccce7146105df57806355f804b31461061c5780635c975abb146106455780635fc20588146106705761027d565b806323b872dd1461048b57806325c5ff86146104b45780632a55205a146104dd5780632f745c591461051b57806336fdefd4146105585780633ccfd60b146105835761027d565b8063095ea7b311610245578063095ea7b31461037957806313faede6146103a25780631663ee03146103cd57806317bf72c6146103f857806318160ddd14610435578063239c70ae146104605761027d565b806301ffc9a71461028257806302329a29146102bf57806303c0fa01146102e857806306fdde0314610311578063081812fc1461033c575b600080fd5b34801561028e57600080fd5b506102a960048036038101906102a49190613a40565b610a9f565b6040516102b6919061413e565b60405180910390f35b3480156102cb57600080fd5b506102e660048036038101906102e19190613a17565b610b19565b005b3480156102f457600080fd5b5061030f600480360381019061030a9190613ad3565b610bb2565b005b34801561031d57600080fd5b50610326610c4b565b6040516103339190614159565b60405180910390f35b34801561034857600080fd5b50610363600480360381019061035e9190613ad3565b610cdd565b6040516103709190614071565b60405180910390f35b34801561038557600080fd5b506103a0600480360381019061039b91906139db565b610d62565b005b3480156103ae57600080fd5b506103b7610e7a565b6040516103c491906143db565b60405180910390f35b3480156103d957600080fd5b506103e2610e80565b6040516103ef919061408c565b60405180910390f35b34801561040457600080fd5b5061041f600480360381019061041a9190613ad3565b610ea6565b60405161042c91906143db565b60405180910390f35b34801561044157600080fd5b5061044a610ebe565b60405161045791906143db565b60405180910390f35b34801561046c57600080fd5b50610475610ecb565b60405161048291906143db565b60405180910390f35b34801561049757600080fd5b506104b260048036038101906104ad91906138d5565b610ed1565b005b3480156104c057600080fd5b506104db60048036038101906104d69190613ad3565b610f31565b005b3480156104e957600080fd5b5061050460048036038101906104ff9190613afc565b610fca565b6040516105129291906140f3565b60405180910390f35b34801561052757600080fd5b50610542600480360381019061053d91906139db565b611016565b60405161054f91906143db565b60405180910390f35b34801561056457600080fd5b5061056d6110bb565b60405161057a919061411c565b60405180910390f35b61058b6111b3565b005b34801561059957600080fd5b506105b460048036038101906105af91906138d5565b6112af565b005b3480156105c257600080fd5b506105dd60048036038101906105d89190613ad3565b6112cf565b005b3480156105eb57600080fd5b5061060660048036038101906106019190613ad3565b611355565b60405161061391906143db565b60405180910390f35b34801561062857600080fd5b50610643600480360381019061063e9190613a92565b6113ec565b005b34801561065157600080fd5b5061065a611482565b604051610667919061413e565b60405180910390f35b34801561067c57600080fd5b50610685611495565b60405161069291906143db565b60405180910390f35b3480156106a757600080fd5b506106c260048036038101906106bd9190613ad3565b61149b565b6040516106cf9190614071565b60405180910390f35b3480156106e457600080fd5b506106ff60048036038101906106fa9190613ad3565b61154d565b005b34801561070d57600080fd5b506107166115d3565b6040516107239190614159565b60405180910390f35b34801561073857600080fd5b50610753600480360381019061074e9190613870565b611661565b005b34801561076157600080fd5b5061077c60048036038101906107779190613870565b611721565b60405161078991906143db565b60405180910390f35b34801561079e57600080fd5b506107a76117d9565b005b3480156107b557600080fd5b506107d060048036038101906107cb9190613ad3565b611861565b005b3480156107de57600080fd5b506107e76118e7565b6040516107f49190614071565b60405180910390f35b34801561080957600080fd5b50610812611911565b60405161081f9190614159565b60405180910390f35b34801561083457600080fd5b5061083d6119a3565b60405161084a91906143db565b60405180910390f35b61086d60048036038101906108689190613ad3565b6119a9565b005b34801561087b57600080fd5b506108966004803603810190610891919061399f565b611be8565b005b3480156108a457600080fd5b506108ad611bfe565b6040516108ba91906143db565b60405180910390f35b3480156108cf57600080fd5b506108ea60048036038101906108e59190613924565b611c04565b005b3480156108f857600080fd5b50610901611c66565b60405161090e9190614159565b60405180910390f35b34801561092357600080fd5b5061093e60048036038101906109399190613ad3565b611cf4565b60405161094b9190614159565b60405180910390f35b34801561096057600080fd5b5061097b60048036038101906109769190613ad3565b611d9e565b6040516109889190614159565b60405180910390f35b34801561099d57600080fd5b506109a6611f3d565b6040516109b391906143db565b60405180910390f35b3480156109c857600080fd5b506109e360048036038101906109de9190613870565b611f43565b005b3480156109f157600080fd5b50610a0c6004803603810190610a079190613a92565b612003565b005b348015610a1a57600080fd5b50610a356004803603810190610a309190613899565b612099565b604051610a42919061413e565b60405180910390f35b348015610a5757600080fd5b50610a726004803603810190610a6d9190613870565b61212d565b005b348015610a8057600080fd5b50610a89612225565b604051610a96919061408c565b60405180910390f35b60007f780e9d63000000000000000000000000000000000000000000000000000000007bffffffffffffffffffffffffffffffffffffffffffffffffffffffff1916827bffffffffffffffffffffffffffffffffffffffffffffffffffffffff19161480610b125750610b118261224b565b5b9050919050565b610b2161232d565b73ffffffffffffffffffffffffffffffffffffffff16610b3f6118e7565b73ffffffffffffffffffffffffffffffffffffffff1614610b95576040517f08c379a0000000000000000000000000000000000000000000000000000000008152600401610b8c9061433b565b60405180910390fd5b80601360006101000a81548160ff02191690831515021790555050565b610bba61232d565b73ffffffffffffffffffffffffffffffffffffffff16610bd86118e7565b73ffffffffffffffffffffffffffffffffffffffff1614610c2e576040517f08c379a0000000000000000000000000000000000000000000000000000000008152600401610c259061433b565b60405180910390fd5b80601181905550806064610c4291906145fa565b60128190555050565b606060008054610c5a906146f6565b80601f0160208091040260200160405190810160405280929190818152602001828054610c86906146f6565b8015610cd35780601f10610ca857610100808354040283529160200191610cd3565b820191906000526020600020905b815481529060010190602001808311610cb657829003601f168201915b5050505050905090565b6000610ce882612335565b610d27576040517f08c379a0000000000000000000000000000000000000000000000000000000008152600401610d1e9061431b565b60405180910390fd5b6004600083815260200190815260200160002060009054906101000a900473ffffffffffffffffffffffffffffffffffffffff169050919050565b6000610d6d8261149b565b90508073ffffffffffffffffffffffffffffffffffffffff168373ffffffffffffffffffffffffffffffffffffffff161415610dde576040517f08c379a0000000000000000000000000000000000000000000000000000000008152600401610dd59061437b565b60405180910390fd5b8073ffffffffffffffffffffffffffffffffffffffff16610dfd61232d565b73ffffffffffffffffffffffffffffffffffffffff161480610e2c5750610e2b81610e2661232d565b612099565b5b610e6b576040517f08c379a0000000000000000000000000000000000000000000000000000000008152600401610e629061427b565b60405180910390fd5b610e7583836123a1565b505050565b600d5481565b601460009054906101000a900473ffffffffffffffffffffffffffffffffffffffff1681565b60156020528060005260406000206000915090505481565b6000600880549050905090565b600f5481565b610ee2610edc61232d565b8261245a565b610f21576040517f08c379a0000000000000000000000000000000000000000000000000000000008152600401610f189061439b565b60405180910390fd5b610f2c838383612538565b505050565b610f3961232d565b73ffffffffffffffffffffffffffffffffffffffff16610f576118e7565b73ffffffffffffffffffffffffffffffffffffffff1614610fad576040517f08c379a0000000000000000000000000000000000000000000000000000000008152600401610fa49061433b565b60405180910390fd5b80601281905550806064610fc191906145fa565b60118190555050565b600080601460009054906101000a900473ffffffffffffffffffffffffffffffffffffffff166127106010548561100191906145a0565b61100b919061456f565b915091509250929050565b600061102183611721565b8210611062576040517f08c379a00000000000000000000000000000000000000000000000000000000081526004016110599061417b565b60405180910390fd5b600660008473ffffffffffffffffffffffffffffffffffffffff1673ffffffffffffffffffffffffffffffffffffffff168152602001908152602001600020600083815260200190815260200160002054905092915050565b606060006110c833611721565b905060008167ffffffffffffffff81111561110c577f4e487b7100000000000000000000000000000000000000000000000000000000600052604160045260246000fd5b60405190808252806020026020018201604052801561113a5781602001602082028036833780820191505090505b50905060005b828110156111aa576111523382611016565b82828151811061118b577f4e487b7100000000000000000000000000000000000000000000000000000000600052603260045260246000fd5b60200260200101818152505080806111a290614759565b915050611140565b50809250505090565b6111bb61232d565b73ffffffffffffffffffffffffffffffffffffffff166111d96118e7565b73ffffffffffffffffffffffffffffffffffffffff161461122f576040517f08c379a00000000000000000000000000000000000000000000000000000000081526004016112269061433b565b60405180910390fd5b60006112396118e7565b73ffffffffffffffffffffffffffffffffffffffff164760405161125c9061401f565b60006040518083038185875af1925050503d8060008114611299576040519150601f19603f3d011682016040523d82523d6000602084013e61129e565b606091505b50509050806112ac57600080fd5b50565b6112ca83838360405180602001604052806000815250611c04565b505050565b6112d761232d565b73ffffffffffffffffffffffffffffffffffffffff166112f56118e7565b73ffffffffffffffffffffffffffffffffffffffff161461134b576040517f08c379a00000000000000000000000000000000000000000000000000000000081526004016113429061433b565b60405180910390fd5b80600d8190555050565b600061135f610ebe565b82106113a0576040517f08c379a0000000000000000000000000000000000000000000000000000000008152600401611397906143bb565b60405180910390fd5b600882815481106113da577f4e487b7100000000000000000000000000000000000000000000000000000000600052603260045260246000fd5b90600052602060002001549050919050565b6113f461232d565b73ffffffffffffffffffffffffffffffffffffffff166114126118e7565b73ffffffffffffffffffffffffffffffffffffffff1614611468576040517f08c379a000000000000000000000000000000000000000000000000000000000815260040161145f9061433b565b60405180910390fd5b80600b908051906020019061147e929190613694565b5050565b601360009054906101000a900460ff1681565b60105481565b6000806002600084815260200190815260200160002060009054906101000a900473ffffffffffffffffffffffffffffffffffffffff169050600073ffffffffffffffffffffffffffffffffffffffff168173ffffffffffffffffffffffffffffffffffffffff161415611544576040517f08c379a000000000000000000000000000000000000000000000000000000000815260040161153b906142db565b60405180910390fd5b80915050919050565b61155561232d565b73ffffffffffffffffffffffffffffffffffffffff166115736118e7565b73ffffffffffffffffffffffffffffffffffffffff16146115c9576040517f08c379a00000000000000000000000000000000000000000000000000000000081526004016115c09061433b565b60405180910390fd5b8060108190555050565b600b80546115e0906146f6565b80601f016020809104026020016040519081016040528092919081815260200182805461160c906146f6565b80156116595780601f1061162e57610100808354040283529160200191611659565b820191906000526020600020905b81548152906001019060200180831161163c57829003601f168201915b505050505081565b61166961232d565b73ffffffffffffffffffffffffffffffffffffffff166116876118e7565b73ffffffffffffffffffffffffffffffffffffffff16146116dd576040517f08c379a00000000000000000000000000000000000000000000000000000000081526004016116d49061433b565b60405180910390fd5b80601360016101000a81548173ffffffffffffffffffffffffffffffffffffffff021916908373ffffffffffffffffffffffffffffffffffffffff16021790555050565b60008073ffffffffffffffffffffffffffffffffffffffff168273ffffffffffffffffffffffffffffffffffffffff161415611792576040517f08c379a0000000000000000000000000000000000000000000000000000000008152600401611789906142bb565b60405180910390fd5b600360008373ffffffffffffffffffffffffffffffffffffffff1673ffffffffffffffffffffffffffffffffffffffff168152602001908152602001600020549050919050565b6117e161232d565b73ffffffffffffffffffffffffffffffffffffffff166117ff6118e7565b73ffffffffffffffffffffffffffffffffffffffff1614611855576040517f08c379a000000000000000000000000000000000000000000000000000000000815260040161184c9061433b565b60405180910390fd5b61185f600061279f565b565b61186961232d565b73ffffffffffffffffffffffffffffffffffffffff166118876118e7565b73ffffffffffffffffffffffffffffffffffffffff16146118dd576040517f08c379a00000000000000000000000000000000000000000000000000000000081526004016118d49061433b565b60405180910390fd5b80600f8190555050565b6000600a60009054906101000a900473ffffffffffffffffffffffffffffffffffffffff16905090565b606060018054611920906146f6565b80601f016020809104026020016040519081016040528092919081815260200182805461194c906146f6565b80156119995780601f1061196e57610100808354040283529160200191611999565b820191906000526020600020905b81548152906001019060200180831161197c57829003601f168201915b5050505050905090565b60125481565b601360009054906101000a900460ff16156119c357600080fd5b60006119cd610ebe565b9050600082116119dc57600080fd5b600f548211156119eb57600080fd5b600e5482826119fa9190614519565b1115611a0557600080fd5b611a0d6118e7565b73ffffffffffffffffffffffffffffffffffffffff163373ffffffffffffffffffffffffffffffffffffffff1614158015611a965750601360019054906101000a900473ffffffffffffffffffffffffffffffffffffffff1673ffffffffffffffffffffffffffffffffffffffff163373ffffffffffffffffffffffffffffffffffffffff1614155b15611ab65781600d54611aa991906145a0565b341015611ab557600080fd5b5b6000600190505b828111611aee576000611ace612865565b9050611ada338261297f565b508080611ae690614759565b915050611abd565b506000606460115434611b0191906145a0565b611b0b919061456f565b90506000606460125434611b1f91906145a0565b611b29919061456f565b9050611b336118e7565b73ffffffffffffffffffffffffffffffffffffffff166108fc839081150290604051600060405180830381858888f19350505050158015611b78573d6000803e3d6000fd5b50601360019054906101000a900473ffffffffffffffffffffffffffffffffffffffff1673ffffffffffffffffffffffffffffffffffffffff166108fc829081150290604051600060405180830381858888f19350505050158015611be1573d6000803e3d6000fd5b5050505050565b611bfa611bf361232d565b838361299d565b5050565b60115481565b611c15611c0f61232d565b8361245a565b611c54576040517f08c379a0000000000000000000000000000000000000000000000000000000008152600401611c4b9061439b565b60405180910390fd5b611c6084848484612b0a565b50505050565b600c8054611c73906146f6565b80601f0160208091040260200160405190810160405280929190818152602001828054611c9f906146f6565b8015611cec5780601f10611cc157610100808354040283529160200191611cec565b820191906000526020600020905b815481529060010190602001808311611ccf57829003601f168201915b505050505081565b6060611cff82612335565b611d3e576040517f08c379a0000000000000000000000000000000000000000000000000000000008152600401611d359061435b565b60405180910390fd5b6000611d48612b66565b90506000815111611d685760405180602001604052806000815250611d96565b80611d7284612bf8565b600c604051602001611d8693929190613fee565b6040516020818303038152906040525b915050919050565b606060018210158015611db3575061115c8211155b611df2576040517f08c379a0000000000000000000000000000000000000000000000000000000008152600401611de99061429b565b60405180910390fd5b6104578211611e38576040518060400160405280600881526020017f4b6172616d6269740000000000000000000000000000000000000000000000008152509050611f38565b61045782118015611e4b57506108ae8211155b15611e8d576040518060400160405280600881526020017f546163746963616c0000000000000000000000000000000000000000000000008152509050611f38565b6108ae82118015611ea05750610d058211155b15611ee2576040518060400160405280600981526020017f427574746572666c7900000000000000000000000000000000000000000000008152509050611f38565b610d0582118015611ef5575061115c8211155b15611f37576040518060400160405280600581526020017f4b756e61690000000000000000000000000000000000000000000000000000008152509050611f38565b5b919050565b600e5481565b611f4b61232d565b73ffffffffffffffffffffffffffffffffffffffff16611f696118e7565b73ffffffffffffffffffffffffffffffffffffffff1614611fbf576040517f08c379a0000000000000000000000000000000000000000000000000000000008152600401611fb69061433b565b60405180910390fd5b80601460006101000a81548173ffffffffffffffffffffffffffffffffffffffff021916908373ffffffffffffffffffffffffffffffffffffffff16021790555050565b61200b61232d565b73ffffffffffffffffffffffffffffffffffffffff166120296118e7565b73ffffffffffffffffffffffffffffffffffffffff161461207f576040517f08c379a00000000000000000000000000000000000000000000000000000000081526004016120769061433b565b60405180910390fd5b80600c9080519060200190612095929190613694565b5050565b6000600560008473ffffffffffffffffffffffffffffffffffffffff1673ffffffffffffffffffffffffffffffffffffffff16815260200190815260200160002060008373ffffffffffffffffffffffffffffffffffffffff1673ffffffffffffffffffffffffffffffffffffffff16815260200190815260200160002060009054906101000a900460ff16905092915050565b61213561232d565b73ffffffffffffffffffffffffffffffffffffffff166121536118e7565b73ffffffffffffffffffffffffffffffffffffffff16146121a9576040517f08c379a00000000000000000000000000000000000000000000000000000000081526004016121a09061433b565b60405180910390fd5b600073ffffffffffffffffffffffffffffffffffffffff168173ffffffffffffffffffffffffffffffffffffffff161415612219576040517f08c379a0000000000000000000000000000000000000000000000000000000008152600401612210906141bb565b60405180910390fd5b6122228161279f565b50565b601360019054906101000a900473ffffffffffffffffffffffffffffffffffffffff1681565b60007f80ac58cd000000000000000000000000000000000000000000000000000000007bffffffffffffffffffffffffffffffffffffffffffffffffffffffff1916827bffffffffffffffffffffffffffffffffffffffffffffffffffffffff1916148061231657507f5b5e139f000000000000000000000000000000000000000000000000000000007bffffffffffffffffffffffffffffffffffffffffffffffffffffffff1916827bffffffffffffffffffffffffffffffffffffffffffffffffffffffff1916145b80612326575061232582612da5565b5b9050919050565b600033905090565b60008073ffffffffffffffffffffffffffffffffffffffff166002600084815260200190815260200160002060009054906101000a900473ffffffffffffffffffffffffffffffffffffffff1673ffffffffffffffffffffffffffffffffffffffff1614159050919050565b816004600083815260200190815260200160002060006101000a81548173ffffffffffffffffffffffffffffffffffffffff021916908373ffffffffffffffffffffffffffffffffffffffff160217905550808273ffffffffffffffffffffffffffffffffffffffff166124148361149b565b73ffffffffffffffffffffffffffffffffffffffff167f8c5be1e5ebec7d5bd14f71427d1e84f3dd0314c0f7b2291e5b200ac8c7c3b92560405160405180910390a45050565b600061246582612335565b6124a4576040517f08c379a000000000000000000000000000000000000000000000000000000000815260040161249b9061425b565b60405180910390fd5b60006124af8361149b565b90508073ffffffffffffffffffffffffffffffffffffffff168473ffffffffffffffffffffffffffffffffffffffff16148061251e57508373ffffffffffffffffffffffffffffffffffffffff1661250684610cdd565b73ffffffffffffffffffffffffffffffffffffffff16145b8061252f575061252e8185612099565b5b91505092915050565b8273ffffffffffffffffffffffffffffffffffffffff166125588261149b565b73ffffffffffffffffffffffffffffffffffffffff16146125ae576040517f08c379a00000000000000000000000000000000000000000000000000000000081526004016125a5906141db565b60405180910390fd5b600073ffffffffffffffffffffffffffffffffffffffff168273ffffffffffffffffffffffffffffffffffffffff16141561261e576040517f08c379a00000000000000000000000000000000000000000000000000000000081526004016126159061421b565b60405180910390fd5b612629838383612e0f565b6126346000826123a1565b6001600360008573ffffffffffffffffffffffffffffffffffffffff1673ffffffffffffffffffffffffffffffffffffffff168152602001908152602001600020600082825461268491906145fa565b925050819055506001600360008473ffffffffffffffffffffffffffffffffffffffff1673ffffffffffffffffffffffffffffffffffffffff16815260200190815260200160002060008282546126db9190614519565b92505081905550816002600083815260200190815260200160002060006101000a81548173ffffffffffffffffffffffffffffffffffffffff021916908373ffffffffffffffffffffffffffffffffffffffff160217905550808273ffffffffffffffffffffffffffffffffffffffff168473ffffffffffffffffffffffffffffffffffffffff167fddf252ad1be2c89b69c2b068fc378daa952ba7f163c4a11628f55a4df523b3ef60405160405180910390a461279a838383612f23565b505050565b6000600a60009054906101000a900473ffffffffffffffffffffffffffffffffffffffff16905081600a60006101000a81548173ffffffffffffffffffffffffffffffffffffffff021916908373ffffffffffffffffffffffffffffffffffffffff1602179055508173ffffffffffffffffffffffffffffffffffffffff168173ffffffffffffffffffffffffffffffffffffffff167f8be0079c531659141344cd1fd0a4f28419497f9722a3daafe3b4186f6b6457e060405160405180910390a35050565b600080612870610ebe565b600e5461287d91906145fa565b9050600044428360405160200161289693929190614034565b6040516020818303038152906040528051906020012060001c9050600082826128bf91906147ac565b905060006015600083815260200190815260200160002054146128f55760156000828152602001908152602001600020546128f7565b805b935060006015600060018661290c91906145fa565b81526020019081526020016000205414612945576015600060018561293191906145fa565b815260200190815260200160002054612953565b60018361295291906145fa565b5b60156000838152602001908152602001600020819055506001846129779190614519565b935050505090565b612999828260405180602001604052806000815250612f28565b5050565b8173ffffffffffffffffffffffffffffffffffffffff168373ffffffffffffffffffffffffffffffffffffffff161415612a0c576040517f08c379a0000000000000000000000000000000000000000000000000000000008152600401612a039061423b565b60405180910390fd5b80600560008573ffffffffffffffffffffffffffffffffffffffff1673ffffffffffffffffffffffffffffffffffffffff16815260200190815260200160002060008473ffffffffffffffffffffffffffffffffffffffff1673ffffffffffffffffffffffffffffffffffffffff16815260200190815260200160002060006101000a81548160ff0219169083151502179055508173ffffffffffffffffffffffffffffffffffffffff168373ffffffffffffffffffffffffffffffffffffffff167f17307eab39ab6107e8899845ad3d59bd9653f200f220920489ca2b5937696c3183604051612afd919061413e565b60405180910390a3505050565b612b15848484612538565b612b2184848484612f83565b612b60576040517f08c379a0000000000000000000000000000000000000000000000000000000008152600401612b579061419b565b60405180910390fd5b50505050565b6060600b8054612b75906146f6565b80601f0160208091040260200160405190810160405280929190818152602001828054612ba1906146f6565b8015612bee5780601f10612bc357610100808354040283529160200191612bee565b820191906000526020600020905b815481529060010190602001808311612bd157829003601f168201915b5050505050905090565b60606000821415612c40576040518060400160405280600181526020017f30000000000000000000000000000000000000000000000000000000000000008152509050612da0565b600082905060005b60008214612c72578080612c5b90614759565b915050600a82612c6b919061456f565b9150612c48565b60008167ffffffffffffffff811115612cb4577f4e487b7100000000000000000000000000000000000000000000000000000000600052604160045260246000fd5b6040519080825280601f01601f191660200182016040528015612ce65781602001600182028036833780820191505090505b5090505b60008514612d9957600182612cff91906145fa565b9150600a85612d0e91906147ac565b6030612d1a9190614519565b60f81b818381518110612d56577f4e487b7100000000000000000000000000000000000000000000000000000000600052603260045260246000fd5b60200101907effffffffffffffffffffffffffffffffffffffffffffffffffffffffffffff1916908160001a905350600a85612d92919061456f565b9450612cea565b8093505050505b919050565b60007f01ffc9a7000000000000000000000000000000000000000000000000000000007bffffffffffffffffffffffffffffffffffffffffffffffffffffffff1916827bffffffffffffffffffffffffffffffffffffffffffffffffffffffff1916149050919050565b612e1a83838361311a565b600073ffffffffffffffffffffffffffffffffffffffff168373ffffffffffffffffffffffffffffffffffffffff161415612e5d57612e588161311f565b612e9c565b8173ffffffffffffffffffffffffffffffffffffffff168373ffffffffffffffffffffffffffffffffffffffff1614612e9b57612e9a8382613168565b5b5b600073ffffffffffffffffffffffffffffffffffffffff168273ffffffffffffffffffffffffffffffffffffffff161415612edf57612eda816132d5565b612f1e565b8273ffffffffffffffffffffffffffffffffffffffff168273ffffffffffffffffffffffffffffffffffffffff1614612f1d57612f1c8282613418565b5b5b505050565b505050565b612f328383613497565b612f3f6000848484612f83565b612f7e576040517f08c379a0000000000000000000000000000000000000000000000000000000008152600401612f759061419b565b60405180910390fd5b505050565b6000612fa48473ffffffffffffffffffffffffffffffffffffffff16613671565b1561310d578373ffffffffffffffffffffffffffffffffffffffff1663150b7a02612fcd61232d565b8786866040518563ffffffff1660e01b8152600401612fef94939291906140a7565b602060405180830381600087803b15801561300957600080fd5b505af192505050801561303a57506040513d601f19601f820116820180604052508101906130379190613a69565b60015b6130bd573d806000811461306a576040519150601f19603f3d011682016040523d82523d6000602084013e61306f565b606091505b506000815114156130b5576040517f08c379a00000000000000000000000000000000000000000000000000000000081526004016130ac9061419b565b60405180910390fd5b805181602001fd5b63150b7a0260e01b7bffffffffffffffffffffffffffffffffffffffffffffffffffffffff1916817bffffffffffffffffffffffffffffffffffffffffffffffffffffffff191614915050613112565b600190505b949350505050565b505050565b6008805490506009600083815260200190815260200160002081905550600881908060018154018082558091505060019003906000526020600020016000909190919091505550565b6000600161317584611721565b61317f91906145fa565b9050600060076000848152602001908152602001600020549050818114613264576000600660008673ffffffffffffffffffffffffffffffffffffffff1673ffffffffffffffffffffffffffffffffffffffff168152602001908152602001600020600084815260200190815260200160002054905080600660008773ffffffffffffffffffffffffffffffffffffffff1673ffffffffffffffffffffffffffffffffffffffff168152602001908152602001600020600084815260200190815260200160002081905550816007600083815260200190815260200160002081905550505b6007600084815260200190815260200160002060009055600660008573ffffffffffffffffffffffffffffffffffffffff1673ffffffffffffffffffffffffffffffffffffffff16815260200190815260200160002060008381526020019081526020016000206000905550505050565b600060016008805490506132e991906145fa565b905060006009600084815260200190815260200160002054905060006008838154811061333f577f4e487b7100000000000000000000000000000000000000000000000000000000600052603260045260246000fd5b906000526020600020015490508060088381548110613387577f4e487b7100000000000000000000000000000000000000000000000000000000600052603260045260246000fd5b9060005260206000200181905550816009600083815260200190815260200160002081905550600960008581526020019081526020016000206000905560088054806133fc577f4e487b7100000000000000000000000000000000000000000000000000000000600052603160045260246000fd5b6001900381819060005260206000200160009055905550505050565b600061342383611721565b905081600660008573ffffffffffffffffffffffffffffffffffffffff1673ffffffffffffffffffffffffffffffffffffffff168152602001908152602001600020600083815260200190815260200160002081905550806007600084815260200190815260200160002081905550505050565b600073ffffffffffffffffffffffffffffffffffffffff168273ffffffffffffffffffffffffffffffffffffffff161415613507576040517f08c379a00000000000000000000000000000000000000000000000000000000081526004016134fe906142fb565b60405180910390fd5b61351081612335565b15613550576040517f08c379a0000000000000000000000000000000000000000000000000000000008152600401613547906141fb565b60405180910390fd5b61355c60008383612e0f565b6001600360008473ffffffffffffffffffffffffffffffffffffffff1673ffffffffffffffffffffffffffffffffffffffff16815260200190815260200160002060008282546135ac9190614519565b92505081905550816002600083815260200190815260200160002060006101000a81548173ffffffffffffffffffffffffffffffffffffffff021916908373ffffffffffffffffffffffffffffffffffffffff160217905550808273ffffffffffffffffffffffffffffffffffffffff16600073ffffffffffffffffffffffffffffffffffffffff167fddf252ad1be2c89b69c2b068fc378daa952ba7f163c4a11628f55a4df523b3ef60405160405180910390a461366d60008383612f23565b5050565b6000808273ffffffffffffffffffffffffffffffffffffffff163b119050919050565b8280546136a0906146f6565b90600052602060002090601f0160209004810192826136c25760008555613709565b82601f106136db57805160ff1916838001178555613709565b82800160010185558215613709579182015b828111156137085782518255916020019190600101906136ed565b5b509050613716919061371a565b5090565b5b8082111561373357600081600090555060010161371b565b5090565b600061374a6137458461441b565b6143f6565b90508281526020810184848401111561376257600080fd5b61376d8482856146b4565b509392505050565b60006137886137838461444c565b6143f6565b9050828152602081018484840111156137a057600080fd5b6137ab8482856146b4565b509392505050565b6000813590506137c281614dcc565b92915050565b6000813590506137d781614de3565b92915050565b6000813590506137ec81614dfa565b92915050565b60008151905061380181614dfa565b92915050565b600082601f83011261381857600080fd5b8135613828848260208601613737565b91505092915050565b600082601f83011261384257600080fd5b8135613852848260208601613775565b91505092915050565b60008135905061386a81614e11565b92915050565b60006020828403121561388257600080fd5b6000613890848285016137b3565b91505092915050565b600080604083850312156138ac57600080fd5b60006138ba858286016137b3565b92505060206138cb858286016137b3565b9150509250929050565b6000806000606084860312156138ea57600080fd5b60006138f8868287016137b3565b9350506020613909868287016137b3565b925050604061391a8682870161385b565b9150509250925092565b6000806000806080858703121561393a57600080fd5b6000613948878288016137b3565b9450506020613959878288016137b3565b935050604061396a8782880161385b565b925050606085013567ffffffffffffffff81111561398757600080fd5b61399387828801613807565b91505092959194509250565b600080604083850312156139b257600080fd5b60006139c0858286016137b3565b92505060206139d1858286016137c8565b9150509250929050565b600080604083850312156139ee57600080fd5b60006139fc858286016137b3565b9250506020613a0d8582860161385b565b9150509250929050565b600060208284031215613a2957600080fd5b6000613a37848285016137c8565b91505092915050565b600060208284031215613a5257600080fd5b6000613a60848285016137dd565b91505092915050565b600060208284031215613a7b57600080fd5b6000613a89848285016137f2565b91505092915050565b600060208284031215613aa457600080fd5b600082013567ffffffffffffffff811115613abe57600080fd5b613aca84828501613831565b91505092915050565b600060208284031215613ae557600080fd5b6000613af38482850161385b565b91505092915050565b60008060408385031215613b0f57600080fd5b6000613b1d8582860161385b565b9250506020613b2e8582860161385b565b9150509250929050565b6000613b448383613fb9565b60208301905092915050565b613b5981614640565b82525050565b613b688161462e565b82525050565b6000613b79826144a2565b613b8381856144d0565b9350613b8e8361447d565b8060005b83811015613bbf578151613ba68882613b38565b9750613bb1836144c3565b925050600181019050613b92565b5085935050505092915050565b613bd581614652565b82525050565b6000613be6826144ad565b613bf081856144e1565b9350613c008185602086016146c3565b613c0981614899565b840191505092915050565b6000613c1f826144b8565b613c2981856144fd565b9350613c398185602086016146c3565b613c4281614899565b840191505092915050565b6000613c58826144b8565b613c62818561450e565b9350613c728185602086016146c3565b80840191505092915050565b60008154613c8b816146f6565b613c95818661450e565b94506001821660008114613cb05760018114613cc157613cf4565b60ff19831686528186019350613cf4565b613cca8561448d565b60005b83811015613cec57815481890152600182019150602081019050613ccd565b838801955050505b50505092915050565b6000613d0a602b836144fd565b9150613d15826148aa565b604082019050919050565b6000613d2d6032836144fd565b9150613d38826148f9565b604082019050919050565b6000613d506026836144fd565b9150613d5b82614948565b604082019050919050565b6000613d736025836144fd565b9150613d7e82614997565b604082019050919050565b6000613d96601c836144fd565b9150613da1826149e6565b602082019050919050565b6000613db96024836144fd565b9150613dc482614a0f565b604082019050919050565b6000613ddc6019836144fd565b9150613de782614a5e565b602082019050919050565b6000613dff602c836144fd565b9150613e0a82614a87565b604082019050919050565b6000613e226038836144fd565b9150613e2d82614ad6565b604082019050919050565b6000613e456010836144fd565b9150613e5082614b25565b602082019050919050565b6000613e68602a836144fd565b9150613e7382614b4e565b604082019050919050565b6000613e8b6029836144fd565b9150613e9682614b9d565b604082019050919050565b6000613eae6020836144fd565b9150613eb982614bec565b602082019050919050565b6000613ed1602c836144fd565b9150613edc82614c15565b604082019050919050565b6000613ef46020836144fd565b9150613eff82614c64565b602082019050919050565b6000613f17602f836144fd565b9150613f2282614c8d565b604082019050919050565b6000613f3a6021836144fd565b9150613f4582614cdc565b604082019050919050565b6000613f5d6000836144f2565b9150613f6882614d2b565b600082019050919050565b6000613f806031836144fd565b9150613f8b82614d2e565b604082019050919050565b6000613fa3602c836144fd565b9150613fae82614d7d565b604082019050919050565b613fc2816146aa565b82525050565b613fd1816146aa565b82525050565b613fe8613fe3826146aa565b6147a2565b82525050565b6000613ffa8286613c4d565b91506140068285613c4d565b91506140128284613c7e565b9150819050949350505050565b600061402a82613f50565b9150819050919050565b60006140408286613fd7565b6020820191506140508285613fd7565b6020820191506140608284613fd7565b602082019150819050949350505050565b60006020820190506140866000830184613b5f565b92915050565b60006020820190506140a16000830184613b50565b92915050565b60006080820190506140bc6000830187613b5f565b6140c96020830186613b5f565b6140d66040830185613fc8565b81810360608301526140e88184613bdb565b905095945050505050565b60006040820190506141086000830185613b5f565b6141156020830184613fc8565b9392505050565b600060208201905081810360008301526141368184613b6e565b905092915050565b60006020820190506141536000830184613bcc565b92915050565b600060208201905081810360008301526141738184613c14565b905092915050565b6000602082019050818103600083015261419481613cfd565b9050919050565b600060208201905081810360008301526141b481613d20565b9050919050565b600060208201905081810360008301526141d481613d43565b9050919050565b600060208201905081810360008301526141f481613d66565b9050919050565b6000602082019050818103600083015261421481613d89565b9050919050565b6000602082019050818103600083015261423481613dac565b9050919050565b6000602082019050818103600083015261425481613dcf565b9050919050565b6000602082019050818103600083015261427481613df2565b9050919050565b6000602082019050818103600083015261429481613e15565b9050919050565b600060208201905081810360008301526142b481613e38565b9050919050565b600060208201905081810360008301526142d481613e5b565b9050919050565b600060208201905081810360008301526142f481613e7e565b9050919050565b6000602082019050818103600083015261431481613ea1565b9050919050565b6000602082019050818103600083015261433481613ec4565b9050919050565b6000602082019050818103600083015261435481613ee7565b9050919050565b6000602082019050818103600083015261437481613f0a565b9050919050565b6000602082019050818103600083015261439481613f2d565b9050919050565b600060208201905081810360008301526143b481613f73565b9050919050565b600060208201905081810360008301526143d481613f96565b9050919050565b60006020820190506143f06000830184613fc8565b92915050565b6000614400614411565b905061440c8282614728565b919050565b6000604051905090565b600067ffffffffffffffff8211156144365761443561486a565b5b61443f82614899565b9050602081019050919050565b600067ffffffffffffffff8211156144675761446661486a565b5b61447082614899565b9050602081019050919050565b6000819050602082019050919050565b60008190508160005260206000209050919050565b600081519050919050565b600081519050919050565b600081519050919050565b6000602082019050919050565b600082825260208201905092915050565b600082825260208201905092915050565b600081905092915050565b600082825260208201905092915050565b600081905092915050565b6000614524826146aa565b915061452f836146aa565b9250827fffffffffffffffffffffffffffffffffffffffffffffffffffffffffffffffff03821115614564576145636147dd565b5b828201905092915050565b600061457a826146aa565b9150614585836146aa565b9250826145955761459461480c565b5b828204905092915050565b60006145ab826146aa565b91506145b6836146aa565b9250817fffffffffffffffffffffffffffffffffffffffffffffffffffffffffffffffff04831182151516156145ef576145ee6147dd565b5b828202905092915050565b6000614605826146aa565b9150614610836146aa565b925082821015614623576146226147dd565b5b828203905092915050565b60006146398261468a565b9050919050565b600061464b8261468a565b9050919050565b60008115159050919050565b60007fffffffff0000000000000000000000000000000000000000000000000000000082169050919050565b600073ffffffffffffffffffffffffffffffffffffffff82169050919050565b6000819050919050565b82818337600083830152505050565b60005b838110156146e15780820151818401526020810190506146c6565b838111156146f0576000848401525b50505050565b6000600282049050600182168061470e57607f821691505b602082108114156147225761472161483b565b5b50919050565b61473182614899565b810181811067ffffffffffffffff821117156147505761474f61486a565b5b80604052505050565b6000614764826146aa565b91507fffffffffffffffffffffffffffffffffffffffffffffffffffffffffffffffff821415614797576147966147dd565b5b600182019050919050565b6000819050919050565b60006147b7826146aa565b91506147c2836146aa565b9250826147d2576147d161480c565b5b828206905092915050565b7f4e487b7100000000000000000000000000000000000000000000000000000000600052601160045260246000fd5b7f4e487b7100000000000000000000000000000000000000000000000000000000600052601260045260246000fd5b7f4e487b7100000000000000000000000000000000000000000000000000000000600052602260045260246000fd5b7f4e487b7100000000000000000000000000000000000000000000000000000000600052604160045260246000fd5b6000601f19601f8301169050919050565b7f455243373231456e756d657261626c653a206f776e657220696e646578206f7560008201527f74206f6620626f756e6473000000000000000000000000000000000000000000602082015250565b7f4552433732313a207472616e7366657220746f206e6f6e20455243373231526560008201527f63656976657220696d706c656d656e7465720000000000000000000000000000602082015250565b7f4f776e61626c653a206e6577206f776e657220697320746865207a65726f206160008201527f6464726573730000000000000000000000000000000000000000000000000000602082015250565b7f4552433732313a207472616e736665722066726f6d20696e636f72726563742060008201527f6f776e6572000000000000000000000000000000000000000000000000000000602082015250565b7f4552433732313a20746f6b656e20616c7265616479206d696e74656400000000600082015250565b7f4552433732313a207472616e7366657220746f20746865207a65726f2061646460008201527f7265737300000000000000000000000000000000000000000000000000000000602082015250565b7f4552433732313a20617070726f766520746f2063616c6c657200000000000000600082015250565b7f4552433732313a206f70657261746f7220717565727920666f72206e6f6e657860008201527f697374656e7420746f6b656e0000000000000000000000000000000000000000602082015250565b7f4552433732313a20617070726f76652063616c6c6572206973206e6f74206f7760008201527f6e6572206e6f7220617070726f76656420666f7220616c6c0000000000000000602082015250565b7f496e76616c696420546f6b656e20496400000000000000000000000000000000600082015250565b7f4552433732313a2062616c616e636520717565727920666f7220746865207a6560008201527f726f206164647265737300000000000000000000000000000000000000000000602082015250565b7f4552433732313a206f776e657220717565727920666f72206e6f6e657869737460008201527f656e7420746f6b656e0000000000000000000000000000000000000000000000602082015250565b7f4552433732313a206d696e7420746f20746865207a65726f2061646472657373600082015250565b7f4552433732313a20617070726f76656420717565727920666f72206e6f6e657860008201527f697374656e7420746f6b656e0000000000000000000000000000000000000000602082015250565b7f4f776e61626c653a2063616c6c6572206973206e6f7420746865206f776e6572600082015250565b7f4552433732314d657461646174613a2055524920717565727920666f72206e6f60008201527f6e6578697374656e7420746f6b656e0000000000000000000000000000000000602082015250565b7f4552433732313a20617070726f76616c20746f2063757272656e74206f776e6560008201527f7200000000000000000000000000000000000000000000000000000000000000602082015250565b50565b7f4552433732313a207472616e736665722063616c6c6572206973206e6f74206f60008201527f776e6572206e6f7220617070726f766564000000000000000000000000000000602082015250565b7f455243373231456e756d657261626c653a20676c6f62616c20696e646578206f60008201527f7574206f6620626f756e64730000000000000000000000000000000000000000602082015250565b614dd58161462e565b8114614de057600080fd5b50565b614dec81614652565b8114614df757600080fd5b50565b614e038161465e565b8114614e0e57600080fd5b50565b614e1a816146aa565b8114614e2557600080fd5b5056fea26469706673582212200c954cd75242ae0658736da6e3c18dc78b25efb85ed85ae7d8d4c04ab4892d7864736f6c63430008040033",
  "linkReferences": {},
  "deployedLinkReferences": {}
}