{
  "_format": "hh-sol-artifact-1",
  "contractName": "KnivesLegacy",
  "sourceName": "contracts/KnivesLegacy.sol",
  "abi": [
    {
      "inputs": [
        {
          "internalType": "string",
          "name": "_name",
          "type": "string"
        },
        {
          "internalType": "string",
          "name": "_symbol",
          "type": "string"
        },
        {
          "internalType": "string",
          "name": "_initBaseURI",
          "type": "string"
        },
        {
          "internalType": "address",
          "name": "_admin",
          "type": "address"
        }
      ],
      "stateMutability": "nonpayable",
      "type": "constructor"
    },
    {
      "anonymous": false,
      "inputs": [
        {
          "indexed": true,
          "internalType": "address",
          "name": "owner",
          "type": "address"
        },
        {
          "indexed": true,
          "internalType": "address",
          "name": "approved",
          "type": "address"
        },
        {
          "indexed": true,
          "internalType": "uint256",
          "name": "tokenId",
          "type": "uint256"
        }
      ],
      "name": "Approval",
      "type": "event"
    },
    {
      "anonymous": false,
      "inputs": [
        {
          "indexed": true,
          "internalType": "address",
          "name": "owner",
          "type": "address"
        },
        {
          "indexed": true,
          "internalType": "address",
          "name": "operator",
          "type": "address"
        },
        {
          "indexed": false,
          "internalType": "bool",
          "name": "approved",
          "type": "bool"
        }
      ],
      "name": "ApprovalForAll",
      "type": "event"
    },
    {
      "anonymous": false,
      "inputs": [
        {
          "indexed": true,
          "internalType": "address",
          "name": "previousOwner",
          "type": "address"
        },
        {
          "indexed": true,
          "internalType": "address",
          "name": "newOwner",
          "type": "address"
        }
      ],
      "name": "OwnershipTransferred",
      "type": "event"
    },
    {
      "anonymous": false,
      "inputs": [
        {
          "indexed": true,
          "internalType": "address",
          "name": "from",
          "type": "address"
        },
        {
          "indexed": true,
          "internalType": "address",
          "name": "to",
          "type": "address"
        },
        {
          "indexed": true,
          "internalType": "uint256",
          "name": "tokenId",
          "type": "uint256"
        }
      ],
      "name": "Transfer",
      "type": "event"
    },
    {
      "inputs": [],
      "name": "admin",
      "outputs": [
        {
          "internalType": "address payable",
          "name": "",
          "type": "address"
        }
      ],
      "stateMutability": "view",
      "type": "function"
    },
    {
      "inputs": [
        {
          "internalType": "address",
          "name": "to",
          "type": "address"
        },
        {
          "internalType": "uint256",
          "name": "tokenId",
          "type": "uint256"
        }
      ],
      "name": "approve",
      "outputs": [],
      "stateMutability": "nonpayable",
      "type": "function"
    },
    {
      "inputs": [
        {
          "internalType": "address",
          "name": "owner",
          "type": "address"
        }
      ],
      "name": "balanceOf",
      "outputs": [
        {
          "internalType": "uint256",
          "name": "",
          "type": "uint256"
        }
      ],
      "stateMutability": "view",
      "type": "function"
    },
    {
      "inputs": [],
      "name": "baseExtension",
      "outputs": [
        {
          "internalType": "string",
          "name": "",
          "type": "string"
        }
      ],
      "stateMutability": "view",
      "type": "function"
    },
    {
      "inputs": [],
      "name": "baseURI",
      "outputs": [
        {
          "internalType": "string",
          "name": "",
          "type": "string"
        }
      ],
      "stateMutability": "view",
      "type": "function"
    },
    {
      "inputs": [
        {
          "internalType": "uint256",
          "name": "",
          "type": "uint256"
        }
      ],
      "name": "cache",
      "outputs": [
        {
          "internalType": "uint256",
          "name": "",
          "type": "uint256"
        }
      ],
      "stateMutability": "view",
      "type": "function"
    },
    {
      "inputs": [],
      "name": "cost",
      "outputs": [
        {
          "internalType": "uint256",
          "name": "",
          "type": "uint256"
        }
      ],
      "stateMutability": "view",
      "type": "function"
    },
    {
      "inputs": [],
      "name": "devShare",
      "outputs": [
        {
          "internalType": "uint256",
          "name": "",
          "type": "uint256"
        }
      ],
      "stateMutability": "view",
      "type": "function"
    },
    {
      "inputs": [
        {
          "internalType": "uint256",
          "name": "tokenId",
          "type": "uint256"
        }
      ],
      "name": "getApproved",
      "outputs": [
        {
          "internalType": "address",
          "name": "",
          "type": "address"
        }
      ],
      "stateMutability": "view",
      "type": "function"
    },
    {
      "inputs": [
        {
          "internalType": "address",
          "name": "owner",
          "type": "address"
        },
        {
          "internalType": "address",
          "name": "operator",
          "type": "address"
        }
      ],
      "name": "isApprovedForAll",
      "outputs": [
        {
          "internalType": "bool",
          "name": "",
          "type": "bool"
        }
      ],
      "stateMutability": "view",
      "type": "function"
    },
    {
      "inputs": [],
      "name": "maxMintAmount",
      "outputs": [
        {
          "internalType": "uint256",
          "name": "",
          "type": "uint256"
        }
      ],
      "stateMutability": "view",
      "type": "function"
    },
    {
      "inputs": [],
      "name": "maxSupply",
      "outputs": [
        {
          "internalType": "uint256",
          "name": "",
          "type": "uint256"
        }
      ],
      "stateMutability": "view",
      "type": "function"
    },
    {
      "inputs": [
        {
          "internalType": "uint256",
          "name": "_mintAmount",
          "type": "uint256"
        }
      ],
      "name": "mint",
      "outputs": [],
      "stateMutability": "payable",
      "type": "function"
    },
    {
      "inputs": [],
      "name": "name",
      "outputs": [
        {
          "internalType": "string",
          "name": "",
          "type": "string"
        }
      ],
      "stateMutability": "view",
      "type": "function"
    },
    {
      "inputs": [],
      "name": "notRevealedUri",
      "outputs": [
        {
          "internalType": "string",
          "name": "",
          "type": "string"
        }
      ],
      "stateMutability": "view",
      "type": "function"
    },
    {
      "inputs": [],
      "name": "owner",
      "outputs": [
        {
          "internalType": "address",
          "name": "",
          "type": "address"
        }
      ],
      "stateMutability": "view",
      "type": "function"
    },
    {
      "inputs": [
        {
          "internalType": "uint256",
          "name": "tokenId",
          "type": "uint256"
        }
      ],
      "name": "ownerOf",
      "outputs": [
        {
          "internalType": "address",
          "name": "",
          "type": "address"
        }
      ],
      "stateMutability": "view",
      "type": "function"
    },
    {
      "inputs": [
        {
          "internalType": "bool",
          "name": "_state",
          "type": "bool"
        }
      ],
      "name": "pause",
      "outputs": [],
      "stateMutability": "nonpayable",
      "type": "function"
    },
    {
      "inputs": [],
      "name": "paused",
      "outputs": [
        {
          "internalType": "bool",
          "name": "",
          "type": "bool"
        }
      ],
      "stateMutability": "view",
      "type": "function"
    },
    {
      "inputs": [],
      "name": "renounceOwnership",
      "outputs": [],
      "stateMutability": "nonpayable",
      "type": "function"
    },
    {
      "inputs": [],
      "name": "royaltyContract",
      "outputs": [
        {
          "internalType": "address payable",
          "name": "",
          "type": "address"
        }
      ],
      "stateMutability": "view",
      "type": "function"
    },
    {
      "inputs": [
        {
          "internalType": "uint256",
          "name": "tokenId",
          "type": "uint256"
        },
        {
          "internalType": "uint256",
          "name": "value",
          "type": "uint256"
        }
      ],
      "name": "royaltyInfo",
      "outputs": [
        {
          "internalType": "address",
          "name": "receiver",
          "type": "address"
        },
        {
          "internalType": "uint256",
          "name": "royaltyAmount",
          "type": "uint256"
        }
      ],
      "stateMutability": "view",
      "type": "function"
    },
    {
      "inputs": [],
      "name": "royaltyValue",
      "outputs": [
        {
          "internalType": "uint256",
          "name": "",
          "type": "uint256"
        }
      ],
      "stateMutability": "view",
      "type": "function"
    },
    {
      "inputs": [
        {
          "internalType": "address",
          "name": "from",
          "type": "address"
        },
        {
          "internalType": "address",
          "name": "to",
          "type": "address"
        },
        {
          "internalType": "uint256",
          "name": "tokenId",
          "type": "uint256"
        }
      ],
      "name": "safeTransferFrom",
      "outputs": [],
      "stateMutability": "nonpayable",
      "type": "function"
    },
    {
      "inputs": [
        {
          "internalType": "address",
          "name": "from",
          "type": "address"
        },
        {
          "internalType": "address",
          "name": "to",
          "type": "address"
        },
        {
          "internalType": "uint256",
          "name": "tokenId",
          "type": "uint256"
        },
        {
          "internalType": "bytes",
          "name": "_data",
          "type": "bytes"
        }
      ],
      "name": "safeTransferFrom",
      "outputs": [],
      "stateMutability": "nonpayable",
      "type": "function"
    },
    {
      "inputs": [
        {
          "internalType": "address",
          "name": "_admin",
          "type": "address"
        }
      ],
      "name": "setAdmin",
      "outputs": [],
      "stateMutability": "nonpayable",
      "type": "function"
    },
    {
      "inputs": [
        {
          "internalType": "address",
          "name": "operator",
          "type": "address"
        },
        {
          "internalType": "bool",
          "name": "approved",
          "type": "bool"
        }
      ],
      "name": "setApprovalForAll",
      "outputs": [],
      "stateMutability": "nonpayable",
      "type": "function"
    },
    {
      "inputs": [
        {
          "internalType": "string",
          "name": "_newBaseExtension",
          "type": "string"
        }
      ],
      "name": "setBaseExtension",
      "outputs": [],
      "stateMutability": "nonpayable",
      "type": "function"
    },
    {
      "inputs": [
        {
          "internalType": "string",
          "name": "_newBaseURI",
          "type": "string"
        }
      ],
      "name": "setBaseURI",
      "outputs": [],
      "stateMutability": "nonpayable",
      "type": "function"
    },
    {
      "inputs": [
        {
          "internalType": "uint256",
          "name": "_newCost",
          "type": "uint256"
        }
      ],
      "name": "setCost",
      "outputs": [],
      "stateMutability": "nonpayable",
      "type": "function"
    },
    {
      "inputs": [
        {
          "internalType": "uint256",
          "name": "_devShare",
          "type": "uint256"
        }
      ],
      "name": "setDevShare",
      "outputs": [],
      "stateMutability": "nonpayable",
      "type": "function"
    },
    {
      "inputs": [
        {
          "internalType": "string",
          "name": "_notRevealedURI",
          "type": "string"
        }
      ],
      "name": "setNotRevealedURI",
      "outputs": [],
      "stateMutability": "nonpayable",
      "type": "function"
    },
    {
      "inputs": [
        {
          "internalType": "address",
          "name": "_royaltyContract",
          "type": "address"
        }
      ],
      "name": "setRoyaltyContract",
      "outputs": [],
      "stateMutability": "nonpayable",
      "type": "function"
    },
    {
      "inputs": [
        {
          "internalType": "uint256",
          "name": "_royaltyValue",
          "type": "uint256"
        }
      ],
      "name": "setRoyaltyValue",
      "outputs": [],
      "stateMutability": "nonpayable",
      "type": "function"
    },
    {
      "inputs": [
        {
          "internalType": "uint256",
          "name": "_newmaxMintAmount",
          "type": "uint256"
        }
      ],
      "name": "setmaxMintAmount",
      "outputs": [],
      "stateMutability": "nonpayable",
      "type": "function"
    },
    {
      "inputs": [
        {
          "internalType": "bytes4",
          "name": "interfaceId",
          "type": "bytes4"
        }
      ],
      "name": "supportsInterface",
      "outputs": [
        {
          "internalType": "bool",
          "name": "",
          "type": "bool"
        }
      ],
      "stateMutability": "view",
      "type": "function"
    },
    {
      "inputs": [],
      "name": "symbol",
      "outputs": [
        {
          "internalType": "string",
          "name": "",
          "type": "string"
        }
      ],
      "stateMutability": "view",
      "type": "function"
    },
    {
      "inputs": [
        {
          "internalType": "uint256",
          "name": "index",
          "type": "uint256"
        }
      ],
      "name": "tokenByIndex",
      "outputs": [
        {
          "internalType": "uint256",
          "name": "",
          "type": "uint256"
        }
      ],
      "stateMutability": "view",
      "type": "function"
    },
    {
      "inputs": [
        {
          "internalType": "address",
          "name": "owner",
          "type": "address"
        },
        {
          "internalType": "uint256",
          "name": "index",
          "type": "uint256"
        }
      ],
      "name": "tokenOfOwnerByIndex",
      "outputs": [
        {
          "internalType": "uint256",
          "name": "",
          "type": "uint256"
        }
      ],
      "stateMutability": "view",
      "type": "function"
    },
    {
      "inputs": [
        {
          "internalType": "uint256",
          "name": "tokenId",
          "type": "uint256"
        }
      ],
      "name": "tokenURI",
      "outputs": [
        {
          "internalType": "string",
          "name": "",
          "type": "string"
        }
      ],
      "stateMutability": "view",
      "type": "function"
    },
    {
      "inputs": [],
      "name": "totalSupply",
      "outputs": [
        {
          "internalType": "uint256",
          "name": "",
          "type": "uint256"
        }
      ],
      "stateMutability": "view",
      "type": "function"
    },
    {
      "inputs": [
        {
          "internalType": "address",
          "name": "from",
          "type": "address"
        },
        {
          "internalType": "address",
          "name": "to",
          "type": "address"
        },
        {
          "internalType": "uint256",
          "name": "tokenId",
          "type": "uint256"
        }
      ],
      "name": "transferFrom",
      "outputs": [],
      "stateMutability": "nonpayable",
      "type": "function"
    },
    {
      "inputs": [
        {
          "internalType": "address",
          "name": "newOwner",
          "type": "address"
        }
      ],
      "name": "transferOwnership",
      "outputs": [],
      "stateMutability": "nonpayable",
      "type": "function"
    },
    {
      "inputs": [
        {
          "internalType": "uint256",
          "name": "tokenId",
          "type": "uint256"
        }
      ],
      "name": "types",
      "outputs": [
        {
          "internalType": "string",
          "name": "description",
          "type": "string"
        }
      ],
      "stateMutability": "pure",
      "type": "function"
    },
    {
      "inputs": [],
      "name": "walletOfOwner",
      "outputs": [
        {
          "internalType": "uint256[]",
          "name": "",
          "type": "uint256[]"
        }
      ],
      "stateMutability": "view",
      "type": "function"
    },
    {
      "inputs": [],
      "name": "withdraw",
      "outputs": [],
      "stateMutability": "payable",
      "type": "function"
    }
  ],
  "bytecode": "0x60806040526040518060400160405280600581526020017f2e6a736f6e000000000000000000000000000000000000000000000000000000815250600c90805190602001906200005192919062000310565b50671bc16d674ec80000600e556014600f55601460105560056012556000601360006101000a81548160ff0219169083151502179055503480156200009557600080fd5b50604051620054e3380380620054e38339818101604052810190620000bb919062000449565b83838160009080519060200190620000d592919062000310565b508060019080519060200190620000ee92919062000310565b50505062000111620001056200016d60201b60201c565b6200017560201b60201c565b80601360016101000a81548173ffffffffffffffffffffffffffffffffffffffff021916908373ffffffffffffffffffffffffffffffffffffffff16021790555062000163826200023b60201b60201c565b5050505062000741565b600033905090565b6000600a60009054906101000a900473ffffffffffffffffffffffffffffffffffffffff16905081600a60006101000a81548173ffffffffffffffffffffffffffffffffffffffff021916908373ffffffffffffffffffffffffffffffffffffffff1602179055508173ffffffffffffffffffffffffffffffffffffffff168173ffffffffffffffffffffffffffffffffffffffff167f8be0079c531659141344cd1fd0a4f28419497f9722a3daafe3b4186f6b6457e060405160405180910390a35050565b6200024b6200016d60201b60201c565b73ffffffffffffffffffffffffffffffffffffffff1662000271620002e660201b60201c565b73ffffffffffffffffffffffffffffffffffffffff1614620002ca576040517f08c379a0000000000000000000000000000000000000000000000000000000008152600401620002c19062000527565b60405180910390fd5b80600b9080519060200190620002e292919062000310565b5050565b6000600a60009054906101000a900473ffffffffffffffffffffffffffffffffffffffff16905090565b8280546200031e9062000623565b90600052602060002090601f0160209004810192826200034257600085556200038e565b82601f106200035d57805160ff19168380011785556200038e565b828001600101855582156200038e579182015b828111156200038d57825182559160200191906001019062000370565b5b5090506200039d9190620003a1565b5090565b5b80821115620003bc576000816000905550600101620003a2565b5090565b6000620003d7620003d18462000572565b62000549565b905082815260208101848484011115620003f057600080fd5b620003fd848285620005ed565b509392505050565b600081519050620004168162000727565b92915050565b600082601f8301126200042e57600080fd5b815162000440848260208601620003c0565b91505092915050565b600080600080608085870312156200046057600080fd5b600085015167ffffffffffffffff8111156200047b57600080fd5b62000489878288016200041c565b945050602085015167ffffffffffffffff811115620004a757600080fd5b620004b5878288016200041c565b935050604085015167ffffffffffffffff811115620004d357600080fd5b620004e1878288016200041c565b9250506060620004f48782880162000405565b91505092959194509250565b60006200050f602083620005a8565b91506200051c82620006fe565b602082019050919050565b60006020820190508181036000830152620005428162000500565b9050919050565b60006200055562000568565b905062000563828262000659565b919050565b6000604051905090565b600067ffffffffffffffff82111562000590576200058f620006be565b5b6200059b82620006ed565b9050602081019050919050565b600082825260208201905092915050565b6000620005c682620005cd565b9050919050565b600073ffffffffffffffffffffffffffffffffffffffff82169050919050565b60005b838110156200060d578082015181840152602081019050620005f0565b838111156200061d576000848401525b50505050565b600060028204905060018216806200063c57607f821691505b602082108114156200065357620006526200068f565b5b50919050565b6200066482620006ed565b810181811067ffffffffffffffff82111715620006865762000685620006be565b5b80604052505050565b7f4e487b7100000000000000000000000000000000000000000000000000000000600052602260045260246000fd5b7f4e487b7100000000000000000000000000000000000000000000000000000000600052604160045260246000fd5b6000601f19601f8301169050919050565b7f4f776e61626c653a2063616c6c6572206973206e6f7420746865206f776e6572600082015250565b6200073281620005b9565b81146200073e57600080fd5b50565b614d9280620007516000396000f3fe60806040526004361061027d5760003560e01c80636352211e1161014f578063aed04fae116100c1578063d9aa187c1161007a578063d9aa187c14610993578063da3ef23f146109bc578063e985e9c5146109e5578063f2c4ce1e14610a22578063f2fde38b14610a4b578063f851a44014610a745761027d565b8063aed04fae1461086f578063b88d4fde1461089a578063c6682862146108c3578063c87b56dd146108ee578063cefbfa361461092b578063d5abeb01146109685761027d565b8063715018a611610113578063715018a6146107945780637f00c7a6146107ab5780638da5cb5b146107d457806395d89b41146107ff578063a0712d681461082a578063a22cb465146108465761027d565b80636352211e1461069d5780636881a077146106da5780636c0360eb14610703578063704b6c021461072e57806370a08231146107575761027d565b8063239c70ae116101f357806342842e0e116101ac57806342842e0e1461058f57806344a0d68a146105b85780634f6ccce7146105e157806355f804b31461061e5780635c975abb146106475780635fc20588146106725761027d565b8063239c70ae1461048b57806323b872dd146104b65780632a55205a146104df5780632f745c591461051d57806336fdefd41461055a5780633ccfd60b146105855761027d565b8063081c8c4411610245578063081c8c4414610379578063095ea7b3146103a457806313faede6146103cd5780631663ee03146103f857806317bf72c61461042357806318160ddd146104605761027d565b806301ffc9a71461028257806302329a29146102bf57806303c0fa01146102e857806306fdde0314610311578063081812fc1461033c575b600080fd5b34801561028e57600080fd5b506102a960048036038101906102a491906139e0565b610a9f565b6040516102b691906140bb565b60405180910390f35b3480156102cb57600080fd5b506102e660048036038101906102e191906139b7565b610b19565b005b3480156102f457600080fd5b5061030f600480360381019061030a9190613a73565b610bb2565b005b34801561031d57600080fd5b50610326610c38565b60405161033391906140d6565b60405180910390f35b34801561034857600080fd5b50610363600480360381019061035e9190613a73565b610cca565b6040516103709190613fee565b60405180910390f35b34801561038557600080fd5b5061038e610d4f565b60405161039b91906140d6565b60405180910390f35b3480156103b057600080fd5b506103cb60048036038101906103c6919061397b565b610ddd565b005b3480156103d957600080fd5b506103e2610ef5565b6040516103ef9190614338565b60405180910390f35b34801561040457600080fd5b5061040d610efb565b60405161041a9190614009565b60405180910390f35b34801561042f57600080fd5b5061044a60048036038101906104459190613a73565b610f21565b6040516104579190614338565b60405180910390f35b34801561046c57600080fd5b50610475610f39565b6040516104829190614338565b60405180910390f35b34801561049757600080fd5b506104a0610f46565b6040516104ad9190614338565b60405180910390f35b3480156104c257600080fd5b506104dd60048036038101906104d89190613875565b610f4c565b005b3480156104eb57600080fd5b5061050660048036038101906105019190613a9c565b610fac565b604051610514929190614070565b60405180910390f35b34801561052957600080fd5b50610544600480360381019061053f919061397b565b610ff8565b6040516105519190614338565b60405180910390f35b34801561056657600080fd5b5061056f61109d565b60405161057c9190614099565b60405180910390f35b61058d611195565b005b34801561059b57600080fd5b506105b660048036038101906105b19190613875565b611343565b005b3480156105c457600080fd5b506105df60048036038101906105da9190613a73565b611363565b005b3480156105ed57600080fd5b5061060860048036038101906106039190613a73565b6113e9565b6040516106159190614338565b60405180910390f35b34801561062a57600080fd5b5061064560048036038101906106409190613a32565b611480565b005b34801561065357600080fd5b5061065c611516565b60405161066991906140bb565b60405180910390f35b34801561067e57600080fd5b50610687611529565b6040516106949190614338565b60405180910390f35b3480156106a957600080fd5b506106c460048036038101906106bf9190613a73565b61152f565b6040516106d19190613fee565b60405180910390f35b3480156106e657600080fd5b5061070160048036038101906106fc9190613a73565b6115e1565b005b34801561070f57600080fd5b50610718611667565b60405161072591906140d6565b60405180910390f35b34801561073a57600080fd5b5061075560048036038101906107509190613810565b6116f5565b005b34801561076357600080fd5b5061077e60048036038101906107799190613810565b6117b5565b60405161078b9190614338565b60405180910390f35b3480156107a057600080fd5b506107a961186d565b005b3480156107b757600080fd5b506107d260048036038101906107cd9190613a73565b6118f5565b005b3480156107e057600080fd5b506107e961197b565b6040516107f69190613fee565b60405180910390f35b34801561080b57600080fd5b506108146119a5565b60405161082191906140d6565b60405180910390f35b610844600480360381019061083f9190613a73565b611a37565b005b34801561085257600080fd5b5061086d6004803603810190610868919061393f565b611b81565b005b34801561087b57600080fd5b50610884611d02565b6040516108919190614338565b60405180910390f35b3480156108a657600080fd5b506108c160048036038101906108bc91906138c4565b611d08565b005b3480156108cf57600080fd5b506108d8611d6a565b6040516108e591906140d6565b60405180910390f35b3480156108fa57600080fd5b5061091560048036038101906109109190613a73565b611df8565b60405161092291906140d6565b60405180910390f35b34801561093757600080fd5b50610952600480360381019061094d9190613a73565b611ea2565b60405161095f91906140d6565b60405180910390f35b34801561097457600080fd5b5061097d611fef565b60405161098a9190614338565b60405180910390f35b34801561099f57600080fd5b506109ba60048036038101906109b59190613810565b611ff5565b005b3480156109c857600080fd5b506109e360048036038101906109de9190613a32565b6120b5565b005b3480156109f157600080fd5b50610a0c6004803603810190610a079190613839565b61214b565b604051610a1991906140bb565b60405180910390f35b348015610a2e57600080fd5b50610a496004803603810190610a449190613a32565b6121df565b005b348015610a5757600080fd5b50610a726004803603810190610a6d9190613810565b612275565b005b348015610a8057600080fd5b50610a8961236d565b604051610a969190614009565b60405180910390f35b60007f780e9d63000000000000000000000000000000000000000000000000000000007bffffffffffffffffffffffffffffffffffffffffffffffffffffffff1916827bffffffffffffffffffffffffffffffffffffffffffffffffffffffff19161480610b125750610b1182612393565b5b9050919050565b610b21612475565b73ffffffffffffffffffffffffffffffffffffffff16610b3f61197b565b73ffffffffffffffffffffffffffffffffffffffff1614610b95576040517f08c379a0000000000000000000000000000000000000000000000000000000008152600401610b8c90614278565b60405180910390fd5b80601360006101000a81548160ff02191690831515021790555050565b610bba612475565b73ffffffffffffffffffffffffffffffffffffffff16610bd861197b565b73ffffffffffffffffffffffffffffffffffffffff1614610c2e576040517f08c379a0000000000000000000000000000000000000000000000000000000008152600401610c2590614278565b60405180910390fd5b8060128190555050565b606060008054610c4790614653565b80601f0160208091040260200160405190810160405280929190818152602001828054610c7390614653565b8015610cc05780601f10610c9557610100808354040283529160200191610cc0565b820191906000526020600020905b815481529060010190602001808311610ca357829003601f168201915b5050505050905090565b6000610cd58261247d565b610d14576040517f08c379a0000000000000000000000000000000000000000000000000000000008152600401610d0b90614258565b60405180910390fd5b6004600083815260200190815260200160002060009054906101000a900473ffffffffffffffffffffffffffffffffffffffff169050919050565b600d8054610d5c90614653565b80601f0160208091040260200160405190810160405280929190818152602001828054610d8890614653565b8015610dd55780601f10610daa57610100808354040283529160200191610dd5565b820191906000526020600020905b815481529060010190602001808311610db857829003601f168201915b505050505081565b6000610de88261152f565b90508073ffffffffffffffffffffffffffffffffffffffff168373ffffffffffffffffffffffffffffffffffffffff161415610e59576040517f08c379a0000000000000000000000000000000000000000000000000000000008152600401610e50906142d8565b60405180910390fd5b8073ffffffffffffffffffffffffffffffffffffffff16610e78612475565b73ffffffffffffffffffffffffffffffffffffffff161480610ea75750610ea681610ea1612475565b61214b565b5b610ee6576040517f08c379a0000000000000000000000000000000000000000000000000000000008152600401610edd906141d8565b60405180910390fd5b610ef083836124e9565b505050565b600e5481565b601460009054906101000a900473ffffffffffffffffffffffffffffffffffffffff1681565b60156020528060005260406000206000915090505481565b6000600880549050905090565b60105481565b610f5d610f57612475565b826125a2565b610f9c576040517f08c379a0000000000000000000000000000000000000000000000000000000008152600401610f93906142f8565b60405180910390fd5b610fa7838383612680565b505050565b600080601460009054906101000a900473ffffffffffffffffffffffffffffffffffffffff1661271060115485610fe391906144fd565b610fed91906144cc565b915091509250929050565b6000611003836117b5565b8210611044576040517f08c379a000000000000000000000000000000000000000000000000000000000815260040161103b906140f8565b60405180910390fd5b600660008473ffffffffffffffffffffffffffffffffffffffff1673ffffffffffffffffffffffffffffffffffffffff168152602001908152602001600020600083815260200190815260200160002054905092915050565b606060006110aa336117b5565b905060008167ffffffffffffffff8111156110ee577f4e487b7100000000000000000000000000000000000000000000000000000000600052604160045260246000fd5b60405190808252806020026020018201604052801561111c5781602001602082028036833780820191505090505b50905060005b8281101561118c576111343382610ff8565b82828151811061116d577f4e487b7100000000000000000000000000000000000000000000000000000000600052603260045260246000fd5b6020026020010181815250508080611184906146b6565b915050611122565b50809250505090565b61119d612475565b73ffffffffffffffffffffffffffffffffffffffff166111bb61197b565b73ffffffffffffffffffffffffffffffffffffffff1614611211576040517f08c379a000000000000000000000000000000000000000000000000000000000815260040161120890614278565b60405180910390fd5b600061121b61197b565b73ffffffffffffffffffffffffffffffffffffffff1660646012544761124191906144fd565b61124b91906144cc565b60405161125790613f9c565b60006040518083038185875af1925050503d8060008114611294576040519150601f19603f3d011682016040523d82523d6000602084013e611299565b606091505b50509050806112a757600080fd5b6000601360019054906101000a900473ffffffffffffffffffffffffffffffffffffffff1673ffffffffffffffffffffffffffffffffffffffff16476040516112ef90613f9c565b60006040518083038185875af1925050503d806000811461132c576040519150601f19603f3d011682016040523d82523d6000602084013e611331565b606091505b505090508061133f57600080fd5b5050565b61135e83838360405180602001604052806000815250611d08565b505050565b61136b612475565b73ffffffffffffffffffffffffffffffffffffffff1661138961197b565b73ffffffffffffffffffffffffffffffffffffffff16146113df576040517f08c379a00000000000000000000000000000000000000000000000000000000081526004016113d690614278565b60405180910390fd5b80600e8190555050565b60006113f3610f39565b8210611434576040517f08c379a000000000000000000000000000000000000000000000000000000000815260040161142b90614318565b60405180910390fd5b6008828154811061146e577f4e487b7100000000000000000000000000000000000000000000000000000000600052603260045260246000fd5b90600052602060002001549050919050565b611488612475565b73ffffffffffffffffffffffffffffffffffffffff166114a661197b565b73ffffffffffffffffffffffffffffffffffffffff16146114fc576040517f08c379a00000000000000000000000000000000000000000000000000000000081526004016114f390614278565b60405180910390fd5b80600b9080519060200190611512929190613634565b5050565b601360009054906101000a900460ff1681565b60115481565b6000806002600084815260200190815260200160002060009054906101000a900473ffffffffffffffffffffffffffffffffffffffff169050600073ffffffffffffffffffffffffffffffffffffffff168173ffffffffffffffffffffffffffffffffffffffff1614156115d8576040517f08c379a00000000000000000000000000000000000000000000000000000000081526004016115cf90614218565b60405180910390fd5b80915050919050565b6115e9612475565b73ffffffffffffffffffffffffffffffffffffffff1661160761197b565b73ffffffffffffffffffffffffffffffffffffffff161461165d576040517f08c379a000000000000000000000000000000000000000000000000000000000815260040161165490614278565b60405180910390fd5b8060118190555050565b600b805461167490614653565b80601f01602080910402602001604051908101604052809291908181526020018280546116a090614653565b80156116ed5780601f106116c2576101008083540402835291602001916116ed565b820191906000526020600020905b8154815290600101906020018083116116d057829003601f168201915b505050505081565b6116fd612475565b73ffffffffffffffffffffffffffffffffffffffff1661171b61197b565b73ffffffffffffffffffffffffffffffffffffffff1614611771576040517f08c379a000000000000000000000000000000000000000000000000000000000815260040161176890614278565b60405180910390fd5b80601360016101000a81548173ffffffffffffffffffffffffffffffffffffffff021916908373ffffffffffffffffffffffffffffffffffffffff16021790555050565b60008073ffffffffffffffffffffffffffffffffffffffff168273ffffffffffffffffffffffffffffffffffffffff161415611826576040517f08c379a000000000000000000000000000000000000000000000000000000000815260040161181d906141f8565b60405180910390fd5b600360008373ffffffffffffffffffffffffffffffffffffffff1673ffffffffffffffffffffffffffffffffffffffff168152602001908152602001600020549050919050565b611875612475565b73ffffffffffffffffffffffffffffffffffffffff1661189361197b565b73ffffffffffffffffffffffffffffffffffffffff16146118e9576040517f08c379a00000000000000000000000000000000000000000000000000000000081526004016118e090614278565b60405180910390fd5b6118f360006128dc565b565b6118fd612475565b73ffffffffffffffffffffffffffffffffffffffff1661191b61197b565b73ffffffffffffffffffffffffffffffffffffffff1614611971576040517f08c379a000000000000000000000000000000000000000000000000000000000815260040161196890614278565b60405180910390fd5b8060108190555050565b6000600a60009054906101000a900473ffffffffffffffffffffffffffffffffffffffff16905090565b6060600180546119b490614653565b80601f01602080910402602001604051908101604052809291908181526020018280546119e090614653565b8015611a2d5780601f10611a0257610100808354040283529160200191611a2d565b820191906000526020600020905b815481529060010190602001808311611a1057829003601f168201915b5050505050905090565b601360009054906101000a900460ff1615611a5157600080fd5b6000611a5b610f39565b905060008211611a6a57600080fd5b601054821115611a7957600080fd5b600f548282611a889190614476565b1115611a9357600080fd5b611a9b61197b565b73ffffffffffffffffffffffffffffffffffffffff163373ffffffffffffffffffffffffffffffffffffffff1614158015611b245750601360019054906101000a900473ffffffffffffffffffffffffffffffffffffffff1673ffffffffffffffffffffffffffffffffffffffff163373ffffffffffffffffffffffffffffffffffffffff1614155b15611b445781600e54611b3791906144fd565b341015611b4357600080fd5b5b6000600190505b828111611b7c576000611b5c6129a2565b9050611b683382612aad565b508080611b74906146b6565b915050611b4b565b505050565b611b89612475565b73ffffffffffffffffffffffffffffffffffffffff168273ffffffffffffffffffffffffffffffffffffffff161415611bf7576040517f08c379a0000000000000000000000000000000000000000000000000000000008152600401611bee90614198565b60405180910390fd5b8060056000611c04612475565b73ffffffffffffffffffffffffffffffffffffffff1673ffffffffffffffffffffffffffffffffffffffff16815260200190815260200160002060008473ffffffffffffffffffffffffffffffffffffffff1673ffffffffffffffffffffffffffffffffffffffff16815260200190815260200160002060006101000a81548160ff0219169083151502179055508173ffffffffffffffffffffffffffffffffffffffff16611cb1612475565b73ffffffffffffffffffffffffffffffffffffffff167f17307eab39ab6107e8899845ad3d59bd9653f200f220920489ca2b5937696c3183604051611cf691906140bb565b60405180910390a35050565b60125481565b611d19611d13612475565b836125a2565b611d58576040517f08c379a0000000000000000000000000000000000000000000000000000000008152600401611d4f906142f8565b60405180910390fd5b611d6484848484612acb565b50505050565b600c8054611d7790614653565b80601f0160208091040260200160405190810160405280929190818152602001828054611da390614653565b8015611df05780601f10611dc557610100808354040283529160200191611df0565b820191906000526020600020905b815481529060010190602001808311611dd357829003601f168201915b505050505081565b6060611e038261247d565b611e42576040517f08c379a0000000000000000000000000000000000000000000000000000000008152600401611e39906142b8565b60405180910390fd5b6000611e4c612b27565b90506000815111611e6c5760405180602001604052806000815250611e9a565b80611e7684612bb9565b600c604051602001611e8a93929190613f6b565b6040516020818303038152906040525b915050919050565b60606104578211611eea576040518060400160405280600881526020017f4b6172616d6269740000000000000000000000000000000000000000000000008152509050611fea565b61045782118015611efd57506108ae8211155b15611f3f576040518060400160405280600881526020017f546163746963616c0000000000000000000000000000000000000000000000008152509050611fea565b6108ae82118015611f525750610d058211155b15611f94576040518060400160405280600981526020017f427574746572666c7900000000000000000000000000000000000000000000008152509050611fea565b610d0582118015611fa7575061115c8211155b15611fe9576040518060400160405280600581526020017f4b756e61690000000000000000000000000000000000000000000000000000008152509050611fea565b5b919050565b600f5481565b611ffd612475565b73ffffffffffffffffffffffffffffffffffffffff1661201b61197b565b73ffffffffffffffffffffffffffffffffffffffff1614612071576040517f08c379a000000000000000000000000000000000000000000000000000000000815260040161206890614278565b60405180910390fd5b80601460006101000a81548173ffffffffffffffffffffffffffffffffffffffff021916908373ffffffffffffffffffffffffffffffffffffffff16021790555050565b6120bd612475565b73ffffffffffffffffffffffffffffffffffffffff166120db61197b565b73ffffffffffffffffffffffffffffffffffffffff1614612131576040517f08c379a000000000000000000000000000000000000000000000000000000000815260040161212890614278565b60405180910390fd5b80600c9080519060200190612147929190613634565b5050565b6000600560008473ffffffffffffffffffffffffffffffffffffffff1673ffffffffffffffffffffffffffffffffffffffff16815260200190815260200160002060008373ffffffffffffffffffffffffffffffffffffffff1673ffffffffffffffffffffffffffffffffffffffff16815260200190815260200160002060009054906101000a900460ff16905092915050565b6121e7612475565b73ffffffffffffffffffffffffffffffffffffffff1661220561197b565b73ffffffffffffffffffffffffffffffffffffffff161461225b576040517f08c379a000000000000000000000000000000000000000000000000000000000815260040161225290614278565b60405180910390fd5b80600d9080519060200190612271929190613634565b5050565b61227d612475565b73ffffffffffffffffffffffffffffffffffffffff1661229b61197b565b73ffffffffffffffffffffffffffffffffffffffff16146122f1576040517f08c379a00000000000000000000000000000000000000000000000000000000081526004016122e890614278565b60405180910390fd5b600073ffffffffffffffffffffffffffffffffffffffff168173ffffffffffffffffffffffffffffffffffffffff161415612361576040517f08c379a000000000000000000000000000000000000000000000000000000000815260040161235890614138565b60405180910390fd5b61236a816128dc565b50565b601360019054906101000a900473ffffffffffffffffffffffffffffffffffffffff1681565b60007f80ac58cd000000000000000000000000000000000000000000000000000000007bffffffffffffffffffffffffffffffffffffffffffffffffffffffff1916827bffffffffffffffffffffffffffffffffffffffffffffffffffffffff1916148061245e57507f5b5e139f000000000000000000000000000000000000000000000000000000007bffffffffffffffffffffffffffffffffffffffffffffffffffffffff1916827bffffffffffffffffffffffffffffffffffffffffffffffffffffffff1916145b8061246e575061246d82612d66565b5b9050919050565b600033905090565b60008073ffffffffffffffffffffffffffffffffffffffff166002600084815260200190815260200160002060009054906101000a900473ffffffffffffffffffffffffffffffffffffffff1673ffffffffffffffffffffffffffffffffffffffff1614159050919050565b816004600083815260200190815260200160002060006101000a81548173ffffffffffffffffffffffffffffffffffffffff021916908373ffffffffffffffffffffffffffffffffffffffff160217905550808273ffffffffffffffffffffffffffffffffffffffff1661255c8361152f565b73ffffffffffffffffffffffffffffffffffffffff167f8c5be1e5ebec7d5bd14f71427d1e84f3dd0314c0f7b2291e5b200ac8c7c3b92560405160405180910390a45050565b60006125ad8261247d565b6125ec576040517f08c379a00000000000000000000000000000000000000000000000000000000081526004016125e3906141b8565b60405180910390fd5b60006125f78361152f565b90508073ffffffffffffffffffffffffffffffffffffffff168473ffffffffffffffffffffffffffffffffffffffff16148061266657508373ffffffffffffffffffffffffffffffffffffffff1661264e84610cca565b73ffffffffffffffffffffffffffffffffffffffff16145b806126775750612676818561214b565b5b91505092915050565b8273ffffffffffffffffffffffffffffffffffffffff166126a08261152f565b73ffffffffffffffffffffffffffffffffffffffff16146126f6576040517f08c379a00000000000000000000000000000000000000000000000000000000081526004016126ed90614298565b60405180910390fd5b600073ffffffffffffffffffffffffffffffffffffffff168273ffffffffffffffffffffffffffffffffffffffff161415612766576040517f08c379a000000000000000000000000000000000000000000000000000000000815260040161275d90614178565b60405180910390fd5b612771838383612dd0565b61277c6000826124e9565b6001600360008573ffffffffffffffffffffffffffffffffffffffff1673ffffffffffffffffffffffffffffffffffffffff16815260200190815260200160002060008282546127cc9190614557565b925050819055506001600360008473ffffffffffffffffffffffffffffffffffffffff1673ffffffffffffffffffffffffffffffffffffffff16815260200190815260200160002060008282546128239190614476565b92505081905550816002600083815260200190815260200160002060006101000a81548173ffffffffffffffffffffffffffffffffffffffff021916908373ffffffffffffffffffffffffffffffffffffffff160217905550808273ffffffffffffffffffffffffffffffffffffffff168473ffffffffffffffffffffffffffffffffffffffff167fddf252ad1be2c89b69c2b068fc378daa952ba7f163c4a11628f55a4df523b3ef60405160405180910390a4505050565b6000600a60009054906101000a900473ffffffffffffffffffffffffffffffffffffffff16905081600a60006101000a81548173ffffffffffffffffffffffffffffffffffffffff021916908373ffffffffffffffffffffffffffffffffffffffff1602179055508173ffffffffffffffffffffffffffffffffffffffff168173ffffffffffffffffffffffffffffffffffffffff167f8be0079c531659141344cd1fd0a4f28419497f9722a3daafe3b4186f6b6457e060405160405180910390a35050565b6000806129ad610f39565b600f546129ba9190614557565b905060004442836040516020016129d393929190613fb1565b6040516020818303038152906040528051906020012060001c9050600082826129fc9190614709565b90506000601560008381526020019081526020016000205414612a32576015600082815260200190815260200160002054612a34565b805b9350600060156000600186612a499190614557565b81526020019081526020016000205414612a825760156000600185612a6e9190614557565b815260200190815260200160002054612a90565b600183612a8f9190614557565b5b601560008381526020019081526020016000208190555050505090565b612ac7828260405180602001604052806000815250612ee4565b5050565b612ad6848484612680565b612ae284848484612f3f565b612b21576040517f08c379a0000000000000000000000000000000000000000000000000000000008152600401612b1890614118565b60405180910390fd5b50505050565b6060600b8054612b3690614653565b80601f0160208091040260200160405190810160405280929190818152602001828054612b6290614653565b8015612baf5780601f10612b8457610100808354040283529160200191612baf565b820191906000526020600020905b815481529060010190602001808311612b9257829003601f168201915b5050505050905090565b60606000821415612c01576040518060400160405280600181526020017f30000000000000000000000000000000000000000000000000000000000000008152509050612d61565b600082905060005b60008214612c33578080612c1c906146b6565b915050600a82612c2c91906144cc565b9150612c09565b60008167ffffffffffffffff811115612c75577f4e487b7100000000000000000000000000000000000000000000000000000000600052604160045260246000fd5b6040519080825280601f01601f191660200182016040528015612ca75781602001600182028036833780820191505090505b5090505b60008514612d5a57600182612cc09190614557565b9150600a85612ccf9190614709565b6030612cdb9190614476565b60f81b818381518110612d17577f4e487b7100000000000000000000000000000000000000000000000000000000600052603260045260246000fd5b60200101907effffffffffffffffffffffffffffffffffffffffffffffffffffffffffffff1916908160001a905350600a85612d5391906144cc565b9450612cab565b8093505050505b919050565b60007f01ffc9a7000000000000000000000000000000000000000000000000000000007bffffffffffffffffffffffffffffffffffffffffffffffffffffffff1916827bffffffffffffffffffffffffffffffffffffffffffffffffffffffff1916149050919050565b612ddb8383836130d6565b600073ffffffffffffffffffffffffffffffffffffffff168373ffffffffffffffffffffffffffffffffffffffff161415612e1e57612e19816130db565b612e5d565b8173ffffffffffffffffffffffffffffffffffffffff168373ffffffffffffffffffffffffffffffffffffffff1614612e5c57612e5b8382613124565b5b5b600073ffffffffffffffffffffffffffffffffffffffff168273ffffffffffffffffffffffffffffffffffffffff161415612ea057612e9b81613291565b612edf565b8273ffffffffffffffffffffffffffffffffffffffff168273ffffffffffffffffffffffffffffffffffffffff1614612ede57612edd82826133d4565b5b5b505050565b612eee8383613453565b612efb6000848484612f3f565b612f3a576040517f08c379a0000000000000000000000000000000000000000000000000000000008152600401612f3190614118565b60405180910390fd5b505050565b6000612f608473ffffffffffffffffffffffffffffffffffffffff16613621565b156130c9578373ffffffffffffffffffffffffffffffffffffffff1663150b7a02612f89612475565b8786866040518563ffffffff1660e01b8152600401612fab9493929190614024565b602060405180830381600087803b158015612fc557600080fd5b505af1925050508015612ff657506040513d601f19601f82011682018060405250810190612ff39190613a09565b60015b613079573d8060008114613026576040519150601f19603f3d011682016040523d82523d6000602084013e61302b565b606091505b50600081511415613071576040517f08c379a000000000000000000000000000000000000000000000000000000000815260040161306890614118565b60405180910390fd5b805181602001fd5b63150b7a0260e01b7bffffffffffffffffffffffffffffffffffffffffffffffffffffffff1916817bffffffffffffffffffffffffffffffffffffffffffffffffffffffff1916149150506130ce565b600190505b949350505050565b505050565b6008805490506009600083815260200190815260200160002081905550600881908060018154018082558091505060019003906000526020600020016000909190919091505550565b60006001613131846117b5565b61313b9190614557565b9050600060076000848152602001908152602001600020549050818114613220576000600660008673ffffffffffffffffffffffffffffffffffffffff1673ffffffffffffffffffffffffffffffffffffffff168152602001908152602001600020600084815260200190815260200160002054905080600660008773ffffffffffffffffffffffffffffffffffffffff1673ffffffffffffffffffffffffffffffffffffffff168152602001908152602001600020600084815260200190815260200160002081905550816007600083815260200190815260200160002081905550505b6007600084815260200190815260200160002060009055600660008573ffffffffffffffffffffffffffffffffffffffff1673ffffffffffffffffffffffffffffffffffffffff16815260200190815260200160002060008381526020019081526020016000206000905550505050565b600060016008805490506132a59190614557565b90506000600960008481526020019081526020016000205490506000600883815481106132fb577f4e487b7100000000000000000000000000000000000000000000000000000000600052603260045260246000fd5b906000526020600020015490508060088381548110613343577f4e487b7100000000000000000000000000000000000000000000000000000000600052603260045260246000fd5b9060005260206000200181905550816009600083815260200190815260200160002081905550600960008581526020019081526020016000206000905560088054806133b8577f4e487b7100000000000000000000000000000000000000000000000000000000600052603160045260246000fd5b6001900381819060005260206000200160009055905550505050565b60006133df836117b5565b905081600660008573ffffffffffffffffffffffffffffffffffffffff1673ffffffffffffffffffffffffffffffffffffffff168152602001908152602001600020600083815260200190815260200160002081905550806007600084815260200190815260200160002081905550505050565b600073ffffffffffffffffffffffffffffffffffffffff168273ffffffffffffffffffffffffffffffffffffffff1614156134c3576040517f08c379a00000000000000000000000000000000000000000000000000000000081526004016134ba90614238565b60405180910390fd5b6134cc8161247d565b1561350c576040517f08c379a000000000000000000000000000000000000000000000000000000000815260040161350390614158565b60405180910390fd5b61351860008383612dd0565b6001600360008473ffffffffffffffffffffffffffffffffffffffff1673ffffffffffffffffffffffffffffffffffffffff16815260200190815260200160002060008282546135689190614476565b92505081905550816002600083815260200190815260200160002060006101000a81548173ffffffffffffffffffffffffffffffffffffffff021916908373ffffffffffffffffffffffffffffffffffffffff160217905550808273ffffffffffffffffffffffffffffffffffffffff16600073ffffffffffffffffffffffffffffffffffffffff167fddf252ad1be2c89b69c2b068fc378daa952ba7f163c4a11628f55a4df523b3ef60405160405180910390a45050565b600080823b905060008111915050919050565b82805461364090614653565b90600052602060002090601f01602090048101928261366257600085556136a9565b82601f1061367b57805160ff19168380011785556136a9565b828001600101855582156136a9579182015b828111156136a857825182559160200191906001019061368d565b5b5090506136b691906136ba565b5090565b5b808211156136d35760008160009055506001016136bb565b5090565b60006136ea6136e584614378565b614353565b90508281526020810184848401111561370257600080fd5b61370d848285614611565b509392505050565b6000613728613723846143a9565b614353565b90508281526020810184848401111561374057600080fd5b61374b848285614611565b509392505050565b60008135905061376281614d00565b92915050565b60008135905061377781614d17565b92915050565b60008135905061378c81614d2e565b92915050565b6000815190506137a181614d2e565b92915050565b600082601f8301126137b857600080fd5b81356137c88482602086016136d7565b91505092915050565b600082601f8301126137e257600080fd5b81356137f2848260208601613715565b91505092915050565b60008135905061380a81614d45565b92915050565b60006020828403121561382257600080fd5b600061383084828501613753565b91505092915050565b6000806040838503121561384c57600080fd5b600061385a85828601613753565b925050602061386b85828601613753565b9150509250929050565b60008060006060848603121561388a57600080fd5b600061389886828701613753565b93505060206138a986828701613753565b92505060406138ba868287016137fb565b9150509250925092565b600080600080608085870312156138da57600080fd5b60006138e887828801613753565b94505060206138f987828801613753565b935050604061390a878288016137fb565b925050606085013567ffffffffffffffff81111561392757600080fd5b613933878288016137a7565b91505092959194509250565b6000806040838503121561395257600080fd5b600061396085828601613753565b925050602061397185828601613768565b9150509250929050565b6000806040838503121561398e57600080fd5b600061399c85828601613753565b92505060206139ad858286016137fb565b9150509250929050565b6000602082840312156139c957600080fd5b60006139d784828501613768565b91505092915050565b6000602082840312156139f257600080fd5b6000613a008482850161377d565b91505092915050565b600060208284031215613a1b57600080fd5b6000613a2984828501613792565b91505092915050565b600060208284031215613a4457600080fd5b600082013567ffffffffffffffff811115613a5e57600080fd5b613a6a848285016137d1565b91505092915050565b600060208284031215613a8557600080fd5b6000613a93848285016137fb565b91505092915050565b60008060408385031215613aaf57600080fd5b6000613abd858286016137fb565b9250506020613ace858286016137fb565b9150509250929050565b6000613ae48383613f36565b60208301905092915050565b613af98161459d565b82525050565b613b088161458b565b82525050565b6000613b19826143ff565b613b23818561442d565b9350613b2e836143da565b8060005b83811015613b5f578151613b468882613ad8565b9750613b5183614420565b925050600181019050613b32565b5085935050505092915050565b613b75816145af565b82525050565b6000613b868261440a565b613b90818561443e565b9350613ba0818560208601614620565b613ba9816147f6565b840191505092915050565b6000613bbf82614415565b613bc9818561445a565b9350613bd9818560208601614620565b613be2816147f6565b840191505092915050565b6000613bf882614415565b613c02818561446b565b9350613c12818560208601614620565b80840191505092915050565b60008154613c2b81614653565b613c35818661446b565b94506001821660008114613c505760018114613c6157613c94565b60ff19831686528186019350613c94565b613c6a856143ea565b60005b83811015613c8c57815481890152600182019150602081019050613c6d565b838801955050505b50505092915050565b6000613caa602b8361445a565b9150613cb582614807565b604082019050919050565b6000613ccd60328361445a565b9150613cd882614856565b604082019050919050565b6000613cf060268361445a565b9150613cfb826148a5565b604082019050919050565b6000613d13601c8361445a565b9150613d1e826148f4565b602082019050919050565b6000613d3660248361445a565b9150613d418261491d565b604082019050919050565b6000613d5960198361445a565b9150613d648261496c565b602082019050919050565b6000613d7c602c8361445a565b9150613d8782614995565b604082019050919050565b6000613d9f60388361445a565b9150613daa826149e4565b604082019050919050565b6000613dc2602a8361445a565b9150613dcd82614a33565b604082019050919050565b6000613de560298361445a565b9150613df082614a82565b604082019050919050565b6000613e0860208361445a565b9150613e1382614ad1565b602082019050919050565b6000613e2b602c8361445a565b9150613e3682614afa565b604082019050919050565b6000613e4e60208361445a565b9150613e5982614b49565b602082019050919050565b6000613e7160298361445a565b9150613e7c82614b72565b604082019050919050565b6000613e94602f8361445a565b9150613e9f82614bc1565b604082019050919050565b6000613eb760218361445a565b9150613ec282614c10565b604082019050919050565b6000613eda60008361444f565b9150613ee582614c5f565b600082019050919050565b6000613efd60318361445a565b9150613f0882614c62565b604082019050919050565b6000613f20602c8361445a565b9150613f2b82614cb1565b604082019050919050565b613f3f81614607565b82525050565b613f4e81614607565b82525050565b613f65613f6082614607565b6146ff565b82525050565b6000613f778286613bed565b9150613f838285613bed565b9150613f8f8284613c1e565b9150819050949350505050565b6000613fa782613ecd565b9150819050919050565b6000613fbd8286613f54565b602082019150613fcd8285613f54565b602082019150613fdd8284613f54565b602082019150819050949350505050565b60006020820190506140036000830184613aff565b92915050565b600060208201905061401e6000830184613af0565b92915050565b60006080820190506140396000830187613aff565b6140466020830186613aff565b6140536040830185613f45565b81810360608301526140658184613b7b565b905095945050505050565b60006040820190506140856000830185613aff565b6140926020830184613f45565b9392505050565b600060208201905081810360008301526140b38184613b0e565b905092915050565b60006020820190506140d06000830184613b6c565b92915050565b600060208201905081810360008301526140f08184613bb4565b905092915050565b6000602082019050818103600083015261411181613c9d565b9050919050565b6000602082019050818103600083015261413181613cc0565b9050919050565b6000602082019050818103600083015261415181613ce3565b9050919050565b6000602082019050818103600083015261417181613d06565b9050919050565b6000602082019050818103600083015261419181613d29565b9050919050565b600060208201905081810360008301526141b181613d4c565b9050919050565b600060208201905081810360008301526141d181613d6f565b9050919050565b600060208201905081810360008301526141f181613d92565b9050919050565b6000602082019050818103600083015261421181613db5565b9050919050565b6000602082019050818103600083015261423181613dd8565b9050919050565b6000602082019050818103600083015261425181613dfb565b9050919050565b6000602082019050818103600083015261427181613e1e565b9050919050565b6000602082019050818103600083015261429181613e41565b9050919050565b600060208201905081810360008301526142b181613e64565b9050919050565b600060208201905081810360008301526142d181613e87565b9050919050565b600060208201905081810360008301526142f181613eaa565b9050919050565b6000602082019050818103600083015261431181613ef0565b9050919050565b6000602082019050818103600083015261433181613f13565b9050919050565b600060208201905061434d6000830184613f45565b92915050565b600061435d61436e565b90506143698282614685565b919050565b6000604051905090565b600067ffffffffffffffff821115614393576143926147c7565b5b61439c826147f6565b9050602081019050919050565b600067ffffffffffffffff8211156143c4576143c36147c7565b5b6143cd826147f6565b9050602081019050919050565b6000819050602082019050919050565b60008190508160005260206000209050919050565b600081519050919050565b600081519050919050565b600081519050919050565b6000602082019050919050565b600082825260208201905092915050565b600082825260208201905092915050565b600081905092915050565b600082825260208201905092915050565b600081905092915050565b600061448182614607565b915061448c83614607565b9250827fffffffffffffffffffffffffffffffffffffffffffffffffffffffffffffffff038211156144c1576144c061473a565b5b828201905092915050565b60006144d782614607565b91506144e283614607565b9250826144f2576144f1614769565b5b828204905092915050565b600061450882614607565b915061451383614607565b9250817fffffffffffffffffffffffffffffffffffffffffffffffffffffffffffffffff048311821515161561454c5761454b61473a565b5b828202905092915050565b600061456282614607565b915061456d83614607565b9250828210156145805761457f61473a565b5b828203905092915050565b6000614596826145e7565b9050919050565b60006145a8826145e7565b9050919050565b60008115159050919050565b60007fffffffff0000000000000000000000000000000000000000000000000000000082169050919050565b600073ffffffffffffffffffffffffffffffffffffffff82169050919050565b6000819050919050565b82818337600083830152505050565b60005b8381101561463e578082015181840152602081019050614623565b8381111561464d576000848401525b50505050565b6000600282049050600182168061466b57607f821691505b6020821081141561467f5761467e614798565b5b50919050565b61468e826147f6565b810181811067ffffffffffffffff821117156146ad576146ac6147c7565b5b80604052505050565b60006146c182614607565b91507fffffffffffffffffffffffffffffffffffffffffffffffffffffffffffffffff8214156146f4576146f361473a565b5b600182019050919050565b6000819050919050565b600061471482614607565b915061471f83614607565b92508261472f5761472e614769565b5b828206905092915050565b7f4e487b7100000000000000000000000000000000000000000000000000000000600052601160045260246000fd5b7f4e487b7100000000000000000000000000000000000000000000000000000000600052601260045260246000fd5b7f4e487b7100000000000000000000000000000000000000000000000000000000600052602260045260246000fd5b7f4e487b7100000000000000000000000000000000000000000000000000000000600052604160045260246000fd5b6000601f19601f8301169050919050565b7f455243373231456e756d657261626c653a206f776e657220696e646578206f7560008201527f74206f6620626f756e6473000000000000000000000000000000000000000000602082015250565b7f4552433732313a207472616e7366657220746f206e6f6e20455243373231526560008201527f63656976657220696d706c656d656e7465720000000000000000000000000000602082015250565b7f4f776e61626c653a206e6577206f776e657220697320746865207a65726f206160008201527f6464726573730000000000000000000000000000000000000000000000000000602082015250565b7f4552433732313a20746f6b656e20616c7265616479206d696e74656400000000600082015250565b7f4552433732313a207472616e7366657220746f20746865207a65726f2061646460008201527f7265737300000000000000000000000000000000000000000000000000000000602082015250565b7f4552433732313a20617070726f766520746f2063616c6c657200000000000000600082015250565b7f4552433732313a206f70657261746f7220717565727920666f72206e6f6e657860008201527f697374656e7420746f6b656e0000000000000000000000000000000000000000602082015250565b7f4552433732313a20617070726f76652063616c6c6572206973206e6f74206f7760008201527f6e6572206e6f7220617070726f76656420666f7220616c6c0000000000000000602082015250565b7f4552433732313a2062616c616e636520717565727920666f7220746865207a6560008201527f726f206164647265737300000000000000000000000000000000000000000000602082015250565b7f4552433732313a206f776e657220717565727920666f72206e6f6e657869737460008201527f656e7420746f6b656e0000000000000000000000000000000000000000000000602082015250565b7f4552433732313a206d696e7420746f20746865207a65726f2061646472657373600082015250565b7f4552433732313a20617070726f76656420717565727920666f72206e6f6e657860008201527f697374656e7420746f6b656e0000000000000000000000000000000000000000602082015250565b7f4f776e61626c653a2063616c6c6572206973206e6f7420746865206f776e6572600082015250565b7f4552433732313a207472616e73666572206f6620746f6b656e2074686174206960008201527f73206e6f74206f776e0000000000000000000000000000000000000000000000602082015250565b7f4552433732314d657461646174613a2055524920717565727920666f72206e6f60008201527f6e6578697374656e7420746f6b656e0000000000000000000000000000000000602082015250565b7f4552433732313a20617070726f76616c20746f2063757272656e74206f776e6560008201527f7200000000000000000000000000000000000000000000000000000000000000602082015250565b50565b7f4552433732313a207472616e736665722063616c6c6572206973206e6f74206f60008201527f776e6572206e6f7220617070726f766564000000000000000000000000000000602082015250565b7f455243373231456e756d657261626c653a20676c6f62616c20696e646578206f60008201527f7574206f6620626f756e64730000000000000000000000000000000000000000602082015250565b614d098161458b565b8114614d1457600080fd5b50565b614d20816145af565b8114614d2b57600080fd5b50565b614d37816145bb565b8114614d4257600080fd5b50565b614d4e81614607565b8114614d5957600080fd5b5056fea264697066735822122072e65653b8ab9a911a54ceabdcb11eab924c607cab542eba722d0a37c654c3f864736f6c63430008040033",
  "linkReferences": {},
  "deployedLinkReferences": {}
}