{
  "_format": "hh-sol-artifact-1",
  "contractName": "KnivesRoyalties",
  "sourceName": "contracts/KnivesRoyalties.sol",
  "abi": [
    {
      "inputs": [
        {
          "internalType": "contract IKnivesLegacy",
          "name": "_kl",
          "type": "address"
        }
      ],
      "stateMutability": "nonpayable",
      "type": "constructor"
    },
    {
      "anonymous": false,
      "inputs": [
        {
          "indexed": true,
          "internalType": "address",
          "name": "previousOwner",
          "type": "address"
        },
        {
          "indexed": true,
          "internalType": "address",
          "name": "newOwner",
          "type": "address"
        }
      ],
      "name": "OwnershipTransferred",
      "type": "event"
    },
    {
      "inputs": [
        {
          "internalType": "address",
          "name": "_user",
          "type": "address"
        }
      ],
      "name": "claimUserRewards",
      "outputs": [],
      "stateMutability": "nonpayable",
      "type": "function"
    },
    {
      "inputs": [],
      "name": "deposit",
      "outputs": [],
      "stateMutability": "payable",
      "type": "function"
    },
    {
      "inputs": [
        {
          "internalType": "uint256",
          "name": "_tokenId",
          "type": "uint256"
        }
      ],
      "name": "getKnifeReward",
      "outputs": [
        {
          "internalType": "uint256",
          "name": "reward",
          "type": "uint256"
        }
      ],
      "stateMutability": "view",
      "type": "function"
    },
    {
      "inputs": [
        {
          "internalType": "address",
          "name": "_user",
          "type": "address"
        }
      ],
      "name": "getUserRewards",
      "outputs": [
        {
          "internalType": "uint256",
          "name": "user_rewards",
          "type": "uint256"
        }
      ],
      "stateMutability": "view",
      "type": "function"
    },
    {
      "inputs": [],
      "name": "owner",
      "outputs": [
        {
          "internalType": "address",
          "name": "",
          "type": "address"
        }
      ],
      "stateMutability": "view",
      "type": "function"
    },
    {
      "inputs": [],
      "name": "renounceOwnership",
      "outputs": [],
      "stateMutability": "nonpayable",
      "type": "function"
    },
    {
      "inputs": [],
      "name": "totalDeposited",
      "outputs": [
        {
          "internalType": "uint256",
          "name": "",
          "type": "uint256"
        }
      ],
      "stateMutability": "view",
      "type": "function"
    },
    {
      "inputs": [
        {
          "internalType": "address",
          "name": "newOwner",
          "type": "address"
        }
      ],
      "name": "transferOwnership",
      "outputs": [],
      "stateMutability": "nonpayable",
      "type": "function"
    },
    {
      "inputs": [],
      "name": "withdraw",
      "outputs": [],
      "stateMutability": "payable",
      "type": "function"
    },
    {
      "stateMutability": "payable",
      "type": "receive"
    }
  ],
  "bytecode": "0x60806040523480156200001157600080fd5b50604051620010c6380380620010c6833981810160405281019062000037919062000182565b620000576200004b6200009f60201b60201c565b620000a760201b60201c565b80600260006101000a81548173ffffffffffffffffffffffffffffffffffffffff021916908373ffffffffffffffffffffffffffffffffffffffff1602179055505062000210565b600033905090565b60008060009054906101000a900473ffffffffffffffffffffffffffffffffffffffff169050816000806101000a81548173ffffffffffffffffffffffffffffffffffffffff021916908373ffffffffffffffffffffffffffffffffffffffff1602179055508173ffffffffffffffffffffffffffffffffffffffff168173ffffffffffffffffffffffffffffffffffffffff167f8be0079c531659141344cd1fd0a4f28419497f9722a3daafe3b4186f6b6457e060405160405180910390a35050565b6000815190506200017c81620001f6565b92915050565b6000602082840312156200019557600080fd5b6000620001a5848285016200016b565b91505092915050565b6000620001bb82620001d6565b9050919050565b6000620001cf82620001ae565b9050919050565b600073ffffffffffffffffffffffffffffffffffffffff82169050919050565b6200020181620001c2565b81146200020d57600080fd5b50565b610ea680620002206000396000f3fe60806040526004361061008a5760003560e01c80638da5cb5b116100595780638da5cb5b1461014a5780639bab9bc514610175578063d0e30db01461019e578063f2fde38b146101a8578063ff50abdc146101d1576100aa565b8063078b0fb7146100af5780630a593fa8146100ec5780633ccfd60b14610129578063715018a614610133576100aa565b366100aa5734600360008282546100a19190610c29565b92505081905550005b600080fd5b3480156100bb57600080fd5b506100d660048036038101906100d19190610a57565b6101fc565b6040516100e39190610bf2565b60405180910390f35b3480156100f857600080fd5b50610113600480360381019061010e9190610a80565b61039f565b6040516101209190610bf2565b60405180910390f35b610131610473565b005b34801561013f57600080fd5b5061014861056f565b005b34801561015657600080fd5b5061015f6105f7565b60405161016c9190610b6e565b60405180910390f35b34801561018157600080fd5b5061019c60048036038101906101979190610a57565b610620565b005b6101a6610833565b005b3480156101b457600080fd5b506101cf60048036038101906101ca9190610a57565b61084e565b005b3480156101dd57600080fd5b506101e6610946565b6040516101f39190610bf2565b60405180910390f35b600080600260009054906101000a900473ffffffffffffffffffffffffffffffffffffffff1673ffffffffffffffffffffffffffffffffffffffff166370a08231846040518263ffffffff1660e01b815260040161025a9190610b6e565b60206040518083038186803b15801561027257600080fd5b505afa158015610286573d6000803e3d6000fd5b505050506040513d601f19601f820116820180604052508101906102aa9190610aa9565b905060005b81811015610398576000600260009054906101000a900473ffffffffffffffffffffffffffffffffffffffff1673ffffffffffffffffffffffffffffffffffffffff16632f745c5986846040518363ffffffff1660e01b8152600401610316929190610b89565b60206040518083038186803b15801561032e57600080fd5b505afa158015610342573d6000803e3d6000fd5b505050506040513d601f19601f820116820180604052508101906103669190610aa9565b905060006103738261039f565b905080856103819190610c29565b94505050808061039090610d20565b9150506102af565b5050919050565b60006001600083815260200190815260200160002054600260009054906101000a900473ffffffffffffffffffffffffffffffffffffffff1673ffffffffffffffffffffffffffffffffffffffff1663d5abeb016040518163ffffffff1660e01b815260040160206040518083038186803b15801561041d57600080fd5b505afa158015610431573d6000803e3d6000fd5b505050506040513d601f19601f820116820180604052508101906104559190610aa9565b6003546104629190610c7f565b61046c9190610cb0565b9050919050565b61047b61094c565b73ffffffffffffffffffffffffffffffffffffffff166104996105f7565b73ffffffffffffffffffffffffffffffffffffffff16146104ef576040517f08c379a00000000000000000000000000000000000000000000000000000000081526004016104e690610bd2565b60405180910390fd5b60006104f96105f7565b73ffffffffffffffffffffffffffffffffffffffff164760405161051c90610b59565b60006040518083038185875af1925050503d8060008114610559576040519150601f19603f3d011682016040523d82523d6000602084013e61055e565b606091505b505090508061056c57600080fd5b50565b61057761094c565b73ffffffffffffffffffffffffffffffffffffffff166105956105f7565b73ffffffffffffffffffffffffffffffffffffffff16146105eb576040517f08c379a00000000000000000000000000000000000000000000000000000000081526004016105e290610bd2565b60405180910390fd5b6105f56000610954565b565b60008060009054906101000a900473ffffffffffffffffffffffffffffffffffffffff16905090565b600080600260009054906101000a900473ffffffffffffffffffffffffffffffffffffffff1673ffffffffffffffffffffffffffffffffffffffff166370a08231846040518263ffffffff1660e01b815260040161067e9190610b6e565b60206040518083038186803b15801561069657600080fd5b505afa1580156106aa573d6000803e3d6000fd5b505050506040513d601f19601f820116820180604052508101906106ce9190610aa9565b905060005b818110156107e6576000600260009054906101000a900473ffffffffffffffffffffffffffffffffffffffff1673ffffffffffffffffffffffffffffffffffffffff16632f745c5986846040518363ffffffff1660e01b815260040161073a929190610b89565b60206040518083038186803b15801561075257600080fd5b505afa158015610766573d6000803e3d6000fd5b505050506040513d601f19601f8201168201806040525081019061078a9190610aa9565b905060006107978261039f565b9050806001600084815260200190815260200160002060008282546107bc9190610c29565b9250508190555080856107cf9190610c29565b9450505080806107de90610d20565b9150506106d3565b508273ffffffffffffffffffffffffffffffffffffffff166108fc839081150290604051600060405180830381858888f1935050505015801561082d573d6000803e3d6000fd5b50505050565b34600360008282546108459190610c29565b92505081905550565b61085661094c565b73ffffffffffffffffffffffffffffffffffffffff166108746105f7565b73ffffffffffffffffffffffffffffffffffffffff16146108ca576040517f08c379a00000000000000000000000000000000000000000000000000000000081526004016108c190610bd2565b60405180910390fd5b600073ffffffffffffffffffffffffffffffffffffffff168173ffffffffffffffffffffffffffffffffffffffff16141561093a576040517f08c379a000000000000000000000000000000000000000000000000000000000815260040161093190610bb2565b60405180910390fd5b61094381610954565b50565b60035481565b600033905090565b60008060009054906101000a900473ffffffffffffffffffffffffffffffffffffffff169050816000806101000a81548173ffffffffffffffffffffffffffffffffffffffff021916908373ffffffffffffffffffffffffffffffffffffffff1602179055508173ffffffffffffffffffffffffffffffffffffffff168173ffffffffffffffffffffffffffffffffffffffff167f8be0079c531659141344cd1fd0a4f28419497f9722a3daafe3b4186f6b6457e060405160405180910390a35050565b600081359050610a2781610e42565b92915050565b600081359050610a3c81610e59565b92915050565b600081519050610a5181610e59565b92915050565b600060208284031215610a6957600080fd5b6000610a7784828501610a18565b91505092915050565b600060208284031215610a9257600080fd5b6000610aa084828501610a2d565b91505092915050565b600060208284031215610abb57600080fd5b6000610ac984828501610a42565b91505092915050565b610adb81610ce4565b82525050565b6000610aee602683610c18565b9150610af982610dc7565b604082019050919050565b6000610b11602083610c18565b9150610b1c82610e16565b602082019050919050565b6000610b34600083610c0d565b9150610b3f82610e3f565b600082019050919050565b610b5381610d16565b82525050565b6000610b6482610b27565b9150819050919050565b6000602082019050610b836000830184610ad2565b92915050565b6000604082019050610b9e6000830185610ad2565b610bab6020830184610b4a565b9392505050565b60006020820190508181036000830152610bcb81610ae1565b9050919050565b60006020820190508181036000830152610beb81610b04565b9050919050565b6000602082019050610c076000830184610b4a565b92915050565b600081905092915050565b600082825260208201905092915050565b6000610c3482610d16565b9150610c3f83610d16565b9250827fffffffffffffffffffffffffffffffffffffffffffffffffffffffffffffffff03821115610c7457610c73610d69565b5b828201905092915050565b6000610c8a82610d16565b9150610c9583610d16565b925082610ca557610ca4610d98565b5b828204905092915050565b6000610cbb82610d16565b9150610cc683610d16565b925082821015610cd957610cd8610d69565b5b828203905092915050565b6000610cef82610cf6565b9050919050565b600073ffffffffffffffffffffffffffffffffffffffff82169050919050565b6000819050919050565b6000610d2b82610d16565b91507fffffffffffffffffffffffffffffffffffffffffffffffffffffffffffffffff821415610d5e57610d5d610d69565b5b600182019050919050565b7f4e487b7100000000000000000000000000000000000000000000000000000000600052601160045260246000fd5b7f4e487b7100000000000000000000000000000000000000000000000000000000600052601260045260246000fd5b7f4f776e61626c653a206e6577206f776e657220697320746865207a65726f206160008201527f6464726573730000000000000000000000000000000000000000000000000000602082015250565b7f4f776e61626c653a2063616c6c6572206973206e6f7420746865206f776e6572600082015250565b50565b610e4b81610ce4565b8114610e5657600080fd5b50565b610e6281610d16565b8114610e6d57600080fd5b5056fea26469706673582212203429977cae84c5795e538a77b66f112e54611ce5d32a0b447841529cb85ccf1f64736f6c63430008040033",
  "linkReferences": {},
  "deployedLinkReferences": {}
}