{
  "_format": "hh-sol-artifact-1",
  "contractName": "KnivesItems",
  "sourceName": "contracts/KnivesItems.sol",
  "abi": [
    {
      "inputs": [],
      "stateMutability": "nonpayable",
      "type": "constructor"
    },
    {
      "anonymous": false,
      "inputs": [
        {
          "indexed": true,
          "internalType": "address",
          "name": "owner",
          "type": "address"
        },
        {
          "indexed": true,
          "internalType": "address",
          "name": "approved",
          "type": "address"
        },
        {
          "indexed": true,
          "internalType": "uint256",
          "name": "tokenId",
          "type": "uint256"
        }
      ],
      "name": "Approval",
      "type": "event"
    },
    {
      "anonymous": false,
      "inputs": [
        {
          "indexed": true,
          "internalType": "address",
          "name": "owner",
          "type": "address"
        },
        {
          "indexed": true,
          "internalType": "address",
          "name": "operator",
          "type": "address"
        },
        {
          "indexed": false,
          "internalType": "bool",
          "name": "approved",
          "type": "bool"
        }
      ],
      "name": "ApprovalForAll",
      "type": "event"
    },
    {
      "anonymous": false,
      "inputs": [
        {
          "indexed": true,
          "internalType": "address",
          "name": "previousOwner",
          "type": "address"
        },
        {
          "indexed": true,
          "internalType": "address",
          "name": "newOwner",
          "type": "address"
        }
      ],
      "name": "OwnershipTransferred",
      "type": "event"
    },
    {
      "anonymous": false,
      "inputs": [
        {
          "indexed": true,
          "internalType": "address",
          "name": "from",
          "type": "address"
        },
        {
          "indexed": true,
          "internalType": "address",
          "name": "to",
          "type": "address"
        },
        {
          "indexed": true,
          "internalType": "uint256",
          "name": "tokenId",
          "type": "uint256"
        }
      ],
      "name": "Transfer",
      "type": "event"
    },
    {
      "inputs": [
        {
          "internalType": "address",
          "name": "_toAdd",
          "type": "address"
        }
      ],
      "name": "addAuthorized",
      "outputs": [],
      "stateMutability": "nonpayable",
      "type": "function"
    },
    {
      "inputs": [
        {
          "internalType": "address",
          "name": "to",
          "type": "address"
        },
        {
          "internalType": "uint256",
          "name": "tokenId",
          "type": "uint256"
        }
      ],
      "name": "approve",
      "outputs": [],
      "stateMutability": "nonpayable",
      "type": "function"
    },
    {
      "inputs": [
        {
          "internalType": "address",
          "name": "",
          "type": "address"
        }
      ],
      "name": "authorized",
      "outputs": [
        {
          "internalType": "bool",
          "name": "",
          "type": "bool"
        }
      ],
      "stateMutability": "view",
      "type": "function"
    },
    {
      "inputs": [
        {
          "internalType": "address",
          "name": "owner",
          "type": "address"
        }
      ],
      "name": "balanceOf",
      "outputs": [
        {
          "internalType": "uint256",
          "name": "",
          "type": "uint256"
        }
      ],
      "stateMutability": "view",
      "type": "function"
    },
    {
      "inputs": [],
      "name": "baseExtension",
      "outputs": [
        {
          "internalType": "string",
          "name": "",
          "type": "string"
        }
      ],
      "stateMutability": "view",
      "type": "function"
    },
    {
      "inputs": [],
      "name": "baseURI",
      "outputs": [
        {
          "internalType": "string",
          "name": "",
          "type": "string"
        }
      ],
      "stateMutability": "view",
      "type": "function"
    },
    {
      "inputs": [
        {
          "internalType": "uint256",
          "name": "tokenId",
          "type": "uint256"
        }
      ],
      "name": "burn",
      "outputs": [],
      "stateMutability": "nonpayable",
      "type": "function"
    },
    {
      "inputs": [
        {
          "internalType": "uint256",
          "name": "tokenId",
          "type": "uint256"
        }
      ],
      "name": "getApproved",
      "outputs": [
        {
          "internalType": "address",
          "name": "",
          "type": "address"
        }
      ],
      "stateMutability": "view",
      "type": "function"
    },
    {
      "inputs": [
        {
          "internalType": "address",
          "name": "owner",
          "type": "address"
        },
        {
          "internalType": "address",
          "name": "operator",
          "type": "address"
        }
      ],
      "name": "isApprovedForAll",
      "outputs": [
        {
          "internalType": "bool",
          "name": "",
          "type": "bool"
        }
      ],
      "stateMutability": "view",
      "type": "function"
    },
    {
      "inputs": [
        {
          "internalType": "address",
          "name": "_to",
          "type": "address"
        },
        {
          "internalType": "uint256",
          "name": "tokenId",
          "type": "uint256"
        }
      ],
      "name": "mint",
      "outputs": [],
      "stateMutability": "nonpayable",
      "type": "function"
    },
    {
      "inputs": [],
      "name": "name",
      "outputs": [
        {
          "internalType": "string",
          "name": "",
          "type": "string"
        }
      ],
      "stateMutability": "view",
      "type": "function"
    },
    {
      "inputs": [],
      "name": "owner",
      "outputs": [
        {
          "internalType": "address",
          "name": "",
          "type": "address"
        }
      ],
      "stateMutability": "view",
      "type": "function"
    },
    {
      "inputs": [
        {
          "internalType": "uint256",
          "name": "tokenId",
          "type": "uint256"
        }
      ],
      "name": "ownerOf",
      "outputs": [
        {
          "internalType": "address",
          "name": "",
          "type": "address"
        }
      ],
      "stateMutability": "view",
      "type": "function"
    },
    {
      "inputs": [
        {
          "internalType": "address",
          "name": "_toRemove",
          "type": "address"
        }
      ],
      "name": "removeAuthorized",
      "outputs": [],
      "stateMutability": "nonpayable",
      "type": "function"
    },
    {
      "inputs": [],
      "name": "renounceOwnership",
      "outputs": [],
      "stateMutability": "nonpayable",
      "type": "function"
    },
    {
      "inputs": [
        {
          "internalType": "uint256",
          "name": "_tokenId",
          "type": "uint256"
        },
        {
          "internalType": "uint256",
          "name": "_salePrice",
          "type": "uint256"
        }
      ],
      "name": "royaltyInfo",
      "outputs": [
        {
          "internalType": "address",
          "name": "",
          "type": "address"
        },
        {
          "internalType": "uint256",
          "name": "",
          "type": "uint256"
        }
      ],
      "stateMutability": "view",
      "type": "function"
    },
    {
      "inputs": [
        {
          "internalType": "address",
          "name": "from",
          "type": "address"
        },
        {
          "internalType": "address",
          "name": "to",
          "type": "address"
        },
        {
          "internalType": "uint256",
          "name": "tokenId",
          "type": "uint256"
        }
      ],
      "name": "safeTransferFrom",
      "outputs": [],
      "stateMutability": "nonpayable",
      "type": "function"
    },
    {
      "inputs": [
        {
          "internalType": "address",
          "name": "from",
          "type": "address"
        },
        {
          "internalType": "address",
          "name": "to",
          "type": "address"
        },
        {
          "internalType": "uint256",
          "name": "tokenId",
          "type": "uint256"
        },
        {
          "internalType": "bytes",
          "name": "_data",
          "type": "bytes"
        }
      ],
      "name": "safeTransferFrom",
      "outputs": [],
      "stateMutability": "nonpayable",
      "type": "function"
    },
    {
      "inputs": [
        {
          "internalType": "address",
          "name": "operator",
          "type": "address"
        },
        {
          "internalType": "bool",
          "name": "approved",
          "type": "bool"
        }
      ],
      "name": "setApprovalForAll",
      "outputs": [],
      "stateMutability": "nonpayable",
      "type": "function"
    },
    {
      "inputs": [
        {
          "internalType": "string",
          "name": "_newBaseURI",
          "type": "string"
        }
      ],
      "name": "setBaseURI",
      "outputs": [],
      "stateMutability": "nonpayable",
      "type": "function"
    },
    {
      "inputs": [
        {
          "internalType": "address",
          "name": "receiver",
          "type": "address"
        },
        {
          "internalType": "uint96",
          "name": "feeNumerator",
          "type": "uint96"
        }
      ],
      "name": "setDefaultRoyalty",
      "outputs": [],
      "stateMutability": "nonpayable",
      "type": "function"
    },
    {
      "inputs": [
        {
          "internalType": "contract IItemFactory",
          "name": "_IF",
          "type": "address"
        }
      ],
      "name": "setItemFactory",
      "outputs": [],
      "stateMutability": "nonpayable",
      "type": "function"
    },
    {
      "inputs": [
        {
          "internalType": "uint256",
          "name": "tokenId",
          "type": "uint256"
        },
        {
          "internalType": "address",
          "name": "receiver",
          "type": "address"
        },
        {
          "internalType": "uint96",
          "name": "feeNumerator",
          "type": "uint96"
        }
      ],
      "name": "setTokenRoyalty",
      "outputs": [],
      "stateMutability": "nonpayable",
      "type": "function"
    },
    {
      "inputs": [
        {
          "internalType": "bytes4",
          "name": "interfaceId",
          "type": "bytes4"
        }
      ],
      "name": "supportsInterface",
      "outputs": [
        {
          "internalType": "bool",
          "name": "",
          "type": "bool"
        }
      ],
      "stateMutability": "view",
      "type": "function"
    },
    {
      "inputs": [],
      "name": "symbol",
      "outputs": [
        {
          "internalType": "string",
          "name": "",
          "type": "string"
        }
      ],
      "stateMutability": "view",
      "type": "function"
    },
    {
      "inputs": [
        {
          "internalType": "uint256",
          "name": "index",
          "type": "uint256"
        }
      ],
      "name": "tokenByIndex",
      "outputs": [
        {
          "internalType": "uint256",
          "name": "",
          "type": "uint256"
        }
      ],
      "stateMutability": "view",
      "type": "function"
    },
    {
      "inputs": [],
      "name": "tokenCounter",
      "outputs": [
        {
          "internalType": "uint256",
          "name": "",
          "type": "uint256"
        }
      ],
      "stateMutability": "view",
      "type": "function"
    },
    {
      "inputs": [
        {
          "internalType": "uint256",
          "name": "_id",
          "type": "uint256"
        }
      ],
      "name": "tokenExists",
      "outputs": [
        {
          "internalType": "bool",
          "name": "",
          "type": "bool"
        }
      ],
      "stateMutability": "view",
      "type": "function"
    },
    {
      "inputs": [
        {
          "internalType": "address",
          "name": "owner",
          "type": "address"
        },
        {
          "internalType": "uint256",
          "name": "index",
          "type": "uint256"
        }
      ],
      "name": "tokenOfOwnerByIndex",
      "outputs": [
        {
          "internalType": "uint256",
          "name": "",
          "type": "uint256"
        }
      ],
      "stateMutability": "view",
      "type": "function"
    },
    {
      "inputs": [
        {
          "internalType": "uint256",
          "name": "_tokenId",
          "type": "uint256"
        }
      ],
      "name": "tokenURI",
      "outputs": [
        {
          "internalType": "string",
          "name": "",
          "type": "string"
        }
      ],
      "stateMutability": "view",
      "type": "function"
    },
    {
      "inputs": [],
      "name": "totalSupply",
      "outputs": [
        {
          "internalType": "uint256",
          "name": "",
          "type": "uint256"
        }
      ],
      "stateMutability": "view",
      "type": "function"
    },
    {
      "inputs": [
        {
          "internalType": "address",
          "name": "from",
          "type": "address"
        },
        {
          "internalType": "address",
          "name": "to",
          "type": "address"
        },
        {
          "internalType": "uint256",
          "name": "tokenId",
          "type": "uint256"
        }
      ],
      "name": "transferFrom",
      "outputs": [],
      "stateMutability": "nonpayable",
      "type": "function"
    },
    {
      "inputs": [
        {
          "internalType": "address",
          "name": "newOwner",
          "type": "address"
        }
      ],
      "name": "transferOwnership",
      "outputs": [],
      "stateMutability": "nonpayable",
      "type": "function"
    },
    {
      "inputs": [],
      "name": "walletOfOwner",
      "outputs": [
        {
          "internalType": "uint256[]",
          "name": "",
          "type": "uint256[]"
        }
      ],
      "stateMutability": "view",
      "type": "function"
    },
    {
      "inputs": [
        {
          "internalType": "address",
          "name": "_user",
          "type": "address"
        }
      ],
      "name": "walletOfUser",
      "outputs": [
        {
          "internalType": "uint256[]",
          "name": "",
          "type": "uint256[]"
        }
      ],
      "stateMutability": "view",
      "type": "function"
    }
  ],
  "bytecode": "0x60806040526040518060400160405280600581526020017f2e6a736f6e000000000000000000000000000000000000000000000000000000815250600f908051906020019062000051929190620001f4565b503480156200005f57600080fd5b506040518060400160405280600c81526020017f4c6567616379204974656d7300000000000000000000000000000000000000008152506040518060400160405280600581526020017f4954454d530000000000000000000000000000000000000000000000000000008152508160029080519060200190620000e4929190620001f4565b508060039080519060200190620000fd929190620001f4565b50505062000120620001146200012660201b60201c565b6200012e60201b60201c565b62000309565b600033905090565b6000600c60009054906101000a900473ffffffffffffffffffffffffffffffffffffffff16905081600c60006101000a81548173ffffffffffffffffffffffffffffffffffffffff021916908373ffffffffffffffffffffffffffffffffffffffff1602179055508173ffffffffffffffffffffffffffffffffffffffff168173ffffffffffffffffffffffffffffffffffffffff167f8be0079c531659141344cd1fd0a4f28419497f9722a3daafe3b4186f6b6457e060405160405180910390a35050565b8280546200020290620002a4565b90600052602060002090601f01602090048101928262000226576000855562000272565b82601f106200024157805160ff191683800117855562000272565b8280016001018555821562000272579182015b828111156200027157825182559160200191906001019062000254565b5b50905062000281919062000285565b5090565b5b80821115620002a057600081600090555060010162000286565b5090565b60006002820490506001821680620002bd57607f821691505b60208210811415620002d457620002d3620002da565b5b50919050565b7f4e487b7100000000000000000000000000000000000000000000000000000000600052602260045260246000fd5b614e3680620003196000396000f3fe608060405234801561001057600080fd5b50600436106102105760003560e01c806355f804b311610125578063b20060d5116100ad578063c87b56dd1161007c578063c87b56dd14610622578063cf1c316a14610652578063d082e3811461066e578063e985e9c51461068c578063f2fde38b146106bc57610210565b8063b20060d514610588578063b88d4fde146105b8578063b9181611146105d4578063c66828621461060457610210565b806370a08231116100f457806370a08231146104f6578063715018a6146105265780638da5cb5b1461053057806395d89b411461054e578063a22cb4651461056c57610210565b806355f804b3146104705780635944c7531461048c5780636352211e146104a85780636c0360eb146104d857610210565b806323b872dd116101a857806340c10f191161017757806340c10f19146103d057806342842e0e146103ec57806342966c6814610408578063485d7d94146104245780634f6ccce71461044057610210565b806323b872dd146103355780632a55205a146103515780632f745c591461038257806336fdefd4146103b257610210565b8063081812fc116101e4578063081812fc146102af578063095ea7b3146102df57806318160ddd146102fb5780631b345af11461031957610210565b8062923f9e1461021557806301ffc9a71461024557806304634d8d1461027557806306fdde0314610291575b600080fd5b61022f600480360381019061022a9190613991565b6106d8565b60405161023c9190613f95565b60405180910390f35b61025f600480360381019061025a9190613894565b6106ea565b60405161026c9190613f95565b60405180910390f35b61028f600480360381019061028a9190613858565b610764565b005b6102996107ee565b6040516102a69190613fb0565b60405180910390f35b6102c960048036038101906102c49190613991565b610880565b6040516102d69190613ee3565b60405180910390f35b6102f960048036038101906102f4919061381c565b610905565b005b610303610a1d565b60405161031091906142b2565b60405180910390f35b610333600480360381019061032e91906138e6565b610a2a565b005b61034f600480360381019061034a9190613716565b610aea565b005b61036b60048036038101906103669190613a09565b610b4a565b604051610379929190613f4a565b60405180910390f35b61039c6004803603810190610397919061381c565b610d35565b6040516103a991906142b2565b60405180910390f35b6103ba610dda565b6040516103c79190613f73565b60405180910390f35b6103ea60048036038101906103e5919061381c565b610ed2565b005b61040660048036038101906104019190613716565b610fc1565b005b610422600480360381019061041d9190613991565b610fe1565b005b61043e600480360381019061043991906136b1565b61103d565b005b61045a60048036038101906104559190613991565b61114d565b60405161046791906142b2565b60405180910390f35b61048a6004803603810190610485919061390f565b6111e4565b005b6104a660048036038101906104a191906139ba565b61127a565b005b6104c260048036038101906104bd9190613991565b611306565b6040516104cf9190613ee3565b60405180910390f35b6104e06113b8565b6040516104ed9190613fb0565b60405180910390f35b610510600480360381019061050b91906136b1565b611446565b60405161051d91906142b2565b60405180910390f35b61052e6114fe565b005b610538611586565b6040516105459190613ee3565b60405180910390f35b6105566115b0565b6040516105639190613fb0565b60405180910390f35b610586600480360381019061058191906137e0565b611642565b005b6105a2600480360381019061059d91906136b1565b611658565b6040516105af9190613f73565b60405180910390f35b6105d260048036038101906105cd9190613765565b611752565b005b6105ee60048036038101906105e991906136b1565b6117b4565b6040516105fb9190613f95565b60405180910390f35b61060c6117d4565b6040516106199190613fb0565b60405180910390f35b61063c60048036038101906106379190613991565b611862565b6040516106499190613fb0565b60405180910390f35b61066c600480360381019061066791906136b1565b611991565b005b610676611a68565b60405161068391906142b2565b60405180910390f35b6106a660048036038101906106a191906136da565b611a6e565b6040516106b39190613f95565b60405180910390f35b6106d660048036038101906106d191906136b1565b611b02565b005b60006106e382611bfa565b9050919050565b60007f780e9d63000000000000000000000000000000000000000000000000000000007bffffffffffffffffffffffffffffffffffffffffffffffffffffffff1916827bffffffffffffffffffffffffffffffffffffffffffffffffffffffff1916148061075d575061075c82611c66565b5b9050919050565b61076c611ce0565b73ffffffffffffffffffffffffffffffffffffffff1661078a611586565b73ffffffffffffffffffffffffffffffffffffffff16146107e0576040517f08c379a00000000000000000000000000000000000000000000000000000000081526004016107d790614172565b60405180910390fd5b6107ea8282611ce8565b5050565b6060600280546107fd906145ee565b80601f0160208091040260200160405190810160405280929190818152602001828054610829906145ee565b80156108765780601f1061084b57610100808354040283529160200191610876565b820191906000526020600020905b81548152906001019060200180831161085957829003601f168201915b5050505050905090565b600061088b82611bfa565b6108ca576040517f08c379a00000000000000000000000000000000000000000000000000000000081526004016108c190614152565b60405180910390fd5b6006600083815260200190815260200160002060009054906101000a900473ffffffffffffffffffffffffffffffffffffffff169050919050565b600061091082611306565b90508073ffffffffffffffffffffffffffffffffffffffff168373ffffffffffffffffffffffffffffffffffffffff161415610981576040517f08c379a0000000000000000000000000000000000000000000000000000000008152600401610978906141b2565b60405180910390fd5b8073ffffffffffffffffffffffffffffffffffffffff166109a0611ce0565b73ffffffffffffffffffffffffffffffffffffffff1614806109cf57506109ce816109c9611ce0565b611a6e565b5b610a0e576040517f08c379a0000000000000000000000000000000000000000000000000000000008152600401610a05906140d2565b60405180910390fd5b610a188383611e7d565b505050565b6000600a80549050905090565b610a32611ce0565b73ffffffffffffffffffffffffffffffffffffffff16610a50611586565b73ffffffffffffffffffffffffffffffffffffffff1614610aa6576040517f08c379a0000000000000000000000000000000000000000000000000000000008152600401610a9d90614172565b60405180910390fd5b80601060006101000a81548173ffffffffffffffffffffffffffffffffffffffff021916908373ffffffffffffffffffffffffffffffffffffffff16021790555050565b610afb610af5611ce0565b82611f36565b610b3a576040517f08c379a0000000000000000000000000000000000000000000000000000000008152600401610b31906141f2565b60405180910390fd5b610b45838383612014565b505050565b6000806000600160008681526020019081526020016000206040518060400160405290816000820160009054906101000a900473ffffffffffffffffffffffffffffffffffffffff1673ffffffffffffffffffffffffffffffffffffffff1673ffffffffffffffffffffffffffffffffffffffff1681526020016000820160149054906101000a90046bffffffffffffffffffffffff166bffffffffffffffffffffffff166bffffffffffffffffffffffff16815250509050600073ffffffffffffffffffffffffffffffffffffffff16816000015173ffffffffffffffffffffffffffffffffffffffff161415610ce05760006040518060400160405290816000820160009054906101000a900473ffffffffffffffffffffffffffffffffffffffff1673ffffffffffffffffffffffffffffffffffffffff1673ffffffffffffffffffffffffffffffffffffffff1681526020016000820160149054906101000a90046bffffffffffffffffffffffff166bffffffffffffffffffffffff166bffffffffffffffffffffffff168152505090505b6000610cea61227b565b6bffffffffffffffffffffffff1682602001516bffffffffffffffffffffffff1686610d169190614480565b610d20919061444f565b90508160000151819350935050509250929050565b6000610d4083611446565b8210610d81576040517f08c379a0000000000000000000000000000000000000000000000000000000008152600401610d7890613fd2565b60405180910390fd5b600860008473ffffffffffffffffffffffffffffffffffffffff1673ffffffffffffffffffffffffffffffffffffffff168152602001908152602001600020600083815260200190815260200160002054905092915050565b60606000610de733611446565b905060008167ffffffffffffffff811115610e2b577f4e487b7100000000000000000000000000000000000000000000000000000000600052604160045260246000fd5b604051908082528060200260200182016040528015610e595781602001602082028036833780820191505090505b50905060005b82811015610ec957610e713382610d35565b828281518110610eaa577f4e487b7100000000000000000000000000000000000000000000000000000000600052603260045260246000fd5b6020026020010181815250508080610ec190614651565b915050610e5f565b50809250505090565b600d60003373ffffffffffffffffffffffffffffffffffffffff1673ffffffffffffffffffffffffffffffffffffffff16815260200190815260200160002060009054906101000a900460ff1680610f5c57503373ffffffffffffffffffffffffffffffffffffffff16610f44611586565b73ffffffffffffffffffffffffffffffffffffffff16145b610f9b576040517f08c379a0000000000000000000000000000000000000000000000000000000008152600401610f92906141d2565b60405180910390fd5b610fa58282612285565b60116000815480929190610fb890614651565b91905055505050565b610fdc83838360405180602001604052806000815250611752565b505050565b610ff2610fec611ce0565b82611f36565b611031576040517f08c379a000000000000000000000000000000000000000000000000000000000815260040161102890614272565b60405180910390fd5b61103a816122a3565b50565b611045611ce0565b73ffffffffffffffffffffffffffffffffffffffff16611063611586565b73ffffffffffffffffffffffffffffffffffffffff16146110b9576040517f08c379a00000000000000000000000000000000000000000000000000000000081526004016110b090614172565b60405180910390fd5b3373ffffffffffffffffffffffffffffffffffffffff168173ffffffffffffffffffffffffffffffffffffffff1614156110f257600080fd5b6000600d60008373ffffffffffffffffffffffffffffffffffffffff1673ffffffffffffffffffffffffffffffffffffffff16815260200190815260200160002060006101000a81548160ff02191690831515021790555050565b6000611157610a1d565b8210611198576040517f08c379a000000000000000000000000000000000000000000000000000000000815260040161118f90614232565b60405180910390fd5b600a82815481106111d2577f4e487b7100000000000000000000000000000000000000000000000000000000600052603260045260246000fd5b90600052602060002001549050919050565b6111ec611ce0565b73ffffffffffffffffffffffffffffffffffffffff1661120a611586565b73ffffffffffffffffffffffffffffffffffffffff1614611260576040517f08c379a000000000000000000000000000000000000000000000000000000000815260040161125790614172565b60405180910390fd5b80600e9080519060200190611276929190613443565b5050565b611282611ce0565b73ffffffffffffffffffffffffffffffffffffffff166112a0611586565b73ffffffffffffffffffffffffffffffffffffffff16146112f6576040517f08c379a00000000000000000000000000000000000000000000000000000000081526004016112ed90614172565b60405180910390fd5b6113018383836122b8565b505050565b6000806004600084815260200190815260200160002060009054906101000a900473ffffffffffffffffffffffffffffffffffffffff169050600073ffffffffffffffffffffffffffffffffffffffff168173ffffffffffffffffffffffffffffffffffffffff1614156113af576040517f08c379a00000000000000000000000000000000000000000000000000000000081526004016113a690614112565b60405180910390fd5b80915050919050565b600e80546113c5906145ee565b80601f01602080910402602001604051908101604052809291908181526020018280546113f1906145ee565b801561143e5780601f106114135761010080835404028352916020019161143e565b820191906000526020600020905b81548152906001019060200180831161142157829003601f168201915b505050505081565b60008073ffffffffffffffffffffffffffffffffffffffff168273ffffffffffffffffffffffffffffffffffffffff1614156114b7576040517f08c379a00000000000000000000000000000000000000000000000000000000081526004016114ae906140f2565b60405180910390fd5b600560008373ffffffffffffffffffffffffffffffffffffffff1673ffffffffffffffffffffffffffffffffffffffff168152602001908152602001600020549050919050565b611506611ce0565b73ffffffffffffffffffffffffffffffffffffffff16611524611586565b73ffffffffffffffffffffffffffffffffffffffff161461157a576040517f08c379a000000000000000000000000000000000000000000000000000000000815260040161157190614172565b60405180910390fd5b6115846000612460565b565b6000600c60009054906101000a900473ffffffffffffffffffffffffffffffffffffffff16905090565b6060600380546115bf906145ee565b80601f01602080910402602001604051908101604052809291908181526020018280546115eb906145ee565b80156116385780601f1061160d57610100808354040283529160200191611638565b820191906000526020600020905b81548152906001019060200180831161161b57829003601f168201915b5050505050905090565b61165461164d611ce0565b8383612526565b5050565b6060600061166583611446565b905060008167ffffffffffffffff8111156116a9577f4e487b7100000000000000000000000000000000000000000000000000000000600052604160045260246000fd5b6040519080825280602002602001820160405280156116d75781602001602082028036833780820191505090505b50905060005b82811015611747576116ef8582610d35565b828281518110611728577f4e487b7100000000000000000000000000000000000000000000000000000000600052603260045260246000fd5b602002602001018181525050808061173f90614651565b9150506116dd565b508092505050919050565b61176361175d611ce0565b83611f36565b6117a2576040517f08c379a0000000000000000000000000000000000000000000000000000000008152600401611799906141f2565b60405180910390fd5b6117ae84848484612693565b50505050565b600d6020528060005260406000206000915054906101000a900460ff1681565b600f80546117e1906145ee565b80601f016020809104026020016040519081016040528092919081815260200182805461180d906145ee565b801561185a5780601f1061182f5761010080835404028352916020019161185a565b820191906000526020600020905b81548152906001019060200180831161183d57829003601f168201915b505050505081565b606061186d82611bfa565b6118ac576040517f08c379a00000000000000000000000000000000000000000000000000000000081526004016118a390614192565b60405180910390fd5b6000601060009054906101000a900473ffffffffffffffffffffffffffffffffffffffff1673ffffffffffffffffffffffffffffffffffffffff166309a7a11c846040518263ffffffff1660e01b815260040161190991906142b2565b60006040518083038186803b15801561192157600080fd5b505afa158015611935573d6000803e3d6000fd5b505050506040513d6000823e3d601f19601f8201168201806040525081019061195e9190613950565b90506119686126ef565b8160405160200161197a929190613ebf565b604051602081830303815290604052915050919050565b611999611ce0565b73ffffffffffffffffffffffffffffffffffffffff166119b7611586565b73ffffffffffffffffffffffffffffffffffffffff1614611a0d576040517f08c379a0000000000000000000000000000000000000000000000000000000008152600401611a0490614172565b60405180910390fd5b6001600d60008373ffffffffffffffffffffffffffffffffffffffff1673ffffffffffffffffffffffffffffffffffffffff16815260200190815260200160002060006101000a81548160ff02191690831515021790555050565b60115481565b6000600760008473ffffffffffffffffffffffffffffffffffffffff1673ffffffffffffffffffffffffffffffffffffffff16815260200190815260200160002060008373ffffffffffffffffffffffffffffffffffffffff1673ffffffffffffffffffffffffffffffffffffffff16815260200190815260200160002060009054906101000a900460ff16905092915050565b611b0a611ce0565b73ffffffffffffffffffffffffffffffffffffffff16611b28611586565b73ffffffffffffffffffffffffffffffffffffffff1614611b7e576040517f08c379a0000000000000000000000000000000000000000000000000000000008152600401611b7590614172565b60405180910390fd5b600073ffffffffffffffffffffffffffffffffffffffff168173ffffffffffffffffffffffffffffffffffffffff161415611bee576040517f08c379a0000000000000000000000000000000000000000000000000000000008152600401611be590614012565b60405180910390fd5b611bf781612460565b50565b60008073ffffffffffffffffffffffffffffffffffffffff166004600084815260200190815260200160002060009054906101000a900473ffffffffffffffffffffffffffffffffffffffff1673ffffffffffffffffffffffffffffffffffffffff1614159050919050565b60007f780e9d63000000000000000000000000000000000000000000000000000000007bffffffffffffffffffffffffffffffffffffffffffffffffffffffff1916827bffffffffffffffffffffffffffffffffffffffffffffffffffffffff19161480611cd95750611cd882612781565b5b9050919050565b600033905090565b611cf061227b565b6bffffffffffffffffffffffff16816bffffffffffffffffffffffff161115611d4e576040517f08c379a0000000000000000000000000000000000000000000000000000000008152600401611d4590614252565b60405180910390fd5b600073ffffffffffffffffffffffffffffffffffffffff168273ffffffffffffffffffffffffffffffffffffffff161415611dbe576040517f08c379a0000000000000000000000000000000000000000000000000000000008152600401611db590614292565b60405180910390fd5b60405180604001604052808373ffffffffffffffffffffffffffffffffffffffff168152602001826bffffffffffffffffffffffff168152506000808201518160000160006101000a81548173ffffffffffffffffffffffffffffffffffffffff021916908373ffffffffffffffffffffffffffffffffffffffff16021790555060208201518160000160146101000a8154816bffffffffffffffffffffffff02191690836bffffffffffffffffffffffff1602179055509050505050565b816006600083815260200190815260200160002060006101000a81548173ffffffffffffffffffffffffffffffffffffffff021916908373ffffffffffffffffffffffffffffffffffffffff160217905550808273ffffffffffffffffffffffffffffffffffffffff16611ef083611306565b73ffffffffffffffffffffffffffffffffffffffff167f8c5be1e5ebec7d5bd14f71427d1e84f3dd0314c0f7b2291e5b200ac8c7c3b92560405160405180910390a45050565b6000611f4182611bfa565b611f80576040517f08c379a0000000000000000000000000000000000000000000000000000000008152600401611f77906140b2565b60405180910390fd5b6000611f8b83611306565b90508073ffffffffffffffffffffffffffffffffffffffff168473ffffffffffffffffffffffffffffffffffffffff161480611ffa57508373ffffffffffffffffffffffffffffffffffffffff16611fe284610880565b73ffffffffffffffffffffffffffffffffffffffff16145b8061200b575061200a8185611a6e565b5b91505092915050565b8273ffffffffffffffffffffffffffffffffffffffff1661203482611306565b73ffffffffffffffffffffffffffffffffffffffff161461208a576040517f08c379a000000000000000000000000000000000000000000000000000000000815260040161208190614032565b60405180910390fd5b600073ffffffffffffffffffffffffffffffffffffffff168273ffffffffffffffffffffffffffffffffffffffff1614156120fa576040517f08c379a00000000000000000000000000000000000000000000000000000000081526004016120f190614072565b60405180910390fd5b612105838383612793565b612110600082611e7d565b6001600560008573ffffffffffffffffffffffffffffffffffffffff1673ffffffffffffffffffffffffffffffffffffffff168152602001908152602001600020600082825461216091906144da565b925050819055506001600560008473ffffffffffffffffffffffffffffffffffffffff1673ffffffffffffffffffffffffffffffffffffffff16815260200190815260200160002060008282546121b791906143f9565b92505081905550816004600083815260200190815260200160002060006101000a81548173ffffffffffffffffffffffffffffffffffffffff021916908373ffffffffffffffffffffffffffffffffffffffff160217905550808273ffffffffffffffffffffffffffffffffffffffff168473ffffffffffffffffffffffffffffffffffffffff167fddf252ad1be2c89b69c2b068fc378daa952ba7f163c4a11628f55a4df523b3ef60405160405180910390a4612276838383612867565b505050565b6000612710905090565b61229f82826040518060200160405280600081525061286c565b5050565b6122ac816128c7565b6122b5816128dc565b50565b6122c061227b565b6bffffffffffffffffffffffff16816bffffffffffffffffffffffff16111561231e576040517f08c379a000000000000000000000000000000000000000000000000000000000815260040161231590614252565b60405180910390fd5b600073ffffffffffffffffffffffffffffffffffffffff168273ffffffffffffffffffffffffffffffffffffffff16141561238e576040517f08c379a000000000000000000000000000000000000000000000000000000000815260040161238590614212565b60405180910390fd5b60405180604001604052808373ffffffffffffffffffffffffffffffffffffffff168152602001826bffffffffffffffffffffffff168152506001600085815260200190815260200160002060008201518160000160006101000a81548173ffffffffffffffffffffffffffffffffffffffff021916908373ffffffffffffffffffffffffffffffffffffffff16021790555060208201518160000160146101000a8154816bffffffffffffffffffffffff02191690836bffffffffffffffffffffffff160217905550905050505050565b6000600c60009054906101000a900473ffffffffffffffffffffffffffffffffffffffff16905081600c60006101000a81548173ffffffffffffffffffffffffffffffffffffffff021916908373ffffffffffffffffffffffffffffffffffffffff1602179055508173ffffffffffffffffffffffffffffffffffffffff168173ffffffffffffffffffffffffffffffffffffffff167f8be0079c531659141344cd1fd0a4f28419497f9722a3daafe3b4186f6b6457e060405160405180910390a35050565b8173ffffffffffffffffffffffffffffffffffffffff168373ffffffffffffffffffffffffffffffffffffffff161415612595576040517f08c379a000000000000000000000000000000000000000000000000000000000815260040161258c90614092565b60405180910390fd5b80600760008573ffffffffffffffffffffffffffffffffffffffff1673ffffffffffffffffffffffffffffffffffffffff16815260200190815260200160002060008473ffffffffffffffffffffffffffffffffffffffff1673ffffffffffffffffffffffffffffffffffffffff16815260200190815260200160002060006101000a81548160ff0219169083151502179055508173ffffffffffffffffffffffffffffffffffffffff168373ffffffffffffffffffffffffffffffffffffffff167f17307eab39ab6107e8899845ad3d59bd9653f200f220920489ca2b5937696c31836040516126869190613f95565b60405180910390a3505050565b61269e848484612014565b6126aa8484848461293b565b6126e9576040517f08c379a00000000000000000000000000000000000000000000000000000000081526004016126e090613ff2565b60405180910390fd5b50505050565b6060600e80546126fe906145ee565b80601f016020809104026020016040519081016040528092919081815260200182805461272a906145ee565b80156127775780601f1061274c57610100808354040283529160200191612777565b820191906000526020600020905b81548152906001019060200180831161275a57829003601f168201915b5050505050905090565b600061278c82612ad2565b9050919050565b600073ffffffffffffffffffffffffffffffffffffffff168373ffffffffffffffffffffffffffffffffffffffff161461285757601060009054906101000a900473ffffffffffffffffffffffffffffffffffffffff1673ffffffffffffffffffffffffffffffffffffffff166391dbddfc82856040518363ffffffff1660e01b81526004016128249291906142cd565b600060405180830381600087803b15801561283e57600080fd5b505af1158015612852573d6000803e3d6000fd5b505050505b612862838383612bb4565b505050565b505050565b6128768383612cc8565b612883600084848461293b565b6128c2576040517f08c379a00000000000000000000000000000000000000000000000000000000081526004016128b990613ff2565b60405180910390fd5b505050565b6128d081612ea2565b6128d9816128dc565b50565b60016000828152602001908152602001600020600080820160006101000a81549073ffffffffffffffffffffffffffffffffffffffff02191690556000820160146101000a8154906bffffffffffffffffffffffff0219169055505050565b600061295c8473ffffffffffffffffffffffffffffffffffffffff16612fbf565b15612ac5578373ffffffffffffffffffffffffffffffffffffffff1663150b7a02612985611ce0565b8786866040518563ffffffff1660e01b81526004016129a79493929190613efe565b602060405180830381600087803b1580156129c157600080fd5b505af19250505080156129f257506040513d601f19601f820116820180604052508101906129ef91906138bd565b60015b612a75573d8060008114612a22576040519150601f19603f3d011682016040523d82523d6000602084013e612a27565b606091505b50600081511415612a6d576040517f08c379a0000000000000000000000000000000000000000000000000000000008152600401612a6490613ff2565b60405180910390fd5b805181602001fd5b63150b7a0260e01b7bffffffffffffffffffffffffffffffffffffffffffffffffffffffff1916817bffffffffffffffffffffffffffffffffffffffffffffffffffffffff191614915050612aca565b600190505b949350505050565b60007f80ac58cd000000000000000000000000000000000000000000000000000000007bffffffffffffffffffffffffffffffffffffffffffffffffffffffff1916827bffffffffffffffffffffffffffffffffffffffffffffffffffffffff19161480612b9d57507f5b5e139f000000000000000000000000000000000000000000000000000000007bffffffffffffffffffffffffffffffffffffffffffffffffffffffff1916827bffffffffffffffffffffffffffffffffffffffffffffffffffffffff1916145b80612bad5750612bac82612fe2565b5b9050919050565b612bbf83838361305c565b600073ffffffffffffffffffffffffffffffffffffffff168373ffffffffffffffffffffffffffffffffffffffff161415612c0257612bfd81613061565b612c41565b8173ffffffffffffffffffffffffffffffffffffffff168373ffffffffffffffffffffffffffffffffffffffff1614612c4057612c3f83826130aa565b5b5b600073ffffffffffffffffffffffffffffffffffffffff168273ffffffffffffffffffffffffffffffffffffffff161415612c8457612c7f81613217565b612cc3565b8273ffffffffffffffffffffffffffffffffffffffff168273ffffffffffffffffffffffffffffffffffffffff1614612cc257612cc1828261335a565b5b5b505050565b600073ffffffffffffffffffffffffffffffffffffffff168273ffffffffffffffffffffffffffffffffffffffff161415612d38576040517f08c379a0000000000000000000000000000000000000000000000000000000008152600401612d2f90614132565b60405180910390fd5b612d4181611bfa565b15612d81576040517f08c379a0000000000000000000000000000000000000000000000000000000008152600401612d7890614052565b60405180910390fd5b612d8d60008383612793565b6001600560008473ffffffffffffffffffffffffffffffffffffffff1673ffffffffffffffffffffffffffffffffffffffff1681526020019081526020016000206000828254612ddd91906143f9565b92505081905550816004600083815260200190815260200160002060006101000a81548173ffffffffffffffffffffffffffffffffffffffff021916908373ffffffffffffffffffffffffffffffffffffffff160217905550808273ffffffffffffffffffffffffffffffffffffffff16600073ffffffffffffffffffffffffffffffffffffffff167fddf252ad1be2c89b69c2b068fc378daa952ba7f163c4a11628f55a4df523b3ef60405160405180910390a4612e9e60008383612867565b5050565b6000612ead82611306565b9050612ebb81600084612793565b612ec6600083611e7d565b6001600560008373ffffffffffffffffffffffffffffffffffffffff1673ffffffffffffffffffffffffffffffffffffffff1681526020019081526020016000206000828254612f1691906144da565b925050819055506004600083815260200190815260200160002060006101000a81549073ffffffffffffffffffffffffffffffffffffffff021916905581600073ffffffffffffffffffffffffffffffffffffffff168273ffffffffffffffffffffffffffffffffffffffff167fddf252ad1be2c89b69c2b068fc378daa952ba7f163c4a11628f55a4df523b3ef60405160405180910390a4612fbb81600084612867565b5050565b6000808273ffffffffffffffffffffffffffffffffffffffff163b119050919050565b60007f2a55205a000000000000000000000000000000000000000000000000000000007bffffffffffffffffffffffffffffffffffffffffffffffffffffffff1916827bffffffffffffffffffffffffffffffffffffffffffffffffffffffff191614806130555750613054826133d9565b5b9050919050565b505050565b600a80549050600b600083815260200190815260200160002081905550600a81908060018154018082558091505060019003906000526020600020016000909190919091505550565b600060016130b784611446565b6130c191906144da565b90506000600960008481526020019081526020016000205490508181146131a6576000600860008673ffffffffffffffffffffffffffffffffffffffff1673ffffffffffffffffffffffffffffffffffffffff168152602001908152602001600020600084815260200190815260200160002054905080600860008773ffffffffffffffffffffffffffffffffffffffff1673ffffffffffffffffffffffffffffffffffffffff168152602001908152602001600020600084815260200190815260200160002081905550816009600083815260200190815260200160002081905550505b6009600084815260200190815260200160002060009055600860008573ffffffffffffffffffffffffffffffffffffffff1673ffffffffffffffffffffffffffffffffffffffff16815260200190815260200160002060008381526020019081526020016000206000905550505050565b60006001600a8054905061322b91906144da565b90506000600b60008481526020019081526020016000205490506000600a8381548110613281577f4e487b7100000000000000000000000000000000000000000000000000000000600052603260045260246000fd5b9060005260206000200154905080600a83815481106132c9577f4e487b7100000000000000000000000000000000000000000000000000000000600052603260045260246000fd5b906000526020600020018190555081600b600083815260200190815260200160002081905550600b600085815260200190815260200160002060009055600a80548061333e577f4e487b7100000000000000000000000000000000000000000000000000000000600052603160045260246000fd5b6001900381819060005260206000200160009055905550505050565b600061336583611446565b905081600860008573ffffffffffffffffffffffffffffffffffffffff1673ffffffffffffffffffffffffffffffffffffffff168152602001908152602001600020600083815260200190815260200160002081905550806009600084815260200190815260200160002081905550505050565b60007f01ffc9a7000000000000000000000000000000000000000000000000000000007bffffffffffffffffffffffffffffffffffffffffffffffffffffffff1916827bffffffffffffffffffffffffffffffffffffffffffffffffffffffff1916149050919050565b82805461344f906145ee565b90600052602060002090601f01602090048101928261347157600085556134b8565b82601f1061348a57805160ff19168380011785556134b8565b828001600101855582156134b8579182015b828111156134b757825182559160200191906001019061349c565b5b5090506134c591906134c9565b5090565b5b808211156134e25760008160009055506001016134ca565b5090565b60006134f96134f48461431b565b6142f6565b90508281526020810184848401111561351157600080fd5b61351c8482856145ac565b509392505050565b60006135376135328461434c565b6142f6565b90508281526020810184848401111561354f57600080fd5b61355a8482856145ac565b509392505050565b60006135756135708461434c565b6142f6565b90508281526020810184848401111561358d57600080fd5b6135988482856145bb565b509392505050565b6000813590506135af81614d76565b92915050565b6000813590506135c481614d8d565b92915050565b6000813590506135d981614da4565b92915050565b6000815190506135ee81614da4565b92915050565b600082601f83011261360557600080fd5b81356136158482602086016134e6565b91505092915050565b60008135905061362d81614dbb565b92915050565b600082601f83011261364457600080fd5b8135613654848260208601613524565b91505092915050565b600082601f83011261366e57600080fd5b815161367e848260208601613562565b91505092915050565b60008135905061369681614dd2565b92915050565b6000813590506136ab81614de9565b92915050565b6000602082840312156136c357600080fd5b60006136d1848285016135a0565b91505092915050565b600080604083850312156136ed57600080fd5b60006136fb858286016135a0565b925050602061370c858286016135a0565b9150509250929050565b60008060006060848603121561372b57600080fd5b6000613739868287016135a0565b935050602061374a868287016135a0565b925050604061375b86828701613687565b9150509250925092565b6000806000806080858703121561377b57600080fd5b6000613789878288016135a0565b945050602061379a878288016135a0565b93505060406137ab87828801613687565b925050606085013567ffffffffffffffff8111156137c857600080fd5b6137d4878288016135f4565b91505092959194509250565b600080604083850312156137f357600080fd5b6000613801858286016135a0565b9250506020613812858286016135b5565b9150509250929050565b6000806040838503121561382f57600080fd5b600061383d858286016135a0565b925050602061384e85828601613687565b9150509250929050565b6000806040838503121561386b57600080fd5b6000613879858286016135a0565b925050602061388a8582860161369c565b9150509250929050565b6000602082840312156138a657600080fd5b60006138b4848285016135ca565b91505092915050565b6000602082840312156138cf57600080fd5b60006138dd848285016135df565b91505092915050565b6000602082840312156138f857600080fd5b60006139068482850161361e565b91505092915050565b60006020828403121561392157600080fd5b600082013567ffffffffffffffff81111561393b57600080fd5b61394784828501613633565b91505092915050565b60006020828403121561396257600080fd5b600082015167ffffffffffffffff81111561397c57600080fd5b6139888482850161365d565b91505092915050565b6000602082840312156139a357600080fd5b60006139b184828501613687565b91505092915050565b6000806000606084860312156139cf57600080fd5b60006139dd86828701613687565b93505060206139ee868287016135a0565b92505060406139ff8682870161369c565b9150509250925092565b60008060408385031215613a1c57600080fd5b6000613a2a85828601613687565b9250506020613a3b85828601613687565b9150509250929050565b6000613a518383613ea1565b60208301905092915050565b613a668161450e565b82525050565b6000613a778261438d565b613a8181856143bb565b9350613a8c8361437d565b8060005b83811015613abd578151613aa48882613a45565b9750613aaf836143ae565b925050600181019050613a90565b5085935050505092915050565b613ad381614520565b82525050565b6000613ae482614398565b613aee81856143cc565b9350613afe8185602086016145bb565b613b0781614756565b840191505092915050565b6000613b1d826143a3565b613b2781856143dd565b9350613b378185602086016145bb565b613b4081614756565b840191505092915050565b6000613b56826143a3565b613b6081856143ee565b9350613b708185602086016145bb565b80840191505092915050565b6000613b89602b836143dd565b9150613b9482614767565b604082019050919050565b6000613bac6032836143dd565b9150613bb7826147b6565b604082019050919050565b6000613bcf6026836143dd565b9150613bda82614805565b604082019050919050565b6000613bf26025836143dd565b9150613bfd82614854565b604082019050919050565b6000613c15601c836143dd565b9150613c20826148a3565b602082019050919050565b6000613c386024836143dd565b9150613c43826148cc565b604082019050919050565b6000613c5b6019836143dd565b9150613c668261491b565b602082019050919050565b6000613c7e602c836143dd565b9150613c8982614944565b604082019050919050565b6000613ca16038836143dd565b9150613cac82614993565b604082019050919050565b6000613cc4602a836143dd565b9150613ccf826149e2565b604082019050919050565b6000613ce76029836143dd565b9150613cf282614a31565b604082019050919050565b6000613d0a6020836143dd565b9150613d1582614a80565b602082019050919050565b6000613d2d602c836143dd565b9150613d3882614aa9565b604082019050919050565b6000613d506020836143dd565b9150613d5b82614af8565b602082019050919050565b6000613d73602f836143dd565b9150613d7e82614b21565b604082019050919050565b6000613d966021836143dd565b9150613da182614b70565b604082019050919050565b6000613db96018836143dd565b9150613dc482614bbf565b602082019050919050565b6000613ddc6031836143dd565b9150613de782614be8565b604082019050919050565b6000613dff601b836143dd565b9150613e0a82614c37565b602082019050919050565b6000613e22602c836143dd565b9150613e2d82614c60565b604082019050919050565b6000613e45602a836143dd565b9150613e5082614caf565b604082019050919050565b6000613e686030836143dd565b9150613e7382614cfe565b604082019050919050565b6000613e8b6019836143dd565b9150613e9682614d4d565b602082019050919050565b613eaa8161458a565b82525050565b613eb98161458a565b82525050565b6000613ecb8285613b4b565b9150613ed78284613b4b565b91508190509392505050565b6000602082019050613ef86000830184613a5d565b92915050565b6000608082019050613f136000830187613a5d565b613f206020830186613a5d565b613f2d6040830185613eb0565b8181036060830152613f3f8184613ad9565b905095945050505050565b6000604082019050613f5f6000830185613a5d565b613f6c6020830184613eb0565b9392505050565b60006020820190508181036000830152613f8d8184613a6c565b905092915050565b6000602082019050613faa6000830184613aca565b92915050565b60006020820190508181036000830152613fca8184613b12565b905092915050565b60006020820190508181036000830152613feb81613b7c565b9050919050565b6000602082019050818103600083015261400b81613b9f565b9050919050565b6000602082019050818103600083015261402b81613bc2565b9050919050565b6000602082019050818103600083015261404b81613be5565b9050919050565b6000602082019050818103600083015261406b81613c08565b9050919050565b6000602082019050818103600083015261408b81613c2b565b9050919050565b600060208201905081810360008301526140ab81613c4e565b9050919050565b600060208201905081810360008301526140cb81613c71565b9050919050565b600060208201905081810360008301526140eb81613c94565b9050919050565b6000602082019050818103600083015261410b81613cb7565b9050919050565b6000602082019050818103600083015261412b81613cda565b9050919050565b6000602082019050818103600083015261414b81613cfd565b9050919050565b6000602082019050818103600083015261416b81613d20565b9050919050565b6000602082019050818103600083015261418b81613d43565b9050919050565b600060208201905081810360008301526141ab81613d66565b9050919050565b600060208201905081810360008301526141cb81613d89565b9050919050565b600060208201905081810360008301526141eb81613dac565b9050919050565b6000602082019050818103600083015261420b81613dcf565b9050919050565b6000602082019050818103600083015261422b81613df2565b9050919050565b6000602082019050818103600083015261424b81613e15565b9050919050565b6000602082019050818103600083015261426b81613e38565b9050919050565b6000602082019050818103600083015261428b81613e5b565b9050919050565b600060208201905081810360008301526142ab81613e7e565b9050919050565b60006020820190506142c76000830184613eb0565b92915050565b60006040820190506142e26000830185613eb0565b6142ef6020830184613a5d565b9392505050565b6000614300614311565b905061430c8282614620565b919050565b6000604051905090565b600067ffffffffffffffff82111561433657614335614727565b5b61433f82614756565b9050602081019050919050565b600067ffffffffffffffff82111561436757614366614727565b5b61437082614756565b9050602081019050919050565b6000819050602082019050919050565b600081519050919050565b600081519050919050565b600081519050919050565b6000602082019050919050565b600082825260208201905092915050565b600082825260208201905092915050565b600082825260208201905092915050565b600081905092915050565b60006144048261458a565b915061440f8361458a565b9250827fffffffffffffffffffffffffffffffffffffffffffffffffffffffffffffffff038211156144445761444361469a565b5b828201905092915050565b600061445a8261458a565b91506144658361458a565b925082614475576144746146c9565b5b828204905092915050565b600061448b8261458a565b91506144968361458a565b9250817fffffffffffffffffffffffffffffffffffffffffffffffffffffffffffffffff04831182151516156144cf576144ce61469a565b5b828202905092915050565b60006144e58261458a565b91506144f08361458a565b9250828210156145035761450261469a565b5b828203905092915050565b60006145198261456a565b9050919050565b60008115159050919050565b60007fffffffff0000000000000000000000000000000000000000000000000000000082169050919050565b60006145638261450e565b9050919050565b600073ffffffffffffffffffffffffffffffffffffffff82169050919050565b6000819050919050565b60006bffffffffffffffffffffffff82169050919050565b82818337600083830152505050565b60005b838110156145d95780820151818401526020810190506145be565b838111156145e8576000848401525b50505050565b6000600282049050600182168061460657607f821691505b6020821081141561461a576146196146f8565b5b50919050565b61462982614756565b810181811067ffffffffffffffff8211171561464857614647614727565b5b80604052505050565b600061465c8261458a565b91507fffffffffffffffffffffffffffffffffffffffffffffffffffffffffffffffff82141561468f5761468e61469a565b5b600182019050919050565b7f4e487b7100000000000000000000000000000000000000000000000000000000600052601160045260246000fd5b7f4e487b7100000000000000000000000000000000000000000000000000000000600052601260045260246000fd5b7f4e487b7100000000000000000000000000000000000000000000000000000000600052602260045260246000fd5b7f4e487b7100000000000000000000000000000000000000000000000000000000600052604160045260246000fd5b6000601f19601f8301169050919050565b7f455243373231456e756d657261626c653a206f776e657220696e646578206f7560008201527f74206f6620626f756e6473000000000000000000000000000000000000000000602082015250565b7f4552433732313a207472616e7366657220746f206e6f6e20455243373231526560008201527f63656976657220696d706c656d656e7465720000000000000000000000000000602082015250565b7f4f776e61626c653a206e6577206f776e657220697320746865207a65726f206160008201527f6464726573730000000000000000000000000000000000000000000000000000602082015250565b7f4552433732313a207472616e736665722066726f6d20696e636f72726563742060008201527f6f776e6572000000000000000000000000000000000000000000000000000000602082015250565b7f4552433732313a20746f6b656e20616c7265616479206d696e74656400000000600082015250565b7f4552433732313a207472616e7366657220746f20746865207a65726f2061646460008201527f7265737300000000000000000000000000000000000000000000000000000000602082015250565b7f4552433732313a20617070726f766520746f2063616c6c657200000000000000600082015250565b7f4552433732313a206f70657261746f7220717565727920666f72206e6f6e657860008201527f697374656e7420746f6b656e0000000000000000000000000000000000000000602082015250565b7f4552433732313a20617070726f76652063616c6c6572206973206e6f74206f7760008201527f6e6572206e6f7220617070726f76656420666f7220616c6c0000000000000000602082015250565b7f4552433732313a2062616c616e636520717565727920666f7220746865207a6560008201527f726f206164647265737300000000000000000000000000000000000000000000602082015250565b7f4552433732313a206f776e657220717565727920666f72206e6f6e657869737460008201527f656e7420746f6b656e0000000000000000000000000000000000000000000000602082015250565b7f4552433732313a206d696e7420746f20746865207a65726f2061646472657373600082015250565b7f4552433732313a20617070726f76656420717565727920666f72206e6f6e657860008201527f697374656e7420746f6b656e0000000000000000000000000000000000000000602082015250565b7f4f776e61626c653a2063616c6c6572206973206e6f7420746865206f776e6572600082015250565b7f4552433732314d657461646174613a2055524920717565727920666f72206e6f60008201527f6e6578697374656e7420746f6b656e0000000000000000000000000000000000602082015250565b7f4552433732313a20617070726f76616c20746f2063757272656e74206f776e6560008201527f7200000000000000000000000000000000000000000000000000000000000000602082015250565b7f63616c6c6572206973206e6f7420617574686f72697a65640000000000000000600082015250565b7f4552433732313a207472616e736665722063616c6c6572206973206e6f74206f60008201527f776e6572206e6f7220617070726f766564000000000000000000000000000000602082015250565b7f455243323938313a20496e76616c696420706172616d65746572730000000000600082015250565b7f455243373231456e756d657261626c653a20676c6f62616c20696e646578206f60008201527f7574206f6620626f756e64730000000000000000000000000000000000000000602082015250565b7f455243323938313a20726f79616c7479206665652077696c6c2065786365656460008201527f2073616c65507269636500000000000000000000000000000000000000000000602082015250565b7f4552433732314275726e61626c653a2063616c6c6572206973206e6f74206f7760008201527f6e6572206e6f7220617070726f76656400000000000000000000000000000000602082015250565b7f455243323938313a20696e76616c696420726563656976657200000000000000600082015250565b614d7f8161450e565b8114614d8a57600080fd5b50565b614d9681614520565b8114614da157600080fd5b50565b614dad8161452c565b8114614db857600080fd5b50565b614dc481614558565b8114614dcf57600080fd5b50565b614ddb8161458a565b8114614de657600080fd5b50565b614df281614594565b8114614dfd57600080fd5b5056fea2646970667358221220f0d66bdda3dec8f4625b42bbeeecf272015c6c724f92ca6e2030908179af3a3564736f6c63430008040033",
  "linkReferences": {},
  "deployedLinkReferences": {}
}